:020000040800F2
:1000000000C0002019680008A9680008AB68000853
:10001000AD680008AF680008B16800080000000083
:10002000000000000000000000000000B3680008AD
:10003000B568000800000000B7680008B96800084B
:10004000616800086168000861680008616800086C
:10005000616800086168000861680008616800085C
:10006000616800086168000861680008616800084C
:10007000616800086168000861680008616800083C
:10008000616800086168000861680008616800082C
:10009000C1680008616800086168000861680008BC
:1000A00061680008D168000861680008616800089C
:1000B00061680008616800086168000861680008FC
:1000C00061680008616800086168000861680008EC
:1000D00061680008E168000861680008616800085C
:1000E00061680008616800086168000861680008CC
:1000F00061680008616800086168000861680008BC
:1001000061680008616800086168000861680008AB
:10011000F16800086168000801690008616800086A
:1001200061680008116900086168000861680008DA
:1001300000000000000000000000000000000000BF
:1001400000000000000000000000000000000000AF
:10015000000000000000000000000000000000009F
:10016000000000000000000000000000000000008F
:10017000000000000000000000000000000000007F
:10018000000000000000000000000000000000006F
:10019000000000000000000000000000000000005F
:1001A000000000000000000000000000000000004F
:1001B000000000000000000000000000000000003F
:1001C000000000000000000000000000000000002F
:1001D000000000000000000000000000000000001F
:0401E0005FF8E0F1F3
:1001E80010B5054C237833B9044B13B10448AFF369
:1001F80000800123237010BDC0090020000000000A
:10020800C0E8000808B5034B1BB103490348AFF326
:10021800008008BD00000000C4090020C0E80008F4
:1002280080F0004002E000BF81F0004142001FBFA3
:100238005FEA410392EA030F7FEA226C7FEA236CAC
:100248006AD04FEA1262D2EB1363C1BFD2184140A1
:1002580048404140B8BF5B42192B88BF704710F037
:10026800004F40F4000020F07F4018BF404211F0DA
:10027800004F41F4000121F07F4118BF494292EA42
:10028800030F3FD0A2F1010241FA03FC10EB0C006E
:10029800C3F1200301FA03F100F0004302D54942FB
:1002A80060EB4000B0F5000F13D3B0F1807F06D3A8
:1002B80040084FEA310102F10102FE2A51D2B1F1A0
:1002C800004F40EBC25008BF20F0010040EA030095
:1002D8007047490040EB0000013A28BFB0F5000F15
:1002E800EDD2B0FA80FCACF1080CB2EB0C0200FACB
:1002F8000CF0AABF00EBC25052421843BCBFD0401A
:100308001843704792F0000F81F4000106BF80F493
:1003180000000132013BB5E74FEA41037FEA226C56
:1003280018BF7FEA236C21D092EA030F04D092F021
:10033800000F08BF0846704790EA010F1CBF002055
:10034800704712F07F4F04D1400028BF40F00040B2
:10035800704712F100723CBF00F50000704700F0D2
:10036800004343F0FE4040F4000070477FEA2262F9
:1003780016BF08467FEA23630146420206BF5FEACA
:10038800412390EA010F40F4800070474FF00003CA
:1003980004E000BF10F0004348BF40425FEA000C91
:1003A80008BF704743F0964301464FF000001CE039
:1003B80050EA010208BF70474FF000030AE000BF8F
:1003C80050EA010208BF704711F0004302D54042CD
:1003D80061EB41015FEA010C02BF8446014600203F
:1003E80043F0B64308BFA3F18053A3F50003BCFA5A
:1003F8008CF2083AA3EBC25310DB01FA02FC634407
:1004080000FA02FCC2F12002BCF1004F20FA02F20D
:1004180043EB020008BF20F00100704702F1200200
:1004280001FA02FCC2F1200250EA4C0021FA02F261
:1004380043EB020008BF20EADC7070474FF0FF0C66
:100448001CEAD0521EBF1CEAD15392EA0C0F93EA61
:100458000C0F6FD01A4480EA010C400218BF5FEA03
:1004680041211ED04FF0006343EA501043EA511176
:10047800A0FB01310CF00040B1F5000F3EBF490070
:1004880041EAD3715B0040EA010062F17F02FD2A74
:100498001DD8B3F1004F40EBC25008BF20F0010057
:1004A800704790F0000F0CF0004C08BF49024CEA6E
:1004B800502040EA51207F3AC2BFD2F1FF0340EA00
:1004C800C250704740F400004FF00003013A5DDC71
:1004D80012F1190FDCBF00F000407047C2F10002B2
:1004E800410021FA02F1C2F1200200FA02FC5FEA9F
:1004F800310040F1000053EA4C0308BF20EADC70E9
:10050800704792F0000F00F0004C02BF400010F45A
:10051800000F013AF9D040EA0C0093F0000F01F007
:10052800004C02BF490011F4000F013BF9D041EA29
:100538000C018FE70CEAD15392EA0C0F18BF93EA2B
:100548000C0F0AD030F0004C18BF31F0004CD8D155
:1005580080EA010000F00040704790F0000F17BFDC
:1005680090F0004F084691F0000F91F0004F14D022
:1005780092EA0C0F01D142020FD193EA0C0F03D17A
:100588004B0218BF084608D180EA010000F000407D
:1005980040F0FE4040F40000704740F0FE4040F458
:1005A800400070474FF0FF0C1CEAD0521EBF1CEAF7
:1005B800D15392EA0C0F93EA0C0F69D0A2EB030215
:1005C80080EA010C49024FEA402037D04FF08053AF
:1005D80043EA111143EA10130CF000408B4238BF74
:1005E8005B0042F17D024FF4000C8B4224BF5B1A82
:1005F80040EA0C00B3EB510F24BFA3EB510340EAD0
:100608005C00B3EB910F24BFA3EB910340EA9C007D
:10061800B3EBD10F24BFA3EBD10340EADC001B01ED
:1006280018BF5FEA1C1CE0D1FD2A3FF650AF8B4291
:1006380040EBC25008BF20F0010070470CF0004C9E
:100648004CEA50207F32C2BFD2F1FF0340EAC250C9
:10065800704740F400004FF00003013A37E792F08A
:10066800000F00F0004C02BF400010F4000F013AE8
:10067800F9D040EA0C0093F0000F01F0004C02BFE3
:10068800490011F4000F013BF9D041EA0C0195E74C
:100698000CEAD15392EA0C0F08D142027FF47DAFE5
:1006A80093EA0C0F7FF470AF084676E793EA0C0FD5
:1006B80004D14B023FF44CAF08466EE730F0004CD3
:1006C80018BF31F0004CCAD130F000427FF45CAF63
:1006D80031F000437FF43CAF5FE700BF42000ED229
:1006E800B2F1FE4F0BD34FF09E03B3EB126209D465
:1006F8004FEA002343F0004323FA02F070474FF01B
:100708000000704712F1610F01D1420202D14FF08F
:10071800FF3070474FF00000704700BF844641EA41
:10072800000313F0030349D1403A23D30B68036055
:100738004B6843608B688360CB68C3600B69036157
:100748004B6943618B698361CB69C3610B6A03623F
:100758004B6A43628B6A8362CB6AC3620B6B036327
:100768004B6B43638B6B8363CB6BC363403040310C
:10077800403ADBD230320BD30B6803604B684360DE
:100788008B688360CB68C36010301031103AF3D2A5
:100798000C3205D351F8043B40F8043B043AF9D233
:1007A800043208D0D2071CBF11F8013B00F8013B06
:1007B80001D30B8803806046704700BF082A13D313
:1007C8008B07B1D010F00303AED0C3F10403D21AE3
:1007D800DB071CBF11F8013B00F8013BA4D331F83B
:1007E800023B20F8023B9FE7043AD9D3013A11F8BB
:1007F800013B00F8013BF9D20B7803704B7843704A
:100808008B7883706046704781F0004102E000BF3A
:1008180083F0004330B54FEA41044FEA430594EAB8
:10082800050F08BF90EA020F1FBF54EA000C55EAF3
:10083800020C7FEA645C7FEA655C00F0E2804FEAC4
:100848005454D4EB5555B8BF6D420CDD2C4480EAA6
:10085800020281EA030382EA000083EA010180EAD6
:10086800020281EA0303362D88BF30BD11F0004F24
:100878004FEA01314FF4801C4CEA113102D040425A
:1008880061EB410113F0004F4FEA03334CEA133395
:1008980002D0524263EB430394EA050F00F0A780AD
:1008A800A4F10104D5F1200E0DDB02FA0EFC22FAA8
:1008B80005F2801841F1000103FA0EF2801843FA9C
:1008C80005F359410EE0A5F120050EF1200E012A8D
:1008D80003FA0EFC28BF4CF0020C43FA05F3C018CB
:1008E80051EBE37101F0004507D54FF0000EDCF144
:1008F800000C7EEB00006EEB0101B1F5801F1BD3ED
:10090800B1F5001F0CD349085FEA30004FEA3C0CF0
:1009180004F101044FEA445212F5800F80F09A80E6
:10092800BCF1004F08BF5FEA500C50F1000041EBEA
:10093800045141EA050130BD5FEA4C0C404141EBEE
:100948000101013C28BFB1F5801FE9D291F0000FE9
:1009580004BF01460020B1FA81F308BF2033A3F198
:100968000B03B3F120020CDA0C3208DD02F1140C8F
:10097800C2F10C0201FA0CF021FA02F10CE002F1CA
:100988001402D8BFC2F1200C01FA02F120FA0CFCC3
:10099800DCBF41EA0C019040E41AA2BF01EB04510C
:1009A800294330BD6FEA04041F3C1CDA0C340EDC0A
:1009B80004F11404C4F1200220FA04F001FA02F34D
:1009C80040EA030021FA04F345EA030130BDC4F10B
:1009D8000C04C4F1200220FA02F001FA04F340EA00
:1009E8000300294630BD21FA04F0294630BD94F0B1
:1009F800000F83F4801306BF81F480110134013D98
:100A08004EE77FEA645C18BF7FEA655C29D094EA08
:100A1800050F08BF90EA020F05D054EA000C04BF86
:100A28001946104630BD91EA030F1EBF0021002071
:100A380030BD5FEA545C05D14000494128BF41F010
:100A4800004130BD14F580043CBF01F5801130BD74
:100A580001F0004545F0FE4141F470014FF00000FF
:100A680030BD7FEA645C1ABF194610467FEA655CB0
:100A78001CBF0B46024650EA013406BF52EA033552
:100A880091EA030F41F4002130BD00BF90F0000F40
:100A980004BF0021704730B54FF4806404F132047C
:100AA8004FF000054FF0000150E700BF90F0000F35
:100AB80004BF0021704730B54FF4806404F132045C
:100AC80010F0004548BF40424FF000013EE700BF2C
:100AD80042004FEAE2014FEA31014FEA02701FBFBC
:100AE80012F07F4393F07F4F81F06051704732F0EE
:100AF8007F4208BF704793F07F4F04BF41F4002145
:100B0800704730B54FF4607401F0004521F00041A2
:100B18001CE700BF50EA010208BF704730B54FF02C
:100B280000050AE050EA010208BF704730B511F02D
:100B3800004502D5404261EB41014FF4806404F165
:100B480032045FEA915C3FF4D8AE4FF003025FEAEB
:100B5800DC0C18BF03325FEADC0C18BF033202EB6F
:100B6800DC02C2F1200300FA03FC20FA02F001FAC9
:100B780003FE40EA0E0021FA02F11444BDE600BF6C
:100B880070B54FF0FF0C4CF4E06C1CEA11541DBF1B
:100B98001CEA135594EA0C0F95EA0C0F00F0DEF8E6
:100BA8002C4481EA030621EA4C5123EA4C5350EACB
:100BB800013518BF52EA033541F4801143F480131C
:100BC80038D0A0FB02CE4FF00005E1FB02E506F0AD
:100BD8000042E0FB03E54FF00006E1FB03569CF002
:100BE800000F18BF4EF0010EA4F1FF04B6F5007F08
:100BF80064F5407404D25FEA4E0E6D4146EB06067A
:100C080042EAC62141EA55514FEAC52040EA5E5002
:100C18004FEACE2EB4F1FD0C88BFBCF5E06F1ED8AC
:100C2800BEF1004F08BF5FEA500E50F1000041EBE3
:100C3800045170BD06F0004646EA010140EA020090
:100C480081EA0301B4EB5C04C2BFD4EB0C0541EAB2
:100C5800045170BD41F480114FF0000E013C00F3C7
:100C6800AB8014F1360FDEBF002001F0004170BDEB
:100C7800C4F10004203C35DA0C341BDC04F1140404
:100C8800C4F1200500FA05F320FA04F001FA05F290
:100C980040EA020001F0004221F0004110EBD3705D
:100CA80021FA04F642EB06015EEA430E08BF20EA89
:100CB800D37070BDC4F10C04C4F1200500FA04F32C
:100CC80020FA05F001FA04F240EA020001F00041BE
:100CD80010EBD37041F100015EEA430E08BF20EA31
:100CE800D37070BDC4F1200500FA05F24EEA020E79
:100CF80020FA04F301FA05F243EA020321FA04F0A8
:100D080001F0004121FA04F220EA020000EBD3705E
:100D18005EEA430E08BF20EAD37070BD94F0000F5E
:100D28000FD101F00046400041EB010111F4801F92
:100D380008BF013CF7D041EA060195F0000F18BF43
:100D4800704703F00046520043EB030313F4801F7F
:100D580008BF013DF7D043EA0603704794EA0C0F39
:100D68000CEA135518BF95EA0C0F0CD050EA41064F
:100D780018BF52EA4306D1D181EA030101F00041CC
:100D88004FF0000070BD50EA410606BF10461946F4
:100D980052EA430619D094EA0C0F02D150EA013600
:100DA80013D195EA0C0F05D152EA03361CBF104641
:100DB80019460AD181EA030101F0004141F0FE41E0
:100DC80041F470014FF0000070BD41F0FE4141F464
:100DD800780170BD70B54FF0FF0C4CF4E06C1CEA64
:100DE80011541DBF1CEA135594EA0C0F95EA0C0F19
:100DF80000F0A7F8A4EB050481EA030E52EA0335D4
:100E08004FEA013100F088804FEA03334FF08055F4
:100E180045EA131343EA12634FEA022245EA111521
:100E280045EA10654FEA00260EF000419D4208BFD2
:100E3800964244F1FD0404F5407402D25B084FEA7F
:100E48003202B61A65EB03055B084FEA32024FF42B
:100E580080104FF4002CB6EB020E75EB030E22BF88
:100E6800B61A754640EA0C005B084FEA3202B6EB48
:100E7800020E75EB030E22BFB61A754640EA5C00F7
:100E88005B084FEA3202B6EB020E75EB030E22BF87
:100E9800B61A754640EA9C005B084FEA3202B6EB88
:100EA800020E75EB030E22BFB61A754640EADC0047
:100EB80055EA060E18D04FEA051545EA16754FEAA9
:100EC80006164FEAC30343EA52734FEAC2025FEAC7
:100ED8001C1CC0D111F4801F0BD141EA00014FF056
:100EE80000004FF0004CB6E711F4801F04BF014327
:100EF8000020B4F1FD0C88BFBCF5E06F3FF6AFAE43
:100F0800B5EB030C04BFB6EB020C5FEA500C50F1D2
:100F1800000041EB045170BD0EF0004E4EEA113155
:100F280014EB5C04C2BFD4EB0C0541EA045170BD5C
:100F380041F480114FF0000E013C90E645EA060EA0
:100F48008DE60CEA135594EA0C0F08BF95EA0C0FCE
:100F58003FF43BAF94EA0C0F0AD150EA01347FF416
:100F680034AF95EA0C0F7FF425AF104619462CE7ED
:100F780095EA0C0F06D152EA03353FF4FDAE104650
:100F8800194622E750EA410618BF52EA43067FF4A1
:100F9800C5AE50EA41047FF40DAF52EA43057FF431
:100FA800EBAE12E74FF0FF3C06E000BF4FF0010C3C
:100FB80002E000BF4FF0010C4DF804CD4FEA410CA0
:100FC8007FEA6C5C4FEA430C18BF7FEA6C5C1BD06D
:100FD80001B050EA410C0CBF52EA430C91EA030FEE
:100FE80002BF90EA020F0020704710F1000F91EA4B
:100FF800030F58BF994208BF90422CBFD8176FEA19
:10100800E37040F0010070474FEA410C7FEA6C5CE6
:1010180002D150EA013C07D14FEA430C7FEA6C5CED
:10102800D6D152EA033CD3D05DF8040B704700BF19
:101038008446104662468C461946634600E000BF67
:1010480001B5FFF7B7FF002848BF10F1000F01BD39
:101058004DF808EDFFF7F4FF0CBF012000205DF804
:1010680008FB00BF4DF808EDFFF7EAFF34BF012089
:1010780000205DF808FB00BF4DF808EDFFF7E0FF22
:1010880094BF012000205DF808FB00BF4DF808ED73
:10109800FFF7CEFF94BF012000205DF808FB00BFDA
:1010A8004DF808EDFFF7C4FF34BF012000205DF8BC
:1010B80008FB00BF4FEA410C7FEA6C5C02D150EAA2
:1010C800013C0AD14FEA430C7FEA6C5C02D152EA38
:1010D800033C02D14FF0000070474FF00100704709
:1010E8004FEA410212F5001215D211D56FF4787348
:1010F800B3EB625212D94FEAC12343F0004343EAEB
:10110800505311F0004F23FA02F018BF40427047C5
:101118004FF00000704750EA013005D111F000404F
:1011280008BF6FF0004070474FF00000704700BFE5
:1011380053B94AB9002908BF00281CBF4FF0FF3136
:101148004FF0FF3000F076B9ADF1080C6DE904CE30
:1011580000F006F8DDF804E0DDE9022304B070478A
:101168002DE9F047089E0D4604468846002B4DD1D0
:101178008A42944668D9B2FA82F252B101FA02F36D
:10118800C2F1200120FA01F10CFA02FC41EA03083D
:1011980094404FEA1C41B8FBF1F71FFA8CFE01FBA3
:1011A800178807FB0EF0230C43EA084398420AD934
:1011B8001CEB030307F1FF3580F01E81984240F2D3
:1011C8001B81023F63441B1AB3FBF1F001FB103390
:1011D80000FB0EFEA4B244EA0344A6450AD91CEB60
:1011E800040400F1FF3380F00981A64540F206812E
:1011F800644402380021A4EB0E0440EA07401EB103
:101208000023D440C6E90043BDE8F0878B4208D9E3
:10121800002E00F0EE800021C6E900050846BDE872
:10122800F087B3FA83F100294AD1AB4202D3824254
:1012380000F2FC80841A65EB030301209846002E17
:10124800E2D0C6E90048DFE702B9FFDEB2FA82F26F
:10125800002A40F09180A1EB0C0001214FEA1C47C5
:101268001FFA8CFEB0FBF7F307FB1300250C45EAC9
:1012780000450EFB03F0A84208D91CEB050503F155
:10128800FF3802D2A84200F2CE8043462D1AB5FBA1
:10129800F7F007FB10550EFB00FEA4B244EA054424
:1012A800A64508D91CEB040400F1FF3502D2A64577
:1012B80000F2B6802846A4EB0E0440EA03409EE7FD
:1012C800C1F120078B4022FA07FC4CEA030C25FAEF
:1012D80007FA4FEA1C49BAFBF9F820FA07F309FBA9
:1012E80018AA8D401FFA8CFE1D4300FA01F308FB73
:1012F8000EF02C0C44EA0A44A04202FA01F20BD97F
:101308001CEB040408F1FF3A80F08880A04240F208
:101318008580A8F102086444241AB4FBF9F009FB9B
:10132800104400FB0EFEADB245EA0444A64508D9B8
:101338001CEB040400F1FF356CD2A6456AD90238CB
:10134800644440EA0840A0FB0295A4EB0E04AC42BA
:10135800C846AE4656D353D0002E69D0B3EB080228
:1013680064EB0E0422FA01F304FA07F71F43CC409A
:10137800C6E90074002147E70CFA02FCC2F120011B
:1013880025FA01F34FEA1C4720FA01F195400D4375
:10139800B3FBF7F107FB11331FFA8CFE280C40EA68
:1013A800034001FB0EF3834204FA02F408D91CEB54
:1013B800000001F1FF382FD283422DD90239604451
:1013C800C01AB0FBF7F307FB1300ADB245EA0045BE
:1013D80003FB0EF0A84208D91CEB050503F1FF3802
:1013E80016D2A84214D9023B6544281A43EA01419F
:1013F80038E73146304607E72F46E4E61846F9E66F
:101408004B45A9D2B9EB020865EB0C0E0138A3E7EE
:101418004346EAE7284694E74146D1E7D0467BE7CA
:101428006444023847E7023B65442FE7084606E76D
:101438003146E9E6704700BF10B504460E4B1878F0
:101448004FF47A73B3FBF0F30C4A1068B0FBF3F077
:1014580000F0F0FB68B90F2C01D901200AE0002246
:1014680021464FF0FF3000F09FFB054B1C60002029
:1014780000E0012010BD00BF000000200C0000208B
:101488000400002008B5074A136843F010031360EE
:10149800032000F077FB0F20FFF7CEFF05F0DEF901
:1014A800002008BD00200240034A1168034B1B7846
:1014B8000B441360704700BFDC09002000000020C7
:1014C800014B1868704700BFDC09002038B5044696
:1014D800FFF7F6FF0546B4F1FF3F02D0044B1B7837
:1014E8001C44FFF7EDFF401BA042FAD338BD00BFF4
:1014F80000000020002800F0A18038B5044690F8CC
:101508002030D3B12268136843F001031360FFF75A
:10151800D7FF054623685A6812F0010F10D1FFF76C
:10152800CFFF401B0A28F5D9636A43F4003363628E
:10153800052384F82030012038BD04F0D9FBE1E709
:101548001A6822F002021A60FFF7BAFF05462368FC
:101558005A6812F0020F0DD0FFF7B2FF401B0A289D
:10156800F5D9636A43F400336362052384F82030B5
:101578000120E1E7227E012A3DD01A6822F080028C
:101588001A60637E012B3BD02268136823F0400366
:101598001360A37E012B39D02268136823F020033F
:1015A8001360E37E012B37D02268136843F01003E1
:1015B8001360237F012B35D02268136823F00803BA
:1015C8001360637F012B33D02268136823F0040370
:1015D8001360A368E26813432269134362691343E3
:1015E8006268013A21681343CB61002060620123DD
:1015F80084F82030A0E71A6842F080021A60C0E739
:101608002268136843F040031360C2E72268136836
:1016180043F020031360C4E72268136823F0100323
:101628001360C6E72268136843F008031360C8E72D
:101638002268136843F004031360CAE70120704767
:10164800026890F82030013BDBB2012B05D9436AD0
:1016580043F4802343620120704710B5D2F800326A
:1016680043F00103C2F800324B6903F01F03012065
:1016780000FA03F3D2F81C026FEA030C20EA030015
:10168800C2F81C02C869C0B9D2F80C020CEA000002
:10169800C2F80C028C884869D1F80CE044EA0E4480
:1016A800483042F830400C884869D1F808E044EAEC
:1016B8000E44483002EBC0004460C86901281AD0C3
:1016C800886988BBD2F804020CEA0000C2F8040258
:1016D800086978BBD2F814020CEA0000C2F81402B8
:1016E800096A01292CD0D2F8003223F00103C2F88C
:1016F8000032002010BDD2F80C021843C2F80C02C8
:101708008C884869D1F800E044EA0E44483042F831
:1017180030408C894869D1F808E044EA0E444830E2
:1017280002EBC0004460CBE7D2F804021843C2F8C9
:101738000402CDE7D2F814021843C2F81402CFE726
:10174800D2F81C120B43C2F81C32CCE770B5044621
:1017580090F82050EDB2012D06D0436A43F40023DF
:1017680043620125284670BD022380F820300268B4
:10177800136823F001031360FFF7A2FE06462368EF
:101788005B6813F0010F0CD0FFF79AFE831B0A2B3E
:10179800F5D9636A43F400336362052384F8203083
:1017A800E0E700256562DDE790F820C00CF1FF3C1A
:1017B8005FFA8CFCBCF1010F00F29B8010B451B9A8
:1017C8000468E46814F0030F10D1436A43F400136B
:1017D800436201207BE00468246914F0030F05D1FB
:1017E800436A43F400134362012070E001F11B04D3
:1017F8002401D0F800C05CF8044004F004049460AC
:10180800002C66D101F11B042401D0F800C05CF85B
:101818000440640D1460046801F11B0C4FEA0C1CB1
:1018280054F80C4004F00204D4600468644464680A
:1018380004F00F041461046864446468C4F3072462
:101848009461046864446468240C5461026802EB7F
:101858000112D2F8B8211A70026802EB0112D2F80C
:10186800B821C2F307225A70026802EB0112D2F8BB
:10187800B821C2F307429A70026802EB0112D2F84B
:10188800B821120EDA70026802EB0112D2F8BC21FC
:101898001A71026802EB0112D2F8BC21C2F30722C6
:1018A8005A71026802EB0112D2F8BC21C2F3074256
:1018B8009A71026802EB0112D2F8BC21120EDA7199
:1018C80089B90268D36843F02003D360002010BCB4
:1018D800704701F11B042401D0F800C05CF80440F3
:1018E800E408546097E70268136943F02003136122
:1018F800ECE7436A43F4802343620120704790F881
:101908002030013BDBB2012B05D9436A43F4802325
:1019180043620120704702685369194351610020EE
:1019280070477047704770477047704770477047F7
:10193800704770477047704770472DE9F84F054664
:1019480003685C69D3F804809F68D3F80CB0D3F8B7
:1019580010A0D3F8189014F001063BD017F0010638
:1019680016D001229A6017F0020F08D117F0040F61
:101978000CD117F0080606D04FF4805608E0FFF7A0
:10198800D0FF002604E0FFF7CFFF01E04FF4006628
:1019980017F4807F0DD02B684FF480729A6017F48B
:1019A800007F40F0868017F4806F00F0868046F450
:1019B800005617F4803F0DD02B684FF480329A60A0
:1019C80017F4003F40F0838017F4802F00F08380E5
:1019D80046F4004614F0080F07D01BF0100F04D08F
:1019E80046F400762B681022DA6014F0040F02D057
:1019F8001BF0080F79D114F0020F04D02B68DB68B4
:101A080013F0030F78D114F0400F07D01AF0100F1D
:101A180004D046F480662B6810221A6114F0200F57
:101A280002D01AF0080F6BD114F0100F04D02B68F5
:101A38001B6913F0030F6AD114F4003F02D018F0A9
:101A4800100F68D114F4803F02D018F0080F69D144
:101A580014F4004F7AD018F0040F74D014F4807F77
:101A680004D019F0010F01D046F0010614F4007FEC
:101A780004D019F0020F01D046F0020614F4806F6A
:101A880004D019F0040F01D046F0040614F4006FD6
:101A980059D019F0700956D0B9F1400F65D058D80F
:101AA800B9F1200F5ED0B9F1300F42D146F02006CF
:101AB80044E02846FFF736FF7BE717F4006F02D0B3
:101AC80046F4804675E72846FFF72FFF71E728465A
:101AD800FFF729FF7EE717F4002F02D046F480367F
:101AE80078E72846FFF722FF74E72B680822DA60B8
:101AF8002846FFF71CFF7EE7284604F093F882E7A4
:101B08002B6808221A612846FFF713FF8CE728463E
:101B1800FFF70EFF90E72B6810225A602846FFF760
:101B280009FF8FE72B6808225A602846FFF703FF52
:101B38008EE7B9F1100F01D146F008062A689369BB
:101B480023F0700393612B6804225A609EB9BDE8A4
:101B5800F88FB9F1500F0BD0B9F1600FEED146F400
:101B68008076EBE746F01006E8E746F04006E5E742
:101B780046F08006E2E76B6A1E436E622846FFF76E
:101B8800DBFEE4E7074AD36823F4E0631B041B0C7D
:101B9800000200F4E060034343F0BF6343F4003302
:101BA800D360704700ED00E000B5194BDB68C3F364
:101BB8000223C3F1070CBCF1040F28BF4FF0040C3B
:101BC80003F1040EBEF1060F18D9033B4FF0FF3E98
:101BD8000EFA0CFC21EA0C0199400EFA03F322EAF2
:101BE8000303194300280BDB0901C9B200F1604067
:101BF80000F5614080F800135DF804FB0023E5E779
:101C080000F00F000901C9B2024B1954F4E700BFF4
:101C180000ED00E014ED00E0002807DB00F01F02F3
:101C2800400901239340024A42F82030704700BF20
:101C380000E100E00138B0F1807F0BD24FF0E023E3
:101C48005861054AF02182F8231000209861072284
:101C58001A6170470120704700ED00E030B401249C
:101C6800056CAC40C56B6C60046863604368102BFE
:101C780005D0036899600368DA6030BC7047036870
:101C88009A600368D960F8E700283AD010B4024691
:101C980000681D4B984229D81C4B03441C49A1FBE2
:101CA80003131B099B0013641A4BD363022382F8A6
:101CB8002130016821F47F5121F030015368946884
:101CC8002343D46823431469234354692343946901
:101CD8002343D46923430B4303600020906301230B
:101CE80082F8213082F8200010BC70470A4B034468
:101CF8000749A1FB03131B099B001364074BD3631C
:101D0800D4E70120704700BF07040240F8FFFDBF79
:101D1800CDCCCCCC00000240F8FBFDBF0004024053
:101D280038B5044690F82000012831D0012084F805
:101D3800200094F82100012804D0002384F82030E2
:101D4800022038BD022084F821000020A063256805
:101D5800286820F0010028602046FFF77FFFE36A2B
:101D68005BB12268136843F00E031360226813689E
:101D780043F0010313600020E3E72268136823F0AF
:101D8800040313602268136843F00A031360EDE745
:101D98000220D6E790F82130022B06D00423836373
:101DA800002380F82030012070470268136823F070
:101DB8000E0313600268136823F001031360036CB9
:101DC800C16B012202FA03F34B6080F82120002343
:101DD80080F820301846704708B590F82130022B5B
:101DE80003D004238363012008BD0268136823F02D
:101DF8000E0313600268136823F00103136003687D
:101E08004B4A93424ED9783A934224D014329342A3
:101E180030D0143293422FD0143293422FD0143240
:101E280093422FD0143293422FD0143293422FD0A2
:101E380002F5627293422ED0143293422DD014329E
:101E480093422CD01432934202D04FF4803203E0F4
:101E58004FF4805200E00122364B5A60012380F88B
:101E68002130002380F82030436B002B5ED0984748
:101E78000020B9E71022EFE74FF48072ECE74FF447
:101E88008052E9E74FF48032E6E74FF48012E3E747
:101E98004FF08072E0E70122DEE71022DCE74FF422
:101EA8008072D9E7244A934224D01432934225D031
:101EB8001432934224D01432934224D014329342E1
:101EC80024D01432934224D01432934224D002F501
:101ED8006272934223D01432934222D01432934236
:101EE80021D01432934202D04FF4803203E04FF4F1
:101EF800805200E00122114B5A60AFE71022FAE746
:101F08004FF48072F7E74FF48052F4E74FF48032D1
:101F1800F1E74FF48012EEE74FF08072EBE7012211
:101F2800E9E71022E7E74FF48072E4E700205BE777
:101F38008000024000040240080002400000024005
:101F480038B5C36B1A6804682568016C04238B4094
:101F5800134200F09B8015F0040F00F0978023686F
:101F680013F0200F03D1236823F0040323600368D0
:101F78009A4A934246D9783A934224D014329342EB
:101F880028D01432934227D01432934227D01432E7
:101F9800934227D01432934227D01432934227D049
:101FA80002F56272934226D01432934225D014323D
:101FB800934224D01432934202D04FF4802203E09B
:101FC8004FF4804200E00422854B5A60C36A03B193
:101FD800984738BD4022F7E74FF48062F4E74FF4A2
:101FE8008042F1E74FF48022EEE74FF48002EBE7FE
:101FF8004FF08062E8E70422E6E74022E4E74FF486
:102008008062E1E7774A934224D01432934225D084
:102018001432934224D01432934224D0143293427F
:1020280024D01432934224D01432934224D002F59F
:102038006272934223D01432934222D014329342D4
:1020480021D01432934202D04FF4802203E04FF49F
:10205800804200E00422644B5A60B7E74022FAE766
:102068004FF48062F7E74FF48042F4E74FF48022A0
:10207800F1E74FF48002EEE74FF08062EBE70422CD
:10208800E9E74022E7E74FF48062E4E702238B4068
:10209800134200F0AB8015F0020F00F0A780236810
:1020A80013F0200F06D1236823F00A0323600123CD
:1020B80080F821300368494A93424BD9783A9342D1
:1020C80024D0143293422DD0143293422CD014329F
:1020D80093422CD0143293422CD0143293422CD0F9
:1020E800143293422CD002F5627293422BD01432F0
:1020F80093422AD01432934229D01432934202D008
:102108004FF4003203E04FF4005200E00222344B57
:102118005A60002380F82030836A002B3FF459AFBF
:10212800984756E72022F2E74FF40072EFE74FF4A2
:102138000052ECE74FF40032E9E74FF40012E6E70B
:102148004FF00072E3E70222E1E72022DFE74FF4D5
:102158000072DCE7234A934224D01432934225D0FC
:102168001432934224D01432934224D0143293422E
:1021780024D01432934224D01432934224D002F54E
:102188006272934223D01432934222D01432934283
:1021980021D01432934202D04FF4003203E04FF4BE
:1021A800005200E00222104B5A60B2E72022FAE700
:1021B8004FF40072F7E74FF40052F4E74FF400329F
:1021C800F1E74FF40012EEE74FF00072EBE702225E
:1021D800E9E72022E7E74FF40072E4E780000240D5
:1021E800000402400800024000000240082303FAED
:1021F80001F111423FF4EDAE15F0080F3FF4E9AEDE
:10220800236823F00E032360026CC16B012303FAD9
:1022180002F24A60836380F82130002380F820307E
:10222800036B002B3FF4D5AE9847D2E670B582B069
:102238000024A446B0E0874DAA4210D007D9864DA5
:10224800AA420CD005F58035AA4208D013E0A5F5BE
:102258008015AA4203D005F57025AA4207D18A68DD
:10226800002A62D0012A5BD04361082403E0A5F567
:102278008015AA42F3D0BEF1FF0F58D80646BEF12A
:10228800FF0F56D84FEA8C0233680F25954023EA92
:10229800050304FA02F2134333604B6813F0805FBE
:1022A80078D06E4B9A6942F001029A619B6903F0FB
:1022B80001030193019B4FEA9C02951C684B53F85C
:1022C80025600CF003039D000F23AB4026EA0306AC
:1022D800644B984233D003F58063984200F09880AD
:1022E80003F58063984200F0958003F58063984277
:1022F80000F0928003F58063984200F08F8003F528
:102308008063984219D006231AE0CC68B3E7CC68FA
:102318000434B0E7CC680834ADE7CC680C34AAE7DD
:1023280003610824A7E70024A5E70424A3E7061D02
:10233800A5E7ACF108029200A6E7052300E0002318
:10234800AB4033430232464D45F822304B6813F414
:10235800803F65D0444A136843EA0E0313604B6814
:1023680013F4003F62D0404A536843EA0E035360B7
:102378004B6813F4801F5FD03B4A936843EA0E030F
:1023880093604B6813F4001F5CD0374AD36843EA64
:102398000E03D3600CF1010C0A6832FA0CF357D023
:1023A800012303FA0CF302EA030E33EA0202F1D125
:1023B8004A68122A3FF63FAF122A3FF65CAF01A5E2
:1023C80055F822F067220008132300081D2300088F
:1023D8002F2300087F2200087F2200087F220008A0
:1023E8007F2200087F2200087F2200087F22000841
:1023F8007F2200087F2200087F2200087F22000831
:102408007F2200087F2200081723000823230008E2
:10241800012395E7022393E7032391E704238FE73A
:10242800114A136823EA0E03136098E70E4A5368AB
:1024380023EA0E0353609BE70B4A936823EA0E03D3
:1024480093609EE7084AD36823EA0E03D360A1E7A6
:1024580002B070BD000022100000311000100240D0
:10246800000001400008014000040140836819424F
:1024780001D001207047002070470AB10161704700
:10248800090401617047C36801EA030221EA0301F4
:1024980041EA02410161704782B0084B1B68084A53
:1024A800A2FB03235B0A00FB03F3019300BF019B1C
:1024B8005A1E0192002BF9D102B070470C0000207F
:1024C800D34D6210002800F0F18170B582B0044647
:1024D800036813F0010F2CD0994B5B6803F00C03D1
:1024E800042B1DD0964B5B6803F00C03082B12D00D
:1024F8006368B3F5803F41D0002B55D103F1804389
:1025080003F504331A6822F480321A601A6822F438
:1025180080221A6037E08A4B5B6813F4803FE7D06B
:10252800874B1B6813F4003F03D06368002B00F04F
:10253800BF81236813F0020F75D0814B5B6813F0DD
:102548000C0F5FD07E4B5B6803F00C03082B54D054
:102558002369002B00F08A807A4B01221A60FEF76B
:10256800AFFF0546764B1B6813F0020F75D1FEF7D7
:10257800A7FF401B0228F5D903209EE1704A136883
:1025880043F480331360636843B3FEF799FF05464D
:102598006B4B1B6813F4003FCBD1FEF791FF401B38
:1025A8006428F5D9032088E1B3F5A02F09D0644B3E
:1025B8001A6822F480321A601A6822F480221A609B
:1025C800E1E703F18043A3F53C331A6842F4802223
:1025D8001A601A6842F480321A60D4E7FEF770FF76
:1025E8000546574B1B6813F4003FA2D0FEF768FF5F
:1025F800401B6428F5D903205FE1514B5B6813F455
:10260800803FA5D14E4B1B6813F0020F03D02369FE
:10261800012B40F04F814A4A136823F0F80361699F
:1026280043EAC1031360236813F0080F33D0A3698A
:10263800002B5CD0434B0122C3F88024FEF740FFF7
:1026480005463F4B5B6A13F0020F21D1FEF738FFB6
:10265800401B0228F5D903202FE1394A136823F0DB
:10266800F803616943EAC1031360DCE7354B0022D4
:102678001A60FEF725FF0546314B1B6813F0020F61
:10268800D1D0FEF71DFF401B0228F5D9032014E125
:102698000120FFF701FF236813F0040F00F0968074
:1026A800274BDB6913F0805F34D1254BDA6942F0A0
:1026B8008052DA61DB6903F080530193019B0125A5
:1026C800214B1B6813F4807F26D0E368012B3DD093
:1026D800002B53D103F1804303F504331A6A22F027
:1026E80001021A621A6A22F004021A6233E0154BD8
:1026F8000022C3F88024FEF7E3FE0546104B5B6A10
:1027080013F0020FC7D0FEF7DBFE401B0228F5D9F5
:102718000320D2E00025D3E70B4A136843F4807303
:102728001360FEF7CDFE0646074B1B6813F4807F47
:10273800CBD1FEF7C5FE801B6428F5D90320BCE089
:102748000010024000004242007000405F4A136AD5
:1027580043F001031362E36833B3FEF7B1FE0646A4
:102768005A4B1B6A13F0020F2FD1FEF7A9FE801BEC
:1027780041F288339842F3D903209EE0052B09D013
:10278800524B1A6A22F001021A621A6A22F00402F3
:102798001A62E0E74D4B1A6A42F004021A621A6A9A
:1027A80042F001021A62D6E7FEF78AFE0646474B58
:1027B8001B6A13F0020F08D0FEF782FE801B41F25D
:1027C80088339842F3D9032077E0E5B9E369002B11
:1027D80072D03E4A526802F00C02082A56D0022BE8
:1027E80017D03B4B00221A66FEF76AFE0446374BA9
:1027F8001B6813F0007F47D0FEF762FE001B02281B
:10280800F5D9032059E0314AD36923F08053D361C5
:10281800DCE72F4B00221A66FEF752FE05462B4BCB
:102828001B6813F0007F06D0FEF74AFE401B022803
:10283800F5D9032041E0236AB3F5803F1AD0234934
:102848004B6823F47413226A606A024313434B6093
:102858001F4B01221A66FEF733FE04461B4B1B680A
:1028680013F0007F0ED1FEF72BFE001B0228F5D9CE
:10287800032022E0154A536823F40033A1680B4370
:102888005360DCE7002018E0002016E0012B16D08A
:102898000E4B5B6803F48031226A914211D103F434
:1028A8007013626A93420ED1002006E0012070473F
:1028B800012002E0012000E0002002B070BD0120EC
:1028C800FBE70120F9E70120F7E700BF001002400D
:1028D8000000424286B0194B0FCB0DF1180C0CE9E1
:1028E8000F0040F20123ADF80430154B5A6802F08E
:1028F8000C03042B1CD0082B1CD1C2F383431833C0
:102908006B4413F8100C12F4803F0DD00C4B5B682D
:10291800C3F3404318336B4413F8143C094A02FBD1
:1029280000F0B0FBF3F006E0074B03FB00F002E019
:10293800044800E0054806B0704700BFD8E8000822
:1029480000100240001BB70000093D0000127A0089
:10295800002800F0A08070B50D460446524B1B6855
:1029680003F007038B420BD24F4A136823F0070387
:102978000B431360136803F007038B4240F08D800C
:10298800236813F0020F17D013F0040F04D0474A3E
:10299800536843F4E0635360236813F0080F04D0CE
:1029A800424A536843F460535360404A536823F0E3
:1029B800F003A1680B435360236813F0010F31D073
:1029C8006368012B20D0022B25D0384A126812F0F8
:1029D800020F64D035494A6822F0030213434B6062
:1029E800FEF76EFD0646314B5B6803F00C03626828
:1029F800B3EB820F16D0FEF763FD801B41F28833DC
:102A08009842F0D9032045E0284A126812F4003FA2
:102A1800E0D101203EE0254A126812F0007FD9D1AA
:102A2800012037E0204B1B6803F00703AB420AD9AB
:102A38001D4A136823F007032B431360136803F040
:102A48000703AB422DD1236813F0040F06D0174AB1
:102A5800536823F4E063E1680B435360236813F081
:102A6800080F07D0114A536823F46053216943EAD9
:102A7800C1035360FFF72EFF0C4B5B68C3F30313CE
:102A88000B4AD35CD8400B4B18600B4B1868FEF709
:102A9800D3FC002070BD012070470120FAE7012017
:102AA800F8E70120F6E700BF0020024000100240CE
:102AB800A0EE00080C00002004000020014B18685C
:102AC800704700BF0C00002008B5FFF7F7FF044B64
:102AD8005B68C3F30223034AD35CD84008BD00BF38
:102AE80000100240B0EE000808B5FFF7E7FF044BFE
:102AF8005B68C3F3C223034AD35CD84008BD00BF58
:102B080000100240B0EE00082DE9F04782B00546FB
:102B1800884617461E46FEF7D3FC0A9B1B1A03EB92
:102B28000609FEF7CDFC82462B4B1B68C3F3CB335B
:102B380009FB03F301932B689C6838EA04030CBF74
:102B48004FF0010C4FF0000CBC4540D0B6F1FF3FF0
:102B5800F1D0FEF7B5FCA0EB0A0048450AD2B9F15E
:102B6800000F07D0019A02B14A46019B013B01932D
:102B78009146E0E72A68536823F0E00353606B68E6
:102B8800B3F5827F0BD0AB6AB3F5005F14D0012395
:102B980085F85130002385F85030032018E0AB68E1
:102BA800B3F5004F02D0B3F5806FECD12A681368F3
:102BB80023F040031360E6E72A68136823F4005300
:102BC80013602A68136843F400531360DFE700209A
:102BD80002B0BDE8F08700BF0C00002010B582B03D
:102BE80004460B46009200228021FFF78DFF08B9AA
:102BF80002B010BD636D43F0200363650320F7E75F
:102C080010B582B004460B464168B1F5827F10D0FA
:102C18006168B1F5827F03D1A168B1F5806F15D0E5
:102C28000092002280212046FFF76EFFE0B902B033
:102C380010BD8168B1F5004F02D0B1F5806FE7D1C2
:102C48002068016821F040010160E1E7009200225C
:102C580001212046FFF758FF0028E8D0636D43F0B4
:102C6800200363650320E2E7636D43F02003636597
:102C78000320DCE7002856D010B50446436A33B970
:102C88004368B3F5827F05D00023C36102E00023C7
:102C9800036143610023A36294F85130002B3CD0B8
:102CA800022384F851302268136823F0400313602C
:102CB800636803F48273A26802F404421343E2686F
:102CC80002F400621343226902F0020213436269AC
:102CD80002F001021343A26902F400721343E2698D
:102CE80002F038021343226A02F080021343A26AF8
:102CF80002F40052216813430B60638B226803F0CF
:102D0800040353602268D36923F40063D36100206D
:102D18006065012384F8513010BD84F85030204696
:102D280003F024F9BCE7012070472DE9F04383B094
:102D38001D4690F85030012B00F0D180044688469B
:102D48009146012380F85030FEF7BAFB074694F805
:102D58005160F6B2012E40F0AF80B8F1000F00F0DC
:102D6800AC80B9F1000F00F0A880032384F851303B
:102D780000236365C4F83080A4F83490A4F8369032
:102D8800A363A387E38763642364A368B3F5004F51
:102D98001ED023681A6812F0400F03D11A6842F057
:102DA80040021A60E368B3F5006F1CD0636813B182
:102DB800B9F1010F52D1226B236812781A73236B71
:102DC80001332363E38E9BB2013B9BB2E38645E06C
:102DD8002268136823F0400313602268136843F4E1
:102DE80080431360D5E7636813B1B9F1010F16D1B9
:102DF800226B23681288DA60236B02332363E38E25
:102E08009BB2013B9BB2E38609E0FEF759FBC01B6E
:102E1800A84202D3B5F1FF3F59D1002D59D0E38E16
:102E28009BB2002B33D023689A6812F0020FECD0C3
:102E3800226B1288DA60236B02332363E38E9BB222
:102E4800013B9BB2E386EAE7FEF73AFBC01BA842C8
:102E580002D3B5F1FF3F3ED1002D3ED0E38E9BB2A9
:102E6800ABB123689A6812F0020FEDD0226B12788A
:102E78001A73236B01332363B4F836C01FFA8CFC32
:102E88000CF1FF3C1FFA8CFCA4F836C0E6E73A4682
:102E980029462046FFF7A2FE08B120236365A368F0
:102EA80033B901932368DA6801929B680193019B07
:102EB800636D13B9002600E00226012384F851301F
:102EC800002384F85030304603B0BDE8F083032671
:102ED800F3E70326F1E70326EFE70326EDE70226EB
:102EE800F1E72DE9F04383B01F460A9D90F8503072
:102EF800012B00F01081044688469146012380F892
:102F08005030FEF7DDFA064694F85130DBB26268BD
:102F1800012B0AD0B2F5827F40F0E380A268002A34
:102F280040F0E980042B40F0E880B8F1000F00F091
:102F3800E680B9F1000F00F0E480002F00F0E38094
:102F480094F85130DBB2042B02D0052384F85130B9
:102F580000236365C4F83890E787A787C4F83080F2
:102F6800E786A7862364636423681A6812F0400F13
:102F780003D11A6842F040021A60E368B3F5006FA3
:102F880011D063680BB1012F0BD1226B2368127823
:102F98001A73236B01332363E38E9BB2013B9BB20D
:102FA800E38601276BE063680BB1012F0BD1226B1D
:102FB80023681288DA60236B02332363E38E9BB2A3
:102FC800013B9BB2E38601271CE023689A6812F054
:102FD800010F0ED0E28F92B25AB1DA68A36B1A8051
:102FE800A36B0233A363E38F9BB2013B9BB2E387DE
:102FF8000127FEF765FA801BA84203D3B5F1FF3F0E
:1030080040F08380E38E9BB21BB9E38F9BB2002B09
:1030180053D023689A6812F0020FD6D0E28E92B28B
:10302800002AD2D0002FD0D0226B1288DA60236B0E
:1030380002332363E38E9BB2013B9BB2E3860027F6
:10304800C3E723689A6812F0010F0ED0E28F92B29C
:103058005AB1DA68A36B1A70A36B0133A363E38FC9
:103068009BB2013B9BB2E3870127FEF729FA831B3A
:10307800AB4202D3B5F1FF3F49D1002D49D0E38ED1
:103088009BB213B9E38F9BB2BBB123689A6812F065
:10309800020FD6D0E28E92B2002AD2D0002FD0D022
:1030A800226B12781A73236B01332363E38E9BB26E
:1030B800013B9BB2E3860027C3E7324629462046F8
:1030C800FFF78CFD48B9A36863B901932368DA68F0
:1030D80001929B680193019B04E020236365012012
:1030E80000E00220012384F85130002384F8503096
:1030F80003B0BDE8F0830220F4E70220F2E70120E4
:10310800F0E70120EEE70120ECE70320EAE70320DF
:10311800E8E70320E6E70220EAE72DE9F04383B079
:103128000446884691461D464068B0F5827F38D0EF
:1031380094F85030012B00F0AE80012384F8503011
:10314800FEF7BEF9074694F85160F6B2012E40F03A
:103158008F80B8F1000F00F08C80B9F1000F00F0FB
:103168008880042384F8513000236365C4F83880CC
:10317800A4F83C90A4F83E902363A386E3862364D6
:103188006364A368B3F5004F19D023681A6812F076
:10319800400F03D11A6842F040021A60E3681BB37B
:1031A80041E0A368002BC3D1042384F85130009573
:1031B80013460A462046FFF794FE06465FE022685B
:1031C800136823F0400313602268136823F48043D4
:1031D8001360DAE7FEF774F9C01BA84202D3B5F111
:1031E800FF3F50D1002D50D0E38F9BB2002B33D03E
:1031F80023689A6812F0010FECD0A26B1B7B137046
:10320800A36B0133A363E38F9BB2013B9BB2E387BC
:10321800EAE7FEF755F9C01BA84202D3B5F1FF3F14
:1032280035D1002D35D0E38F9BB2ABB123689A68B6
:1032380012F0010FEDD0DA68A36B1A80A36B02338A
:10324800A363B4F83EC01FFA8CFC0CF1FF3C1FFAD4
:103258008CFCA4F83EC0E6E73A4629462046FFF72C
:10326800CFFC08B120236365636D13B9002600E025
:103278000226012384F85130002384F85030304668
:1032880003B0BDE8F0830326F3E70326F1E703263E
:10329800EFE70326EDE70226F1E7000038B590F8DE
:1032A8005030012B61D00446012380F8503090F84B
:1032B8005150EDB29D4252D1002951D0002A4FD031
:1032C800032380F851300023436501638286C28658
:1032D8008363436403648387C3878368B3F5004FBC
:1032E8002AD0A36C224ADA62A36C224A9A62A36C9F
:1032F800214A1A63A36C00225A632268E38E9BB2A8
:103308000C32216BA06CFEF70BFD0146F8B923685F
:103318001A6812F0400F03D11A6842F040021A608E
:103328002268536843F0200353602268536843F0CF
:10333800020353600D4613E00268136823F040034C
:1033480013600268136843F480431360C9E7636D30
:1033580043F010036365012384F8513000E002252F
:10336800002384F85030284638BD0225FBE700BF0B
:1033780089330008B7330008953300087047704751
:1033880008B5406AFFF7FBFF08BD704708B5406AFB
:103398000268536823F003035360436D43F010033E
:1033A8004365012380F85130FFF7EFFF08BD30B5C2
:1033B80083B00546446AFEF783F82B681B6813F050
:1033C800200F23D1024621684B6823F020034B606D
:1033D80021684B6823F002034B6064212046FFF705
:1033E800FDFB18B1636D43F020036365A36833B92F
:1033F80001932368DA6801929B680193019B00237B
:10340800E386012384F85130636D23B92046FFF722
:10341800B5FF03B030BD2046FFF7B7FFF9E700005E
:1034280030B4036A23F001030362036A42688469C3
:1034380024F073040D682C4323F0020C8B6843EAD4
:103448000C03104DA84203D005F50065A84205D12C
:1034580023F00803CD682B4323F00403094DA84249
:1034680003D005F50065A84205D122F440724D69E4
:103478002A438D692A43426084614A684263036231
:1034880030BC7047002C014030B4036A23F48073C9
:103498000362036A4268C46924F0730C0C6844EA46
:1034A8000C0523F400738C6843EA0423114CA042F2
:1034B80003D004F50064A04206D123F40063CC686D
:1034C80043EA042323F480630A4CA04203D004F5A2
:1034D8000064A04207D122F440524C6942EA041227
:1034E8008C6942EA04124260C5614A68C263036299
:1034F80030BC7047002C014030B4036A23F4805379
:103508000362036A4468C26922F4E6420D6842EA2B
:10351800052223F400538D6843EA0533094DA84278
:1035280003D005F50065A84204D124F480444D6910
:1035380044EA85144460C2614A680264036230BC8C
:10354800704700BF002C014010B4036A046A24F0DD
:1035580001040462846924F0F00C4CEA021223F09E
:103568000A030B438261036210BC704710B4046AFB
:1035780024F0100404628469036A24F4704C4CEA51
:10358800023223F0A00343EA01138261036210BCF4
:103598007047836823F070030B4343F0070383608D
:1035A8007047000090F83D30DBB2012B2FD1022389
:1035B80080F83D300268D36843F00103D3600368A4
:1035C800154A934218D002F50062934214D0B3F121
:1035D800804F11D0A2F5983293420DD002F5806247
:1035E800934209D002F58062934205D01A6842F0EE
:1035F80001021A60002070479A6802F00702062A42
:1036080007D01A6842F001021A60002070470120B2
:1036180070470020704700BF002C0140704770477A
:103628007047704710B5044603681A6912F0020F14
:1036380011D0DA6812F0020F0DD06FF002021A6191
:103648000123037703689B6913F0030F70D0FFF71A
:10365800E6FF0023237723681A6912F0040F12D0BB
:10366800DA6812F0040F0ED06FF004021A61022318
:10367800237723689B6913F4407F5FD02046FFF7C8
:10368800CEFF0023237723681A6912F0080F12D09F
:10369800DA6812F0080F0ED06FF008021A610423DE
:1036A80023772368DB6913F0030F4ED02046FFF71A
:1036B800B6FF0023237723681A6912F0100F12D07F
:1036C800DA6812F0100F0ED06FF010021A6108239A
:1036D80023772368DB6913F4407F3DD02046FFF74A
:1036E8009EFF0023237723681A6912F0010F03D085
:1036F800DA6812F0010F36D123681A6912F0800FC8
:1037080003D0DA6812F0800F34D123681A6912F0F6
:10371800400F03D0DA6812F0400F32D123681A69DB
:1037280012F0200F03D0DA6812F0200F30D110BD4C
:10373800FFF774FF2046FFF773FF8AE72046FFF77D
:103748006DFF2046FFF76CFF9BE72046FFF766FFFB
:103758002046FFF765FFACE72046FFF75FFF2046EE
:10376800FFF75EFFBDE76FF001021A61204602F025
:10377800BDFEC1E76FF080021A61204600F095FA9D
:10378800C3E76FF040021A612046FFF74AFFC5E71A
:103798006FF020021A61204600F086FAC7E70000A1
:1037A8000368244A904212D002F5006290420ED07B
:1037B800B0F1804F0BD0A2F59832904207D002F5B5
:1037C8008062904203D002F58062904203D123F0D8
:1037D80070034A681343174A904212D002F50062F8
:1037E80090420ED0B0F1804F0BD0A2F598329042A3
:1037F80007D002F58062904203D002F580629042C1
:1038080003D123F44073CA68134323F080034A6941
:10381800134303608B68C3620B688362054B98424D
:1038280003D003F50063984201D10B6903630123B8
:1038380043617047002C014040B310B5044690F82E
:103848003D30F3B1022384F83D30214651F8040B92
:10385800FFF7A6FF012384F8463084F83E3084F849
:103868003F3084F8403084F8413084F8423084F89E
:10387800433084F8443084F8453084F83D300020E3
:1038880010BD80F83C3002F08DFCDBE7012070476A
:1038980040B310B5044690F83D30F3B1022384F8E4
:1038A8003D30214651F8040BFFF77AFF012384F8D5
:1038B800463084F83E3084F83F3084F8403084F84D
:1038C800413084F8423084F8433084F8443084F836
:1038D800453084F83D30002010BD80F83C3002F0BF
:1038E80099FCDBE70120704730B4036A23F010032A
:1038F8000362036A4468826922F4E6420D6842EA78
:10390800052223F020038D6843EA0513114DA842D0
:1039180003D005F50065A84206D123F08003CD68E1
:1039280043EA051323F040030A4DA84203D005F5E6
:103938000065A84207D124F440644D6944EA85042F
:103948008D6944EA8504446082614A68826303623F
:1039580030BC7047002C014038B590F83C30012B42
:1039680060D004460D46012380F83C300C2A1AD852
:10397800DFE802F0071919191D1919193119191950
:1039880044000068FFF74CFD2268936943F0080380
:1039980093612268936923F0040393612268936911
:1039A80029690B439361002084F83C0038BD006806
:1039B800FFF79AFF2268936943F4006393612268D2
:1039C800936923F48063936122689369296943EAC0
:1039D80001239361E7E70068FFF756FD2268D36982
:1039E80043F00803D3612268D36923F00403D36149
:1039F8002268D36929690B43D361D4E70068FFF7CC
:103A08007BFD2268D36943F40063D3612268D369DC
:103A180023F48063D3612268D369296943EA0123C7
:103A2800D361C0E70220C1E710B4846824F47F4C56
:103A380042EA03220A4342EA0C02826010BC704741
:103A480090F83C30012B66D010B50446012380F86D
:103A58003C30022380F83D300268936823F47F43AA
:103A680023F0770393600B68602B40D022D8402B5B
:103A780047D00BD9502B0ED1CA6849680068FFF7A8
:103A880063FD50212068FFF784FD04E0202B0CD053
:103A980008D9302B09D0012384F83D30002084F860
:103AA8003C0010BD0BB1102BF5D119462068FFF76B
:103AB80070FDF0E7702B0ED0B3F5005FEBD1CB684B
:103AC8004A6889680068FFF7AFFF2268936843F483
:103AD80080439360DFE7CB684A6889680068FFF72E
:103AE800A3FF2268936843F077039360D3E7CA681B
:103AF80049680068FFF73AFD60212068FFF749FD33
:103B0800C9E7CA6849680068FFF71EFD40212068B8
:103B1800FFF73FFDBFE70220704701F01F010123B7
:103B280003FA01FC036A23EA0C030362036A02FA3C
:103B380001F10B430362704710B50446084600299B
:103B48003AD194F83E30DBB2013B18BF0123002B79
:103B580066D1002849D1022384F83E30012201466B
:103B68002068FFF7DAFF23682F4A934203D002F553
:103B78000062934203D15A6C42F400425A642368AB
:103B8800294A934241D002F5006293423DD0B3F1F5
:103B9800804F3AD0A2F59832934236D002F580622F
:103BA800934232D002F5806293422ED01A6842F0D6
:103BB80001021A60002032E0042908D008290DD03B
:103BC80094F84130DBB2013B18BF0123BFE794F8FA
:103BD8003F30DBB2013B18BF0123B8E794F840300F
:103BE800DBB2013B18BF0123B1E7042805D0082840
:103BF80007D0022384F84130B0E7022384F83F302D
:103C0800ACE7022384F84030A8E79A6802F007027C
:103C1800062A07D01A6842F001021A60002010BD77
:103C28000120FCE70020FAE7002C014090F83C3026
:103C3800012B34D010B4012380F83C30022380F8E3
:103C48003D3003685A689C6822F0700C0A6842EAA2
:103C58000C025A600368134A934212D002F50062BC
:103C680093420ED0B3F1804F0BD0A2F59832934215
:103C780007D002F58062934203D002F58062934236
:103C880004D124F080044A6814439C60012380F81E
:103C98003D30002380F83C30184610BC70470220A5
:103CA800704700BF002C0140704770470268D36816
:103CB80023F49073D3600268536923F001035361BE
:103CC800036B012B05D0202380F83E3000230363CB
:103CD80070470268D36823F01003D360F3E790F8C5
:103CE8003D30DBB2212B01D0022070478368B3F549
:103CF800805F17D0036A5A1C02621A7803685A60F8
:103D0800C38C9BB2013B9BB2C3844BB90268D36896
:103D180023F08003D3600268D36843F04003D36084
:103D2800002070470369002BE4D1036A1B880268EE
:103D3800C3F308035360036A02330362E0E7000039
:103D480010B504460268136923F44053C1680B4355
:103D5800136183680269134342691A430168CB6897
:103D680023F4B05323F00C031343CB600268536968
:103D780023F4407381690B4353610268134B9A42E1
:103D880020D0FEF7A1FE024602EB820202EB82027D
:103D980063689B00B2FBF3F20D48A0FB02314909AE
:103DA800642303FB11231B013233A0FB03235B09AC
:103DB80003F0F00202EB011203F00F032168134431
:103DC8008B6010BDFEF790FE0246DDE7003801402B
:103DD8001F85EB512DE9F84305460F4616469946CF
:103DE800DDF820802C68246837EA04030CBF4FF004
:103DF800010C4FF0000CB4451FD1B8F1FF3FF1D0D2
:103E0800B8F1000F05D0FDF75BFBA0EB09004045BA
:103E1800E8D92A68D36823F4D073D3602A68536931
:103E280023F001035361202385F83D3085F83E30A7
:103E3800002385F83C30032000E00020BDE8F8832B
:103E480058B310B5044690F83D300BB3242384F8DA
:103E58003D302268D36823F40053D3602046FFF72F
:103E68006FFF2268136923F4904313612268536932
:103E780023F02A0353612268D36843F40053D360C4
:103E880000202064202384F83D3084F83E3010BDA3
:103E980080F83C3002F074FAD8E7012070472DE929
:103EA800F04182B01E4690F83D30DBB2202B54D151
:103EB80004460D469046002953D0002A53D090F866
:103EC8003C30012B51D0012380F83C30002303649F
:103ED800212380F83D30FDF7F3FA0746A4F8248043
:103EE800A4F82680A368B3F5805F05D04FF00008DA
:103EF800002384F83C3012E0236913B14FF0000826
:103F0800F6E7A8460025F3E738F8023B2268C3F332
:103F180008035360E28C92B2013A92B2E284E38CD5
:103F28009BB273B100963B46002280212046FFF7E2
:103F380051FFE0B9002DE7D015F8012B23685A602E
:103F4800E8E700963B46002240212046FFF742FF63
:103F580078B9202384F83D3000E0022002B0BDE8A3
:103F6800F0810120FAE70120F8E70220F6E70320B4
:103F7800F4E70320F2E72DE9F04182B01E4690F8FD
:103F88003E30DBB2202B5CD104460D46904600291A
:103F98005BD0002A5BD090F83C30012B59D001232C
:103FA80080F83C3000230364222280F83E2003631B
:103FB800FDF786FA0746A4F82C80A4F82E80A3689B
:103FC800B3F5805F05D04FF00008002384F83C303B
:103FD80017E0236913B14FF00008F6E7A84600255B
:103FE800F3E723685B68C3F3080328F8023B03E0A0
:103FF80023685B682B700135E28D92B2013A92B268
:10400800E285E38D9BB2BBB100963B46002220219E
:104018002046FFF7DFFEF0B9002DE2D0A368B3F524
:10402800805FE5D013B92369002BE1D023685B6872
:1040380003F07F032B70DEE7202384F83E30002056
:1040480000E0022002B0BDE8F0810120FAE701207B
:10405800F8E70220F6E70320F4E7704708B501689F
:10406800CA6822F04002CA60202280F83D20FFF78B
:10407800F4FF002008BD704708B5406A0023C385D7
:10408800C384FFF7F8FF08BD704790F83E30DBB2F5
:10409800222B60D18368B3F5805F46D0826AB3F57E
:1040A800805F04D0002B4DD10369002B4AD10368EF
:1040B8005B681370836A01338362C38D9BB2013BD3
:1040C8009BB2C385002B48D100B583B00268D36882
:1040D80023F02003D3600268D36823F48073D3608D
:1040E8000268536923F001035361202380F83E30AE
:1040F800036B012B2CD1002303630268D36823F0E0
:104108001003D36003681A6812F0100F06D000225B
:1041180001921A6801925B680193019B818DFFF7F8
:10412800B3FF002003B05DF804FB0269002AB5D193
:10413800826A03685B68C3F308031380836A0233E7
:104148008362BAE703685B6803F07F031370B1E723
:1041580002F094F9E5E7022070470020704700005C
:1041680030B583B0044602681368D068516913F00B
:104178000F0505D113F0200F02D010F0200F19D130
:104188002DB111F0010119D110F4907F16D1216BD6
:10419800012975D013F0800F03D010F0800F40F084
:1041A800D78013F0400F03D010F0400F40F0D480B8
:1041B80003B030BD2046FFF768FFF9E713F0010FA1
:1041C80006D010F4807F03D0226C42F001022264F2
:1041D80013F0040F04D019B1226C42F002022264D9
:1041E80013F0020F04D019B1226C42F004022264C9
:1041F80013F0080F07D010F0200F00D119B1226C6E
:1042080042F008022264226C002AD1D013F0200F59
:1042180002D010F0200F21D123685B6903F040031E
:10422800226C12F0080F00D123B32046FFF73EFDA1
:1042380023685A6912F0400F18D05A6922F04002D8
:104248005A61A36B73B1464A5A63A06BFDF7C4FD6C
:104258000028ADD0A06B436B9847A9E72046FFF72D
:1042680014FFD9E72046FFF706FFA1E72046FFF72E
:1042780002FF9DE72046FFF7FEFE0023236497E731
:1042880013F0100F86D010F0100F83D00023019385
:104298001368019353680193019B536913F0400F0E
:1042A80032D0A16B0B685B689BB2002B80D0A08DCD
:1042B80098427FF67DAFE3858B69202B08D1A18DCD
:1042C800E38D9BB2C91A89B22046FFF7DDFE6FE77E
:1042D800D36823F48073D3602268536923F0010301
:1042E80053612268536923F040035361202384F803
:1042F8003E30002323632268D36823F01003D36081
:10430800A06BFDF747FDDAE7A18DE38D9BB2C91AD3
:1043180089B2E38D9BB2002B3FF44AAF00293FF4EA
:1043280047AFD36823F49073D3602268536923F0AE
:1043380001035361202384F83E300023236322685D
:10434800D36823F01003D3602046FFF79DFE2FE7C4
:104358002046FFF7C4FC2BE72046FFF77FFE27E740
:1043680081400008034681628285C2850020186466
:10437800222283F83E2083F83C001968CA6842F478
:104388008072CA6019684A6942F001024A611A6873
:10439800D36843F02003D360704708B590F83E30E7
:1043A800DBB2202B0DD171B17AB190F83C30012BE2
:1043B8000DD0012380F83C3000230363FFF7D2FFC0
:1043C80000E0022008BD0120FCE70120FAE70220F6
:1043D800F8E7000008B500F01FFB042000F0C2FA5F
:1043E800002306E00B4A4FF6FF7122F81310013341
:1043F8009BB245F243229342F4D99F237F220021A6
:10440800084600F081FA4FF4204202490248FEF7BC
:1044180045FF08BDE0090020F4AC00202DE9F0417B
:104428001C46069DA2F1200303EB4303204A02EB3E
:1044380083034FF0000E34E001EB0E0C00EBCC1CB4
:1044480094444FEA4C06C5F307281A4F07F81C8016
:1044580001365FFA85FC07F806C00132D2B2052A98
:104468001AD893F800C0C2F107064CFA06FC1CF0F3
:10447800010FE1D001EB0E0C00EBCC1C94444FEA89
:104488004C06C4F30727DFF82C8008F81C700136A7
:10449800E7B208F80670E0E701330EF1010E5FFAA3
:1044A8008EFEBEF10B0F01D80022D8E7BDE8F081DF
:1044B800ECE80008E00900202DE9F0418CB0054641
:1044C800884617461E4612AB53F8042B0024049462
:1044D800059406940794089409940A940B940393FA
:1044E800202104A804F030FA09E000963B46414632
:1044F8002846FFF793FF0635EDB20134E4B204F124
:1045080030036B4413F8202C002AEED10CB0BDE820
:10451800F0810000844600230BE05A004FEA1C217A
:10452800064800F8131001325FFA8CF18154013308
:104538009BB2B3F5A04FF0D3704700BFE00900204D
:104548004FF0000C944515D270B500EBC11EE6443F
:104558004FEA4E041D0A084E06F81E5004F1010EDB
:10456800DCB206F80E400CF1010C5FFA8CFC9445A5
:10457800EBD370BD704700BFE00900204FF0000C7E
:10458800944516D270B501EB0C0E00EBCE1E4FEA27
:104598004E041D0A074E06F81E5004F1010EDCB247
:1045A80006F80E400CF1010C5FFA8CFC9445EAD336
:1045B80070BD7047E00900202DE9F84306460F4614
:1045C80015469846BDF820409DF824E0BEF1000F3E
:1045D8001BD1704615E007EB000C06EBCC1C9C4485
:1045E8004FEA4C02210ADFF8609009F81C100132EA
:1045F800E1B209F802100133DBB2AB42EBD3013070
:10460800C0B240451DD27346F7E72346FFF798FF2F
:104618002346424639463046FFF7B0FF07EB08010C
:10462800C9B2013923462A46C9B23046FFF788FF86
:104638007019C0B20138234642463946C0B2FFF766
:104648009DFFBDE8F88300BFE009002010B40024F6
:1046580004618480C4800170427083709DF80430C6
:10466800C370029B836010BC704700002DE9F047BF
:1046780082B004460D4606788778806802F048FBC9
:1046880000EB4000A7EB4003C3F3470333445FFA52
:1046980083F86178E378A3F10C0202EBD272C2F3DB
:1046A80047020A445FFA82F91DB3012D1ED1002585
:1046B80001954FF2197ACDF800A03A463046FFF737
:1046C8007BFF0123019349F6A0230093E378A278A6
:1046D80061782078FFF770FFA3680193154B00936A
:1046E80053462A4649464046FFF7E6FE02B0BDE873
:1046F800F087002501954EF23C7ACDF800A03A46A5
:104708003046FFF759FF012301934CF65963009394
:10471800E378A27861782078FFF74EFFA3680193C9
:10472800044B009353462A4649464046FFF7C4FEC9
:10473800DCE700BF60ED000810B504460170428058
:104748004370002303620299083002F083FA637F02
:104758000BB10023637723780C2B01D90C2323702A
:1047680010BD0EB410B583B0044605AB53F8042B46
:1047780001931821083004F0E7F80123636003B0BF
:10478800BDE8104003B070472DE9F04383B00546FB
:1047980000F10806304602F0BBFA00EB4004640062
:1047A800E4B26B78012B28D0022B5FD02978C4F1B2
:1047B800800201EB410189001031002701974FF673
:1047C800FF78CDF800800C2302F0FE0201F0FC0116
:1047D8002046FFF7F1FE297801EB410189001031ED
:1047E8000196344B009343466A8801F0FC01384631
:1047F800FFF762FE03B0BDE8F0832978C4F18007B3
:10480800C7F3470701EB4101890010314FF0000958
:10481800CDF804904FF6FF78CDF800800C233A4687
:1048280001F0FC014846FFF7C7FE297801EB41017A
:10483800890010313819CDF80490CDF800800C2388
:104848003A4601F0FC01C0B2FFF7B6FE297801EB49
:104858004101890010310196164B009343466A883E
:1048680001F0FC013846FFF727FEC3E72978C4F1B9
:104878008004E4B201EB410189001031002001906D
:104888004FF6FF7700970C23224601F0FC01FFF753
:1048980093FE297801EB4101890010310196054BFF
:1048A80000933B466A8801F0FC012046FFF704FEAE
:1048B800A0E700BF60ED000800B583B001900022BA
:1048C80010210548FDF7D9FD012201A90348FEF78B
:1048D800E5FC03B05DF804FB000C0140F4AC0020DB
:1048E80000B583B00190012210210548FDF7C5FDF0
:1048F800012201A90348FEF7D1FC03B05DF804FBCF
:10490800000C0140F4AC0020F8B5871C961C4D1C27
:104918005C1C2A20FFF7D0FF380AFFF7E1FFF8B246
:10492800FFF7DEFF300AFFF7DBFFF0B2FFF7D8FF33
:104938002B20FFF7C1FF280AFFF7D2FFE8B2FFF7E5
:10494800CFFF200AFFF7CCFFE0B2FFF7C9FF2C200A
:10495800FFF7B2FF012210210148FDF78EFDF8BDD7
:10496800000C014008B5013807280ED8DFE800F030
:10497800040E18222C36404A3620FFF79DFF0820E7
:10498800FFF7AEFF2C20FFF797FF08BD3620FFF793
:1049980093FF8020FFF7A4FF2C20FFF78DFFF4E79B
:1049A8003620FFF789FF4020FFF79AFF2C20FFF7FA
:1049B80083FFEAE73620FFF77FFFC820FFF790FF65
:1049C8002C20FFF779FFE0E73620FFF775FF20205E
:1049D800FFF786FF2C20FFF76FFFD6E73620FFF79B
:1049E8006BFF6020FFF77CFF2C20FFF765FFCCE70B
:1049F8003620FFF761FFA020FFF772FF2C20FFF79A
:104A08005BFFC2E73620FFF757FFE020FFF768FF9C
:104A18002C20FFF751FFB8E710B57F4C0122402149
:104A28002046FDF72AFD4FF47A7001F06BF800225A
:104A380040212046FDF721FD4FF47A7001F062F81D
:104A4800012240212046FDF718FD744C204601F054
:104A580059F81120FFF730FF204601F053F8B12034
:104A6800FFF72AFF0520FFF73BFF3C20FFF738FF41
:104A78003C20FFF735FFB220FFF71EFF0520FFF7A8
:104A88002FFF3C20FFF72CFF3C20FFF729FFB32026
:104A9800FFF712FF0520FFF723FF3C20FFF720FF59
:104AA8003C20FFF71DFF0520FFF71AFF3C20FFF70A
:104AB80017FF3C20FFF714FFB420FFF7FDFE03208B
:104AC800FFF70EFFC020FFF7F7FE2820FFF708FFCB
:104AD8000820FFF705FF0420FFF702FFC120FFF7BA
:104AE800EBFEC020FFF7FCFEC220FFF7E5FE0D201D
:104AF800FFF7F6FE0020FFF7F3FEC320FFF7DCFE0A
:104B08008D20FFF7EDFE2A20FFF7EAFEC420FFF70D
:104B1800D3FE8D20FFF7E4FEEE20FFF7E1FEC5206F
:104B2800FFF7CAFE1A20FFF7DBFE3620FFF7C4FEA8
:104B3800C820FFF7D5FEE020FFF7BEFE0420FFF7F0
:104B4800CFFE2220FFF7CCFE0720FFF7C9FE0A2080
:104B5800FFF7C6FE2E20FFF7C3FE3020FFF7C0FE8A
:104B68002520FFF7BDFE2A20FFF7BAFE2820FFF711
:104B7800B7FE2620FFF7B4FE2E20FFF7B1FE3A203D
:104B8800FFF7AEFE0020FFF7ABFE0120FFF7A8FEFF
:104B98000320FFF7A5FE1320FFF7A2FEE120FFF791
:104BA8008BFE0420FFF79CFE1620FFF799FE0620D7
:104BB800FFF796FE0D20FFF793FE2D20FFF790FEDE
:104BC8002620FFF78DFE2320FFF78AFE2720FFF718
:104BD80087FE2720FFF784FE2520FFF781FE2D2082
:104BE800FFF77EFE3B20FFF77BFE0020FFF778FEF5
:104BF8000120FFF775FE0420FFF772FE1320FFF770
:104C08006FFE3A20FFF758FE0520FFF769FE2920BE
:104C1800FFF752FE10BD00BF000C0140C0D40100D8
:104C280070B588B0ADF80600002403940494059488
:104C380006940794ADF80A40ADF8084030E0334ECA
:104C4800002210213046FDF718FC314D4FF0FF339C
:104C580001220DF106012846FEF767F84FF0FF33F1
:104C680001220DF10A012846FEF757FA4FF0FF33EB
:104C7800012202A92846FEF750FABDF80A20BDF81D
:104C8800083043EA0223DB1008AA02EB440222F8A8
:104C9800143C012210213046FDF7EFFB0134E4B249
:104CA800092CCCD900201AE00133DBB2092B15D826
:104CB80008AA02EB400232F8142C08A901EB4301C0
:104CC80031F8141C8A42EFD208AD05EB400C2CF8E1
:104CD800141C05EB430121F8142CE5E720460928AC
:104CE80003D8441CE4B22346E0E70020012307E090
:104CF80008AA02EB430232F8142C10440133DBB249
:104D0800082BF5D9C0F3CF0008B070BD00080140EA
:104D180044AC00202DE9F04106460F46D020FFF7AD
:104D28007FFF05469020FFF77BFF0446D020FFF762
:104D380077FF80469020FFF773FF454526D9A5EBFE
:104D480008039BB23380844224D9231A9BB23B8048
:104D58003288142A21D8142B21D8454405EBD5755F
:104D68006D103580044404EBD474C4F34F043C80C4
:104D78003388643B9BB240F63C72934211D8643C42
:104D8800A4B294420FD80020BDE8F081A8EB050337
:104D98009BB2D7E7031B9BB2D9E7FF20F4E7FF20BC
:104DA800F2E7FF20F0E7FF20EEE7000008B500F08B
:104DB800B7FA0023024A1370024A137008BD00BFF5
:104DC800ACAE0020AEAE002070B582B04FF6FF70DA
:104DD800FFF7A0FB0A20FCF779FB274C274B019330
:104DE8001225009530238A2248212046FFF72EFC01
:104DF800234B0193009530238A220C212148FFF789
:104E080025FC214BE360214B00934FF6FF730022F2
:104E180011463020FFF750FB002519E06E1C3401C5
:104E2800E4B24FF47843802221460020FFF788FB44
:104E3800174B33F81530211D0193164B00934FF68D
:104E4800FF73002201F0FC013020FFF735FB3546E7
:104E5800052DE3DD4FF47843802270210020FFF711
:104E68006FFB00210448FFF701FC01210548FFF70B
:104E7800FDFB02B070BD00BFE0A9002064ED000892
:104E880070ED0008F4A90020B54D000878ED000881
:104E9800C0AB00207CED000870B582B02D4B1B78AC
:104EA800012B02D92B4B00221A702A4B1B782BB1ED
:104EB800012B17D0274B00221A700AE0012126483F
:104EC800FFF7D4FB00212548FFF7D0FB214B002238
:104ED8001A70204B1B7873B3214B1B78012B2CD0F5
:104EE80002B070BD00211C48FFF7C0FB01211B4820
:104EF800FFF7BCFB174B01221A70EAE76E1C34015E
:104F0800E4B24FF47843802221460020FFF718FBD3
:104F1800144B33F81530211D0193134B00934FF6B2
:104F2800FF73002201F0FC013020FFF7C5FA354677
:104F3800052DE3DDD0E70025FAE7064B1B78012BAA
:104F480003D0074B00221A70CAE70448C368984781
:104F5800F7E700BFAEAE0020F4A90020E0A90020CA
:104F6800AFAE0020C0AB00207CED000808B500F013
:104F7800D7F90023034A1380034A1370034A1370B6
:104F880008BD00BF6CAA0020ACAE0020AEAE002069
:104F98002DE9F04383B04FF6FF70FFF7BBFA0A2004
:104FA800FCF794FA2D4BB3F9003001932C4B009386
:104FB8004FF6FF73002220214020FFF77DFADFF82B
:104FC800A490294B019318240094302340220C21EB
:104FD8004846FFF73BFBDFF89480254B019300948C
:104FE8003023402248214046FFF730FB214F224B17
:104FF80001930094302360220C213846FFF726FBEA
:105008001E4E1F4B019300943023602248213046E6
:10501800FFF71CFB1B4D1C4B01930094302380228F
:1050280048212846FFF712FB184BEB600121484640
:10503800FFF71CFB00214046FFF718FB002138460C
:10504800FFF714FB00213046FFF710FB002128462C
:10505800FFF70CFB03B0BDE8F08300BF0800002099
:1050680084ED000858AA002088ED000808AA00204E
:105078008CED00081CAA002094ED000830AA00203E
:105088009CED000844AA002064ED0008754F000854
:1050980000B583B06D4B1B78042B00F2A280DFE8CB
:1050A80003F003405870880001216948FFF7DEFAD1
:1050B80000216848FFF7DAFA00216748FFF7D6FAB7
:1050C80000216648FFF7D2FA00216548FFF7CEFABB
:1050D8005E4B00221A70634B1B78012B00F0858011
:1050E800614BB3F90030002B00F0A380002301933B
:1050F8004FF4FC6300930C231A4619461846FFF731
:105108005BFA5A4BB3F900300193594B00934FF6B1
:10511800FF73002220214020FFF7CEF903B05DF88D
:1051280004FB00214A48FFF7A1FA01214948FFF78B
:105138009DFA00214848FFF799FA00214748FFF7F0
:1051480095FA00214648FFF791FA404B01221A7060
:10515800C1E700213E48FFF789FA00213D48FFF7E3
:1051680085FA01213C48FFF781FA00213B48FFF707
:105178007DFA00213A48FFF779FA344B02221A7077
:10518800A9E700213248FFF771FA00213148FFF7FB
:105198006DFA00213048FFF769FA01212F48FFF71F
:1051A80065FA00212E48FFF761FA284B03221A708E
:1051B80091E700212648FFF759FA00212548FFF713
:1051C80055FA00212448FFF751FA00212348FFF738
:1051D8004DFA01212248FFF749FA1C4B04221A70A4
:1051E80079E71A4B00221A7075E7184B1B783BB900
:1051F8001E4A1388013313801A4B00221A706FE776
:10520800012B09D0022B0CD0032B0ED0042BF3D189
:105218001348C3689847EFE7144A1388013B138083
:10522800EAE7114B00221A80E6E70F4B00221A80AA
:10523800E2E7012301934FF4FC6300930C231A4621
:1052480019461846FFF7B8F95BE700BFAEAE002075
:1052580058AA002008AA00201CAA002030AA002072
:1052680044AA0020AFAE00206CAA0020080000204D
:1052780084ED000808B50D4B1B78042B13D8DFE824
:1052880003F00306090C0F0000F0C4F808BD00F095
:10529800E9F9FBE7FFF7FCFEF8E7FFF7FDFDF5E7A7
:1052A80000F054FBF2E700F0B5F8EFE7ACAE0020F1
:1052B80008B500F053F9034B01221A70024B002283
:1052C8001A7008BDACAE0020AEAE002008B5FFF7DE
:1052D8005FFE034B02221A70024B00221A7008BDAF
:1052E800ACAE0020AEAE002008B5FFF76DFD034B55
:1052F80003221A70024B00221A7008BDACAE0020BF
:10530800AEAE002008B500F067FA034B04221A700D
:10531800024B00221A7008BDACAE0020AEAE0020D1
:105328002DE9F04383B04FF6FF70FFF7F3F80A203A
:10533800FCF7CCF8DFF8A490294B00930123002256
:1053480011464846FFF7F8F9DFF89880264B019395
:10535800182400944823212220214046FFF776F99B
:10536800224BC8F80C30224F224B0193009448235B
:105378003F2220213846FFF769F91F4BFB601F4E7B
:105388001F4B0193009448235D2220213046FFF7EC
:105398005DF91C4BF3601C4D1C4B01930094482392
:1053A8007B2220212846FFF751F9194BEB6048462C
:1053B800FFF7EAF901214046FFF758F9002138467E
:1053C800FFF754F900213046FFF750F9002128462D
:1053D800FFF74CF903B0BDE8F08300BFC0AA002076
:1053E800A4ED000898AA0020B0ED0008B952000802
:1053F80084AA0020B8ED0008D552000870AA002041
:10540800C0ED0008F1520008ACAA0020C8ED000861
:105418000D53000810B5434B1B78032B02D9414BA1
:1054280000221A703F4C21783F4801F027FB23786F
:10543800032B57D8DFE803F0021A2E4201213B481C
:10544800FFF714F900213A48FFF710F9002139480D
:10545800FFF70CF900213848FFF708F9314B002213
:105468001A70364B1B78012B40D010BD00212F48F5
:10547800FFF7FCF801212E48FFF7F8F800212D4826
:10548800FFF7F4F800212C48FFF7F0F8254B01222C
:105498001A70E6E700212548FFF7E8F800212448BC
:1054A800FFF7E4F801212348FFF7E0F8002122483C
:1054B800FFF7DCF81B4B02221A70D2E700211B48C9
:1054C800FFF7D4F800211A48FFF7D0F8002119484F
:1054D800FFF7CCF801211848FFF7C8F8114B032251
:1054E8001A70BEE70F4B00221A70BAE70D4B1B78F3
:1054F80033B90E48C3689847104B00221A70B4E7B6
:10550800012B07D0022B09D0032BF5D10A48C36819
:105518009847F1E70648C3689847EDE70548C36828
:105528009847E9E7AEAE002084ED000898AA00206D
:1055380084AA002070AA0020ACAA0020AFAE0020E8
:1055480008B5FFF7EDFE0023024A1370024A1370F4
:1055580008BD00BFACAE0020AEAE00202DE9F0477C
:1055680082B04FF6FF70FEF7D5FF0A20FBF7AEFFBB
:10557800DFF8BC902F4B0193182400944823032292
:1055880020214846FFF762F8DFF8AC802B4B0193E7
:1055980000944823212220214046FFF757F8284F3E
:1055A800284B0193009448233F2220213846FFF7D7
:1055B8004DF8254E254B0193009448235D22202168
:1055C8003046FFF743F8224C224B01934FF0120A62
:1055D800CDF800A030238A2248212046FFF736F86C
:1055E8001D4BE3601D4D1E4B0193CDF800A03023E9
:1055F8008A2206212846FFF729F801214846FFF7A5
:1056080035F800214046FFF731F800213846FFF70A
:105618002DF800213046FFF729F800212046FFF732
:1056280025F800212846FFF721F802B0BDE8F087E9
:10563800F8AA0020D0ED0008E4AA0020D8ED000860
:1056480048AB0020E4ED000820AB0020F0ED000896
:1056580034AB002064ED0008495500080CAB00206D
:10566800FCED000808B54B4B1B78042B00F2818039
:10567800DFE803F0031F374F670001214648FEF7B4
:10568800F5FF00214548FEF7F1FF00214448FEF7E9
:10569800EDFF00214348FEF7E9FF00214248FEF7ED
:1056A800E5FF3C4B00221A70404B1B78012B64D05D
:1056B80008BD00213848FEF7D9FF01213748FEF719
:1056C800D5FF00213648FEF7D1FF00213548FEF707
:1056D800CDFF00213448FEF7C9FF2E4B01221A7076
:1056E800E2E700212C48FEF7C1FF00212B48FEF716
:1056F800BDFF01212A48FEF7B9FF00212948FEF71E
:10570800B5FF00212848FEF7B1FF224B02221A708C
:10571800CAE700212048FEF7A9FF00211F48FEF72D
:10572800A5FF00211E48FEF7A1FF01211D48FEF735
:105738009DFF00211C48FEF799FF164B03221A70A3
:10574800B2E700211448FEF791FF00211348FEF745
:105758008DFF00211248FEF789FF00211148FEF74E
:1057680085FF01211048FEF781FF0A4B04221A70B9
:105778009AE7084B00221A7096E7064B1B78042B11
:1057880003D00A4B00221A7092E70748C36898476B
:10579800F7E700BFAEAE0020F8AA0020E4AA002078
:1057A80048AB002020AB002034AB0020AFAE002077
:1057B800014B00221A707047AEAE002008B5FFF703
:1057C800AFFD0023024A1370024A137008BD00BFE0
:1057D800ACAE0020AEAE0020F0B583B04FF6FF703F
:1057E800FEF798FE0A20FBF771FE464C23780193DA
:1057F800454B00934FF6FF73002210210C20FEF753
:105808005BFE63780193414B00934FF6FF730022D0
:1058180010214820FEF750FEA37801933C4B0093DB
:105828004FF6FF73002228210C20FEF745FEE3788F
:105838000193384B00934FF6FF730022282148202C
:10584800FEF73AFE23790193334B00934FF6FF732B
:10585800002240210C20FEF72FFE637901932F4B85
:1058680000934FF6FF73002240214820FEF724FEE4
:10587800A37901932A4B00934FF6FF730022582116
:105888000C20FEF719FEE3790193264B00934FF69F
:10589800FF73002258214820FEF70EFE224C234AAF
:1058A800234607CA03C31A80214E0094012300220D
:1058B80008213046FEF740FF1E4D1F4B0193182765
:1058C8000097302380220C212846FEF7BFFE1B4C90
:1058D8001B4B019300973023802248212046FEF776
:1058E800B5FE184BE360184BEB603046FEF74CFFF3
:1058F80001212846FEF7BAFE00212046FEF7B6FE33
:1059080003B0F0BDB4AE002000EE00080CEE0008B5
:1059180018EE000824EE000830EE00083CEE0008FF
:1059280048EE000854EE0008A8AB002060EE00081E
:1059380084AB002070AB00206CEE00085CAB00204C
:1059480064ED0008C5570008B957000810B582B0C3
:105958005B4B1B78012B02D9594B00221A70594C0A
:1059680059492046FEF7FDFE2046FEF70DFF574C2D
:1059780023780193564B00934FF6FF7300221021B2
:105988000C20FEF799FD63780193524B00934FF674
:10599800FF73002210214820FEF78EFDA3780193A3
:1059A8004D4B00934FF6FF73002228210C20FEF781
:1059B80083FDE3780193494B00934FF6FF73002270
:1059C80028214820FEF778FD23790193444B009362
:1059D8004FF6FF73002240210C20FEF76DFD63791E
:1059E8000193404B00934FF6FF730022402148205B
:1059F800FEF762FDA37901933B4B00934FF6FF73CB
:105A0800002258210C20FEF757FDE3790193374B0C
:105A180000934FF6FF73002258214820FEF74CFDF3
:105A2800334B1A8841F288339A4208D8244B1B78A2
:105A380083B1012B22D0224B00221A7018E0224C8D
:105A48002C4A234607CA03C31A8021461D48FEF77D
:105A580088FEEBE71B48FEF797FE01212648FEF774
:105A680005FE00212548FEF701FE154B00221A709D
:105A7800234B1B78012B10D002B010BD1148FEF744
:105A880083FE00211C48FEF7F1FD01211B48FEF7AB
:105A9800EDFD0B4B01221A70EAE7094B1B7813B98D
:105AA8001548C3689847064B1B78012B03D0144B45
:105AB80000221A70E0E71148C3689847F7E700BF6B
:105AC800AEAE002084AB0020A8AB0020B4AE00200E
