:020000040800F2
:1000000000C00020DD120008510D0008530D00084B
:10001000550D0008570D0008590D0008000000009C
:100020000000000000000000000000005B0D000860
:100030005D0D0008000000005F0D0008610D000864
:1000400025130008251300082513000825130008B0
:1000500025130008251300082513000825130008A0
:10006000251300082513000825130008690D000852
:10007000251300082513000825130008790D000832
:100080002513000825130008251300082513000870
:10009000890D000825130008251300082513000802
:1000A0002513000825130008251300082513000850
:1000B0002513000825130008251300082513000840
:1000C0002513000825130008251300082513000830
:1000D0002513000825130008251300082513000820
:1000E0002513000825130008251300082513000810
:1000F0002513000825130008251300082513000800
:1001000025130008251300082513000825130008EF
:100110002513000825130008990D00082513000871
:1001200025130008A90D0008B90D0008C90D000825
:1001300000000000000000000000000000000000BF
:1001400000000000000000000000000000000000AF
:10015000000000000000000000000000000000009F
:10016000000000000000000000000000000000008F
:10017000000000000000000000000000000000007F
:10018000000000000000000000000000000000006F
:10019000000000000000000000000000000000005F
:1001A000000000000000000000000000000000004F
:1001B000000000000000000000000000000000003F
:1001C000000000000000000000000000000000002F
:1001D000000000000000000000000000000000001F
:0401E0005FF8E0F1F3
:1001E40010B5054C237833B9044B13B10448AFF36D
:1001F40000800123237010BD3C0400200000000097
:10020400D03A000808B5034B1BB103490348AFF3C8
:10021400008008BD0000000040040020D03A00081F
:1002240000B585B000230193029303931148124A49
:1002340002608360037303754FF46022C2614360FC
:100244000123036101F09AF968B90A230193012398
:1002540002930023039301A9064801F0C1F828B9C9
:1002640005B05DF804FB00F0FBFAEEE700F0F8FAE5
:10027400F6E700BF580400200024014000B587B011
:10028400002302930393049305930268104B9A424C
:1002940002D007B05DF804FB03F56C439A6942F49D
:1002A40000729A619A6902F400720092009A9A6943
:1002B40042F010029A619B6903F010030193019BC1
:1002C40003230293039302A9024802F02FF8E0E704
:1002D400002401400010014008B50C480C4B036099
:1002E4000823436000238360C3604FF480320261BB
:1002F4004361037643768376C3760377437701F0CD
:10030400D1F900B908BD00F0ABFAFBE7880400207E
:100314000064004010B586B0002302930393049355
:10032400059302681E4B9A4201D006B010BD03F536
:10033400D633DA6942F00072DA61DA6902F00072E7
:100344000092009A9A6942F008029A619B6903F04C
:1003540008030193019B4FF480730293114C02A98B
:10036400204601F0E3FF4FF400730293022303934A
:100374000323059302A9204601F0D8FF0A4A5368D3
:1003840023F4C04343F0E06343F48043536000220A
:100394001146142001F05EFD142001F093FDC4E722
:1003A40000640040000C01400000014000B583B02F
:1003B4001E4B5A6942F001025A615A6902F0010265
:1003C4000092009A5A6942F002025A615B6903F092
:1003D40002030193019B002211460B2001F03AFD18
:1003E4000B2001F06FFD002211460F2001F032FDB9
:1003F4000F2001F067FD00221146392001F02AFD8B
:10040400392001F05FFD002211463A2001F022FD5F
:100414003A2001F057FD002211463B2001F01AFD5D
:100424003B2001F04FFD03B05DF804FB00100240D7
:100434002DE9F04389B000240494059406940794AC
:10044400314B9A6942F010029A619A6902F01002E3
:100454000092009A9A6942F020029A619A6902F025
:1004640020020192019A9A6942F004029A619A69FF
:1004740002F004020292029A9A6942F008029A6116
:100484009B6903F008030393039BDFF880902246E3
:100494004FF4E041484602F069F8DFF874802246E0
:1004A4000321404602F062F81A4D224650212846A4
:1004B40002F05CF84FF4E043049301270597069497
:1004C4000226079604A9484601F030FF032304934B
:1004D40005970694079604A9404601F027FF0723D1
:1004E40004930594069404A9284601F01FFF5023A1
:1004F400049305970694079604A9284601F016FF6D
:1005040009B0BDE8F08300BF0010024000100140B4
:1005140000080140000C014010B582B08DF80700BE
:10052400002210210B4802F021F80B4C00224FF45A
:100534008051204602F01AF801220DF10701074804
:1005440002F0C0FC01224FF48051204602F00EF864
:1005540002B010BD000C014000100140F005002065
:1005640010B582B08DF80700012210210B4801F06C
:10057400FDFF0B4C00224FF48051204601F0F6FFA2
:1005840001220DF10701074802F09CFC01224FF4FF
:100594008051204601F0EAFF02B010BD000C01407A
:1005A40000100140F005002010B50446000AFFF7D2
:1005B400D7FFE0B2FFF7D4FF10BDF8B507460D46EC
:1005C40016461C462A20FFF7A7FF380AFFF7C8FF84
:1005D400F8B2FFF7C5FF300AFFF7C2FFF0B2FFF72A
:1005E400BFFF2B20FFF798FF280AFFF7B9FFE8B2F7
:1005F400FFF7B6FF200AFFF7B3FFE0B2FFF7B0FF43
:100604002C20FFF789FFF8BD10B5804C0122402152
:10061400204601F0ABFF012000F0CEFE0022402175
:10062400204601F0A3FF012000F0C6FE0122402174
:10063400204601F09BFF782000F0BEFE1120FFF75A
:100644006BFF782000F0B8FEB120FFF765FF0520AE
:10065400FFF786FF3C20FFF783FF3C20FFF780FF76
:10066400B220FFF759FF0520FFF77AFF3C20FFF780
:1006740077FF3C20FFF774FFB320FFF74DFF052001
:10068400FFF76EFF3C20FFF76BFF3C20FFF768FF8E
:100694000520FFF765FF3C20FFF762FF3C20FFF7D2
:1006A4005FFFB420FFF738FF0320FFF759FFC02096
:1006B400FFF732FF2820FFF753FF0820FFF750FF12
:1006C4000420FFF74DFFC120FFF726FFC020FFF7EE
:1006D40047FFC220FFF720FF0D20FFF741FF002056
:1006E400FFF73EFFC320FFF717FF8D20FFF738FF0A
:1006F4002A20FFF735FFC420FFF70EFF8D20FFF7F8
:100704002FFFEE20FFF72CFFC520FFF705FF1A206F
:10071400FFF726FF3620FFF7FFFEC020FFF720FF7C
:10072400E020FFF7F9FE0420FFF71AFF2220FFF76D
:1007340017FF0720FFF714FF0A20FFF711FF2E20F1
:10074400FFF70EFF3020FFF70BFF2520FFF708FF10
:100754002A20FFF705FF2820FFF702FF2620FFF7D6
:10076400FFFE2E20FFF7FCFE3A20FFF7F9FE0020E3
:10077400FFF7F6FE0120FFF7F3FE0320FFF7F0FE7C
:100784001320FFF7EDFEE120FFF7C6FE0420FFF77C
:10079400E7FE1620FFF7E4FE0620FFF7E1FE0D203A
:1007A400FFF7DEFE2D20FFF7DBFE2620FFF7D8FE45
:1007B4002320FFF7D5FE2720FFF7D2FE2720FFF7DF
:1007C400CFFE2520FFF7CCFE2D20FFF7C9FE3B20EE
:1007D400FFF7C6FE0020FFF7C3FE0120FFF7C0FEAF
:1007E4000420FFF7BDFE1320FFF7BAFE3A20FFF7FF
:1007F40093FE0520FFF7B4FE2920FFF78DFE044B7E
:1008040080221A80A0225A8010BD00BF000C014033
:10081400B004002070B50546A123812200210846BA
:10082400FFF7CBFE002608E02846FFF7BDFE0134A3
:10083400E4B2A12CF8D90136B6B2812E01D8002435
:10084400F7E770BD044A138801331380034A138801
:1008540001331380704700BFC0040020BE04002091
:1008640072B6FEE700B597B0282200210CA803F069
:100874006BF800230793089309930A930B9301934E
:100884000293039304930593069302230C9301228A
:1008940010921022119213934FF4601315930CA825
:1008A40001F08AFEC8B90F2307930221089100239F
:1008B40009934FF480620A920B9307A802F0C2F8DE
:1008C40068B9022301934FF44043039301A802F053
:1008D40095F930B917B05DF804FBFFF7C1FFFFF7D6
:1008E400BFFFFFF7BDFF000000B585B000F040FD7D
:1008F400FFF7B8FFFFF79CFDFFF758FDFFF7ECFC8F
:1009040000F0F6F800F046FC00F05EFC00F096FB08
:1009140000F0DCFBFFF784FC00F00CF900F02AF98E
:1009240000F05AFA194802F023FC00F03BF8FFF7F4
:100934006BFE4FF6FF70FFF76DFF4FF0FF3307229A
:100944001349144802F06FFF134B93E8070004ABFC
:1009540003E9070012E0114A002122F813100133C1
:10096400DBB2052BF7D90E4B00221A80012140F28D
:100974004D1000F053F80A2000F01EFD084B1B88B0
:10098400B3F57A7FF2D90023EBE700BFA00700207C
:10099400E83A000830080020F03A0008DC0400209F
:1009A400BE04002010B58AB00122089200230693E9
:1009B4000792009301930293039305920493074CC7
:1009C4006946204600F014FF204600F097FF0221FC
:1009D400204601F0EAF80AB010BD00BF88040020E8
:1009E40000B54FF0000E10E00B4A32F81300591C0A
:1009F40032F811C022F813C022F811000B46CEF1D0
:100A040005029A42F0DC0EF1010EBEF1050F01DC85
:100A14000023F4E75DF804FBDC04002010B582B089
:100A24000C4C0023A360E3604FF40073236008239D
:100A3400236101394B00084A4FEA202C02F811C007
:100A44000133D05401AB2146044800F085FF02B0C5
:100A540010BD00BFC4040020F0040020880400205E
:100A640010B588B004461C4B1B881C4A12889B1A7C
:100A7400C82B05DC22681A4B9A420AD008B010BD74
:100A84004FF48041174801F077FD134B00221A8080
:100A9400F0E7154B01AA0021204600F0DBFF0020FF
:100AA40006E00023A3B9019A104B23F8102001306B
:100AB40005280DDC0023052BF3DC0C4A32F8131057
:100AC400BDF80420914201D00133F4E70123E9E7A2
:100AD400FFF786FFD2E700BFC0040020F80400201F
:100AE4000064004000100140E8040020DC04002001
:100AF40008B50E480E4B03604FF482734360002325
:100B04008360C360036143614FF400728261082211
:100B1400C2610362436283620A23C36202F076F90C
:100B240000B908BDFFF79CFEFBE700BF40050020AD
:100B34000030014008B50D480D4B03604FF482733B
:100B4400436000238360C360036143614FF4007218
:100B54008261C3610362436283620A23C36202F057
:100B640055F900B908BDFFF77BFEFBE798050020A7
:100B74000038004008B50D480D4B03604FF48273F4
:100B8400436000238360C360036143614FF40072D8
:100B94008261C3610362436283620A23C36202F017
:100BA40035F900B908BDFFF75BFEFBE7F00500204F
:100BB400003C004010B58AB00023069307930893C5
:100BC40009930368484A934208D00446474A93422B
:100BD4002CD0474A934253D00AB010BD454B9A6972
:100BE40042F480529A619A6902F480520092009A07
:100BF4009A6942F004029A619B6903F00403019329
:100C0400019BA023069302230793032309933A4CE1
:100C140006A9204601F08AFB40230693002307938C
:100C2400089306A9204601F081FBD5E7314BDA6928
:100C340042F48042DA61DA6902F480420292029A52
:100C44009A6942F008029A619B6903F008030393CE
:100C5400039B4FF420430693022307930323099332
:100C6400264C06A9204601F061FB4FF4804306930D
:100C740000230793089306A9204601F057FBABE72E
:100C84001C4BDA6942F40042DA61DA6902F4004288
:100C94000492049A9A6942F008029A619B6903F0EB
:100CA40008030593059B2823069302230793032334
:100CB400099306A9114801F039FB1148114B03604F
:100CC40010234360002383608022C2600361436178
:100CD4008361C36101F02EF918B9094BA3645C6206
:100CE4007AE7FFF7BDFDF8E7003001400038004027
:100CF400003C00400010024000080140000C01408C
:100D0400FC0400201C04024082B00E4B9A6942F09D
:100D140001029A619A6902F001020092009ADA696A
:100D240042F08052DA61DB6903F080530193019B46
:100D3400054A536823F0E06343F00073536002B044
:100D4400704700BF0010024000000140FEE7FEE7CC
:100D5400FEE7FEE7FEE770477047704708B500F00E
:100D640019FB08BD08B5024801F06AF908BD00BFC7
:100D74008C06002008B5024801F062F908BD00BFE6
:100D84004806002008B5024800F02DFF08BD00BF4A
:100D94008804002008B5024802F02AFA08BD00BF02
:100DA400A007002008B5024801F04AF908BD00BFB9
:100DB400FC04002008B5024801F042F908BD00BF58
:100DC400D006002008B5024801F03AF908BD00BF7A
:100DD400140700207047000000B583B0002300937F
:100DE40001930F480F4A02603F224260836040F241
:100DF400E732C260836102F005FB50B9002300931F
:100E040001936946064802F0F5FB28B903B05DF882
:100E140004FBFFF725FDF1E7FFF722FDF6E700BF2E
:100E2400A00700200010004010B582B004460368FB
:100E3400B3F1804F04D0404A93423FD002B010BD7A
:100E440003F50433DA6942F00102DA61DB6903F085
:100E540001030093009B3948394B0360002343602E
:100E640083608022C2604FF4807202614FF480621A
:100E740042618361C36101F05DF8C8B92F4B6362BD
:100E84005C623048304B03600023436083608022FF
:100E9400C2604FF4807202614FF4806242618361E8
:100EA400C36101F047F830B9264BE3625C62C5E7E1
:100EB400FFF7D6FCE2E7FFF7D3FCF5E7234B9A698B
:100EC40042F400529A619B6903F400530193019B1D
:100ED4001F48204B03600023436083608022C2606C
:100EE4004FF4807202614FF4806242618361C36196
:100EF40001F020F8C8B9164B63625C621648174BC0
:100F040003600023436083608022C2604FF48072D8
:100F140002614FF4806242618361C36101F00AF8A7
:100F240030B90D4BA3625C6288E7FFF799FCE2E7F6
:100F3400FFF796FCF5E700BF0034014048060020A7
:100F4400580002408C0600200800024000100240B5
:100F5400D006002030040240140700205804024048
:100F640002680E4B9A4200D0704700B583B003F577
:100F74000033DA6942F01002DA61DB6903F010032E
:100F84000193019B00221146362000F063FF3620B6
:100F940000F098FF03B05DF804FB00BF00100040B0
:100FA40000B587B000230293039304930593036869
:100FB400B3F1804F05D01C4A934221D007B05DF8AD
:100FC40004FB03F504339A6942F004029A619B69B5
:100FD40003F004030093009B48F2040302930223EA
:100FE4000393059302A9114801F0A0F9104A53682C
:100FF40023F4407343F0E06343F480735360DDE70C
:101004000C4B9A6942F010029A619B6903F0100339
:101014000193019BC023029302230393059302A926
:10102400054801F083F9C9E7003401400008014094
:1010340000000140001002400010014000B58BB0D8
:101044000023089309930193029303930493059354
:10105400069307931C484FF080420260436083600C
:101064004FF6FF72C2600361836102F0F7F9F0B9D1
:1010740000230893099308A9134802F0BBFAC8B9DE
:1010840060230193002202920392059201A90E4863
:1010940002F048FA88B9082201A90B4802F042FA82
:1010A40070B90948FFF77CFF0BB05DF804FBFFF74C
:1010B400D7FBDDE7FFF7D4FBE2E7FFF7D1FBEAE775
:1010C400FFF7CEFBEDE700BF5807002010B592B044
:1010D40000241094119409940A940B940C940D9484
:1010E4000E940F942022214601A802F02DFC2748DB
:1010F400274B0360446084604FF6FF73C360046150
:101104004461846102F0AAF9002830D100231093CD
:10111400119310A91D4802F06DFA00282AD160230A
:10112400099300220A920B920C920D920E920F9246
:1011340009A9164802F0F6F9F8B9042209A91348D6
:1011440002F0F0F9E0B900230193029303930493AE
:1011540005934FF400520692089301A90B4802F03C
:1011640087FA80B90948FFF71BFF12B010BDFFF7DB
:1011740077FBCBE7FFF774FBD1E7FFF771FBDCE705
:10118400FFF76EFBDFE7FFF76BFBEBE7E8070020F9
:101194000034014008B50A480A4B03604FF4E133B8
:1011A400436000238360C36003610C224261836156
:1011B400C36102F009FB00B908BDFFF751FBFBE76F
:1011C40074080020004C004008B50A480A4B03602C
:1011D4004FF4E133436000238360C36003610C2256
:1011E40042618361C36102F0EFFA00B908BDFFF701
:1011F40037FBFBE7300800200038014010B588B009
:101204000023049305930693079303682D4A93429E
:1012140004D02D4A93422BD008B010BD2B4BDA6971
:1012240042F40022DA61DA6902F400220092009AA0
:101234009A6942F010029A619B6903F010030193CA
:10124400019B4FF4806304930223059303230793C4
:101254001F4C04A9204601F069F84FF4006304937D
:1012640000230593069304A9204601F05FF8D3E711
:10127400164B9A6942F480429A619A6902F4804258
:101284000292029A9A6942F004029A619B6903F0FD
:1012940004030393039B4FF4007304930223059305
:1012A400032307930B4C04A9204601F03FF84FF4A5
:1012B4008063049300230593069304A9204601F058
:1012C40035F8A9E7004C0040003801400010024006
:1012D40000100140000801400C480D490D4A00234C
:1012E40002E0D458C4500433C4188C42F9D30A4AD7
:1012F4000A4C002301E013600432A242FBD3FFF73F
:1013040069FD02F0FDFAFFF7EFFA704700000020D4
:101314003C0400203C3B00083C040020C0080020A2
:10132400FEE7000010B504460E4B18784FF47A73AC
:10133400B3FBF0F30C4A1068B0FBF3F000F0D0FDFF
:1013440068B90F2C01D901200AE0002221464FF090
:10135400FF3000F07FFD054B1C60002000E0012001
:1013640010BD00BF04000020000000200800002081
:1013740008B5074A136843F010031360032000F014
:1013840057FD0F20FFF7CEFFFFF7BEFC002008BD7E
:1013940000200240034A1168034B1B780B4413607E
:1013A400704700BFB808002004000020014B1868F3
:1013B400704700BFB808002038B50446FFF7F6FFB1
:1013C4000546B4F1FF3F02D0044B1B781C44FFF7E1
:1013D400EDFF401BA042FAD338BD00BF040000203B
:1013E40030B482B00022019290F82420012A00F047
:1013F40091800346012280F824204A68062A2DD8C9
:101404000468606B02EB8202053A4FF01F0C0CFA81
:1014140002FC20EA0C000D6805FA02F20243626342
:101424000A68092A3AD91C68E06802EB42021E3AAB
:101434004FF0070C0CFA02FC20EA0C008D6805FA48
:1014440002F20243E2600A68103A012A36D9002007
:10145400002283F8242002B030BC70470C2A0ED836
:101464000568286B02EB8202233A1F24944020EA89
:1014740004000C6804FA02F202432A63D0E7056808
:10148400E86A02EB8202413A1F24944020EA0400F5
:101494000C6804FA02F20243EA62C1E71C6820699C
:1014A40002EB42024FF0070C0CFA02FC20EA0C009B
:1014B4008D6805FA02F202432261C4E71A681648ED
:1014C400824205D09A6A42F020029A620120BFE764
:1014D400906810F4000F1BD1906840F400009060F5
:1014E4000A68102A01D00020B2E70C4A12680C499D
:1014F400A1FB0212920C02EB82025200019202E062
:10150400019A013A0192019A002AF9D100209FE739
:1015140000209DE702209EE70024014000000020F7
:1015240083DE1B4338B503689A6812F0010F01D1BA
:10153400002038BD04469A6822F001029A60FFF741
:1015440035FF054623689B6813F0010F13D0FFF79E
:101554002DFF431B022BF5D923689B6813F0010F61
:10156400F0D0A36A43F01003A362E36A43F00103DB
:10157400E3620120DDE70020DBE70000002800F043
:10158400888070B50446836A002B52D02046FFF74A
:10159400C9FFA36A13F0100375D1002873D1A26A9E
:1015A40022F4885222F0020242F00202A26262682D
:1015B400266839498E4242D0E1690A43217B42EAD6
:1015C4004102A568B5F5807F02D0012D3ED01D46AD
:1015D40094F814C0BCF1010F3BD0716821F4694147
:1015E400294371602568AE682C4931401143A960D4
:1015F400A168B1F5807F01D0012902D12369013BA3
:101604001B052568E96A21F470010B43EB6223682A
:101614009968234B0B409A422CD0A36A23F01203FF
:1016240043F01003A362E36A43F00103E362012081
:101634002EE0C36280F82430FEF720FEA6E7E169BD
:10164400B1F5402FB9D14FF40021B6E74FF48075BE
:10165400BEE731B9A169013945EA413141F4006578
:10166400BBE7A16A41F02001A162E16A41F00101F6
:10167400E162B2E70023E362A36A23F0030343F0C9
:101684000103A36204E0A36A43F01003A3620120F0
:1016940070BD0120704700BF003C0140FDF7E1FF31
:1016A400FE0E1FFF002800F0A18038B5044690F814
:1016B4002030D3B12268136843F001031360FFF7AD
:1016C40075FE054623685A6812F0010F10D1FFF722
:1016D4006DFE401B0A28F5D9636A43F40033636244
:1016E400052384F82030012038BDFEF713FEE1E71E
:1016F4001A6822F002021A60FFF758FE05462368B2
:101704005A6812F0020F0DD0FFF750FE401B0A2852
:10171400F5D9636A43F400336362052384F8203007
:101724000120E1E7227E012A3DD01A6822F08002DE
:101734001A60637E012B3BD02268136823F04003B8
:101744001360A37E012B39D02268136823F0200391
:101754001360E37E012B37D02268136843F0100333
:101764001360237F012B35D02268136823F008030C
:101774001360637F012B33D02268136823F00403C2
:101784001360A368E2681343226913436269134335
:101794006268013A21681343CB610020606201232F
:1017A40084F82030A0E71A6842F080021A60C0E78B
:1017B4002268136843F040031360C2E72268136889
:1017C40043F020031360C4E72268136823F0100376
:1017D4001360C6E72268136843F008031360C8E780
:1017E4002268136843F004031360CAE701207047BA
:1017F400026890F82030013BDBB2012B05D9436A23
:1018040043F4802343620120704710B5D2F80032BC
:1018140043F00103C2F800324B6903F01F030120B7
:1018240000FA03F3D2F81C026FEA030C20EA030067
:10183400C2F81C02C869C0B9D2F80C020CEA000054
:10184400C2F80C028C884869D1F80CE044EA0E44D2
:10185400483042F830400C884869D1F808E044EA3E
:101864000E44483002EBC0004460C86901281AD015
:10187400886988BBD2F804020CEA0000C2F80402AA
:10188400086978BBD2F814020CEA0000C2F814020A
:10189400096A01292CD0D2F8003223F00103C2F8DE
:1018A4000032002010BDD2F80C021843C2F80C021A
:1018B4008C884869D1F800E044EA0E44483042F884
:1018C40030408C894869D1F808E044EA0E44483035
:1018D40002EBC0004460CBE7D2F804021843C2F81C
:1018E4000402CDE7D2F814021843C2F81402CFE779
:1018F400D2F81C120B43C2F81C32CCE770B5044674
:1019040090F82050EDB2012D06D0436A43F4002331
:1019140043620125284670BD022380F82030026806
:10192400136823F001031360FFF740FD06462368A4
:101934005B6813F0010F0CD0FFF738FD831B0A2BF3
:10194400F5D9636A43F400336362052384F82030D5
:10195400E0E700256562DDE730B590F820C0046853
:10196400A4680CF1FF3C5FFA8CFCBCF1010F6BD84E
:1019740014F0E05F62D0C4F3016CBCF1020F05D92E
:10198400436A43F400034362012062E0012404FA41
:101994000CF41C608B68002B3DD10D68CB68046887
:1019A40043EA45550CF118031B01E55003680C6923
:1019B4000CF1180E03EB0E135C600B7D012B35D07C
:1019C400D17993791B0443EA0163517943EA0123F2
:1019D40014790168234301EB0C11C1F88C31D178DF
:1019E40093781B0443EA0163517843EA0123117895
:1019F40002680B4302EB0C12C2F8883102680CF146
:101A0400180C4FEA0C1C52F80C3043F0010342F856
:101A14000C3000201DE04C6843EAC403CC68234327
:101A24000CF11804240105682B51BFE7036803EB8C
:101A34000E13596841F480715960C1E7436A43F455
:101A440000134362012004E0436A43F480234362A9
:101A5400012030BD90F820C00CF1FF3C5FFA8CFCF3
:101A6400BCF1010F00F29B8010B451B90468E46822
:101A740014F0030F10D1436A43F4001343620120AE
:101A84007BE00468246914F0030F05D1436A43F42E
:101A940000134362012070E001F11B042401D0F81B
:101AA40000C05CF8044004F004049460002C66D187
:101AB40001F11B042401D0F800C05CF80440640D5B
:101AC4001460046801F11B0C4FEA0C1C54F80C4020
:101AD40004F00204D46004686444646804F00F04ED
:101AE4001461046864446468C4F30724946104685A
:101AF40064446468240C5461026802EB0112D2F855
:101B0400B8211A70026802EB0112D2F8B821C2F3AC
:101B140007225A70026802EB0112D2F8B821C2F30C
:101B240007429A70026802EB0112D2F8B821120E31
:101B3400DA70026802EB0112D2F8BC211A71026851
:101B440002EB0112D2F8BC21C2F307225A710268D7
:101B540002EB0112D2F8BC21C2F307429A71026867
:101B640002EB0112D2F8BC21120EDA7189B90268B3
:101B7400D36843F02003D360002010BC704701F108
:101B84001B042401D0F800C05CF80440E40854604D
:101B940097E70268136943F020031361ECE7436A93
:101BA40043F4802343620120704790F82030013BC6
:101BB400DBB2012B05D9436A43F48023436201203D
:101BC4007047026853691943516100207047704798
:101BD4007047704770477047704770477047704749
:101BE4007047704770472DE9F84F054603685C69F4
:101BF400D3F804809F68D3F80CB0D3F810A0D3F8BE
:101C0400189014F001063BD017F0010616D00122FB
:101C14009A6017F0020F08D117F0040F0CD117F0D7
:101C2400080606D04FF4805608E0FFF7D0FF0026E0
:101C340004E0FFF7CFFF01E04FF4006617F4807F64
:101C44000DD02B684FF480729A6017F4007F40F037
:101C5400868017F4806F00F0868046F4005617F4EF
:101C6400803F0DD02B684FF480329A6017F4003F08
:101C740040F0838017F4802F00F0838046F4004600
:101C840014F0080F07D01BF0100F04D046F40076B0
:101C94002B681022DA6014F0040F02D01BF0080F36
:101CA40079D114F0020F04D02B68DB6813F0030F12
:101CB40078D114F0400F07D01AF0100F04D046F476
:101CC40080662B6810221A6114F0200F02D01AF0DB
:101CD400080F6BD114F0100F04D02B681B6913F09C
:101CE400030F6AD114F4003F02D018F0100F68D12A
:101CF40014F4803F02D018F0080F69D114F4004F97
:101D04007AD018F0040F74D014F4807F04D019F042
:101D1400010F01D046F0010614F4007F04D019F03D
:101D2400020F01D046F0020614F4806F04D019F0BB
:101D3400040F01D046F0040614F4006F59D019F0D2
:101D4400700956D0B9F1400F65D058D8B9F1200FB9
:101D54005ED0B9F1300F42D146F0200644E0284667
:101D6400FFF736FF7BE717F4006F02D046F4804696
:101D740075E72846FFF72FFF71E72846FFF729FF8D
:101D84007EE717F4002F02D046F4803678E7284621
:101D9400FFF722FF74E72B680822DA602846FFF772
:101DA4001CFF7EE72846FEF75BFE82E72B680822CD
:101DB4001A612846FFF713FF8CE72846FFF70EFF4A
:101DC40090E72B6810225A602846FFF709FF8FE737
:101DD4002B6808225A602846FFF703FF8EE7B9F103
:101DE400100F01D146F008062A68936923F07003A6
:101DF40093612B6804225A609EB9BDE8F88FB9F14B
:101E0400500F0BD0B9F1600FEED146F48076EBE7BA
:101E140046F01006E8E746F04006E5E746F080069F
:101E2400E2E76B6A1E436E622846FFF7DBFEE4E7D7
:101E3400074AD36823F4E0631B041B0C000200F47C
:101E4400E060034343F0BF6343F40033D36070475F
:101E540000ED00E000B5194BDB68C3F30223C3F1C6
:101E6400070CBCF1040F28BF4FF0040C03F1040E5F
:101E7400BEF1060F18D9033B4FF0FF3E0EFA0CFCDF
:101E840021EA0C0199400EFA03F322EA03031943F1
:101E940000280BDB0901C9B200F1604000F5614084
:101EA40080F800135DF804FB0023E5E700F00F0061
:101EB4000901C9B2024B1954F4E700BF00ED00E078
:101EC40014ED00E0002807DB00F01F0240090123A5
:101ED4009340024A42F82030704700BF00E100E01E
:101EE4000138B0F1807F0BD24FF0E0235861054AEE
:101EF400F02182F823100020986107221A617047AC
:101F04000120704700ED00E030B40124056CAC40C2
:101F1400C56B6C60046863604368102B05D003686C
:101F240099600368DA6030BC704703689A6003689C
:101F3400D960F8E700283AD010B4024600681D4B77
:101F4400984229D81C4B03441C49A1FB03131B09C9
:101F54009B0013641A4BD363022382F82130016877
:101F640021F47F5121F03001536894682343D468ED
:101F74002343146923435469234394692343D46951
:101F840023430B43036000209063012382F8213034
:101F940082F8200010BC70470A4B03440749A1FB98
:101FA40003131B099B001364074BD363D4E701207D
:101FB400704700BF07040240F8FFFDBFCDCCCCCC76
:101FC40000000240F8FBFDBF0004024038B504469F
:101FD40090F82000012831D0012084F8200094F8E2
:101FE4002100012804D0002384F82030022038BDC9
:101FF400022084F821000020A0632568286820F0CE
:10200400010028602046FFF77FFFE36A5BB1226886
:10201400136843F00E0313602268136843F001034E
:1020240013600020E3E72268136823F004031360BD
:102034002268136843F00A031360EDE70220D6E731
:1020440038B5C36B1A6804682568016C04238B4097
:10205400134200F09B8015F0040F00F09780236872
:1020640013F0200F03D1236823F0040323600368D3
:102074009A4A934246D9783A934224D014329342EE
:1020840028D01432934227D01432934227D01432EA
:10209400934227D01432934227D01432934227D04C
:1020A40002F56272934226D01432934225D0143240
:1020B400934224D01432934202D04FF4802203E09E
:1020C4004FF4804200E00422854B5A60C36A03B196
:1020D400984738BD4022F7E74FF48062F4E74FF4A5
:1020E4008042F1E74FF48022EEE74FF48002EBE701
:1020F4004FF08062E8E70422E6E74022E4E74FF489
:102104008062E1E7774A934224D01432934225D087
:102114001432934224D01432934224D01432934282
:1021240024D01432934224D01432934224D002F5A2
:102134006272934223D01432934222D014329342D7
:1021440021D01432934202D04FF4802203E04FF4A2
:10215400804200E00422644B5A60B7E74022FAE769
:102164004FF48062F7E74FF48042F4E74FF48022A3
:10217400F1E74FF48002EEE74FF08062EBE70422D0
:10218400E9E74022E7E74FF48062E4E702238B406B
:10219400134200F0AB8015F0020F00F0A780236813
:1021A40013F0200F06D1236823F00A0323600123D0
:1021B40080F821300368494A93424BD9783A9342D4
:1021C40024D0143293422DD0143293422CD01432A2
:1021D40093422CD0143293422CD0143293422CD0FC
:1021E400143293422CD002F5627293422BD01432F3
:1021F40093422AD01432934229D01432934202D00B
:102204004FF4003203E04FF4005200E00222344B5A
:102214005A60002380F82030836A002B3FF459AFC2
:10222400984756E72022F2E74FF40072EFE74FF4A5
:102234000052ECE74FF40032E9E74FF40012E6E70E
:102244004FF00072E3E70222E1E72022DFE74FF4D8
:102254000072DCE7234A934224D01432934225D0FF
:102264001432934224D01432934224D01432934231
:1022740024D01432934224D01432934224D002F551
:102284006272934223D01432934222D01432934286
:1022940021D01432934202D04FF4003203E04FF4C1
:1022A400005200E00222104B5A60B2E72022FAE703
:1022B4004FF40072F7E74FF40052F4E74FF40032A2
:1022C400F1E74FF40012EEE74FF00072EBE7022261
:1022D400E9E72022E7E74FF40072E4E780000240D8
:1022E400000402400800024000000240082303FAF0
:1022F40001F111423FF4EDAE15F0080F3FF4E9AEE1
:10230400236823F00E032360026CC16B012303FADC
:1023140002F24A60836380F82130002380F8203081
:10232400036B002B3FF4D5AE9847D2E670B582B06C
:102334000024A446B0E0874DAA4210D007D9864DA8
:10234400AA420CD005F58035AA4208D013E0A5F5C1
:102354008015AA4203D005F57025AA4207D18A68E0
:10236400002A62D0012A5BD04361082403E0A5F56A
:102374008015AA42F3D0BEF1FF0F58D80646BEF12D
:10238400FF0F56D84FEA8C0233680F25954023EA95
:10239400050304FA02F2134333604B6813F0805FC1
:1023A40078D06E4B9A6942F001029A619B6903F0FE
:1023B40001030193019B4FEA9C02951C684B53F85F
:1023C40025600CF003039D000F23AB4026EA0306AF
:1023D400644B984233D003F58063984200F09880B0
:1023E40003F58063984200F0958003F5806398427A
:1023F40000F0928003F58063984200F08F8003F52B
:102404008063984219D006231AE0CC68B3E7CC68FD
:102414000434B0E7CC680834ADE7CC680C34AAE7E0
:1024240003610824A7E70024A5E70424A3E7061D05
:10243400A5E7ACF108029200A6E7052300E000231B
:10244400AB4033430232464D45F822304B6813F417
:10245400803F65D0444A136843EA0E0313604B6817
:1024640013F4003F62D0404A536843EA0E035360BA
:102474004B6813F4801F5FD03B4A936843EA0E0312
:1024840093604B6813F4001F5CD0374AD36843EA67
:102494000E03D3600CF1010C0A6832FA0CF357D026
:1024A400012303FA0CF302EA030E33EA0202F1D128
:1024B4004A68122A3FF63FAF122A3FF65CAF01A5E5
:1024C40055F822F0632300080F240008192400089B
:1024D4002B2400087B2300087B2300087B230008AF
:1024E4007B2300087B2300087B2300087B23000850
:1024F4007B2300087B2300087B2300087B23000840
:102504007B2300087B230008132400081F240008F1
:10251400012395E7022393E7032391E704238FE73D
:10252400114A136823EA0E03136098E70E4A5368AE
:1025340023EA0E0353609BE70B4A936823EA0E03D6
:1025440093609EE7084AD36823EA0E03D360A1E7A9
:1025540002B070BD000022100000311000100240D3
:102564000000014000080140000401400AB101617B
:102574007047090401617047C36801EA030221EA54
:10258400030141EA024101617047000082B0084B37
:102594001B68084AA2FB03235B0A00FB03F30193B5
:1025A40000BF019B5A1E0192002BF9D102B0704763
:1025B40000000020D34D6210002800F0F18170B5B6
:1025C40082B00446036813F0010F2CD0994B5B686A
:1025D40003F00C03042B1DD0964B5B6803F00C0333
:1025E400082B12D06368B3F5803F41D0002B55D13E
:1025F40003F1804303F504331A6822F480321A602D
:102604001A6822F480221A6037E08A4B5B6813F45C
:10261400803FE7D0874B1B6813F4003F03D0636807
:10262400002B00F0BF81236813F0020F75D0814B9B
:102634005B6813F00C0F5FD07E4B5B6803F00C03F8
:10264400082B54D02369002B00F08A807A4B012296
:102654001A60FEF7ABFE0546764B1B6813F0020FBB
:1026640075D1FEF7A3FE401B0228F5D903209EE195
:10267400704A136843F480331360636843B3FEF70E
:1026840095FE05466B4B1B6813F4003FCBD1FEF758
:102694008DFE401B6428F5D9032088E1B3F5A02FF3
:1026A40009D0644B1A6822F480321A601A6822F442
:1026B40080221A60E1E703F18043A3F53C331A68F2
:1026C40042F480221A601A6842F480321A60D4E715
:1026D400FEF76CFE0546574B1B6813F4003FA2D06F
:1026E400FEF764FE401B6428F5D903205FE1514BDB
:1026F4005B6813F4803FA5D14E4B1B6813F0020FA7
:1027040003D02369012B40F04F814A4A136823F018
:10271400F803616943EAC1031360236813F0080FE7
:1027240033D0A369002B5CD0434B0122C3F880242F
:10273400FEF73CFE05463F4B5B6A13F0020F21D1C6
:10274400FEF734FE401B0228F5D903202FE1394A55
:10275400136823F0F803616943EAC1031360DCE7FB
:10276400354B00221A60FEF721FE0546314B1B68EB
:1027740013F0020FD1D0FEF719FE401B0228F5D941
:10278400032014E10120FFF701FF236813F0040F75
:1027940000F09680274BDB6913F0805F34D1254B22
:1027A400DA6942F08052DA61DB6903F08053019305
:1027B400019B0125214B1B6813F4807F26D0E3681D
:1027C400012B3DD0002B53D103F1804303F5043397
:1027D4001A6A22F001021A621A6A22F004021A62C8
:1027E40033E0154B0022C3F88024FEF7DFFD0546D5
:1027F400104B5B6A13F0020FC7D0FEF7D7FD401BE6
:102804000228F5D90320D2E00025D3E70B4A136848
:1028140043F480731360FEF7C9FD0646074B1B683B
:1028240013F4807FCBD1FEF7C1FD801B6428F5D95A
:102834000320BCE00010024000004242007000404F
:102844005F4A136A43F001031362E36833B3FEF78C
:10285400ADFD06465A4B1B6A13F0020F2FD1FEF74B
:10286400A5FD801B41F288339842F3D903209EE0F2
:10287400052B09D0524B1A6A22F001021A621A6A15
:1028840022F004021A62E0E74D4B1A6A42F0040295
:102894001A621A6A42F001021A62D6E7FEF786FD4E
:1028A4000646474B1B6A13F0020F08D0FEF77EFD65
:1028B400801B41F288339842F3D9032077E0E5B9CD
:1028C400E369002B72D03E4A526802F00C02082AD7
:1028D40056D0022B17D03B4B00221A66FEF766FD3A
:1028E4000446374B1B6813F0007F47D0FEF75EFDAC
:1028F400001B0228F5D9032059E0314AD36923F09B
:102904008053D361DCE72F4B00221A66FEF74EFD9D
:1029140005462B4B1B6813F0007F06D0FEF746FDDF
:10292400401B0228F5D9032041E0236AB3F5803F18
:102934001AD023494B6823F47413226A606A024351
:1029440013434B601F4B01221A66FEF72FFD04460A
:102954001B4B1B6813F0007F0ED1FEF727FD001BF5
:102964000228F5D9032022E0154A536823F40033E2
:10297400A1680B435360DCE7002018E0002016E058
:10298400012B16D00E4B5B6803F48031226A91420E
:1029940011D103F47013626A93420ED1002006E051
:1029A40001207047012002E0012000E0002002B075
:1029B40070BD0120FBE70120F9E70120F7E700BF24
:1029C400001002400000424286B0194B0FCB0DF1BB
:1029D400180C0CE90F0040F20123ADF80430154B3C
:1029E4005A6802F00C03042B1CD0082B1CD1C2F330
:1029F400834318336B4413F8100C12F4803F0DD04A
:102A04000C4B5B68C3F3404318336B4413F8143C1A
:102A1400094A02FB00F0B0FBF3F006E0074B03FBAE
:102A240000F002E0044800E0054806B0704700BF2B
:102A3400183B000800100240001BB70000093D00CD
:102A440000127A00002800F0A08070B50D460446FC
:102A5400524B1B6803F007038B420BD24F4A136897
:102A640023F007030B431360136803F007038B423F
:102A740040F08D80236813F0020F17D013F0040F79
:102A840004D0474A536843F4E0635360236813F067
:102A9400080F04D0424A536843F460535360404AD9
:102AA400536823F0F003A1680B435360236813F0C9
:102AB400010F31D06368012B20D0022B25D0384A76
:102AC400126812F0020F64D035494A6822F00302FA
:102AD40013434B60FEF76AFC0646314B5B6803F018
:102AE4000C036268B3EB820F16D0FEF75FFC801B09
:102AF40041F288339842F0D9032045E0284A12680D
:102B040012F4003FE0D101203EE0254A126812F0A1
:102B1400007FD9D1012037E0204B1B6803F0070365
:102B2400AB420AD91D4A136823F007032B431360F1
:102B3400136803F00703AB422DD1236813F0040F8D
:102B440006D0174A536823F4E063E1680B435360EB
:102B5400236813F0080F07D0114A536823F4605315
:102B6400216943EAC1035360FFF72EFF0C4B5B68F6
:102B7400C3F303130B4AD35CD8400B4B18600B4BC5
:102B84001868FEF7CFFB002070BD012070470120BC
:102B9400FAE70120F8E70120F6E700BF0020024031
:102BA40000100240003B0008000000200800002044
:102BB400014B1868704700BF0000002008B5FFF7FC
:102BC400F7FF044B5B68C3F30223034AD35CD8408A
:102BD40008BD00BF00100240103B000808B5FFF715
:102BE400E7FF044B5B68C3F3C223034AD35CD840BA
:102BF40008BD00BF00100240103B000870B582B051
:102C04000446036813F0010F36D03F4BDB6913F021
:102C1400805F49D13C4BDA6942F08052DA61DB696A
:102C240003F080530193019B0125384B1B6813F477
:102C3400807F3BD0344B1B6A13F4407313D062681B
:102C440002F440729A420ED02F4A136A23F4407061
:102C54002F490126C1F840640026C1F8406410627F
:102C640013F0010F36D1284A136A23F440736168C4
:102C74000B431362002D3ED1236813F0020F06D0DC
:102C8400214A536823F44043A1680B4353602368EB
:102C940013F0100F34D01C4A536823F48003616985
:102CA4000B43536000202CE00025BEE7174A13684D
:102CB40043F480731360FEF779FB0646134B1B68DD
:102CC40013F4807FB6D1FEF771FB801B6428F5D91D
:102CD400032016E0FEF76AFB06460B4B1B6A13F053
:102CE400020FC0D1FEF762FB801B41F28833984289
:102CF400F3D9032005E0D36923F08053D361BBE704
:102D0400002002B070BD00BF0010024000700040FF
:102D1400000042422DE9F04782B005468846174636
:102D24001E46FEF743FB0A9B1B1A03EB0609FEF73C
:102D34003DFB82462B4B1B68C3F3CB3309FB03F3E8
:102D440001932B689C6838EA04030CBF4FF0010C14
:102D54004FF0000CBC4540D0B6F1FF3FF1D0FEF778
:102D640025FBA0EB0A0048450AD2B9F1000F07D0B1
:102D7400019A02B14A46019B013B01939146E0E767
:102D84002A68536823F0E00353606B68B3F5827FCD
:102D94000BD0AB6AB3F5005F14D0012385F8513032
:102DA400002385F85030032018E0AB68B3F5004FDA
:102DB40002D0B3F5806FECD12A68136823F0400386
:102DC4001360E6E72A68136823F4005313602A6843
:102DD400136843F400531360DFE7002002B0BDE83A
:102DE400F08700BF0000002010B582B004460B46F7
:102DF400009200228021FFF78DFF08B902B010BDB8
:102E0400636D43F0200363650320F7E7002856D081
:102E140010B50446436A33B94368B3F5827F05D0DD
:102E24000023C36102E00023036143610023A36222
:102E340094F85130002B3CD0022384F8513022689E
:102E4400136823F040031360636803F48273A26879
:102E540002F404421343E26802F400621343226959
:102E640002F002021343626902F001021343A269F1
:102E740002F400721343E26902F038021343226A37
:102E840002F080021343A26A02F400522168134341
:102E94000B60638B226803F0040353602268D369D8
:102EA40023F40063D36100206065012384F851306A
:102EB40010BD84F850302046FDF77CFEBCE70120AD
:102EC4007047000038B590F85030012B61D00446AB
:102ED400012380F8503090F85150EDB29D4252D108
:102EE400002951D0002A4FD0032380F85130002309
:102EF400436501638286C286836343640364838774
:102F0400C3878368B3F5004F2AD0A36C224ADA62E0
:102F1400A36C224A9A62A36C214A1A63A36C00220E
:102F24005A632268E38E9BB20C32216BA06CFFF7CC
:102F34004DF80146F8B923681A6812F0400F03D11E
:102F44001A6842F040021A602268536843F0200372
:102F540053602268536843F0020353600D4613E044
:102F64000268136823F0400313600268136843F493
:102F740080431360C9E7636D43F010036365012365
:102F840084F8513000E00225002384F850302846AC
:102F940038BD0225FBE700BFAD2F0008DB2F00087A
:102FA400B92F00087047704708B5406AFFF7FBFF68
:102FB40008BD704708B5406A0268536823F00303EC
:102FC4005360436D43F010034365012380F851308F
:102FD400FFF7EFFF08BD30B583B00546446AFEF73E
:102FE400E5F92B681B6813F0200F23D102462168F2
:102FF4004B6823F020034B6021684B6823F00203E5
:103004004B6064212046FFF7EFFE18B1636D43F077
:1030140020036365A36833B901932368DA680192D6
:103024009B680193019B0023E386012384F85130BC
:10303400636D23B92046FFF7B5FF03B030BD2046CA
:10304400FFF7B7FFF9E7000030B4036A23F0010388
:103054000362036A4268846924F073040D682C4394
:1030640023F0020C8B6843EA0C03104DA84203D0F2
:1030740005F50065A84205D123F00803CD682B436C
:1030840023F00403094DA84203D005F50065A842C6
:1030940005D122F440724D692A438D692A43426066
:1030A40084614A684263036230BC7047002C01406B
:1030B40030B4036A23F480730362036A4268C46908
:1030C40024F0730C0C6844EA0C0523F400738C6838
:1030D40043EA0423114CA04203D004F50064A04247
:1030E40006D123F40063CC6843EA042323F4806309
:1030F4000A4CA04203D004F50064A04207D122F494
:1031040040524C6942EA04128C6942EA0412426059
:10311400C5614A68C263036230BC7047002C014039
:1031240030B4036A23F480530362036A4468C269B7
:1031340022F4E6420D6842EA052223F400538D6826
:1031440043EA0533094DA84203D005F50065A842BA
:1031540004D124F480444D6944EA85144460C26176
:103164004A680264036230BC704700BF002C01400F
:1031740090F83D30DBB2012B2FD1022380F83D3093
:103184000268D36843F00103D3600368154A93428D
:1031940018D002F50062934214D0B3F1804F11D0DD
:1031A400A2F5983293420DD002F58062934209D081
:1031B40002F58062934205D01A6842F001021A6057
:1031C400002070479A6802F00702062A07D01A689E
:1031D40042F001021A60002070470120704700206D
:1031E400704700BF002C014070477047704770471C
:1031F40010B5044603681A6912F0020F11D0DA6898
:1032040012F0020F0DD06FF002021A61012303774E
:1032140003689B6913F0030F70D0FFF7E6FF0023E8
:10322400237723681A6912F0040F12D0DA6812F0B7
:10323400040F0ED06FF004021A610223237723686F
:103244009B6913F4407F5FD02046FFF7CEFF002335
:10325400237723681A6912F0080F12D0DA6812F083
:10326400080F0ED06FF008021A6104232377236835
:10327400DB6913F0030F4ED02046FFF7B6FF00239F
:10328400237723681A6912F0100F12D0DA6812F04B
:10329400100F0ED06FF010021A61082323772368F1
:1032A400DB6913F4407F3DD02046FFF79EFF0023E7
:1032B400237723681A6912F0010F03D0DA6812F039
:1032C400010F36D123681A6912F0800F03D0DA682F
:1032D40012F0800F34D123681A6912F0400F03D022
:1032E400DA6812F0400F32D123681A6912F0200F05
:1032F40003D0DA6812F0200F30D110BDFFF774FF4D
:103304002046FFF773FF8AE72046FFF76DFF20464C
:10331400FFF76CFF9BE72046FFF766FF2046FFF7A9
:1033240065FFACE72046FFF75FFF2046FFF75EFF2F
:10333400BDE76FF001021A612046FDF783FAC1E789
:103344006FF080021A61204600F0BCF9C3E76FF009
:1033540040021A612046FFF74AFFC5E76FF02002DA
:103364001A61204600F0ADF9C7E700000368244A5B
:10337400904212D002F5006290420ED0B0F1804F1C
:103384000BD0A2F59832904207D002F580629042A9
:1033940003D002F58062904203D123F070034A689F
:1033A4001343174A904212D002F5006290420ED0A5
:1033B400B0F1804F0BD0A2F59832904207D002F5BD
:1033C4008062904203D002F58062904203D123F4DC
:1033D4004073CA68134323F080034A6913430360AC
:1033E4008B68C3620B688362054B984203D003F574
:1033F4000063984201D10B69036301234361704761
:10340400002C014040B310B5044690F83D30F3B1B0
:10341400022384F83D30214651F8040BFFF7A6FF40
:10342400012384F8463084F83E3084F83F3084F831
:10343400403084F8413084F8423084F8433084F8D2
:10344400443084F8453084F83D30002010BD80F8C5
:103454003C30FDF785FDDBE70120704740B310B534
:10346400044690F83D30F3B1022384F83D30214600
:1034740051F8040BFFF77AFF012384F8463084F8EF
:103484003E3084F83F3084F8403084F8413084F88A
:10349400423084F8433084F8443084F8453084F86A
:1034A4003D30002010BD80F83C30FDF7BDFCDBE76B
:1034B4000120704730B4036A23F010030362036AE7
:1034C4004468826922F4E6420D6842EA052223F048
:1034D40020038D6843EA0513114DA84203D005F576
:1034E4000065A84206D123F08003CD6843EA0513A2
:1034F40023F040030A4DA84203D005F50065A84215
:1035040007D124F440644D6944EA85048D6944EA92
:103514008504446082614A688263036230BC7047F8
:10352400002C014038B590F83C30012B60D00446A3
:103534000D46012380F83C300C2A1AD8DFE802F04B
:10354400071919191D191919311919194400006895
:10355400FFF77AFD2268936943F0080393612268B8
:10356400936923F0040393612268936929690B43E7
:103574009361002084F83C0038BD0068FFF79AFF8F
:103584002268936943F4006393612268936923F486
:103594008063936122689369296943EA01239361F3
:1035A400E7E70068FFF784FD2268D36943F0080366
:1035B400D3612268D36923F00403D3612268D369F9
:1035C40029690B43D361D4E70068FFF7A9FD22689A
:1035D400D36943F40063D3612268D36923F480631D
:1035E400D3612268D369296943EA0123D361C0E71F
:1035F4000220C1E790F83C30012B34D010B40123F1
:1036040080F83C30022380F83D3003685A689C6897
:1036140022F0700C0A6842EA0C025A600368134AEA
:10362400934212D002F5006293420ED0B3F1804F60
:103634000BD0A2F59832934207D002F580629342F0
:1036440003D002F58062934204D124F080044A68D6
:1036540014439C60012380F83D30002380F83C3003
:10366400184610BC70470220704700BF002C014070
:1036740090F83C30012B22D0012380F83C30CB68F9
:1036840023F440738A68134323F480634A68134322
:1036940023F400630A68134323F480530A69134331
:1036A40023F400534A69134323F48043CA69134340
:1036B40002685364002380F83C30184670470220A7
:1036C400704770477047000010B5044602681369DC
:1036D40023F44053C1680B431361836802691343A5
:1036E40042691A430168CB6823F4B05323F00C03F6
:1036F4001343CB600268536923F4407381690B431D
:1037040053610268134B9A4220D0FFF757FA0246DE
:1037140002EB820202EB820263689B00B2FBF3F2CB
:103724000D48A0FB02314909642303FB11231B014B
:103734003233A0FB03235B0903F0F00202EB011216
:1037440003F00F03216813448B6010BDFFF746FAA2
:103754000246DDE7003801401F85EB512DE9F843AF
:1037640005460F4616469946DDF820802C682468E5
:1037740037EA04030CBF4FF0010C4FF0000CB445C2
:103784001FD1B8F1FF3FF1D0B8F1000F05D0FDF71C
:103794000DFEA0EB09004045E8D92A68D36823F45C
:1037A400D073D3602A68536923F001035361202343
:1037B40085F83D3085F83E30002385F83C30032001
:1037C40000E00020BDE8F88358B310B5044690F833
:1037D4003D300BB3242384F83D302268D36823F4AE
:1037E4000053D3602046FFF76FFF2268136923F468
:1037F400904313612268536923F02A0353612268BA
:10380400D36843F40053D36000202064202384F859
:103814003D3084F83E3010BD80F83C30FDF7EEFCBE
:10382400D8E7012070472DE9F04182B01E4690F898
:103834003D30DBB2202B54D104460D46904600297E
:1038440053D0002A53D090F83C30012B51D001239F
:1038540080F83C3000230364212380F83D30FDF7D9
:10386400A5FD0746A4F82480A4F82680A368B3F530
:10387400805F05D04FF00008002384F83C3012E04C
:10388400236913B14FF00008F6E7A8460025F3E7D3
:1038940038F8023B2268C3F308035360E28C92B207
:1038A400013A92B2E284E38C9BB273B100963B4638
:1038B400002280212046FFF751FFE0B9002DE7D018
:1038C40015F8012B23685A60E8E700963B4600226E
:1038D40040212046FFF742FF78B9202384F83D3089
:1038E40000E0022002B0BDE8F0810120FAE70120E7
:1038F400F8E70220F6E70320F4E70320F2E70000EC
:1039040070B50D4E0D4D761BB61006D0002455F83B
:10391400043B01349847A642F9D1094E094D00F001
:10392400D5F8761BB61006D0002455F8043B0134B4
:103934009847A642F9D170BD303B0008303B0008DF
:10394400383B0008303B0008830730B548D0541E8C
:10395400002A3FD00346CAB201E0013C3AD303F83F
:10396400012B9D07F9D1032C2DD9CDB245EA0525AC
:103974000F2C45EA054536D9A4F1100222F00F0CAC
:1039840003F1200EE6444FEA121C03F1100242E94F
:10399400045542E9025510327245F8D10CF1010286
:1039A40014F00C0F03EB021204F00F0C13D0ACF163
:1039B400040323F003030433134442F8045B9342E7
:1039C400FBD10CF003042CB1CAB21C4403F8012B44
:1039D4009C42FBD130BD64461346002CF4D1F9E778
:1039E40003461446BFE71A46A446E0E7024B13B168
:1039F400024800F005B8704700000000113A0008C2
:103A0400002301461A46184600F01AB838B5084B88
:103A1400084D5B1B9C1007D0043B1D44013C55F82A
:103A240004399847002CF9D1BDE8384000F054B867
:103A34003C3B0008383B0008704700BF704700BF9C
:103A44002DE9F047DFF87CA00646DAF80000984636
:103A54000F469146FFF7F0FF1B4B1B68D3F8484114
:103A640024B365681F2D26DC5EB96B1C0235DAF8B9
:103A74000000636044F82570FFF7E0FF0020BDE814
:103A8400F087012304EB8501C1F88890D4F88821DC
:103A9400AB401A43022EC4F88821C1F80881E4D14E
:103AA400D4F88C211343C4F88C31DEE703F5A674F3
:103AB400C3F84841D5E7DAF80000FFF7BFFF4FF03D
:103AC400FF30DCE7380400202C3B0008F8B500BFC9
:103AD400F8BC08BC9E467047F8B500BFF8BC08BCEB
:043AE4009E46704743
:103AE80073746172740A0D0068656C6C6F20776F6F
:103AF800726C640A00000000000000000000000072
:103B0800010203040607080900000000010203047B
:103B180002030405060708090A0B0C0D0E0F101006
:083B2800000000001000002065
:083B3000F13900080902000848
:043B3800E50100089B
:103B3C000024F40001000000100000000000000050
:103B4C0000000000FC02002064030020CC030020D5
:103B5C000000000000000000000000000000000059
:103B6C000000000000000000000000000000000049
:103B7C000000000000000000000000000000000039
:103B8C000000000000000000000000000000000029
:103B9C000000000000000000000000000000000019
:103BAC000000000000000000000000000000000009
:103BBC0000000000000000000000000000000000F9
:103BCC0000000000000000000000000000000000E9
:103BDC0000000000000000000000000000000000D9
:103BEC0000000000000000000100000000000000C8
:103BFC000E33CDAB34126DE6ECDE05000B0000008D
:103C0C0000000000000000000000000000000000A8
:103C1C000000000000000000000000000000000098
:103C2C000000000000000000000000000000000088
:103C3C000000000000000000000000000000000078
:0C3F6C000000000000000000BC08002065
:04000005080012DD00
:00000001FF
