:020000040800F2
:100000002026002039330008590300085B0300084C
:100010005F03000863030008670300080000000096
:100020000000000000000000000000006B0300085A
:100030006D030008000000006F0300087103000852
:100040005333000853330008533300085333000878
:100050005333000853330008533300085333000868
:100060005333000853330008533300085333000858
:100070005333000853330008533300085333000848
:100080005333000853330008533300085333000838
:100090005333000853330008533300085333000828
:1000A0005333000853330008533300085333000818
:1000B000533300082D1E0008533300085333000843
:1000C00053330008533300085333000853330008F8
:1000D000533300080F33000853330008533300082C
:1000E00053330008533300085333000853330008D8
:1000F00053330008533300085333000853330008C8
:1001000053330008533300085333000853330008B7
:1001100053330008533300085333000853330008A7
:100120005333000853330008533300085333000897
:1001300000F002F800F05EF80AA090E8000C82449B
:100140008344AAF10107DA4501D100F053F8AFF278
:10015000090EBAE80F0013F0010F18BFFB1A43F0A5
:1001600001031847285C0100485C010010F8013BBE
:100170000A4413F0030408BF10F8014B1D1108BF17
:1001800010F8015B641E05D010F8016B641E01F8C5
:10019000016BF9D1002D15D010F8014B03F00C03C1
:1001A0000C2BA1EB04040ABF10F8013BA4EB831451
:1001B000A4EB032405F1010314F8016B5B1E01F8A5
:1001C000016BF9D5914238BF10F8013BD1D370478C
:1001D0000023002400250026103A28BF78C1FBD850
:1001E000520728BF30C148BF0B6070471FB51FBD05
:1001F00010B510BD04F0D8FD1146FFF7F7FF00F071
:100200007CF804F0F6FD03B4FFF7F2FF03BC03F043
:1002100023F800001CB54FF6FF7000F09BFC1F2078
:100220004649088046A01021CDE9001045490988BB
:10023000183988B21023C822002100F002FF4FF4C1
:1002400078403E4908801CBD002455E03E48416886
:10025000002088473C4890F8200000F0800008B358
:10026000394880893749098888421EDA3648C08A69
:1002700034494988884218DA3348818931480088EE
:100280001838814206DD3048C08A102802DAFFF7AC
:10029000C1FF0AE02C4AD18A90894FF4784201F0DC
:1002A00032FF02E00A2002F0AAFF28480078012865
:1002B00012D10020254908702548006808B901209E
:1002C00000E00020224908604FF6FF7000F05AFC61
:1002D00002F0B3F8FFF79EFF601CC4B2142094FB39
:1002E000F0F100FB114038B91A48006808B9012044
:1002F00000E0002017490860A8E700BF02F042FFB5
:100300004FF4A06003F038F84FF4E13002F0B3FF8F
:1003100000F020F900F042FA00F042F90A490868BA
:10032000804741F61F410A2001F03AFD4FF4784022
:100330000249088001E001F0A5FAFCE71600002060
:1003400052535400AC1F00205C1F00204A1F0020A5
:100350009401234294812142704700BFFEE700BF11
:10036000FEE700BFFEE700BFFEE77047704770473B
:10037000704700000CB50020019000906C480068A8
:1003800040F480306A49086000BF6948006800F4A2
:10039000003000900198401C0190009818B9019815
:1003A000B0F5A06FF1D16248006800F4003010B1E0
:1003B0000120009001E0002000900098012843D126
:1003C0005C48006840F010005A4908600846006820
:1003D00020F0030008600846006840F00200086052
:1003E000534840685249486008464068486008469B
:1003F000406840F4806048600846406820F47C1003
:1004000048600846406840F4E810486008460068C4
:1004100040F08070086000BF4548006800F0007040
:100420000028F9D04248406820F003004049486065
:100430000846406840F00200486000BF3C48406801
:1004400000F00C000828F9D10CBD10B5FFF792FFA1
:1004500010BD10B53648006840F00100344908600E
:1004600008464068344908403149486008460068F9
:10047000324908402E4908600846006820F4802070
:1004800008600846406820F4FE0048604FF41F00F2
:100490008860FFF7DAFF4FF000602949086010BD5F
:1004A00010B5002100200022214B5B6803F00C01F5
:1004B00021B1042906D0082928D107E0214B224C7C
:1004C000236027E01F4B204C236023E0184B5B6820
:1004D00003F47010164B5B6803F48032022303EBC5
:1004E000904022B9194B4343174C23600DE0104B49
:1004F0005B6803F4003323B1144B4343124C236075
:1005000003E0104B4343104C236003E00D4B0E4CB3
:10051000236000BF00BF064B5B68C3F303130C4CA2
:10052000E15C094B1B68CB40074C236010BD000009
:1005300000100240002002400000FFF8FFFFF6FE1E
:1005400008ED00E000127A000000002000093D00E4
:100550000400002008B50121482003F097FA20206C
:10056000ADF8000010208DF8030003208DF8020084
:100570006946094802F0CEFF2021074803F077F8CA
:100580002020ADF800006946044802F0C3FF202196
:10059000024803F06CF808BD000C0140001801404F
:1005A00008B50121442003F071FA1820ADF80000CD
:1005B00048208DF803006946324802F0ABFF012065
:1005C000ADF8000028208DF8030069462E4802F09F
:1005D000A1FF08BD10B5044614B101202B490870D5
:1005E0002A480078002838D01021264803F025F842
:1005F00050B10821234803F020F828B101212248F6
:1006000003F01BF8012828D121480078401C20491C
:100610000870084600780A2833DB002008701B4960
:1006200008701021174803F008F818B9012019497B
:10063000087026E00821134802F0FFFF18B90220D5
:10064000144908701DE001210F4802F0F6FF01284F
:1006500017D103200F49087013E01021094802F058
:10066000ECFF01280DD10821064802F0E6FF012821
:1006700007D10121044802F0E0FF10B9012003492D
:10068000087010BD0018014000080140140000204F
:10069000150000204A1F00204FF48062FB4B1A60B7
:1006A00052001A60002117E000F080022AB14FF4D6
:1006B0008052F64B1B1F1A6003E04FF48052F34B3D
:1006C0001A604FF40072F14B1A601B1F1A604FF64C
:1006D000FF7202EA4000491C0829E5DB4FF4006282
:1006E000EA4B1B1F1A6070474FF48062E74B1B1FD9
:1006F0001A6052001B1D1A60002117E000F08002F2
:100700002AB14FF48052E14B1B1F1A6003E04FF4F3
:100710008052DE4B1A604FF40072DC4B1A601B1FD4
:100720001A604FF6FF7202EA4000491C0829E5DB17
:100730004FF40062D54B1B1F1A60704710B504467A
:100740002012FFF7D1FF2046FFF7CEFF10BDF0B516
:1007500004460D4616461F462A20FFF79DFF20122D
:10076000FFF7C2FFE0B2FFF7BFFF3012FFF7BCFF99
:10077000F0B2FFF7B9FF2B20FFF78EFF2812FFF72B
:10078000B3FFE8B2FFF7B0FF3812FFF7ADFFF8B2E2
:10079000FFF7AAFF2C20FFF77FFFF0BD08B501216E
:1007A000080203F066F901214FF4B47003F06EF90A
:1007B0000720ADF8000010208DF8030003208DF80D
:1007C00002006946B24802F0A5FE4FF47C50ADF835
:1007D000000010208DF8030003208DF80200694608
:1007E000AA48143802F096FE4FF46060ADF800009D
:1007F00010208DF8030003208DF802006946A548FB
:1008000002F088FE4FF48070A049091F08600A209A
:1008100002F0F5FC4FF480709C4908600A2002F059
:10082000EEFC4FF480709949091F0860C82002F05F
:10083000E6FC1120FFF730FF782002F0E0FCB12049
:10084000FFF72AFF0520FFF74FFF3C20FFF74CFF83
:100850003C20FFF749FFB220FFF71EFF0520FFF7FE
:1008600043FF3C20FFF740FF3C20FFF73DFFB32054
:10087000FFF712FF0520FFF737FF3C20FFF734FF9B
:100880003C20FFF731FF0520FFF72EFF3C20FFF74C
:100890002BFF3C20FFF728FFB420FFF7FDFE0320CD
:1008A000FFF722FFC020FFF7F7FE2820FFF71CFF0D
:1008B0000820FFF719FF0420FFF716FFC120FFF7FC
:1008C000EBFEC020FFF710FFC220FFF7E5FE0D2072
:1008D000FFF70AFF0020FFF707FFC320FFF7DCFE4A
:1008E0008D20FFF701FF2A20FFF7FEFEC420FFF74F
:1008F000D3FE8D20FFF7F8FEEE20FFF7F5FEC520B2
:10090000FFF7CAFE1A20FFF7EFFE3620FFF7C4FEFE
:10091000C020FFF7E9FEE020FFF7BEFE0420FFF74E
:10092000E3FE2220FFF7E0FE0720FFF7DDFE0A20AE
:10093000FFF7DAFE2E20FFF7D7FE3020FFF7D4FEB8
:100940002520FFF7D1FE2A20FFF7CEFE2820FFF753
:10095000CBFE2620FFF7C8FE2E20FFF7C5FE3A206B
:10096000FFF7C2FE0020FFF7BFFE0120FFF7BCFE2D
:100970000320FFF7B9FE1320FFF7B6FEE120FFF7D3
:100980008BFE0420FFF7B0FE1620FFF7ADFE062019
:10099000FFF7AAFE0D20FFF7A7FE2D20FFF7A4FE0C
:1009A0002620FFF7A1FE2320FFF79EFE2720FFF75A
:1009B0009BFE2720FFF798FE2520FFF795FE2D20B0
:1009C000FFF792FE3B20FFF78FFE0020FFF78CFE23
:1009D0000120FFF789FE0420FFF786FE1320FFF7B2
:1009E00083FE3A20FFF758FE0520FFF77DFE292001
:1009F000FFF752FE0120284908608020274908801F
:100A0000A020488008BD70B50646EF2340F23F1293
:100A100000210846FFF79BFE00240BE0002504E0C0
:100A20003046FFF78BFE681C85B2B5F5A07FF7DB7B
:100A3000601C84B2F02CF1DB70BD4FF48062134B6C
:100A40001A6052001A60002117E000F080022AB1FB
:100A50004FF480520D4B1B1F1A6003E04FF480527D
:100A60000A4B1A604FF40072084B1A601B1F1A6081
:100A70004FF6FF7202EA4000491C0829E5DB4FF4FB
:100A80000062024B1B1F1A607047000014180140DF
:100A9000000C0140001C014080812142AC1F00205D
:100AA0004FF48062F84B1A6052001B1D1A6000213F
:100AB00018E000F0800222B14FF48052F24B1A602D
:100AC00004E04FF48052F04B1B1D1A604FF400728B
:100AD000ED4B1B1D1A601B1F1A604FF6FF7202EAD6
:100AE0004000491C0829E4DB4FF40062E64B1A6021
:100AF000704730B505460C462846FFF79EFF204656
:100B0000FFF7CEFF30BD00BF0100A0F10102D0B25F
:100B1000FAD1704700B52920FFF78FFF00BD00B55F
:100B20002820FFF78AFF00BD70B504460D46164623
:100B30002B46224629462046FFF709FE3046FFF79E
:100B4000FDFD70BD70B505460E4614462046FFF704
:100B5000F5FD70BD70B506469F237F220021084633
:100B6000FFF7F5FD00240AE0002504E03046FFF71A
:100B7000E5FD681CC5B2A02DF8DB601C84B2802C9A
:100B8000F2DB70BD70B50646A12381220021084624
:100B9000FFF7DDFD00240AE0002504E03046FFF702
:100BA000CDFD681CC5B2A22DF8DB601C84B2822C7E
:100BB000F2DB70BD2DE9F04F04460D4616461F4688
:100BC0004FF0000AD346301B401C1FFA80FA781BF6
:100BD000401C1FFA80FB3B46324629462046FFF761
:100BE000B6FD4FF000080FE04FF0000906E009984D
:100BF000FFF7A4FD09F101001FFA80F9D945F6DBE2
:100C000008F101001FFA80F8D045EDDBBDE8F08F58
:100C10002DE9FF4F84B081468A4600200390029060
:100C20000698A0EB09050798A0EB0A06CDF80490FA
:100C3000CDF800A0002D01DD012705E00DB900274A
:100C400002E04FF0FF376D42002E02DD4FF0010849
:100C500006E016B94FF0000802E04FF0FF38764288
:100C6000B54201DD2C4600E034464FF0000B23E096
:100C7000009A91B2019A90B2844A1288FFF754FF09
:100C80000398284403900298304402900398A042AD
:100C900005DD0398001B03900198384401900298E9
:100CA000A04205DD0298001B02900098404400908D
:100CB0000BF101001FFA80FB601C8345D8DD08B0F2
:100CC000BDE8F08FF0B504460D4616461F462B468C
:100CD000324629462046FFF79BFF3B4622462946DF
:100CE0002046FFF795FF3B46324639462046FFF740
:100CF0008FFF3B46324629463046FFF789FFF0BD5D
:100D00002DE9F04306460F46904600244546032051
:100D1000A0EB48094CE07A1B91B2321990B25B4AC1
:100D20001288FFF701FF3A1B91B2721990B2574A2D
:100D30001288FFF7F9FE3A1991B2721990B2534A2C
:100D40001288FFF7F1FE7A1991B2321990B24F4A28
:100D50001288FFF7E9FE7A1991B2321B90B24B4A22
:100D60001288FFF7E1FE3A1991B2721B90B2474A1E
:100D70001288FFF7D9FE7A1B91B2321B90B2434A18
:100D80001288FFF7D1FE3A1B91B2721B90B23F4A14
:100D90001288FFF7C9FE641CB9F1000F03DAA00046
:100DA000801D814404E0601B80000A3081446D1E78
:100DB000AC42B0DDBDE8F0832DE9F84F80460E4629
:100DC00017461C46B3462046E31704EB5373DB106B
:100DD00021464FEAE47C04EB5C7C4FEAEC0CA4EB8C
:100DE000CC0CBCF1000F02D04FF0010C01E04FF031
:100DF000000C6344224604EBD27C4FEA6C0C03FBEC
:100E00000CF3DBB20093A7F12000C7B200255FE02E
:100E10000C2C07D107EB47001D4901EB800010F8AF
:100E2000059013E0102C05D11A4800EB071010F8BC
:100E300005900BE0182C07D107EBC700164901EB12
:100E4000800010F8059001E0BDE8F88F4FF0000A2F
:100E500038E009F0800030B10C4802883146404645
:100E6000FFF762FE07E00A9828B90C48028831466D
:100E70004046FFF759FE4FEA49604FEA1069701C7F
:100E800086B2F02E0CDBDFE71018014016000020C0
:100E900082590008F65D0008E6630008180000208B
:100EA000A6EB0B00A04209D15E4608F101001FFA33
:100EB00080F8B8F5A07F00DBC6E706E00AF1010084
:100EC00000F0FF0ABAF1080FC3DB00BF681CC5B20F
:100ED000009885429CDB00BFB6E710B502460120B2
:100EE00000E050430B00A1F10104E1B2F9D110BDC3
:100EF0002DE9FF4F81B0074691461E460E9D4FF0EB
:100F0000000A002439E0301B401EC1B20A20FFF75E
:100F1000E4FFB9FBF0F00A21B0FBF1F201FB12088B
:100F2000BAF1000F16D1701EA04213DDB8F1000F08
:100F30000ED10020AB4605EBDB71491001FB0471BB
:100F4000009088B22B4620220299FFF735FF12E06D
:100F50004FF0010A0020AB4605EBDB71491001FBA5
:100F60000471009088B208F13001CAB22B46029990
:100F7000FFF722FF00BF601CC4B2B442C3DB05B060
:100F8000BDE8F08F2DE9FF4F82B0064692461F461E
:100F9000DDE90F480020019000254DE0781B401E40
:100FA000C1B20A20FFF799FFBAFBF0F00A21B0FBAB
:100FB000F1F201FB1209019850BB781EA84227DD0F
:100FC000B9F1000F22D108F0800078B108F00100DB
:100FD000A34604EBDB71491001FB0561009088B268
:100FE000234630220399FFF7E7FE0EE008F00100E8
:100FF000A34604EBDB71491001FB0561009088B248
:10100000234620220399FFF7D7FE13E00120019029
:1010100008F00100A34604EBDB71491001FB0561F8
:10102000009088B209F13001CAB223460399FFF754
:10103000C3FE00BF681CC5B2BD42AFDB06B0BDE851
:10104000F08F2DE9F84704460D4690469946DDE9B4
:10105000096704F0FF0A08EB04001FFA80F809EBA7
:1010600005001FFA80F916E0444502DB5446A81932
:1010700085B24D4500DB14E0002000903A783346FD
:1010800029462046FFF798FE304606EBD07104EB68
:1010900061018CB27F1C38787E2802DC38782028E9
:1010A000E2DA00BFBDE8F8872DE9F04707460C46B5
:1010B00091469A464E46A01B85B21CE0B81B1FFA0B
:1010C00080F813E0A8EB07004043291B2A1B01FB13
:1010D000020106FB06F0814204DC524629464046E6
:1010E000FFF722FD08F101001FFA80F8B81940450A
:1010F000E8DC681C85B2A019A842DFDCBDE8F087F7
:1011000010B54FF6FF70FFF73DFD86E0FE48008802
:10111000052871D2DFE800F0030D263E57004FF49A
:101120007840FA490880322296216420FFF7E8FDD2
:1011300062E04FF4FC60F5490880F34A128802EB44
:10114000C20303EB0212C2F1960291B2EE4A128878
:1011500002EBC20303EB0212643290B23222FFF7B9
:10116000CFFD49E01F20E9490880E74A128802EBD9
:10117000C20303EB0212C2F1960291B2E24A128854
:1011800002EBC20303EB0212643290B23222FFF789
:10119000B7FD31E04FF6E070DC490880DA4A12888A
:1011A00002EBC20303EB0212C2F1960291B2D64ADD
:1011B000128802EBC20303EB0212643290B23222B5
:1011C000FFF79EFD18E04FF61F00D0490880CE4A79
:1011D000128802EBC20303EB0212C2F1960291B233
:1011E000C94A128802EBC20303EB0212643290B2C6
:1011F0003222FFF785FD00BF00BF4FF47A7001F087
:10120000FEFFC1480088401CBF490880084600888E
:10121000052802DB0020088010BD77E710B54FF6E7
:10122000FF70FFF7AFFC7CE0B9480088052867D263
:10123000DFE800F0030B22384F004FF478433222EE
:1012400096216420FFF730FF5AE0B14A128802EB82
:10125000C20303EB0212C2F1960291B2AC4A1288A9
:1012600002EBC20303EB0212643290B24FF4FC6350
:101270003222FFF719FF43E0A54A128802EBC203AE
:1012800003EB0212C2F1960291B2A14A128802EB5C
:10129000C20303EB0212643290B21F233222FFF723
:1012A00003FF2DE09A4A128802EBC20303EB0212FD
:1012B000C2F1960291B2964A128802EBC20303EB86
:1012C0000212643290B24FF6E0733222FFF7ECFE66
:1012D00016E08F4A128802EBC20303EB0212C2F13E
:1012E000960291B28A4A128802EBC20303EB021201
:1012F000643290B24FF61F033222FFF7D5FE00BFD3
:1013000000BF4FF47A7001F07AFF81480088401CDA
:101310007F49088008460088052802DB00200880F5
:1013200010BD81E770B54FF6FF70FFF72BFCBBE0F7
:101330007848008805280ED2DFE800F0030E345903
:101340007F004FF478407149088096231A46FA21AD
:101350003220FFF7B7FC96E04FF4FC606B49088041
:101360006C4C248804EB84049625A5EB8404A3B27A
:10137000684C248804EB840405EB8404A2B2654C19
:10138000248804EB8404FA25A5EB8404A1B2614C03
:10139000248804EB8404322505EB8404A0B2FFF713
:1013A00091FC70E01F20594908805A4C248804EBB6
:1013B00084049625A5EB8404A3B2564C248804EB40
:1013C000840405EB8404A2B2524C248804EB840408
:1013D000FA25A5EB8404A1B24E4C248804EB8404C6
:1013E000322505EB8404A0B2FFF76CFC4BE04FF60E
:1013F000E07046490880474C248804EB8404962515
:10140000A5EB8404A3B2434C248804EB840405EBCD
:101410008404A2B23F4C248804EB8404FA25A5EB93
:101420008404A1B23B4C248804EB8404322505EBF0
:101430008404A0B2FFF746FC25E04FF61F003349B5
:101440000880344C248804EB84049625A5EB84049E
:10145000A3B2304C248804EB840405EB8404A2B2CC
:101460002C4C248804EB8404FA25A5EB8404A1B257
:10147000284C248804EB8404322505EB8404A0B2B4
:10148000FFF720FC00BF00BF4FF47A7001F0B7FEF9
:1014900020480088401C1F4908800846008805280D
:1014A00002DB0020088070BD42E738B54FF6FF70C0
:1014B000FFF768FBC1E01848008805280DD2DFE877
:1014C00000F0030D3D6186004FF47840FA23962228
:1014D000114600903220FFF76DFB9DE04FF4FC6059
:1014E0000D4C0090248804EB8404FA25A5EB8404B9
:1014F000A3B2094C248804EB8404962505EB8404EC
:10150000A2B2054C248809E04C1F002016000020E0
:101510004E1F0020501F0020521F002004EB8404A7
:10152000A5EB8404A1B2F94C248804EB8404322591
:1015300005EB8404A0B2FFF73DFB6DE01F20F34CE8
:101540000090248804EB8404FA25A5EB8404A3B25C
:10155000EE4C248804EB8404962505EB8404A2B2A7
:10156000EA4C248804EB8404A5EB8404A1B2E74C84
:10157000248804EB8404322505EB8404A0B2FFF731
:1015800019FB49E04FF6E070E04C0090248804EB32
:101590008404FA25A5EB8404A3B2DC4C248804EB74
:1015A0008404962505EB8404A2B2D84C248804EB6D
:1015B0008404A5EB8404A1B2D44C248804EB8404F5
:1015C000322505EB8404A0B2FFF7F4FA24E04FF6CD
:1015D0001F00CE4C0090248804EB8404FA25A5EB70
:1015E0008404A3B2C94C248804EB8404962505EB3B
:1015F0008404A2B2C54C248804EB8404A5EB8404C3
:10160000A1B2C24C248804EB8404322505EB840487
:10161000A0B2FFF7CFFA00BF00BF4FF47A7001F01D
:10162000EEFDBA480088401CB8490880084600888A
:10163000052802DB0020088038BD3CE770B5002596
:10164000002600246023632200210846FFF77FF86C
:1016500000BF15E000250FE0641CAD4911F814101F
:10166000012202EB4402AA4B9A5C01EB022188B2F0
:10167000FFF764F8681C85B2642DEDDB701C86B240
:10168000612EE7DB70BD70B50025002600249F2386
:101690007F2200210846FFF75AF800BF15E0002519
:1016A0000FE0641C9B4911F81410012202EB440264
:1016B000984B9A5C01EB022188B2FFF73FF8681C57
:1016C00085B2802DEDDB701C86B2A02EE7DB70BDED
:1016D00008B51F20A0233522002100900846FFF7FF
:1016E00069FA4FF61F00F023352278210090002080
:1016F000FFF760FA4FF47840A0231A4600210090CB
:101700003520FFF757FA4FF6E070F023A02278213A
:1017100000903520FFF74EFA4FF4FC60A0234FF401
:101720008572002100901846FFF744FA40F2FF70DE
:10173000F0234FF4857278210090A020FFF73AFA49
:101740004FF61F00A0235A00002100904FF485702F
:10175000FFF730FA4FF60740F0234FF4A0727821DC
:1017600000904FF48570FFF725FA08BD2DE9FF4F73
:1017700081B004460D461746A346009505F10F00BB
:1017800083B204F10F0082B229462046FEF7DFFF44
:10179000002654E0C6EBC60000EB80005E49085C02
:1017A0003978884249D1C6EBC60000EB80005A491F
:1017B00008444078797888423FD14FF0000839E0FA
:1017C000C6EBC60000EB800053490844C01C10F86B
:1017D00008A04FF0000926E00AF08000802805D11B
:1017E00029462046049AFFF7ADF904E02946204631
:1017F0000E9AFFF7A7F94FEA4A604FEA106A601C99
:1018000084B2A4EB0B00102809D15C46681C85B299
:101810000098281A102802DB05B0BDE8F08F09F106
:10182000010000F0FF09B9F1080FD5DB08F1010054
:1018300000F0FF08B8F1200FC2DB701CC6B2402ECA
:10184000A8DB00BFE8E72DE9F84306460F4614463B
:101850009846DDF8209000250FE0207880280CDBEA
:1018600006EBC50188B2434622463946CDF80090C2
:10187000FFF77CFFA41CA81CC5B220780028ECD17F
:10188000BDE8F8831CB5254800780C283CD2DFE879
:1018900000F0065F63686D7276797C7F8285002038
:1018A000FFF770F9FFF7CAFE4FF6FF701C4908807A
:1018B00000201C4908804FF6FF731BA26421009092
:1018C0000420FFF7C0FF1BA010210B464FF4A072AD
:1018D000CDE9001078210420FFF7B3FB17A01021F9
:1018E0000B464FF4A072CDE9001078213420FFF7A9
:1018F000A8FB14A010210B464FF4A072CDE90010F4
:101900008C210420FFF79DFB4BE00000521F0020BC
:1019100042110108427100081A000020541F0020E3
:101920001600002018000020D2ABD4AABAE8BFC627
:10193000BCBC000044726976653A00003737333525
:10194000000000003135383839373332323736004D
:101950000020FFF717F924E04FF6FF70FFF712F9A8
:101960001FE04FF47840FFF70DF91AE04FF4FC60E8
:10197000FFF708F915E01F20FFF704F911E0FFF762
:10198000D1FC0EE0FFF791FD0BE0FFF7B9FB08E09B
:10199000FFF744FC05E0FFF79BFE02E0FFF773FE54
:1019A00000BF00BF4FF47A7001F029FC4FF4FA70C9
:1019B00001F025FCC148007898B9C1480078401C66
:1019C000BF490870084600780C2801DB0020087029
:1019D000BC48006808B9012000E00020B94908604F
:1019E00002E0FF20B6490870B7480078002876D09A
:1019F000B5480078012852D0022830D003286DD194
:101A0000B048006808B9012000E00020AD49086036
:101A1000AA480078401CA9490870084600780128A7
:101A20000AD1A7480078A9490870FF20A449087086
:101A30000120A44908600EE0A048007802280ADBD3
:101A400000209E490870A1480078401C9C490870FD
:101A500000209C49086000209B4908703EE099489E
:101A6000006808B9012000E0002096490860944809
:101A70000078401C9249087094480078401C9349B3
:101A80000870084600780C2801DB002008708F4899
:101A900000788B49087000208B4908701EE0894847
:101AA000006808B9012000E00020864908608748E6
:101AB000007810B90C208549087084480078804966
:101AC000087008460078401E087080480078401E64
:101AD0007E49087000207C49087000BF00BF1CBD13
:101AE0002DE9FF4F81B004460D461746A246AB468E
:101AF00005F11F0083B204F11F0082B2294620467F
:101B0000FEF725FE002656E006EB460000EBC61069
:101B10006F49085C397888424BD106EB460000EBF0
:101B2000C6106B49084440787978884241D14FF01B
:101B300000083BE006EB460000EBC6116448084491
:101B4000C01C10F8080000904FF0000927E0009832
:101B500000F08000802805D129462046049AFEF72F
:101B6000F1FF04E0294620460E9AFEF7EBFF0098AD
:101B70004006000E0090601C84B2A4EB0A002028EE
:101B800009D15446681C85B2A5EB0B00202802DB66
:101B900005B0BDE8F08F09F1010000F0FF09B9F1CF
:101BA000080FD4DB08F1010000F0FF08B8F1800F46
:101BB000C0DB701CC6B2642EA6DB00BFE8E72DE9CF
:101BC000F84306460F4614469846DDF82090002557
:101BD0000FE0207880280CDB06EBC50188B2434675
:101BE00022463946CDF80090FFF77AFF281DC5B28E
:101BF000A41C20780028ECD1BDE8F8831CB54FF672
:101C0000FF704FF4784333A2002100902020FFF7AB
:101C1000D6FF4FF6FF704FF478432EA2202100909C
:101C20005A20FFF710FE30A010210B464FF4F0723F
:101C3000CDE9001030210020FFF703FA4FF4FC60DB
:101C40003449088034A010210B464FF4A072CDE92E
:101C5000001040213020FFF7F4F936A010210B4688
:101C60004FF4A072CDE9001050213020FFF7E9F9C0
:101C70004FF6FF701F2336A2642100903020FFF73B
:101C80009EFF4FF6FF701F2336A288210090302060
:101C9000FFF795FF4FF6FF701F2337A2AC2100908E
:101CA0003020FFF78CFF4FF6FF701F2337A2D021A3
:101CB00000903020FFF783FF1CBD0000561F00205E
:101CC000541F0020948121424A1F0020551F0020EC
:101CD000A8030020C9EEDBDACAD0D2ABD4AABAE896
:101CE000BFC6BCBC0000000057656C636F6D65200B
:101CF000746F205368656E7A68656E2079616F79BC
:101D000075616E686F6E6720546563686E6F6C6F87
:101D10006779000016000020414243444546474889
:101D2000494A4B4C4D4E4F505152535455565758AB
:101D3000595A00006162636465666768696A6B6C22
:101D40006D6E6F707172737475767778797A000042
:101D5000C4AAB5C0B2F7D1D4C8E7C0CBC9EEA3AC12
:101D600000000000C4AAD1D4B9FDBFCDCBC6C9B311
:101D7000B3C1A1A300000000C7A7CCD4CDF2E4F505
:101D8000CBE4D0C1BFE0A3AC00000000B4B5BEA15D
:101D9000BFF1C9B3CABCB5BDBDF0A1A3000000002E
:101DA0007FB505460C460121022001F07CFEADF80E
:101DB0000850ADF804400020ADF80A00ADF8060068
:101DC00001A9274802F09EF901221146244802F099
:101DD00010FD1D208DF8000000208DF8010003206B
:101DE0008DF8020001208DF80300684601F0C9FA61
:101DF00001211B4802F0E2FC7FBD70B505460E468E
:101E0000002410E04021174802F05BF8295D1548D6
:101E100001F0DCFF00BF4021124802F045F8012824
:101E2000F9D1601C84B2B442ECDB70BD10B5012165
:101E30000B4802F08CFF90B10121094802F098FF95
:101E400009480088401C0849088008460088B0F509
:101E5000FA7F01DB002008800020FEF7BBFB10BDED
:101E60000004004000380140581F002070B50446AF
:101E7000002500BF17E004F0800018B10120F849E8
:101E8000086002E00020F64908606006040E0020A9
:101E9000F4490860012001F08EF90120F249C1F8EF
:101EA0008401681CC5B2082DE5DB70BD70B506461F
:101EB000002500240020EB490860EC49C1F8A4018A
:101EC000E749083108603046FFF7D0FF062001F0EF
:101ED00072F90020E449C1F88401012001F06BF996
:101EE0000120E049086001F066F90020DE49C1F8F0
:101EF000840100BF15E04FF6FF7000EA44040020A3
:101F0000D8490860012001F056F90120D649C1F8EE
:101F10008401D4487C38006808B1601C84B2681C15
:101F2000C5B2102DE7DB24110120CD49083108602E
:101F3000204670BD2DE9FE4380460027002406E0C0
:101F40004046FFF7B3FF2DF81400601C84B2052C47
:101F5000F6DB002416E0601C85B20FE03DF81400AB
:101F60003DF81510884207DD3DF814603DF8150076
:101F70002DF814002DF81560681C85B2052DEDDBD9
:101F8000601C84B2042CE6DB0027012405E03DF848
:101F90001400384487B2601C84B2042CF7DB0320A1
:101FA00097FBF0F086B23046BDE8FE832DE9F041A4
:101FB00004460D46AE480078FFF7BCFF0646AD4824
:101FC0000078FFF7B7FF074626802F800120BDE885
:101FD000F0817FB504460D4602A903A8FFF7E6FF8E
:101FE000064616B9002004B070BD694601A8FFF787
:101FF000DDFF06460EB90020F5E7BDF80400BDF888
:102000000C10884206DCBDF80C10BDF8040032301C
:1020100081420CDBBDF80C00BDF80410884236DCB0
:10202000BDF80410BDF80C00323081422FDABDF843
:102030000000BDF80810884206DCBDF80810BDF8A5
:102040000000323081420CDBBDF80800BDF8001002
:1020500088421CDCBDF80010BDF808003230814217
:1020600015DABDF80C10BDF80420881800EBD0710B
:10207000C1F34F012180BDF80810BDF80020881879
:1020800000EBD071C1F34F0129800120ABE70020A4
:10209000A9E770B504460D4616467748068004F158
:1020A0000D018AB2193988B22B462946FEF7B0FDD8
:1020B00005F10D0083B2193881B222462046FEF7A1
:1020C000A7FD6A1C91B2621C90B23246FEF72CFD4D
:1020D0006A1C91B2621E90B23246FEF725FD6A1E5E
:1020E00091B2621C90B23246FEF71EFD6A1E91B29A
:1020F000621E90B23246FEF717FD062229462046A0
:10210000FEF7FEFD70BD70B504460D46164632461C
:1021100029462046FEF708FD611C88B23246294652
:10212000FEF702FD681C81B232462046FEF7FCFC39
:102130006A1C91B2621C90B23246FEF7F5FC70BD8B
:102140002DE9F041044646487C380068002856D105
:102150002CB14A49A1F10A00FFF73BFF3DE0474996
:10216000A1F10A00FFF735FFB8B344491639B1F9B8
:102170002C0003F099FA074640491639888903F084
:10218000ABFA80463D481638416A404603F0B8FA3B
:102190000646394603F028F9054603F065FA374943
:1021A00016398881B1F92E0003F07EFA07463349CB
:1021B0001639C88A03F090FA804630481638816A8A
:1021C000404603F09DFA0646394603F00DF90546F0
:1021D00003F04AFA29491639C8822848163890F877
:1021E000200000F0800038BBC0202449163981F857
:1021F0002000084681898182C18AC1831CE01F4872
:10220000163890F8200000F0800050B11B481638B6
:1022100090F8200020F080001849163981F820003D
:102220000AE00021154816388182C1834FF6FF70FD
:10223000124916398881C8821048163890F8200053
:1022400000F08000BDE8F08110B50E220B490E3180
:10225000282000F04EFE0A21362000F0CFFD10BDF0
:10226000A4812342848121420080214200802342B4
:10227000901F0020911F002016000020721F0020D8
:1022800010B5362000F08EFD04460A2C18D10E221F
:10229000FE49282000F01CFEFC48243890F830004D
:1022A00030B19020FA490870D020FA49087005E052
:1022B000D020F74908709020F6490870012010BD21
:1022C0000020FCE72DE9FC5F04460D4617461E463C
:1022D000DDE90EABDDE90C894FF47840EE4908806A
:1022E000EEA01021CDE90010ED4843880288A0211E
:1022F0002820FEF7A6FEEBA01021CDE90010E8484B
:1023000043880288A0217820FEF79BFEE6A01021DA
:10231000CDE90010E24843880288B4212820FEF766
:1023200090FEE2A01021CDE90010DD48438802882C
:10233000B4217820FEF785FEDDA01021CDE9001044
:10234000D74843880288C8212820FEF77AFED9A002
:102350001021CDE90010D24843880288C821782096
:10236000FEF76FFED4A01021CDE90010CC484388C1
:102370000288DC212820FEF764FED0A01021CDE9E0
:102380000010C74843880288DC217820FEF759FEF8
:10239000CBA01021CDE90010C14843880288F0216C
:1023A0002820FEF74EFE102004232246A021009094
:1023B0004020FEF79DFD102004232A46A021009016
:1023C0009020FEF795FD102004233A46B42100909A
:1023D0004020FEF78DFD102004233246B4210090EA
:1023E0009020FEF785FD102004234246C82100906E
:1023F0004020FEF77DFD102004234A46C8210090AE
:102400009020FEF775FD102004235246DC21009039
:102410004020FEF76DFD102004235A46DC21009079
:102420009020FEF765FD102003230090F02160202E
:10243000109AFEF75DFDBDE8FC9F00B597B0002047
:1024400012900B9012901F20934908804FF6FF7056
:102450009D490880FEF796FB4FF478408E4908802E
:102460004FF6FF70FEF78EFB00208B4908809748DF
:10247000006810216423A022CDE90010282108461D
:10248000FEF7DFFD4FF4784214210846FFF701FE06
:1024900000207E49243981F820004862F8E37B4817
:1024A000243840680A9001200A99884777482438E0
:1024B00090F8200000F0C000402872D100200B905E
:1024C0007248243890F8200020F040006F492439E9
:1024D00081F820000846818913AA129822F820105A
:1024E0006A482438C18A129802EB80004180129811
:1024F000401CC0B212901298012806D0022815D0B4
:10250000032829D0042810D141E04FF6FF7214218E
:102510000846FFF7BEFD62480088143880B24FF4C9
:10252000784214210A90FFF7B4FDA1E35C480088CB
:10253000143880B24FF6FF7214210A90FFF7A9FDFC
:1025400057484088143880B24FF4784201460A90C8
:102550001420FFF79EFD8BE351484088143880B269
:102560004FF6FF7201460A901420FFF792FD4C4887
:102570004088143880B20A9049480088143880B2E4
:102580004FF4784209900A99FFF783FD70E3BDF894
:102590004C00BDF85010401A0A90002802DB0A983F
:1025A00002E066E30A9840420F90BDF84E1013A86F
:1025B000C088081A0A90002801DB0A9801E00A98EE
:1025C00040420E900F9840430F900E9840430E905B
:1025D000DDE90E100844059002F071FCCDE906011A
:1025E00002F00DFCCDE9080102F03CFC80B2119034
:1025F000BDF85400BDF85810401A0A90002801DBBD
:102600000A9801E00A9840420F9013A84189C089B6
:10261000081A0A90002801DB0A9801E00A98404253
:102620000E900F9840430F900E9840430E90DDE9B6
:102630000E100844059002F042FCCDE9060102F0BC
:10264000DEFBCDE9080102F00DFC80B2109010987D
:1026500003F042F80990119803F03EF808900999A8
:1026600002F024FF0A9002F093FECDE90C014FF036
:102670006632174BDDE90C0102F034FC33D3154A06
:10268000154BDDE90C0102F067FD27E0801F0020FB
:10269000901F0020911F00201600002078313A0082
:1026A000AC1F002079313A0078323A0079323A0092
:1026B00078333A0079333A0078343A0079343A0082
:1026C0006661632069733A00180000200C5D010800
:1026D0006666EE3FCDCCCCCCCCCCF03F03D311988A
:1026E00008B11098F0BB00201290FE4840881438C2
:1026F00080B20A90FB480088143880B24FF6FF720F
:1027000009900A99FFF7C5FC4FF478421421084656
:10271000FFF7BFFC0022F44BDDE90C0102F01EFCC8
:10272000CDE9080102F09EFB80B213A90A90C98985
:10273000BDF8582013AB5B89CDE90132CDE9031018
:10274000BDF85400009013A8C0880990BDF850004F
:102750000890BDF84E000790BDF84C00069007A900
:102760000EC900E002E0FFF7ADFD91E2BDF84C00BC
:10277000BDF85410401A0A90002801DB0A9801E0C5
:102780000A9840420F90BDF84E1013A84089081ACD
:102790000A90002801DB0A9801E00A9840420E9056
:1027A0000F9840430F900E9840430E90DDE90E10B5
:1027B0000844059002F083FBCDE9060102F01FFBFF
:1027C000CDE9080102F04EFB80B21190BDF8500037
:1027D000BDF85810401A0A90002801DB0A9801E061
:1027E0000A9840420F9013A8C188C089081A0A901D
:1027F000002801DB0A9801E00A9840420E900F98E9
:1028000040430F900E9840430E90DDE90E100844AF
:10281000059002F054FBCDE9060102F0F0FACDE993
:10282000080102F01FFB80B21090109802F054FFD4
:102830000990119802F050FF0890099902F036FEB5
:102840000A9002F0A5FDCDE90C014FF06632A74BCE
:10285000DDE90C0102F046FB06D3A54AA54BDDE9F4
:102860000C0102F079FC40D2002012909D48408873
:10287000143880B20A909B480088143880B24FF612
:10288000FF7209900A99FFF704FC4FF47842142173
:102890000846FFF7FEFB0022934BDDE90C0102F036
:1028A0005DFBCDE9080102F0DDFA80B213A90A90C0
:1028B000C989BDF8582013AB5B89CDE90132CDE958
:1028C0000310BDF85400009013A8C0880990BDF80B
:1028D00050000890BDF84E000790BDF84C000690DF
:1028E00007A90EC9FFF7EEFCD2E1BDF85000BDF814
:1028F0005410401A0A90002801DB0A9801E00A9857
:1029000040420F9013A8C1884089081A0A900028F5
:1029100001DB0A9801E00A9840420E900F9840436C
:102920000F900E9840430E90DDE90E10084405907C
:1029300002F0C5FACDE9060102F061FACDE908011D
:1029400002F090FA80B21190BDF84C00BDF858101A
:10295000401A0A90002801DB0A9801E00A984042D8
:102960000F90BDF84E1013A8C089081A0A900028CD
:1029700001DB0A9801E00A9840420E900F9840430C
:102980000F900E9840430E90DDE90E10084405901C
:1029900002F095FACDE9060102F031FACDE908011D
:1029A00002F060FA80B21090109802F095FE099043
:1029B000119802F091FE0890099902F077FD0A90B3
:1029C00002F0E6FCCDE90C014FF06632474BDDE941
:1029D0000C0102F087FA06D3454A464BDDE90C01AB
:1029E00002F0BAFB40D2002012903E4840881438D2
:1029F00080B20A903B480088143880B24FF6FF72CC
:102A000009900A99FFF745FB4FF4784214210846D4
:102A1000FFF73FFB0022344BDDE90C0102F09EFA88
:102A2000CDE9080102F01EFA80B213A90A90C98903
:102A3000BDF8582013AB5B89CDE90132CDE9031015
:102A4000BDF85400009013A8C0880990BDF850004C
:102A50000890BDF84E000790BDF84C00069007A9FD
:102A60000EC9FFF72FFC13E1BDF85000BDF84C1064
:102A7000401A089002F018FE0A901A480088283878
:102A8000089002F011FE09900A9902F00FFD1A4910
:102A90004862BDF85000BDF84C100844059002F0A3
:102AA00003FE06901448406A01460590069802F01D
:102AB00027FE08900B480088069002F00DFE079054
:102AC000089902F0E9FE4FF08041099002F0EEFC17
:102AD0000A9002F0ADFD00B20749888513A840892D
:102AE0000CE00000AC1F0020000059406666EE3F7D
:102AF000CDCCCCCCCCCCF03F5C1F0020BDF84E1030
:102B0000401A089002F0D0FD0A9092484088283878
:102B1000089002F0C9FD09900A9902F0C7FC8E499D
:102B2000886213A84089BDF84E100844059002F051
:102B3000BBFD06908848806A01460590069802F021
:102B4000DFFD089083484088069002F0C5FD07909D
:102B5000089902F0A1FE4FF08041099002F0A6FC16
:102B60000A9002F065FD00B27B49C8850846406ABC
:102B7000089002F05DFD0990002801DB099801E052
:102B80000998404202280DDC7348806A089002F0E0
:102B90004FFD0A90002801DB0A9801E00A984042A4
:102BA000022842DD002012906A484088143880B222
:102BB0000A9068480088143880B24FF6FF72099076
:102BC0000A99FFF766FA4FF4784214210846FFF796
:102BD00060FA62A01021CDE900105E4840880A909A
:102BE0005C480088099002461A2128200A9BFEF7BB
:102BF00028FA594890F8300008B9012000E0002078
:102C0000554981F83000084690F8300030B19020E6
:102C100057490870D0205749087005E0D020544922
:102C2000087090205349087032E01F2052490880F4
:102C30004FF6FF70FDF7A6FF50A01021CDE9001060
:102C4000444840880A9043480088099002466E2113
:102C500023200A9BFEF7F5F94FF47A7000F0CFFAC3
:102C6000FFF7F2FA4FF6FF70FDF78CFF17B000BDCB
:102C700000BF0A2000F0C3FA0B98401C80B20B90F2
:102C80000B98B0F57A7F02DDFFF7FAFA01E000BF9A
:102C900005E400BF00BFE9E708B50121882000F086
:102CA000F5FE0220ADF8000010208DF8030003208F
:102CB0008DF802006946374800F02CFC02213548A7
:102CC00000F0D5FC0420ADF8000048208DF803008A
:102CD0006946304800F01EFC04212E4800F0C7FC75
:102CE0004FF42060ADF8000010208DF803000320A1
:102CF0008DF802006946284800F00CFC4FF4206172
:102D0000254800F0B4FC4FF48060ADF80000482086
:102D10008DF803006946204800F0FCFB4FF4806109
:102D20001D4800F0A4FC0C491631A1F10A00FFF780
:102D30003DF900F033F8FFF7A3FA08B1002008BD11
:102D40004FF6FF70FDF71EFFFFF777FBFFF798FACE
:102D50000120F4E7AC1F00205C1F00205450204EDF
:102D600065656420726561646A7573742100000092
:102D7000901F0020911F002016000020546F7563E3
:102D8000682053637265656E2041646A75737420B0
:102D90004F4B2100000C0140001C014010B500F019
:102DA000BBF810BD70B50446002600F0CCF82546EF
:102DB000E11704EB11610912A02202EB4101C8B234
:102DC00000F073F900F000F9E11704EB116109124A
:102DD000A4EB0121C8B200F068F900F0F5F800F0AA
:102DE000B2F8A12000F061F900F0EEF8002000F048
:102DF00090F9064600F0C7F8304670BD70B504463D
:102E00000E4600F0A0F82546E11704EB1161091207
:102E1000A02202EB4101C8B200F047F900F0D4F85B
:102E2000E11704EB11610912A4EB0121C8B200F013
:102E30003CF900F0C9F8304600F037F900F0C4F86A
:102E400000F0A1F80A2000F0DAF970BD2DE9F04198
:102E500005460E461746002409E0E20026FA02F273
:102E6000D1B22A1990B2FFF7C9FF601CC4B2BC42AC
:102E7000F3DBBDE8F0812DE9F04107460C46002662
:102E8000002509E036023919491B491E88B2FFF7AF
:102E900089FF0644681CC5B2A542F3DB3046BDE895
:102EA000F08110B5FF20FFF77DFF0446552C01D1BE
:102EB000002010BD5521FF20FFF7A0FFFF20FFF7E6
:102EC00071FF0446552C01D10020F2E70120F0E704
:102ED00070B506460C46154608E03046721C96B2A0
:102EE000FFF760FF04F8010B681E85B2002DF4D1D6
:102EF00070BD70B505460C46164606E0217828469A
:102F0000FFF77CFF681C85B2641C3000A6F101014C
:102F10008EB2F3D170BD000008B50121082000F089
:102F2000B5FDC020ADF8000010208DF8030003208F
:102F30008DF802006946904800F0ECFAC0218E48F6
:102F400000F095FB08BD10B58B48006820F070407C
:102F5000894908600846006840F040500860012038
:102F6000864908608649C1F89801042000F023F9D9
:102F7000002082490860042000F01DF900208049EB
:102F8000C1F8980110BD10B57B48006820F0704072
:102F9000794908600846006840F040500860002009
:102FA0007649091F08607649C1F89C01042000F0A9
:102FB00002F901207149091F08607149C1F89C019B
:102FC000042000F0F8F810BD10B500246A4800682D
:102FD00020F07040684908600846006840F00040F2
:102FE000086001206549086000F0E5F801206449A7
:102FF000C1F8980100F0DFF807E0601CC4B2FA2CB9
:1030000003DDFFF7C0FF012010BD5C488038006879
:103010000028F2D15949091F086000BFF4E710B534
:1030200000205649091F08605348006820F070408E
:10303000514908600846006840F040500860002090
:103040004F49C1F89C01022000F0B5F801204B491E
:10305000091F0860022000F0AEF800204849C1F8BE
:10306000980110BD10B500204449091F086042486E
:10307000006820F07040404908600846006840F051
:103080004050086001203E49C1F89C01022000F038
:1030900092F801203949091F0860022000F08BF8DE
:1030A00000203749C1F8980110BD70B50446324878
:1030B000006820F07040304908600846006840F021
:1030C0004050086000202D49091F086000251DE0C0
:1030D000E00918B101202949086002E000202749D1
:1030E00008606006040E022000F065F80120234904
:1030F000091F0860022000F05EF800202049C1F896
:103100009801022000F057F8681CC5B2082DDFDBDB
:1031100070BD70B5054600241748006820F0704067
:10312000154908600846006840F000400860002625
:1031300017E000201149091F0860022000F03BF849
:1031400001200F49C1F898016006040E0B48803831
:10315000006808B1601CC4B2012000F02CF8701C9B
:10316000C6B2082EE5DB15B9FFF77CFF01E0FFF7DB
:1031700056FF204670BD0000000C01409C8121429A
:103180000080214210B56FF0040000F044F92E4891
:1031900000682E49B0FBF1F02D4908700846007810
:1031A00000EB4001C1EBC0104FF6FF7101EAC00017
:1031B0002849088010BD0146254A12784A434FF03D
:1031C000E0235A6100229A611A46126942F0010214
:1031D0001A6100BF4FF0E022106900F001021AB13D
:1031E00000F48032002AF5D04FF0E022126922F07C
:1031F00001024FF0E0231A6100229A6170470146F4
:10320000144A12884A434FF0E0235A6100229A611F
:103210001A46126942F001021A6100BF4FF0E02223
:10322000106900F001021AB100F48032002AF5D0D2
:103230004FF0E022126922F001024FF0E0231A6100
:1032400000229A61704700000000002000127A00FE
:10325000921F0020941F0020014600BF704700BF4E
:10326000334A128802F04002002AF9D0C2B2304B31
:103270001B1D1A80704710B586B00446012144F228
:10328000040000F003FC4FF40070ADF814000320BC
:103290008DF8160018208DF8170005A9254800F0B4
:1032A00039F94FF48060ADF8140004208DF8170050
:1032B00005A9204800F02EF925208DF800000320F4
:1032C0008DF801008DF8020001208DF8030068469A
:1032D00000F057F801940020ADF80800ADF80A009E
:1032E000ADF80C00ADF810000C20ADF80E0001A9EF
:1032F0000F4800F072FC012240F225510C4800F00A
:1033000004FD01210A4800F0F4FC06B010BD10B520
:1033100040F22551064800F0DDFD38B1044800F0C8
:1033200059FDC4B22146024800F050FD10BD000016
:10333000003801400008014009488047094800471B
:10334000FEE7FEE7FEE7FEE7FEE7FEE7FEE7FEE755
:10335000FEE7FEE704480549054A064B70470000B2
:1033600053040008310100082020002020260020FE
:10337000202200202022002031490143314A1160DF
:10338000704770B5002100230F22C47804B32D4C80
:10339000246804F4E064C4F5E064210AC1F1040384
:1033A000CA40447804FA03F18478144021430901A7
:1033B000254C0678A155047804F01F050124AC4083
:1033C00005786D11AD0005F1E025C5F8004109E073
:1033D000047804F01F050124AC401C4D06787611DA
:1033E00045F8264070BD1A4A0A400243154B1B1F80
:1033F0001A60704739B1134A121D12680243114B0B
:103400001B1D1A6006E00F4A121D126882430D4B05
:103410001B1D1A607047042808D14FF0E02109698C
:1034200041F004014FF0E022116107E04FF0E0218C
:10343000096921F004014FF0E0221161704700009A
:103440000000FA050CED00E000E400E080E100E09F
:1034500080FFFF1F10B50446CC48844208D10121EB
:10346000042000F02DFB0021042000F029FB46E0A1
:10347000C748844208D10121082000F021FB002127
:10348000082000F01DFB3AE0C248844208D1012127
:10349000102000F015FB0021102000F011FB2EE0A1
:1034A000BD48844208D10121202000F009FB002101
:1034B000202000F005FB22E0B848844208D1012119
:1034C000402000F0FDFA0021402000F0F9FA16E05B
:1034D000B348844208D10121802000F0F1FA002194
:1034E000802000F0EDFA0AE0AE48844207D10121C5
:1034F000801500F0E5FA0021A01500F0E1FA10BDFA
:1035000010B50121084600F0DBFA0021012000F08F
:10351000D7FA10BD2DE9F041024600250026002013
:1035200000230024002791F803C00CF00F0591F848
:1035300003C00CF0100CBCF1000F03D091F802C0D6
:103540004CEA050591F800C0BCF1000F31D01468B9
:1035500000202BE04FF0010C0CFA00F3B1F800C092
:103560000CEA03069E4220D183004FF00F0C0CFAA8
:1035700003F7BC4305FA03FC4CEA040491F803C0CA
:10358000BCF1280F06D14FF0010C0CFA00FCC2F878
:1035900014C00AE091F803C0BCF1480F05D14FF008
:1035A000010C0CFA00FCC2F810C0401C0828D1D352
:1035B0001460B1F800C0BCF1FF0F34DD5468002086
:1035C0002EE000F1080C4FF0010808FA0CF3B1F8F6
:1035D00000C00CEA03069E4221D183004FF00F0C7D
:1035E0000CFA03F7BC4305FA03FC4CEA040491F817
:1035F00003C0BCF1280F05D100F1080C08FA0CF843
:10360000C2F8148091F803C0BCF1480F07D100F153
:10361000080C4FF0010808FA0CF8C2F81080401CA2
:103620000828CED35460BDE8F0814FF6FF710180C9
:10363000022181700421C170704702460020936806
:103640000B400BB1012000E0002070470146886864
:1036500080B2704702460020D3680B400BB10120B6
:1036600000E0002070470146C86880B270470161E1
:103670007047416170470AB1016100E041617047E4
:10368000C16070474FF480320A4382618161826178
:1036900082698269704702460020434B18684FF6E2
:1036A0008073184040EA021008433F4B186070478F
:1036B0003E49C8617047F0B50A4600230024002146
:1036C000002500F00046B6F1004F02D1364EF169F8
:1036D00001E0354E7168C0F3034583B200F4401633
:1036E000B6F5401F08D121F070612F4E766826F0A4
:1036F00070662D4F7E6012E000F48016B6F5801FD4
:1037000006D1032606FA05F4A14341F0706106E0F4
:10371000460D360103FA06F6B14341F0706122B15D
:10372000460D360103FA06F6314300F00046B6F1C5
:10373000004F02D11C4EF16101E01B4E7160F0BDE3
:1037400030B500228B071C0F0F2303FA04F2164B2F
:1037500008338C1053F824309343134C08348D10E5
:1037600044F8253023468C1053F824308C07240F5E
:1037700000FA04F423430C4C08348D1044F825302F
:1037800030BD0A49DC310860704700000008014084
:10379000000C0140001001400014014000180140DD
:1037A000001C0140002001400000014000002042B8
:1037B000DF48006840F00100DD49086008464068C5
:1037C000DC490840DA49486008460068DA490840A0
:1037D000D74908600846006820F480200860084641
:1037E000406820F4FE0048604FF41F008860704776
:1037F000CF49096821F48031CD4A1160114609682A
:1038000021F480211160B0F5803F03D0B0F5802F06
:103810000ED106E0C649096841F48031C44A1160FE
:1038200007E0C349096841F4A021C14A116000E0E2
:1038300000BF00BF704710B50146002200230020E2
:103840004A11012A02D1BA4C236806E0022A02D1A9
:10385000B74C236A01E0B64C636A01F01F020124F1
:1038600094401C400CB1012000E0002010BD38B590
:10387000002000900024002500BF3120FFF7DBFF6F
:1038800005460098401C00900098B0F5A06F01D04C
:10389000002DF2D03120FFF7CEFF08B1012400E067
:1038A0000024204638BD01460020A14A106820F0BF
:1038B000F80040EAC10010607047A04908607047F6
:1038C000024600209A4B586820F47C1042EA01031B
:1038D0001843974B586070479849086670470146EF
:1038E0000020934A506820F003000843506070475E
:1038F0008F48406800F00C007047014600208C4A59
:10390000506820F0F00008435060704701460020E6
:10391000874A506820F4E0600843506070470146D1
:103920000020834A506820F4605040EAC100506093
:10393000704729B17E4A527A02437D4B5A7204E0A5
:103940007B4A527A82437A4B5A7270477B49D8310C
:103950000860704701460020754A506820F44040D6
:103960000843506070470021714A20321170704A3C
:1039700082F82010012802D004280AD104E0012195
:103980006B4A2032117005E00521694A203211701E
:1039900000E000BF00BF7047694908607047644994
:1039A000096A0143624A11627047654944390860F7
:1039B000704730B500210022002400235C4D6D6863
:1039C00005F00C0121B1042905D0082923D105E017
:1039D0005C4D056022E05B4D05601FE0544D6D6855
:1039E00005F47012524D6D6805F48034022505EB24
:1039F00092421CB9544D554305600BE04C4D6D6827
:103A000005F400351DB1504D5543056002E04D4DA4
:103A10005543056002E04B4D056000BF00BF444DBB
:103A20006D6805F0F0010909484D6B5C0568DD40E3
:103A300045603F4D6D6805F4E061090A434D6B5CDC
:103A40004568DD4085603A4D6D6805F46051C90AEE
:103A50003E4D6B5C4568DD40C560354D6D6805F4D5
:103A60004041890B3A4D6B5CC568B5FBF3F50561C8
:103A700030BD29B12E4A526902432D4B5A6104E0F0
:103A80002B4A526982432A4B5A61704729B1284A0E
:103A900092690243264B9A6104E0254A9269824367
:103AA000234B9A61704729B1214AD2690243204BC6
:103AB000DA6104E01E4AD26982431D4BDA61704725
:103AC00029B11B4AD2680243194BDA6004E0184A54
:103AD000D2688243164BDA60704729B1144A1269E2
:103AE0000243134B1A6104E0114A12698243104BDE
:103AF0001A61704712494039086070470F49C8641D
:103B000070470B49C87170470948406A40F080709F
:103B100007494862704701460020054A92680A40FA
:103B20000AB1012000E00020704701498872704707
:103B3000001002400000FFF8FFFFF6FE00004242C6
:103B40008004424200127A0000093D00961F0020C6
:103B5000A61F002010B50446FB48844209D101216C
:103B60008803FFF7ADFF00214FF48040FFF7A8FF67
:103B700032E0F648844209D101214804FFF7ADFF45
:103B800000214FF40030FFF7A8FF25E0F048844201
:103B900009D101218804FFF7A0FF00214FF4802004
:103BA000FFF79BFF18E0EB48844209D10121C804CC
:103BB000FFF793FF00214FF40020FFF78EFF0BE08B
:103BC000E548844208D101210805FFF786FF00215E
:103BD0004FF48010FFF781FF10BD2DE9F04786B04C
:103BE00005460E460024A24600BFA1460027B08924
:103BF00000B100BF2F462C8A4CF6FF700440F088BD
:103C000004432C82AC894EF6F3100440B08831890D
:103C10000843718908430443AC81AC8A4FF6FF40E6
:103C20000440B0890443AC8201A8FFF7C2FEC64835
:103C3000874202D1DDF810A001E0DDF80CA0A889D0
:103C400000F4004040B10AEBCA0000EB0A103168F2
:103C50004900B0FBF1F807E00AEBCA0000EB0A10DC
:103C600031688900B0FBF1F86420B8FBF0F0040182
:103C70002009642101FB1089A88900F4004040B1AB
:103C8000322000EBC900B0FBF1F000F00700044364
:103C900008E0322000EB09106421B0FBF1F000F0E5
:103CA0000F0004432C8106B0BDE8F0874FF4165195
:103CB000016000218180C18001810C2141810021AE
:103CC0008181704710B502460020108A4FF2FF0331
:103CD00018400B884C8823438C882343CC8823438B
:103CE0001843108210BD0021018041808180C18075
:103CF000704721B1828942F40052828104E08289B6
:103D00004DF6FF731A4082817047F0B503460024D8
:103D100000260025002040F66A17B94200D100BFF6
:103D20001846C1F3421401F01F06012707FA06F5F1
:103D3000012C01D10C3004E0022C01D1103000E044
:103D400014301AB107682F43076002E00768AF43D9
:103D50000760F0BD1AB1838A0B43838202E0838A35
:103D60008B4383827047028A4FF6F0731A400282B7
:103D7000028A0A430282704782894FF2FF731A4017
:103D8000828182890A438281704721B1828942F00F
:103D90000202828104E082894FF6FD731A4082811B
:103DA0007047028A4FF6DF731A400282028A0A4382
:103DB0000282704721B1028A42F48042028204E00A
:103DC000028A4BF6FF731A4002827047C1F3080261
:103DD0008280704701468888C0F308007047818957
:103DE00041F0010181817047028BD2B20283028BC4
:103DF00042EA012202837047028B02F47F4202836F
:103E0000028B0A430283704721B1828A42F020026A
:103E1000828204E0828A4FF6DF731A408282704702
:103E200021B1828A42F01002828204E0828A4FF637
:103E3000EF731A408282704721B1828A42F00802F1
:103E4000828204E0828A4FF6F7731A4082827047BA
:103E500021B1828942F40042828103E08289C2F367
:103E60000E028281704721B1828A42F4006282820E
:103E700004E0828A4FF2FF731A4082827047828A7E
:103E80004FF6FB731A408282828A0A43828270470D
:103E900021B1828A42F00202828204E0828A4FF6D5
:103EA000FD731A408282704702460020B1F5007F00
:103EB00000D100BF13880B400BB1012000E00020AF
:103EC000704701F40072B2F5007F00D100BFCA4311
:103ED0000280704770B502460024002300250020B0
:103EE00040F66A16B14200D100BFC1F3421501F09D
:103EF0001F03012606FA03F3012D02D196893340F0
:103F000006E0022D02D1168A334001E0968A334042
:103F10000C12012606FA04F41688344013B10CB1D1
:103F2000012000E0002070BD10B50022002340F603
:103F30006A14A14200D100BF0A1201249440A3B226
:103F4000DC43048010BD0000003801400044004004
:103F500000480040004C00400050004010B50446AE
:103F6000FE48844208D10121C014FFF7A9FD0021B9
:103F7000E014FFF7A5FDC4E0B4F1804F08D10121A2
:103F80000846FFF7AAFD00210120FFF7A6FDB8E0D3
:103F9000F348844208D101210220FFF79EFD002151
:103FA0000220FFF79AFDACE0EE48844208D10121DF
:103FB0000420FFF792FD00210420FFF78EFDA0E012
:103FC000E948844208D101210820FFF786FD00213D
:103FD0000820FFF782FD94E0E448844208D10121E3
:103FE0001020FFF77AFD00211020FFF776FD88E012
:103FF000DF48844208D101212020FFF76EFD002117
:104000002020FFF76AFD7CE0DA48844208D10121D4
:104010004014FFF755FD00216014FFF751FD70E0DB
:10402000D548844209D10121C804FFF749FD002188
:104030004FF40020FFF744FD63E0D048844209D1EB
:1040400001210805FFF73CFD00214FF48010FFF728
:1040500037FD56E0CA48844209D101214805FFF7DF
:104060002FFD00214FF40010FFF72AFD49E0C5485D
:10407000844208D101214020FFF72FFD002140207C
:10408000FFF72BFD3DE0C048844208D1012180208C
:10409000FFF723FD00218020FFF71FFD31E0BB4823
:1040A000844208D101218015FFF717FD0021A015DA
:1040B000FFF713FD25E0B648844209D10121080429
:1040C000FFF7FEFC00214FF48030FFF7F9FC18E009
:1040D000B048844209D101214804FFF7F1FC0021D6
:1040E0004FF40030FFF7ECFC0BE0AB48844208D102
:1040F00001218804FFF7E4FC00214FF48020FFF742
:10410000DFFC10BD00220288944B98420ED0994BE0
:1041100098420BD0B0F1804F08D0914B984205D017
:10412000904B984202D0904B984204D14FF68F7337
:104130001A404B881A438D4B984207D08C4B9842BB
:1041400004D04FF6FF431A40CB881A4302808B8875
:1041500083850B880385814B98420BD0854B984211
:1041600008D08B4B984205D08A4B984202D08A4B9C
:10417000984201D10B7A038601238382704770B580
:10418000002400220023058C4FF6FE76354005847E
:10419000028C8388048B4FF68F752C40B51E2C4003
:1041A0000D882C43751E2A400D892A434D882A43C9
:1041B0006A4DA8420BD06F4DA84208D0744DA8425A
:1041C00005D0744DA84202D0734DA84213D14FF6CA
:1041D000F7752A404D892A434FF6FB752A408D8892
:1041E0002A434FF6FF652B404FF6FF552B408D8934
:1041F0002B43CD892B4383800483CD88858602841D
:1042000070BD70B5002400220023058C4FF6EF76B8
:1042100035400584028C8388048B48F6FF752C405A
:104220004FF6FF452C400D884FF6FF7606EA052530
:104230002C434FF6DF752A400D8906EA05152A43FF
:104240004D8806EA05152A43444DA84202D0494D3F
:10425000A8421DD14FF67F752A404D894FF6FF7653
:1042600006EA05152A434FF6BF752A408D8806EAEF
:1042700005152A434FF6FF352B404FF2FF752B40B3
:104280008D8906EA85052B43CD8906EA85052B43F2
:1042900083800483CD880587028470BD70B50024B7
:1042A00000220023058C4FF6FF6635400584028C02
:1042B0008388848B4FF68F752C404FF6FC752C400D
:1042C0000D882C434FF6FF552A400D894FF6FF7697
:1042D00006EA05252A434D8806EA05252A431F4D8F
:1042E000A84202D0234DA8421DD14FF2FF752A40AB
:1042F0004D894FF6FF7606EA05252A434FF6FF352E
:104300002A408D8806EA05252A434EF6FF752B4084
:104310004DF6FF752B408D8906EA05152B43CD8997
:1043200006EA05152B4383808483CD888587028424
:1043300070BD70B5002200230024058C4EF6FF7678
:1043400035400584038C8488828B48F6FF752A40AB
:104350004FF6FF452A400D8820E00000002C014068
:104360000004004000080040000C00400010004025
:104370000014004000340140004C01400050014056
:104380000054014000180040001C00400020004084
:104390000040014000440140004801404FF6FF76D4
:1043A00006EA05252A434DF6FF752B400D8906EADE
:1043B00005352B434D8806EA05352B43FA4DA842B7
:1043C00002D0FA4DA84208D14BF6FF752C408D89DA
:1043D0004FF6FF7606EA85152C4384808283CD88CC
:1043E000A0F84050038470BD828B4FF2FF331A4017
:1043F0008283828B4FF6FF7303EA01231A43828381
:104400007047F0B50C461546002200210026078CA7
:104410004EF6FF7C07EA0C070784828B018C4FF66F
:10442000FF7707EA043640F6FF473A404FF6FF773A
:1044300007EA05273A434FF6FF7707EA03373A437F
:10444000D94FB8420ED0D94FB8420BD0B0F1804FFF
:1044500008D0D74FB84205D0D64FB84202D0D64F79
:10446000B84206D14DF6FF77394046F480573943BC
:1044700005E047F6FF57394044F4805739438283BB
:104480000184F0BD828B4FF6F3731A408283828BD6
:104490000A4382837047F0B50C461546002200217E
:1044A0000026078C4FF6FF6C07EA0C070784828B07
:1044B000018C4FF6FF7707EA04264FF60C773A4057
:1044C0004FF6FF7707EA03172F433A43B64FB84238
:1044D0000ED0B64FB8420BD0B0F1804F08D0B44FD9
:1044E000B84205D0B34FB84202D0B34FB84206D15C
:1044F0004FF6FF57394046F48077394305E04FF2D5
:10450000FF57394044F48077394382830184F0BDFA
:10451000028B4FF2FF331A400283028B4FF6FF7378
:1045200003EA01231A4302837047F0B50C4615468F
:10453000002200210026078C4FF6EF7C07EA0C07CB
:104540000784028B018C4FF6FF7707EA041640F6CA
:10455000FF473A404FF6FF7707EA03373A434FF6F3
:10456000FF7707EA05273A438F4FB8420ED08F4FA7
:10457000B8420BD0B0F1804F08D08D4FB84205D073
:104580008C4FB84202D08C4FB84206D14FF6DF773D
:10459000394046F01007394305E04FF65F77394060
:1045A00044F01007394302830184F0BD028B4FF6BB
:1045B000F3731A400283028B0A4302837047F0B5FB
:1045C0000C46154600220021068C4FF6FE773E4031
:1045D0000684028B018C4FF60C7632407E1C06EA74
:1045E00003162E433243704EB0420ED06F4EB0428F
:1045F0000BD0B0F1804F08D06D4EB04205D06D4E5B
:10460000B04202D06C4EB04206D14FF6FD7631403A
:1046100044F00106314305E04FF6F576314044F0B1
:104620000106314302830184F0BD70B505460C4696
:104630005D4885420ED05D4885420BD0B5F1804F74
:1046400008D05B48854205D05A48854202D05A4876
:10465000854200D100E000BF208850B92389A2889C
:1046600061882846FFF7ABFFE1882846FFF79EFFE9
:1046700025E0208804280AD12389A2886188284659
:10468000FFF753FFE1882846FFF742FF17E0208835
:1046900008280AD12389A28861882846FFF7FBFEF3
:1046A000E1882846FFF7EEFE09E02389A2886188A9
:1046B0002846FFF7A6FEE1882846FFF795FE70BD65
:1046C0002DE9F04105460C4600260127608808B90F
:1046D000022600E00026A088012801D1022700E080
:1046E00001272088A0B92389A28861882846FFF77E
:1046F00066FFE1882846FFF759FF23893A4631468D
:104700002846FFF712FFE1882846FFF701FF13E074
:104710002389A28861882846FFF707FFE188284699
:10472000FFF7F6FE23893A4631462846FFF747FF52
:10473000E1882846FFF73AFFBDE8F0810A884B88F8
:104740001A438B881A43CB881A430B891A434B8927
:104750001A438B891A43A0F8442070474FF6FF7123
:10476000818000210180C180418001727047002159
:10477000018041808180C180018141818181C1812D
:104780007047002101804180012181800021C1808A
:10479000018170470021018041808180C1800181B9
:1047A0004181818170470000002C014000340140AC
:1047B0000004004000080040000C004021B10288C5
:1047C00042F00102028004E002884FF6FE731A40B4
:1047D0000280704731B1B0F8442042F40042A0F8A2
:1047E000442005E0B0F84420C2F30E02A0F84420B3
:1047F00070471AB183890B43838102E083898B431D
:10480000838170478182704741EA0203A0F84830F3
:1048100070471AB183890B43838102E083898B43FC
:104820008381704701894FF6F8721140018170470A
:104830000A46002101894FF68F7319401143018107
:10484000704730B504460D4629462046FFF7F0FF75
:10485000208940F00700208130BD2DE9F041044659
:104860000D4616461F46602D06D13B4601223146B5
:104870002046FFF75AFE05E03B460122314620461E
:10488000FFF79DFE29462046FFF7D2FF208940F022
:1048900007002081BDE8F08130B50C460021018978
:1048A000C9B24FF6FF7505EA032515432543294391
:1048B000018130BD2DE9F04105460E461746984668
:1048C000002443463A4631462846FFF7E5FF2C8947
:1048D0004FF6F870044044F007044FF68F70044020
:1048E00044F070042C81BDE8F081F0B504460D461B
:1048F00016461F463B46324629462046FFF7CCFF68
:10490000208940F480402081F0BD0185828270477B
:104910000A46002101884FF68F7319401143018028
:104920007047F0B50C4615461E46002100220023B4
:104930000189028B038C4FF6F877394021434FF6FB
:10494000FC473A4040F201173A434FF6DD773B40CF
:104950004FF6FF7707EA06172F433B430181028397
:104960000384F0BD0A460021018B4FF68F73194076
:104970001143018370470A460021018B48F6FF73FB
:1049800019404FF6FF7303EA02231943018370476E
:104990000A460021818B4FF68F73194011438183A2
:1049A00070470A460021818B48F6FF7319404FF685
:1049B000FF7303EA022319438183704721B1028800
:1049C00042F08002028004E002884FF67F731A40B2
:1049D0000280704721B1828842F00402828004E0A4
:1049E00082884FF6FB731A408280704721B182881B
:1049F00042F00802828004E082884FF6F7731A4082
:104A00008280704721B1828842F00102828004E0F6
:104A100082884FF6FE731A40828070470A46002152
:104A2000018B4FF6F77319401143018370470A4613
:104A30000021018B4FF2FF7319404FF6FF7303EA19
:104A400002231943018370470A460021818B4FF6E8
:104A5000F77319401143818370470A460021818B07
:104A60004FF2FF7319404FF6FF7303EA0223194315
:104A7000818370470A460021018B4FF6FB73194072
:104A80001143018370470A460021018B4FF6FF3323
:104A900019404FF6FF7303EA02231943018370475D
:104AA0000A460021818B4FF6FB7319401143818325
:104AB00070470A460021818B4FF6FF3319404FF6AD
:104AC000FF7303EA02231943818370470A460021DA
:104AD000018B4FF67F7319401143018370470A46DB
:104AE0000021018BC1F30E014FF6FF7303EA02238D
:104AF0001943018370470A460021818B4FF67F736B
:104B000019401143818370470A460021818BC1F30C
:104B10000E014FF6FF7303EA0223194381837047A6
:104B20000A460021018C4FF6FD73194011430184A0
:104B300070470A460021018C4FF6F7731940114364
:104B4000018470470A460021018C4FF6DF7319403B
:104B50004FF6FF7303EA02131943018470470A46B4
:104B60000021018C4FF67F7319404FF6FF7303EA63
:104B700002131943018470470A460021018C4FF645
:104B8000FF5319404FF6FF7303EA022319430184D0
:104B900070470A460021018C4FF2FF7319404FF60F
:104BA000FF7303EA02231943018470470A46002178
:104BB000018C4DF6FF7319404FF6FF7303EA023381
:104BC00019430184704730B5002301248C40A3B2FF
:104BD000048C9C430484048C02FA01F5ADB22C438E
:104BE000048430BD30B5002304248C40A3B2048C6F
:104BF0009C430484048C02FA01F5ADB22C43048476
:104C000030BD70B503460020002418461830012539
:104C10008D40ACB21D8CA5431D8409B1082909D172
:104C200000EB6100056825F0700505600568154317
:104C300005600EE00D1FC5F34E052844056825F4F8
:104C4000E045056005684FF6FF7606EA0226354323
:104C5000056070BD21B1028842F00202028004E0CA
:104C600002884FF6FD731A400280704721B1028816
:104C700042F00402028004E002884FF6FB731A40FF
:104C80000280704721B1828842F08002828004E075
:104C900082884FF67F731A408280704702884FF6F1
:104CA000F7731A40028002880A43028070478288A4
:104CB0004FF68F731A40828082880A438280704741
:104CC00002894FF6F8731A40028102890A43028171
:104CD000704702894FF67F731A40028102890A43A6
:104CE0000281704781847047818570478186704753
:104CF0000187704781877047A0F84010704702888D
:104D00004FF6FF431A40028002880A430280704730
:104D10000146888E70470146088F70470146888F8C
:104D200070470146B1F8400070470146888C7047D3
:104D30000146088D704702460020138A0B400BB1D4
:104D4000012000E000207047CA430282704730B55E
:104D50000246002000230024158A05EA01039589F4
:104D600005EA010413B10CB1012000E0002030BDC0
:104D7000CA43028270477047704770477047704758
:104D800010B500F009F8006810BD10B5044600F039
:104D900003F8046010BD000000487047BC1F0020ED
:104DA00000487047BC1F00207546FFF7F9FFAE466C
:104DB00005006946534620F00700854618B020B527
:104DC000FEF7C8FABDE820404FF000064FF000079C
:104DD0004FF000084FF0000B21F00701AC46ACE8A3
:104DE000C009ACE8C009ACE8C009ACE8C0098D4610
:104DF00070470446AFF300802046FBF704FA2DE924
:104E0000F04106460F4600F0DDF904000D4618BFDC
:104E10000120284320F00040C0F17F6000F1E04015
:104E2000C00F0ED0301C18BF0120384320F00040C6
:104E3000C0F17F6000F1E040C00F04BF0120FFF728
:104E4000A4FF20462946BDE8F081491058BFC1F1B2
:104E500040415B1058BFC3F140438B42EFF30080E9
:104E6000704700004FEA1153A3F58063D3F11E038E
:104E7000A8BFD3F1200C08DB4FF0004242EAC12268
:104E800052EA505232FA03F0704709420BD4102B09
:104E9000C4BF0020704703F5787CBCF1FF3F05D00C
:104EA0004FF0FF3070474FF00000704770B500F0D2
:104EB000FFF800BF4992248000207047F0E7B0FA65
:104EC00080F310FA03F10AD0C3F11D0303F58063E8
:104ED0004FEA41504FEA035202EBD12170474FF0A5
:104EE0000000704751EA030C17D41CF5801F58BF0F
:104EF000BCF5801F00F10680994218BF704708BFBB
:104F00009042704707D711F5801F58BF13F5801FD7
:104F100019D499427047894270471CF5801F08D503
:104F2000BCF5801FF7D58B4218BF704708BF82427F
:104F300070474FF4001C1CEB410F38BF1CEB430FB4
:104F400001D28B42704770B500F0B2F8922449004C
:104F50004FF000514FF08053FFF777BFDFF848C1A3
:104F600070B51CEA111E1EBF1CEA13159EEA0C0F39
:104F700095EA0C0F00F06F8081EA030423EA4C13DA
:104F80004EEAD47E21EA4C1141F4801143F480139F
:104F9000AE44A1FB024CA0FB0365AEF17F7E361947
:104FA00055EB0C05A1FB034C4CF10003A0FB021CCC
:104FB00016EB0C06654153F10003094218BF46F099
:104FC000010613F4007F0BD14FEA03314FEA05309D
:104FD000340341EA155140EA16506FF003020AE02B
:104FE0004FEAC3214FEAC520F40241EA555140EA95
:104FF00056506FF0020202EB2E4201EB025585EA99
:10500000CE710AD05FEA440C18BF24F0004450F17E
:10501000000041F1000120EAD47040F2FE7C6245BC
:1050200000D270BDA84214BF4FF080444FF04044FE
:10503000002E08BF0024BEF1806FA8BFA1F1C041BF
:10504000BDE8704080F282804FF0000001F1C04165
:1050500001F0004170479EEA0C0F0CEA131518BFCF
:1050600095EA0C0F06D04FF0000081EA030E0EF017
:10507000004170BD00F01CF88900013E00F007B847
:1050800000F009B84FEA430C5FEA5C5C08D081EAA3
:10509000030100F05BB84FEA410C5FEA5C5CF6D1BB
:1050A0004FF00000014970470000FF070000F87F43
:1050B0000EF1020E2EF0030E5EF8046B364205D49C
:1050C000012A43EB030515F5001F12D8012841EB17
:1050D000010C1CF5001F0CD80ED14FEAD17C15F540
:1050E000001F0CEB4C0C0CF1020C08BF4CEBD37CFA
:1050F00004E04FF0080C01E04FEAD37C0CEB4C05C8
:1051000026FA05F606F00706B6F1040C06D20EEBF9
:10511000860CBDE870404CF0010C6047DFE80CF0F5
:10512000090B02024FF000414FF00000A1F50021F1
:1051300070BD19461046012851EB010418BFD4F583
:10514000001484BF002001F0004170BD0808A0F5E4
:1051500000114FEA3101704753EA010C17D41CF5D6
:10516000801F58BFBCF5801F00F106808B4218BF1E
:10517000704708BF8242704707D713F5801F58BF9A
:1051800011F5801F19D48B4270479B4270471CF564
:10519000801F08D5BCF5801FF7D5994218BF70470E
:1051A00008BF904270474FF4001C1CEB430F38BF00
:1051B0001CEB410F01D2994270470FB40CBC03BCE9
:1051C000FFF7C1BE2DE9F04101F5801CBCF5001FC1
:1051D000C0F2C3804FEA115C21EA0C510CF1FD0CC6
:1051E00041F480115FEA5C0C0CF5C07C01D34000F7
:1051F00049413DA4890241EA905187028E0E0A0C72
:10520000A45D04FB04F602FB06F6C6F14046A4FBCF
:105210000662F60D46EA422606FB06F4A4FB0123CD
:105220005242C3F1404338BF5B1EA6FB024200243A
:10523000E6FB0324D20B42EA4446A6FB0623A1FB6D
:1052400002E2A3FB07E4A4184FF0000252F10002AF
:10525000E3FB01426442C2F1404E38BFAEF1010EA1
:10526000A6FB04234FF00002E6FB0E32A2FB03462E
:105270004FF00004B61954F10004E2FB0264A1FBF4
:1052800006E6A4FB07E816EB08064FF0000858F105
:105290000008E4FB01687642C8F1405838BFA8F125
:1052A0000108A2FB06E4A3FB08E52D194FF000045A
:1052B00054F10004E2FB0854A1FB05E6A7FB04E857
:1052C00018EB06084FF0000656F10006E1FB0486D5
:1052D00018F1200556F10006A809A8F11B08B1092C
:1052E00008F03F08B8F10A0F40EA86601CD901EBCC
:1052F0000C51BDE8F08100BFFCF5EEE8E2DDD8D34B
:10530000CFCBC7C3C0BDB9B6B4B1AEACA9A7A5A336
:10531000A19F9D9B9A9896959392908F8D8C8B8947
:105320008887868584838281A0FB006800FB01F268
:1053300008EB4208B8EB872807D5341858EB01046E
:10534000D5D5401C51F10001D1E7341A78EB0104A6
:10535000CDD4401E71F10001C9E75FEA4C0C5FEA51
:105360009C5C0DD105D34FF0000001F00041BDE879
:10537000F081BDE8F04170B5FFF79AFE6DDBFFBE2E
:10538000BDE8F0414FF00000004970470000F87F91
:1053900043004FEAD30C4FEA3C0C43401FBF400789
:1053A0000CF1605113F0FE4F70471CF0006F03D1F9
:1053B00000200CF0004170470CF0004343EA5070AD
:1053C00010B540EACC0000F01CFA00BF00000092CB
:1053D0004FEA0001FFF7BABE4FF000414FF0000066
:1053E000A1F500217047000090EA010F48BF81F04D
:1053F000004100F15882421A3CBF801A89184FEAD6
:10540000D0524FF07F4C1CEA410FA2EBD15318BF92
:105410009CEA026F00F03B804FF0004C4CEA002009
:105420004CEA012121FA03FC10EB0C0C1ED202F114
:10543000FF325FEA1C2040EBC25038BF70471CF0BF
:105440007F0F4FEA400C18BFBCF17F4F38BF704749
:10545000C3F12003994008BF20F00100BCF17F4F49
:1054600038BF7047A0F1C04000F011BA4FEA3C00CD
:10547000000A40EBC25028BF1CF0FF0F4FEA400C5F
:10548000E6D018BFBCF17F4F38BF7047EAE79CEA0F
:10549000026F05D010EA5C0F08BF00F000407047B3
:1054A00010B500F0AEF900BF64FBBE3E4FF47F0CB8
:1054B0001CEAD0121EBF1CEAD11392EA0C0F93EA29
:1054C0000C0F00F0858090EA010F48BF42F4807213
:1054D00040F4000C41F400002CF07F4120F07F40AC
:1054E00000B58142A2EB03020FF2081CACEB504E58
:1054F000C0F100009EF800E04FEA4E0E00FB0EFCEB
:1055000038BF49004FEA2C1C02F5FA020CFB0EF3DF
:105510004FEACE1E4FEA112C4FEAC1210EEB635E1B
:1055200042EB22420EFB0CFC4FEA1C5300FB031122
:105530004FEA112C4FEA01310EFB0CFC4FEADC4C18
:1055400000FB0C11C14228BF09184CEB03335DF876
:1055500004EB10EB410143EBC250B2F57C0F38BFB6
:10556000704729D512F0F00F1CBF00F1C04000F0C9
:1055700000407047008182838485868788898B8C70
:105580008D8E8F919293959697999A9C9D9FA0A2AC
:10559000A3A5A7A8AAACAEB0B2B3B5B7B9BCBEC0FC
:1055A000C2C5C7C9CCCED1D4D7D9DCDFE2E6E9EC9D
:1055B000F0F3F7FAFE0000004FEA400C0CF1807C9B
:1055C000BCF17E4F28BF7047B0F1C04000F05FB91A
:1055D00090EA010F0CEAD11348BF42F48072624591
:1055E00038BF634507D213F47F0F16D080EA01005D
:1055F00000F00040704710B500F003F9097EFC3E52
:1056000000F005B880EA010000F00040704780EA31
:10561000010000F0004000F03AB912F47F0F04BF1F
:105620000248704780EA010000F031B90000C07FF5
:1056300041000B0ED3F19E0208D950F400034FEA4B
:10564000032323FA02F048BF4042704710B500F030
:10565000D8F800BF49922480002070476FF00042C4
:1056600082EA200070470000C10DD1F19E0206DBE6
:105670004FEA002343F0004323FA02F07047004250
:1056800007D54FEA4001B1F1FE4F02D24FF00000C2
:10569000704710B500F0B5F849922480002070479B
:1056A0006FEA20007047000010F0004148BF404200
:1056B000B0FA80F310FA03F2C3F19D030BD051EA64
:1056C000C35101EB1220530638BF704700F10100AF
:1056D00008BF20F001007047B0FA80F310FA03F21F
:1056E000C3F19D030AD0D90501EB1220530638BF40
:1056F000704700F1010008BF20F001007047000072
:105700004FF47F0C1CEAD0121EBF1CEAD11392EAA0
:105710000C0F93EA0C0F00F0478090EA010F48BF8E
:1057200042F480724FF0004C4CEA00204CEA012118
:1057300002EB0302A0FB0113A2F50002002918BF2F
:1057400043F001035B0028BF4FEA330342EB2242E0
:105750005FEA132C4CEBC2502EBFBCEB436FB2F58B
:105760007C0F70474FEA036CBCF1004F08BF20F07C
:105770000100B2F57C0F38BF70470BD582F0FF02F5
:1057800012F5803FC8BF704700F1C040D8BF00F09D
:105790000040704700F5000C5FEA4C0C48BF7047B2
:1057A000B0F1C04000F073B890EA010F0CEAD113D9
:1057B00048BF42F48072624538BF634504D280EA34
:1057C000010000F00040704710B500F01AF800BF6B
:1057D0008900013E00F007B800F009B85FEA410C0B
:1057E0005FEA1C6C08D080EA010000F050B85FEA64
:1057F000400C5FEA1C6CF6D14FF00040A0F5800031
:1058000070470EF1020E2EF0030E5EF8044B244298
:1058100004D44FEA4102B2F17F4F11D84FEA40035E
:10582000B3F17F4F0CD80ED14FEAD07CB2F17F4F4D
:105830000CEB4C0C0CF1020C08BF4CEBD17C04E0DF
:105840004FF0080C01E04FEAD17C0CEB4C0324FA3A
:1058500003F404F00704B4F1040C06D20EEB840C3C
:10586000BDE810404CF0010C6047DFE80CF0070881
:1058700002024FF00040A0F5800010BD0846420033
:1058800018BFD2F1807288BF00F0004010BDFF2128
:1058900041EAD050C005704790EA010F48BF81F03F
:1058A00000413FF5A8AD421A04D882F00042A0EBB7
:1058B000020011444FEAD0524FF07F4C1CEA410FD6
:1058C000A2EBD15318BF9CEA026F4AD04FF0004CB4
:1058D0004CEA00204CEA012121FA03FCB0EB0C0C4D
:1058E0000FD412F0FE0F36D05FEA4C001DD5001227
:1058F00040EBC25038BF70471CF03F0F18BF7047D5
:105900000BE0A2F101025FEA1C2040EBC25038BF5D
:1059100070471CF07F0F18BF7047C3F120039940F8
:1059200014BF401E20F00100704780084FEA122388
:1059300008BF7047B0FA80FCA2EB0C02CCF1280C37
:1059400060FA0CF093EA122F04BF00EBC2507047CC
:105950004FEAC3707047130A5FEADC1008BF704754
:10596000F6E79CEA026F04D010EA5C0F08BF002043
:10597000704710B5FFF745FF40DFF63E81F000406D
:105980007047000000000000000000000000000060
:1059900000003F4000000000000000003000400018
:1059A00030004000000009000BC03D000BC03D006E
:1059B000090018C024407FE0224031800000180018
:1059C00024C01B000D803240018003801C40274012
:1059D0001C80074000401000600000000000000034
:1059E00000000000000000001F8020404020000058
:1059F000402020401F8000000000090006001F809A
:105A0000060009000000040004003F8004000400B8
:105A10000000001000600000000000000000040012
:105A20000400040004000400000000000040000026
:105A3000000000000000002001C006003800400007
:105A400000001F802040204020401F8000000000F8
:105A500010403FC000400000000018C0214022401C
:105A600024401840000010802040244024401B8027
:105A7000000002000D0011003FC0014000003C800A
:105A8000244024402440238000001F8024402440E0
:105A90003440038000003000200027C03800200080
:105AA00000001B802440244024401B8000001C0078
:105AB00022C0224022401F80000000000000084059
:105AC0000000000000000000000004600000000072
:105AD0000000000004000A0011002080404009007E
