:0F20DA0073706920746F75636820746573740088
:10206000E4F594F593F592F591F596F595F5B2F5BD
:10207000B175B402F5B375CA08F5C9F5CCF5CBF561
:04208000E2F5E12282
:101C570012206012125F1221027FFF7E07121DF30E
:101C67007BFF7A2079DA90000CE4F0A3741FF074FC
:101C7700FFA3F0A3F0E4FDFCFF121ABA1218DF78F5
:101C8700007C007D017E007F05120C50900004E06F
:101C9700B401E9B292900000E0FAA3E0FBFFAE02C4
:101CA700C006C007A3E0FCA3E0FDEB2402FBE43A77
:101CB700FA900002E0FEA3E02402FFE43E90002633
:101CC700F0A3EFF0D007D006121ED7E4900005F07E
:101CD700900005E0C3940950A37F007EF81220C846
:081CE700900005E004F080E824
:10208400E4FDFCC3ED9FEC9E500EE4FB0BEBB403AC
:08209400FB0DBD00010C80EB07
:01209C002221
:10209D00E4FDFCC3ED9FEC9E500EE4FB0BEBB40591
:0820AD00FB0DBD00010C80EBEE
:0120B5002208
:081FD300900022EEF0A3EFF0F4
:101FDB00E4A3F0A3F0900022E0FEA3E0FFC3900087
:101FEB0025E09F900024E09E50157FFA7E00122082
:0F1FFB009DA3E004F070DE900024E004F080D697
:01200A0022B3
:1020B600E4FEEEC39F500AE4FD0DEDB464FB0E8012
:0120C600F128
:0120C70022F6
:04200B007F367E009E
:10200F00C2A0C2C2E4FDFCEF30E704D2C48002C21A
:10201F00C4C2A1D2A1EF25E0FFEE33FE0DBD00013A
:09202F000CED64084C70E0D2C213
:012038002285
:101F92007E0012200F7F057E00121FA97F3C7E006B
:071FA200121FA97F3C7E0025
:101FA900D2A0C2C2E4FDFCEF30E704D2C48002C271
:101FB900C4C2A1D2A1EF25E0FFEE33FE0DBD0001A1
:091FC9000CED64084C70E0D2C27A
:011FD20022EC
:1020C800AB07AA06EAFF7E00121FA9AE02AF030201
:0220D8001FA93E
:101ED700900020EEF0A3EFF0A3ECF0A3EDF07F2A43
:101EE7007E0012200F900020E0FF7E00121FA97EC7
:101EF70000A3E0FF121FA9EAFF7E00121FA9AF038C
:101F07007E00121FA97F2B7E0012200FA3E0FF7E09
:101F170000121FA97E00A3E0FF121FA9900026E070
:101F2700FF7E00121FA97E00A3E0FF121FA97F2CCE
:051F37007E0002200FF6
:101E6700EF14B408005068901E7C75F003A4C58376
:101E770025F0C58373021E94021E9B021EA2021E3A
:101E8700A9021EB0021EB7021EBE021EC512200BFB
:101E97007F08802F12200B7F88802812200B7F4815
:101EA700802112200B7FC8801A12200B7F288013F5
:101EB70012200B7F68800C12200B7FA88005122050
:101EC7000B7FE87E00121FA97F2C7E0012200F22B5
:10125F00D2A27F017E00121FD3C2A27F017E001295
:10126F001FD3D2A27F787E00121FD37F117E001270
:10127F00200F7F787E00121FD37FB1121F927FB293
:10128F00121F927FB3121F92121F977FB47E00120C
:10129F00200F7F037E00121FA97FC07E0012200F38
:1012AF007F287E00121FA97F087E00121FA97F04CE
:1012BF007E00121FA97FC17E0012200F7FC07E000B
:1012CF00121FA97FC27E0012200F7F0D7E00121FFA
:1012DF00A9E4FFFE121FA97FC37E0012200F7F8D8E
:1012EF007E00121FA97F2A7E00121FA97FC47E00D5
:1012FF0012200F7F8D7E00121FA97FEE7E00121F1E
:10130F00A97FC57E0012200F7F1A7E00121FA9121F
:10131F00200B7FC07E00121FA97FE07E0012200FDE
:10132F007F047E00121FA97F227E00121FA97F0754
:10133F007E00121FA97F0A7E00121FA97F2E7E003A
:10134F00121FA97F307E00121FA97F257E00121F5A
:10135F00A97F2A7E00121FA97F287E00121FA97F56
:10136F00267E00121FA97F2E7E00121FA97F3A7EB4
:10137F0000121FA9E4FFFE121FA97F017E00121F9A
:10138F00A97F037E00121FA97F137E00121FA97F62
:10139F00E17E0012200F7F047E00121FA97F167EB0
:1013AF0000121FA97F067E00121FA97F0D7E00125B
:1013BF001FA97F2D7E00121FA97F267E00121FA955
:1013CF007F237E00121FA97F277E00121FA97F2770
:1013DF007E00121FA97F257E00121FA97F2D7E0080
:1013EF00121FA97F3B7E00121FA9E4FFFE121FA947
:1013FF007F017E00121FA97F047E00121FA97F1399
:10140F007E00121FA97F3A7E0012200F7F057E00FB
:0A141F00121FA97F297E0002200F92
:1000030000000000000000000000000000000000ED
:10001300000000101010101010100000181800003D
:100023000012362448000000000000000000000019
:10003300000000242424FE484848FE4848480000A5
:1000430000001038545450301814145454381010FD
:1000530000000044A4A8A8A8541A2A2A2A4400008D
:1000630000000030484848506EA494888976000008
:1000730000606020C00000000000000000000000DD
:1000830000020408081010101010100808040200E1
:10009300004020101008080808080810102040002D
:1000A300000000001010D63838D6101000000000F1
:1000B3000000000010101010FE10101010000000BF
:1000C300000000000000000000000000606020C08D
:1000D30000000000000000007F000000000000009E
:1000E300000000000000000000000000606000004D
:1000F3000000010202040408081010202040400000
:1001030000000018244242424242424224180000A6
:10011300000000107010101010101010107C000060
:100123000000003C4242420404081020427E0000CA
:100133000000003C4242041804020242443800001A
:10014300000000040C14242444447E04041E000014
:100153000000007E404040586402024244380000E0
:100163000000001C2440405864424242241800000E
:100173000000007E44440808101010101010000006
:100183000000003C4242422418244242423C000008
:100193000000001824424242261A020224380000BA
:1001A30000000000000018180000000018180000EC
:1001B30000000000000000100000000000101020EC
:1001C3000000000204081020402010080402000070
:1001D300000000000000FE000000FE000000000020
:1001E3000000004020100804020408102040000012
:1001F3000000003C42426202040808001818000094
:1002030000000038445AAAAAAAAAB44244380000FB
:100213000000001010182828243C444242E7000044
:10022300000000F8444444784442424244F8000049
:100233000000003E424280808080804244380000BB
:10024300000000F8444242424242424244F8000065
:10025300000000FC424848784848404242FC000005
:10026300000000FC424848784848404040E0000015
:100273000000003C44448080808E84444438000065
:10028300000000E7424242427E42424242E700000F
:100293000000007C1010101010101010107C0000D3
:1002A3000000003E0808080808080808080888F045
:1002B300000000EE444850705048484444EE0000AB
:1002C300000000E0404040404040404042FE00000B
:1002D300000000EE6C6C6C6C5454545454D6000003
:1002E300000000C7626252524A4A4A4646E2000090
:1002F3000000003844828282828282824438000075
:10030300000000FC424242427C40404040E000008A
:1003130000000038448282828282B2CA4C380600CE
:10032300000000FC4242427C4848444442E300004F
:100333000000003E4242402018040242427C00007A
:10034300000000FE92101010101010101038000062
:10035300000000E74242424242424242423C000025
:10036300000000E74242442424282818101000000B
:10037300000000D692929292AAAA6C4444440000D0
:10038300000000E7422424181818242442E7000040
:10039300000000EE4444282810101010103800000C
:1003A3000000007E840408081020204242FC000064
:1003B300001E1010101010101010101010101E003E
:1003C300000040402020101010080804040402021A
:1003D30000780808080808080808080808087800CA
:1003E300001C2200000000000000000000000000CC
:1003F300000000000000000000000000000000FFFB
:1004030000606020C0000000000000000000000049
:10041300000000000000003C421E2242423F000058
:10042300000000C04040405864424242645800000B
:10043300000000000000001C22404040221C00007D
:10044300000000060202021E22424242261B000056
:10045300000000000000003C427E4040423C00009F
:100463000000000F1110107E10101010107C0000FF
:10047300000000000000003E444438403C42423C3F
:10048300000000C04040405C6242424242E700003C
:10049300000000303000007010101010107C0000BD
:1004A3000000000C0C00001C040404040404447841
:1004B300000000C04040404E4850684844EE0000F1
:1004C300000000701010101010101010107C0000AD
:1004D30000000000000000FE4949494949ED0000C1
:1004E30000000000000000DC6242424242E70000DC
:1004F300000000000000003C42424242423C000037
:1005030000000000000000D864424242447840E00A
:10051300000000000000001E22424242221E020789
:1005230000000000000000EE3220202020F8000030
:10053300000000000000003E42403C02427C0000FC
:10054300000000000010107C10101010100C0000B0
:1005530000000000000000C642424242463B000049
:1005630000000000000000E74224242810100000CF
:1005730000000000000000D79292AAAA44440000A1
:10058300000000000000006E2418181824760000F4
:1005930000000000000000E742242428181010E0A7
:1005A300000000000000007E44081010227E0000BE
:1005B30000030404040404080404040404040300FE
:1005C30008080808080808080808080808080808A8
:1005D30000601010101010081010101010106000A0
:1005E300304C430000000000000000000000000049
:1005F300C2E40004400440FFFE0440450021F8A18A
:10060300104AA0484010A01318EFF622102210231E
:10061300F02210CFBC001FF00100FFFE8914254813
:10062300112000007DF844087DF840007DF84090DB
:100633007C6040B0470ED3EB000000080008040FB5
:10064300FE080008000FFC0004000400247FF400EF
:10065300040004004800300000B9C20000007E3CE2
:1006630005D009501150155019503150D1505148EF
:1006730011481164125612FA54502000F0CD007E36
:1006830040144008FEFE882B50C8301ACE04001FC9
:10069300E0122011601FF80008FF8800280010C630
:1006A300EB00020001007FFE0420024001800240B3
:1006B3000C30742E0424042008200820102020204D
:1006C3000020B7C9000000FFC000400048005000F0
:1006D300600060005000480040002000220012002B
:1006E3000A00060000C7EF0000200E20F0201024AF
:1006F30010A4FEA830B039205460945010501088D4
:100703001088110412061404CBAE0001000100018D
:100713000801107D2005C005400920092011101192
:1007230018210EC104010005000200B9B200000047
:100733000420042004207FFC04200420042004203F
:10074300FFFE044006200C100818100C2008B3A468
:1007530000080008100820084009800E000800FF68
:10076300FE0A0009000880084009300A1C0C08082A
:1007730000CCEC0000003FFC01000100010001007F
:100783007FFE010001000280024004200818100EC1
:1007930020044000D2BB0000000000000000000065
:1007A30000000000047FFE000000000000000000C5
:1007B30000000000000000C9AB000400040007F0C3
:1007C300082010403FF05110111011101FF01000BD
:1007D3001004100410040FFC0000A3AC0000000080
:1007E3000000000000000000000000000000000006
:1007F30000000030003000100020000000A1A30022
:1008030000000000000000000000000000000000E5
:1008130000000000300048004800300000000000E5
:081DF300900006EEF0A3EFF0F2
:101DFB00122060900026E4F0A374A0F07B817A009F
:101E0B00E4FDFCFFFE121ED7E4900008F0A3F0E403
:101E1B0090000AF0A3F0900006E0FEA3E0FF122072
:101E2B00C890000BE004F0700690000AE004F0C3C9
:101E3B0090000BE0948290000AE0940040D8900050
:101E4B0009E004F07006900008E004F0C39000096C
:0B1E5B00E094A1900008E0940040B467
:011E66002259
:101F3C00900079FFE0FCA3E0FD900076E02DFD9091
:0D1F4C000075E03CFC90007BE0FAA3E0FB98
:101F5900900089EAF0A3EBF0A907900087ECF0A3C1
:101F6900EDF0E9FB7A007E00C007900087E0FFA34F
:101F7900E0900026CFF0A3EFF0D007121ED7900013
:091F890089E0FEA3E0FF0220C87C
:1017CC00FBE0FFA3E0900079CFF0A3EFF090002EA8
:1017DC00E0FFA3E090007BCFF0A3EFF0900028E0B7
:0417EC00FEA3E0FF79
:1017F000900073EEF0A3EFF0A3ECF0A3EDF0A3EAFA
:10180000F0A3EBF0FF900073A3E02FFF900079E0CE
:10181000FCA3E0FDC3900076E09DFD900075E09C88
:10182000121F50900079A3E0FF900073A3E02FFFF8
:10183000900077E0FCA3E0FDC3900076E09DFD9072
:101840000075E09C121F50900079A3E0FF90007398
:10185000A3E02F900077121F3F900077A3E0FF9046
:101860000073A3E02F121F3C900077A3E0FF9000CD
:1018700073A3E0C39F121F3C900079A3E0FF900088
:1018800073A3E0C39FFF900077121F40900079A3DD
:10189000E0FF900073A3E0C39FFF900077E0FCA3FC
:1018A000E0FDC3900076E09DFD900075E09C121F66
:1018B00050900077A3E0FF900073A3E0C39FFF90D8
:1018C0000079E0FCA3E0FDC3900076E09DFD900070
:0F18D00075E09CFC90007BE0FAA3E0FB021F593F
:0E157B00900028EEF0A3EFF0A3ECF0A3EDF04B
:10158900E4900031F0A3F0A3EAF0A3EBF025E0FF2B
:10159900EA33FEC374039F900038F0E49E9000374D
:1015A900F0900033E0FEA3E0FF900031E0FCA3E0FF
:1015B900FDD39FEE6480F8EC64809840030216AA7C
:1015C900900030E06048900035ECF0A3EDF0900019
:1015D90033E0FEA3E0FFD3900036E09FEE6480F88D
:1015E900900035E0648098503890002AE0FCA3E030
:1015F900FD900031E0FAA3E09000351217CC90007D
:1016090036E004F070C8900035E004F080C0900026
:101619002AE0FCA3E0FD900031E0FAA3E0A3121751
:10162900CC900032E004F07006900031E004F0C381
:10163900900037E0648094805025900031E0FEA34B
:10164900E07802C333CE33CED8F92406FFE43EFE58
:10165900900038E02FF0900037E03EF00215AA9094
:101669000033E0FEA3E0FFC3900032E09FFF90004B
:1016790031E09EFEEF7802C333CE33CED8F9240A87
:10168900FFE43EFE900038E02FF0900037E03EF096
:10169900900034E024FFF0900033E034FFF00215AD
:0116A900AA96
:0116AA00221D
:0E1B9000900039EFF0A3ECF0A3EDF0A3EBF022
:101B9E007E00C0077A00A3E0FFA3E0900026CFF0FE
:101BAE00A3EFF0D007121ED7900039E0FF90003C53
:101BBE00E0C39FFFE49400CF2401CF340090004790
:101BCE00F0A3EFF090003AE0FEA3E0FFC390003EDA
:101BDE00E09FFF90003DE09ECF2401CF34009000A7
:101BEE0045F0A3EFF0E4900041F0A3F0900045E043
:101BFE00FEA3E0FFC3900042E09F900041E09E50A4
:101C0E0047E4900043F0A3F0900047E0FEA3E0FF0E
:101C1E00C3900044E09F900043E09E501B90003F15
:101C2E00E0FEA3E0FF1220C8900044E004F070D85C
:101C3E00900043E004F080D0900042E004F070ACDD
:081C4E00900041E004F080A4C5
:011C5600226B
:101D7B00E0FFA3E0900085CFF0A3EFF0900059E0D7
:041D8B00FEA3E0FFD4
:101D8F0090007DEEF0A3EFF0A3ECF0A3EDF0EB4AA3
:101D9F006051900083E07002A3E0604790007DA344
:101DAF00E0F9FFC007A3E0FCA3E0FDE92B14FB90D3
:101DBF000083E0FEA3E0FF90007FE0F8A3E02FFF99
:101DCF00E83ECF24FFCF34FF90003DF0A3EFF0901B
:101DDF000085E0FFA3E090003FCFF0A3EFF0D00726
:041DEF00121B902211
:100CE000900059EEF0A3EFF0A3ECF0A3EDF0A3EA2F
:040CF000F0A3EBF092
:100CF400E4900066F0A3F090005FE0FEA3E030E033
:100D04000A2401FFE43E900066800B90005FE0FF40
:100D1400A3E0900066CFF0A3EFF0900061E0F975D6
:100D2400F002A4FFC390005EE09FFB90005DE0959D
:100D3400F0FAE9FF90005AE02FFF900059E03400E8
:100D4400FEC00790005BE0FCA3E0FD900066E0C3FA
:100D540013FFA3E013900083CFF0A3EFF0900062A1
:100D6400E0FFA3E0900085CFF0A3EFF0D007121DC1
:100D74008F900061E0F975F002A4FFC390005EE07B
:100D84009FFB90005DE095F0FAE9FF90005AE02F98
:100D9400FF900059E03400FEC006C007900066E0F2
:100DA400C313FEA3E013FF90005CE02FFD90005BF3
:100DB400E03EFC900066E0C313FFA3E013900083C1
:100DC400CFF0A3EFF0900064E0FFA3E0900085CFA4
:100DD400F0A3EFF0D007D006121D8F900061E0F968
:100DE400FB7A0090005CE02BFD90005BE03AFC9005
:100DF4000066E0C313FEA3E013FFE9F582C3EF9599
:100E040082FFEE9400900083F0A3EFF09000621252
:100E14001D7B900066E0C313FEA3E013FF90005C0B
:100E2400E02FFD90005BE03EFC900061E0F9FB7A6E
:100E340000900066E0C313FEA3E013FFE9F582C34C
:100E4400EF9582FFEE9400900083F0A3EFF0900002
:100E540064121D7B90005DE0FEA3E0FF90005AE069
:100E64002FFF900059E03EFE900061E0F9FD7C0008
:100E7400C3EF9DFFEE9CFEC006C00790005CE02D12
:100E8400FD90005BE03CFCE9FB7A00900066E0C367
:100E940013FEA3E013FFE9F582C3EF9582FFEE94FE
:100EA40000900083F0A3EFF0900062E0FFA3E090D5
:100EB4000085CFF0A3EFF0D007D006121D8F90006D
:100EC4005DE0FEA3E0FF90005AE02FFF900059E0A0
:100ED4003EFE900061E0F9FB7A00C3EF9BFFEE9ABF
:100EE400FEC006C007900066E0C313FEA3E013FF34
:100EF40090005CE02FFD90005BE03EFC900066E01B
:100F0400C313FEA3E013FFE9F582C3EF9582FFEE5E
:100F14009400900083F0A3EFF0900064E0FFA3E05E
:100F2400900085CFF0A3EFF0D007D006121D8F906C
:100F34000061E0FDFF90005AE02FFF900059E0347B
:100F440000FEC007EDFF90005CE02FFD90005BE029
:100F54003400FC900061E0FB7A00A3E0FFA3E09082
:100F6400002ECFF0A3EFF0A37401F0D00712157B8D
:100F7400900061E0F9FF90005AE02FFF900059E0E3
:100F84003400FEC006C007900066E0FEA3E0FF90B8
:100F9400005CE02FFF90005BE03EFEE9FB7A00C3BB
:100FA400EF9BFFEE9ACF24FFFDEF34FFFC9000642B
:100FB400E0FFA3E090002ECFF0A3EFF0A37401F0C4
:100FC400D007D00612157B90005DE0FEA3E0FF90F1
:100FD400005AE02FFF900059E03EFE900061E0F9D6
:100FE400FD7C00C3EF9DFFEE9CCF24FFCF34FFFEBA
:100FF400C00790005CE02DFD90005BE03CFCE9FB49
:101004007A00900062E0FFA3E090002ECFF0A3EFFF
:10101400F0A37401F0D00712157B90005DE0FEA3ED
:10102400E0FF90005AE02FFF900059E03EFE900050
:1010340061E0F9FDC3EF9DFFEE9400CF24FFCF34B0
:10104400FFFEC006C007900066E0FEA3E0FF90002C
:101054005CE02FFF90005BE03EFEE9FB7A00C3EF0B
:101064009BFFEE9ACF24FFFDEF34FFFC900064E079
:10107400FFA3E090002ECFF0A3EFF0A37401F0D013
:0610840007D00602157BF7
:0D16AB00900011EFF0A3ECF0A3EDF0AF0301
:1016B80090001C74FFF0A37400F0A37403F0EF24EF
:1016C800E0FFE434FFFEEFC4F8540FC868FFEEC42F
:1016D80054F04890001D8FF0120CBC900019E07077
:1016E80035900011E0FB7A00FF7E00C006C007A31A
:1016F800E0FCA3E0FDEB2407FBEA33FA900012E0DC
:10170800FEA3E0240FFFE43E900026F0A3EFF0D004
:1017180007D006121ED7900019E0B40135900011C9
:10172800E0FB7A00FF7E00C006C007A3E0FCA3E050
:10173800FDEB2407FBEA33FA900012E0FEA3E02455
:101748000FFFE43E900026F0A3EFF0D007D006127A
:101758001ED7E490001BF0E490001AF090001AE005
:10176800FFC39408504790001CE0FBA3E0FAA3E0F5
:10177800F9120C76FD7C00C374079FFF74017E008C
:10178800A807088005C333CE33CED8F9FFEE5CFE38
:10179800EF5D4E60059000158003900017E0FEA3F2
:1017A800E0FF1220C890001AE004F080AF90001DFE
:1017B800E475F001120CBC90001BE004F0E0C39447
:0317C8001040943A
:0117CB0022FB
:10142900900011EFF0A3ECF0A3EDF0A3EBF0A3EA29
:04143900F0A3E9F043
:10143D0090001BE07035900011E0FB7A00FF7E00FC
:10144D00C006C007A3E0FCA3E0FDEB240FFBEA33CD
:10145D00FA900012E0FEA3E0240FFFE43E90002678
:10146D00F0A3EFF0D007D006121ED790001BE0B40A
:10147D000135900011E0FB7A00FF7E00C006C00729
:10148D00A3E0FCA3E0FDEB240FFBEA33FA9000127E
:10149D00E0FEA3E0240FFFE43E900026F0A3EFF062
:1014AD00D007D006121ED7E490001EF090001EE06B
:1014BD00FFC39440400302157A900014E0FBA3E0B3
:1014CD00FAA3E0F9120C76FE75F023EFA424F3F5E0
:1014DD0082E5F03405F583E4936E60030215719097
:1014ED000001120C8FFF90001EE075F023A424F470
:1014FD00F582E5F03405F583E4936F706790001C79
:10150D00F090001CE0FFC39420505990001EE07530
:10151D00F023A424F6F582E5F03405F583E5822F5A
:10152D00F582E43583F583E49390001FF0E4900099
:10153D001DF090001FE030E705900017800390002C
:10154D0019E0FEA3E0FF1220C890001FE025E0F097
:10155D0090001DE004F0E0C3940840D690001CE01C
:0D156D0004F0809D90001EE004F00214B90F
:01157A00224E
:101ABA00900006EFF0A3ECF0A3EDF0A3EBF0A3EA9D
:041ACA00F0A3E9F0AC
:101ACE00E4900010F0900009E0FBA3E0FAA3E0F927
:101ADE00120C767003021B8FC39480900010E07579
:101AEE00F008504CA4FF900006E02FFFC007A3E0C3
:101AFE00FCA3E0FD120C76FB90000CE0FFA3E0903F
:101B0E000015CFF0A3EFF090000EE0FFA3E09000E1
:101B1E0017CFF0A3EFF0E4A3F0D0071216AB9000AE
:101B2E0010E004F090000AE475F001120CBC8095F0
:101B3E00A4FF900006E02FFFC007A3E0FCA3E0FD8A
:101B4E00A3E0FBA3E0FAA3E0F9A3E0FFA3E090007B
:101B5E0017CFF0A3EFF090000EE0FFA3E090001976
:101B6E00CFF0A3EFF0E4A3F0D00712142990000AEF
:101B7E00E475F002120CBC900010E02402F0021A80
:011B8E00D383
:011B8F002233
:1019D400900068EFF0A3ECF0A3EDF0A3EBF0A3EA22
:0419E400F0A3E9F093
:1019E800E4900072F090006BE0FBA3E0FAA3E0F94A
:1019F800120C767003021AB9C39480900072E075D5
:101A0800F0085053A4FF90006AE02FFD900069E0B1
:101A180035F0FCC005900068E0FF120C76FB9000E2
:101A28006EE0FDA3E0900015CDF0A3EDF0900070FE
:101A3800E0FDA3E0900017CDF0A3EDF0A37401F052
:101A4800D0051216AB900072E004F090006CE475BB
:101A5800F001120CBC808EA4FF90006AE02FFD906C
:101A68000069E035F0FCC005900068E0FF90006B6D
:101A7800E0FBA3E0FAA3E0F9A3E0FDA3E0900017E0
:101A8800CDF0A3EDF0900070E0FDA3E0900019CD3B
:101A9800F0A3EDF0A37401F0D00512142990006CA6
:101AA800E475F002120CBC900072E02402F00219F6
:011AB800ED40
:011AB900220A
:0B20F600480051016201A7FFFAFFFB48
:10108A00E490000FF0A3F0A3F0A3F0A3F030A503BF
:10109A000212587F01FE121FD330A503021258C252
:1010AA00A37F021220397F901220E9900014EFF0FA
:1010BA00E4FF1220E9900014EFF07FD01220E990AB
:1010CA000015EFF0E4FF1220E9900016EFF07F9090
:1010DA001220E9900017EFF0E4FF1220E9900018BF
:1010EA00EFF07FD01220E9900019EFF0E4FF122010
:1010FA00E990001AEFF07F901220E990001BEFF0C0
:10110A00900014E075F020A4FFA3E0131313541FFA
:10111A00FDEF4DFF90001EE5F0F0A3EFF0900018F0
:10112A00E075F020A4FFA3E0131313541FFDEF4D45
:10113A00FF900020E5F0F0A3EFF0900016E075F0C4
:10114A0020A4FFA3E0131313541FFDEF4DFF9000DB
:10115A001CE5F0F0A3EFF090001AE075F020A4FF70
:10116A00AEF0A3E0131313541FFDEF4DFFC390001D
:10117A001DE09F90001CE09E4012EF2405FDE43E16
:10118A00FCC3A3E09D90001CE09C402290001CE060
:10119A00FCA3E0FDD39FEC9E400302124CED240514
:1011AA00FDE43CFCC3EF9DEE9C400302124C900010
:1011BA001EE0FCA3E0FDA3E0FAA3E0FBD39DEA9CBA
:1011CA005014EB2405FDE43AFCC390001FE09D9007
:1011DA00001EE09C402A900020E0FCA3E0FD900065
:1011EA001EE0FAA3E0FBD39DEA9C5056EB2405FDD2
:1011FA00E43AFCC3900021E09D900020E09C50421C
:10120A009000137401F090001DE02FFF90001CE085
:10121A003EC313FEEF13FF90000FEEF0A3EFF09022
:10122A000020E0FEA3E0FF90001FE02FFF90001EC9
:10123A00E03EC313FEEF13FF900011EEF0A3EFF0B0
:10124A008005E4900013F0E4FF122039D2A37B0159
:04125A007A00790F8E
:01125E00226D
:1018DF0012108A780A7C007D017E007F05120C5061
:1018EF0090000AE0FFA3E0900006CFF0A3EFF09086
:1018FF00000CE0FFA3E0900008CFF0A3EFF0900002
:10190F0051E0FCA3E0FDEC120AC67B007A40791C83
:10191F007846120A24C004C005C006C0079000060E
:10192F00E0FCA3E0FDE4120AC6D003D002D001D040
:10193F000012091BC004C005C006C007900055E087
:10194F00FCA3E0FDEC120AC6D003D002D001D000F8
:10195F0012082A120AFF90000AEEF0A3EFF090008F
:10196F0053E0FCA3E0FDEC120AC67B007A40791C21
:10197F007846120A24C004C005C006C007900008AC
:10198F00E0FCA3E0FDE4120AC6D003D002D001D0E0
:10199F000012091BC004C005C006C007900057E025
:1019AF00FCA3E0FDEC120AC6D003D002D001D00098
:1019BF0012082A120AFF90000CEEF0A3EFF07B0141
:0419CF007A00790A17
:0119D30022F1
:0A210200E4F5CF75CDC075CED022F4
:0D20E9008FCFE5CD30E7FB75CDC0AFCF2226
:10203900EF14600E1460121460162403701853CE46
:10204900FC2253CEFC43CE012253CEFC43CE0222C6
:0720590053CEFC43CE03222D
:10082300020B6BE86480F8E933E83360110460F08D
:10083300ED33EC337009E8FCE9FDEAFEEBFF22043B
:1008430060DED3EB9FEA9EE99DE8C2E78CF0C2F736
:1008530095F0400CE8CCF8E9CDF9EACEFAEBCFFB02
:10086300120B3685D0F05804700320D5B3E804701A
:10087300075002B2D5020B7592D5EC0460F7E4CCB5
:10088300C0E0C398F8603B94186008400DD0E0FBCB
:10089300020B4DE4FBFAC9FC8028E830E406E4C906
:1008A300FBE4CAFCE830E305E4C9CACBFCE854071F
:1008B3006010F8C3E913F9EA13FAEB13FBEC13FC2A
:1008C300D8F130F52FC3E49CFCEF9BFFEE9AFEEDCD
:1008D30099FDD0E0FBEF4E4D4C701222DB03020B6F
:1008E30072EC2CFCEF33FFEE33FEED33FDED30E71E
:1008F300EB020B4DEF2BFFEE3AFEED39FDD0E0FBA3
:1009030050130BBB0003020B75ED13FDEE13FEEF4B
:0809130013FFEC13FC020B4D75
:10091B00EC4D6011E8497017ED33EC3304600DE4D6
:10092B00FCFFFEFD22E933E8330470F8020B6B1277
:10093B000B3658046009E4CC248150062850090278
:10094B000B75284003020B72C0E0EB4A7044B98070
:10095B0006D0E0FB020B61EF4E701CBD8008EBFF75
:10096B00EAFEE9FD80EBE98DF0A4FEE5F0020A0456
:10097B00E9CDF9EAFEEBFFEF89F0A4FCE5F0CE89B7
:10098B00F0A42EFFE435F0CD89F0A42DFEE435F074
:10099B008067EF4E7005BD80D780C3EF8BF0A4ACA2
:1009AB00F0EE8BF0A42CFCE435F0F8EF8AF0A42CDD
:1009BB00E5F038FCE433CB8DF0A42CFCE5F03BF8F0
:1009CB00EE8AF0A42CFCE5F038F8E433CF89F0A4E0
:1009DB002CFCE5F038CF3400CE89F0A42FFFE5F0E6
:1009EB003EFEE433C98DF0A42EFEE5F039CD8AF03E
:1009FB00A42FFFE5F03EFEE43DFD33D0E0FB5007B6
:100A0B000BBB000F020B75EC2CFCEF33FFEE33FE30
:060A1B00ED33FD020B4D5E
:100A2100020B75EC5D046005E859047003020B6B61
:100A3100120B36580460F6EC4860F2EC7004FDFECF
:100A4100FF22C860DB2481C85009C39860025006A8
:100A5100020B729850CAF582E9294B4A7005AB82A4
:100A6100020B6175F0007C1A7880C3EF9BEE9AED62
:100A710099400DC3EF9BFFEE9AFEED99FDE842F020
:100A8100DC23ACF0D0E0FFD0E0FED0E0FDAB822073
:100A9100E7101BEB60BAEC2CFCEF33FFEE33FEEDFD
:100AA10033FD020B4DE803F830E705C0F075F000A7
:100AB100EF2FFFEE33FEED33FD40B830E7C280AAE1
:100AC10075F020800E75F010800575F0087D007EB0
:100AD100007F003392D530D503120CD2EC33401095
:100AE100EF33FFEE33FEED33FDEC33FCD5F0ED22B9
:0E0AF100E5F0247EA2D513CC92E7CDCEFF22F5
:100AFF00EDD2E7CD33EC3392D524814006E4FFFEEF
:100B0F00FDFC22FCE4CFCECDCC24E0501174FF804D
:100B1F00EDC3CC13CCCD13CDCE13CECF13CF0470EA
:070B2F00F030D5DE020CD20C
:100B3600E9D2E7C933E833F892D5EDD2E7CD33EC05
:070B460033FC5002B2D5227E
:100B4D00EC30E7100FBF000C0EBE00080DBD000409
:100B5D000BEB6014A2D5EB13FCED92E7FD2274FFB5
:100B6D00FCFDFEFF22E480F8A2D574FF13FC7D800E
:030B7D00E480EF22
:03000000021CEFF0
:0C1CEF00787FE4F6D8FD758107021D36F1
:100B8000E709F608DFFA8046E709F208DFFA803E57
:100B900088828C83E709F0A3DFFA8032E309F60844
:100BA000DFFA8078E309F208DFFA807088828C83AC
:100BB000E309F0A3DFFA806489828A83E0A3F60860
:100BC000DFFA805889828A83E0A3F208DFFA804C3A
:100BD00080D280FA80C680D4806980F28033801011
:100BE00080A680EA809A80A880DA80E280CA80337A
:100BF00089828A83ECFAE493A3C8C582C8CCC583F2
:100C0000CCF0A3C8C582C8CCC583CCDFE9DEE780C1
:100C10000D89828A83E493A3F608DFF9ECFAA9F040
:100C2000EDFB2289828A83ECFAE0A3C8C582C8CC96
:100C3000C583CCF0A3C8C582C8CCC583CCDFEADEAF
:100C4000E880DB89828A83E493A3F208DFF980CC11
:100C500088F0EF60010E4E60C388F0ED2402B4040A
:100C60000050B9F582EB2402B4040050AF232345B1
:060C70008223900BD073FB
:100C7600BB010689828A83E0225002E722BBFE027C
:090C8600E32289828A83E49322AF
:100C8F00BB010CE58229F582E5833AF583E022501A
:100C9F0006E92582F8E622BBFE06E92582F8E22264
:0D0CAF00E58229F582E5833AF583E493227E
:100CBC00C5F0F8A3E028F0C5F0F8E58215827002C3
:060CCC001583E038F02260
:0E0CD200C3E49FFFE49EFEE49DFDE49CFC2233
:101CFB00021C57E493A3F8E493A34003F68001F28C
:101D0B0008DFF48029E493A3F85407240CC8C333E9
:101D1B00C4540F4420C8834004F456800146F6DFB8
:101D2B00E4800B01020408102040809020F6E47E32
:101D3B00019360BCA3FF543F30E509541FFEE493AD
:101D4B00A360010ECF54C025E060A840B8E493A374
:101D5B00FAE493A3F8E493A3C8C582C8CAC583CA9F
:101D6B00F0A3C8C582C8CAC583CADFE9DEE780BE57
:0121010000DD
:00000001FF
