:020000040800F2
:100000000000022029270008B5240008B7240008B2
:10001000B9240008BB240008BD240008000000002B
:10002000000000000000000000000000BF240008E5
:10003000C124000800000000C3240008C5240008F3
:100040007927000879270008792700087927000810
:100050007927000879270008792700087927000800
:1000600079270008792700087927000879270008F0
:1000700079270008792700087927000879270008E0
:10008000CD2400087927000879270008792700087F
:10009000DD2400087927000879270008792700085F
:1000A00079270008792700087927000879270008B0
:1000B00079270008792700087927000879270008A0
:1000C0007927000879270008792700087927000890
:1000D0007927000879270008792700087927000880
:1000E0007927000879270008792700087927000870
:1000F0007927000879270008792700087927000860
:10010000792700087927000879270008792700084F
:10011000792700087927000879270008ED240008CE
:10012000792700087927000879270008792700082F
:10013000792700087927000879270008792700081F
:10014000792700087927000879270008792700080F
:1001500079270008792700087927000879270008FF
:1001600079270008792700087927000879270008EF
:100170007927000879270008792700080000000087
:08018000792700087927000827
:1001C00010B5054C237833B9044B13B10448AFF391
:1001D00000800123237010BDC8090020000000002A
:1001E00000E8000808B5034B1BB103490348AFF30F
:1001F000008008BD00000000CC09002000E80008D5
:1002000081F0004102E000BF83F0004330B54FEAC7
:1002100041044FEA430594EA050F08BF90EA020F34
:100220001FBF54EA000C55EA020C7FEA645C7FEAC7
:10023000655C00F0E2804FEA5454D4EB5555B8BFEA
:100240006D420CDD2C4480EA020281EA030382EA5B
:10025000000083EA010180EA020281EA0303362DED
:1002600088BF30BD11F0004F4FEA01314FF4801CC0
:100270004CEA113102D0404261EB410113F0004FD2
:100280004FEA03334CEA133302D0524263EB430389
:1002900094EA050F00F0A780A4F10104D5F1200E27
:1002A0000DDB02FA0EFC22FA05F2801841F1000182
:1002B00003FA0EF2801843FA05F359410EE0A5F156
:1002C00020050EF1200E012A03FA0EFC28BF4CF087
:1002D000020C43FA05F3C01851EBE37101F000453D
:1002E00007D54FF0000EDCF1000C7EEB00006EEB4A
:1002F0000101B1F5801F1BD3B1F5001F0CD34908D4
:100300005FEA30004FEA3C0C04F101044FEA44522A
:1003100012F5800F80F09A80BCF1004F08BF5FEAB1
:10032000500C50F1000041EB045141EA050130BD91
:100330005FEA4C0C404141EB0101013C28BFB1F5A3
:10034000801FE9D291F0000F04BF01460020B1FAEE
:1003500081F308BF2033A3F10B03B3F120020CDAC1
:100360000C3208DD02F1140CC2F10C0201FA0CF09F
:1003700021FA02F10CE002F11402D8BFC2F1200C04
:1003800001FA02F120FA0CFCDCBF41EA0C019040BA
:10039000E41AA2BF01EB0451294330BD6FEA040403
:1003A0001F3C1CDA0C340EDC04F11404C4F12002EE
:1003B00020FA04F001FA02F340EA030021FA04F300
:1003C00045EA030130BDC4F10C04C4F1200220FA57
:1003D00002F001FA04F340EA0300294630BD21FA95
:1003E00004F0294630BD94F0000F83F4801306BF5B
:1003F00081F480110134013D4EE77FEA645C18BF4F
:100400007FEA655C29D094EA050F08BF90EA020FE5
:1004100005D054EA000C04BF1946104630BD91EADD
:10042000030F1EBF0021002030BD5FEA545C05D1E0
:100430004000494128BF41F0004130BD14F580041F
:100440003CBF01F5801130BD01F0004545F0FE4193
:1004500041F470014FF0000030BD7FEA645C1ABFC8
:10046000194610467FEA655C1CBF0B46024650EAFF
:10047000013406BF52EA033591EA030F41F400212B
:1004800030BD00BF90F0000F04BF0021704730B5B1
:100490004FF4806404F132044FF000054FF0000186
:1004A00050E700BF90F0000F04BF0021704730B547
:1004B0004FF4806404F1320410F0004548BF40421C
:1004C0004FF000013EE700BF42004FEAE2014FEA71
:1004D00031014FEA02701FBF12F07F4393F07F4F4C
:1004E00081F06051704732F07F4208BF704793F04F
:1004F0007F4F04BF41F40021704730B54FF4607462
:1005000001F0004521F000411CE700BF50EA010264
:1005100008BF704730B54FF000050AE050EA01020D
:1005200008BF704730B511F0004502D5404261EB7D
:1005300041014FF4806404F132045FEA915C3FF4BE
:10054000D8AE4FF003025FEADC0C18BF03325FEA5B
:10055000DC0C18BF033202EBDC02C2F1200300FA0C
:1005600003FC20FA02F001FA03FE40EA0E0021FA31
:1005700002F11444BDE600BF4FF0FF3C06E000BFAF
:100580004FF0010C02E000BF4FF0010C4DF804CD1C
:100590004FEA410C7FEA6C5C4FEA430C18BF7FEADC
:1005A0006C5C1BD001B050EA410C0CBF52EA430C0A
:1005B00091EA030F02BF90EA020F0020704710F18A
:1005C000000F91EA030F58BF994208BF90422CBF19
:1005D000D8176FEAE37040F0010070474FEA410C12
:1005E0007FEA6C5C02D150EA013C07D14FEA430C30
:1005F0007FEA6C5CD6D152EA033CD3D05DF8040BA1
:10060000704700BF8446104662468C4619466346D2
:1006100000E000BF01B5FFF7B7FF002848BF10F1A9
:10062000000F01BD4DF808EDFFF7F4FF0CBF0120EE
:1006300000205DF808FB00BF4DF808EDFFF7EAFF6A
:1006400034BF012000205DF808FB00BF4DF808ED25
:10065000FFF7E0FF94BF012000205DF808FB00BF1A
:100660004DF808EDFFF7CEFF94BF012000205DF8A4
:1006700008FB00BF4DF808EDFFF7C4FF34BF0120B1
:1006800000205DF808FB00BF4FEA410212F500129E
:1006900015D211D56FF47873B3EB625212D94FEAC9
:1006A000C12343F0004343EA505311F0004F23FAB3
:1006B00002F018BF404270474FF00000704750EA08
:1006C000013005D111F0004008BF6FF000407047C5
:1006D0004FF00000704700BF80F0004002E000BF14
:1006E00081F0004142001FBF5FEA410392EA030F1D
:1006F0007FEA226C7FEA236C6AD04FEA1262D2EB67
:100700001363C1BFD218414048404140B8BF5B426B
:10071000192B88BF704710F0004F40F4000020F004
:100720007F4018BF404211F0004F41F4000121F01A
:100730007F4118BF494292EA030F3FD0A2F1010264
:1007400041FA03FC10EB0C00C3F1200301FA03F1A2
:1007500000F0004302D5494260EB4000B0F5000FC5
:1007600013D3B0F1807F06D340084FEA310102F184
:100770000102FE2A51D2B1F1004F40EBC25008BF36
:1007800020F0010040EA03007047490040EB000000
:10079000013A28BFB0F5000FEDD2B0FA80FCACF101
:1007A000080CB2EB0C0200FA0CF0AABF00EBC2502E
:1007B00052421843BCBFD0401843704792F0000F1C
:1007C00081F4000106BF80F400000132013BB5E76F
:1007D0004FEA41037FEA226C18BF7FEA236C21D0E5
:1007E00092EA030F04D092F0000F08BF084670474A
:1007F00090EA010F1CBF0020704712F07F4F04D118
:10080000400028BF40F00040704712F100723CBF2A
:1008100000F50000704700F0004343F0FE4040F454
:10082000000070477FEA226216BF08467FEA236312
:100830000146420206BF5FEA412390EA010F40F4FD
:10084000800070474FF0000304E000BF10F0004349
:1008500048BF40425FEA000C08BF704743F0964330
:1008600001464FF000001CE050EA010208BF70474B
:100870004FF000030AE000BF50EA010208BF7047D2
:1008800011F0004302D5404261EB41015FEA010CE7
:1008900002BF84460146002043F0B64308BFA3F1DF
:1008A0008053A3F50003BCFA8CF2083AA3EBC253C1
:1008B00010DB01FA02FC634400FA02FCC2F12002E0
:1008C000BCF1004F20FA02F243EB020008BF20F017
:1008D0000100704702F1200201FA02FCC2F120027D
:1008E00050EA4C0021FA02F243EB020008BF20EA72
:1008F000DC7070474FF0FF0C1CEAD0521EBF1CEAA0
:10090000D15392EA0C0F93EA0C0F6FD01A4480EA8D
:10091000010C400218BF5FEA41211ED04FF0006376
:1009200043EA501043EA5111A0FB01310CF00040A2
:10093000B1F5000F3EBF490041EAD3715B0040EAC8
:10094000010062F17F02FD2A1DD8B3F1004F40EB98
:10095000C25008BF20F00100704790F0000F0CF06B
:10096000004C08BF49024CEA502040EA51207F3A2F
:10097000C2BFD2F1FF0340EAC250704740F400000A
:100980004FF00003013A5DDC12F1190FDCBF00F0FB
:1009900000407047C2F10002410021FA02F1C2F1A9
:1009A000200200FA02FC5FEA310040F1000053EA45
:1009B0004C0308BF20EADC70704792F0000F00F093
:1009C000004C02BF400010F4000F013AF9D040EA99
:1009D0000C0093F0000F01F0004C02BF490011F42D
:1009E000000F013BF9D041EA0C018FE70CEAD1532B
:1009F00092EA0C0F18BF93EA0C0F0AD030F0004CAB
:100A000018BF31F0004CD8D180EA010000F000405E
:100A1000704790F0000F17BF90F0004F084691F01C
:100A2000000F91F0004F14D092EA0C0F01D1420256
:100A30000FD193EA0C0F03D14B0218BF084608D11F
:100A400080EA010000F0004040F0FE4040F4000069
:100A5000704740F0FE4040F4400070474FF0FF0CFC
:100A60001CEAD0521EBF1CEAD15392EA0C0F93EA43
:100A70000C0F69D0A2EB030280EA010C49024FEA95
:100A8000402037D04FF0805343EA111143EA10134E
:100A90000CF000408B4238BF5B0042F17D024FF406
:100AA000000C8B4224BF5B1A40EA0C00B3EB510FE1
:100AB00024BFA3EB510340EA5C00B3EB910F24BFCA
:100AC000A3EB910340EA9C00B3EBD10F24BFA3EB4F
:100AD000D10340EADC001B0118BF5FEA1C1CE0D117
:100AE000FD2A3FF650AF8B4240EBC25008BF20F0CA
:100AF000010070470CF0004C4CEA50207F32C2BF1E
:100B0000D2F1FF0340EAC250704740F400004FF0BA
:100B10000003013A37E792F0000F00F0004C02BFEB
:100B2000400010F4000F013AF9D040EA0C0093F0B5
:100B3000000F01F0004C02BF490011F4000F013B0F
:100B4000F9D041EA0C0195E70CEAD15392EA0C0F77
:100B500008D142027FF47DAF93EA0C0F7FF470AFAF
:100B6000084676E793EA0C0F04D14B023FF44CAFF2
:100B700008466EE730F0004C18BF31F0004CCAD187
:100B800030F000427FF45CAF31F000437FF43CAFC3
:100B90005FE700BF4FF0FF3C06E000BF4FF0010CE5
:100BA00002E000BF4FF0010C4DF804CD4FEA4002C7
:100BB0004FEA41037FEA226C18BF7FEA236C11D011
:100BC00001B052EA530C18BF90EA010F58BFB2EBC4
:100BD000030088BFC81738BF6FEAE17018BF40F044
:100BE000010070477FEA226C02D15FEA402C05D1F8
:100BF0007FEA236CE4D15FEA412CE1D05DF8040B7D
:100C0000704700BF844608466146FFE70FB5FFF70F
:100C1000C9FF002848BF10F1000F0FBD4DF808EDC7
:100C2000FFF7F4FF0CBF012000205DF808FB00BFB8
:100C30004DF808EDFFF7EAFF34BF012000205DF812
:100C400008FB00BF4DF808EDFFF7E0FF94BF01205F
:100C500000205DF808FB00BF4DF808EDFFF7D2FF5C
:100C600094BF012000205DF808FB00BF4DF808ED9F
:100C7000FFF7C8FF34BF012000205DF808FB00BF6C
:100C80004FEA4002B2F1FE4F0FD34FF09E03B3EB99
:100C900012620DD94FEA002343F0004310F0004FD9
:100CA00023FA02F018BF404270474FF0000070472F
:100CB00012F1610F01D1420205D110F0004008BFCE
:100CC0006FF0004070474FF00000704753B94AB9C9
:100CD000002908BF00281CBF4FF0FF314FF0FF3044
:100CE00000F074B9ADF1080C6DE904CE00F006F81F
:100CF000DDF804E0DDE9022304B070472DE9F04798
:100D0000089E0D4604468846002B4DD18A429446E3
:100D100068D9B2FA82F252B101FA02F3C2F12001AB
:100D200020FA01F10CFA02FC41EA030894404FEA70
:100D30001C45210CB8FBF5FE1FFA8CF705FB1E8342
:100D400041EA03430EFB07F199420BD91CEB030365
:100D50000EF1FF3080F01E81994240F21B81AEF10E
:100D6000020E63445B1AA4B2B3FBF5F005FB10332B
:100D700044EA034400FB07F7A7420AD91CEB04042A
:100D800000F1FF3380F00881A74240F205816444FE
:100D90000238E41B40EA0E4000211EB1D44000237B
:100DA000C6E90043BDE8F0878B4208D9002E00F069
:100DB000EE800021C6E900050846BDE8F087B3FAD9
:100DC00083F100294AD1AB4202D3824200F2F9807A
:100DD000841A65EB030301209846002EE2D0C6E991
:100DE0000048DFE702B9FFDEB2FA82F2002A40F0E3
:100DF0009180A1EB0C054FEA1C471FFA8CFE0121E4
:100E0000B5FBF7F307FB1350250C45EA00450EFB35
:100E100003F0A84208D91CEB050503F1FF3802D204
:100E2000A84200F2CB8043462D1AA4B2B5FBF7F0DE
:100E300007FB105544EA05440EFB00FEA64508D901
:100E40001CEB040400F1FF3502D2A64500F2BB8082
:100E50002846A4EB0E0440EA03409EE7C1F12007B8
:100E60008B4022FA07FC4CEA030C20FA07F405FA3F
:100E700001F31C43FD404FEA1C4900FA01F3B5FBA6
:100E8000F9F8200C1FFA8CFE09FB185540EA0545BD
:100E900008FB0EF0A84202FA01F20BD91CEB050583
:100EA00008F1FF3A80F08880A84240F28580A8F1DE
:100EB000020865442D1AA4B2B5FBF9F009FB1055E0
:100EC00044EA054500FB0EFEAE4508D91CEB0505BE
:100ED00000F1FF346CD2AE456AD90238654440EA6D
:100EE0000840A0FB0294A5EB0E05A542C846A64605
:100EF00056D353D05EB1B3EB080265EB0E0505FA8D
:100F000007F722FA01F3CD401F43C6E9007500211F
:100F1000BDE8F087C2F1200320FA03F10CFA02FCCD
:100F200025FA03F395400D434FEA1C471FFA8CFE48
:100F3000B3FBF7F107FB11302B0C43EA004301FB35
:100F40000EF0984204FA02F408D91CEB030301F1F5
:100F5000FF382FD298422DD9023963441B1AADB203
:100F6000B3FBF7F007FB103345EA034500FB0EF334
:100F7000AB4208D91CEB050500F1FF3816D2AB4295
:100F800014D902386544ED1A40EA014138E7314688
:100F9000304607E78646E5E61846FAE64B45A9D20D
:100FA000B9EB020864EB0C0E0138A3E74046EAE710
:100FB000204694E74146D1E7D0467BE7023B6544B3
:100FC00032E7084609E76444023842E7704700BF49
:100FD0000000000000000000000000000000000011
:100FE0000000000000000000000000000000000001
:100FF00000000000000000000000000000000000F1
:1010000090F800F06DE9024520F007016FF0000C48
:1010100010F0070491F820F040F049804FF00004F0
:101020006FF00700D1E9002391F840F000F10800CB
:1010300082FA4CF2A4FA8CF283FA4CF3A2FA8CF303
:101040004BBBD1E9022382FA4CF200F10800A4FA6A
:101050008CF283FA4CF3A2FA8CF3E3B9D1E90423BE
:1010600082FA4CF200F10800A4FA8CF283FA4CF3F5
:10107000A2FA8CF37BB9D1E9062301F1200182FAAF
:101080004CF200F10800A4FA8CF283FA4CF3A2FAB5
:101090008CF3002BC6D0002A04BF04301A4612BAC3
:1010A000B2FA82F2FDE8024500EBD2007047D1E9C6
:1010B000002304F00305C4F100004FEAC50514F055
:1010C000040F91F840F00CFA05F562EA05021CBF26
:1010D00063EA050362464FF00004A9E70000000040
:1010E00001F0FF01102A2BDB10F0070F08D010F8D9
:1010F000013B013A8B422DD010F0070F42B3F6D1DD
:10110000F0B441EA012141EA014122F007047FF0F5
:1011100000070023F0E80256083C85EA010586EA4C
:10112000010685FA47F5A3FA87F586FA47F6A5FA88
:1011300087F68EB9EED1F0BC01F0FF0102F0070294
:1011400032B110F8013B013A83EA010313B1F8D13F
:101150000020704701387047002D06BF3546033820
:10116000073815F0010F07D1013015F4807F02BF59
:10117000013015F4C03F0130F0BC0138704700BFAA
:10118000844641EA000313F003036DD1403A41D392
:1011900051F8043B40F8043B51F8043B40F8043B51
:1011A00051F8043B40F8043B51F8043B40F8043B41
:1011B00051F8043B40F8043B51F8043B40F8043B31
:1011C00051F8043B40F8043B51F8043B40F8043B21
:1011D00051F8043B40F8043B51F8043B40F8043B11
:1011E00051F8043B40F8043B51F8043B40F8043B01
:1011F00051F8043B40F8043B51F8043B40F8043BF1
:1012000051F8043B40F8043B51F8043B40F8043BE0
:10121000403ABDD2303211D351F8043B40F8043B80
:1012200051F8043B40F8043B51F8043B40F8043BC0
:1012300051F8043B40F8043B103AEDD20C3205D390
:1012400051F8043B40F8043B043AF9D2043208D088
:10125000D2071CBF11F8013B00F8013B01D30B88FA
:1012600003806046704700BF082A13D38B078DD0D8
:1012700010F003038AD0C3F10403D21ADB071CBFAA
:1012800011F8013B00F8013B80D331F8023B20F814
:10129000023B7BE7043AD9D3013A11F8013B00F84D
:1012A000013BF9D20B7803704B7843708B788370D5
:1012B0006046704770B54FF0FF0C4CF4E06C1CEAD0
:1012C00011541DBF1CEA135594EA0C0F95EA0C0F3C
:1012D00000F0DEF82C4481EA030621EA4C5123EAAF
:1012E0004C5350EA013518BF52EA033541F48011DE
:1012F00043F4801338D0A0FB02CE4FF00005E1FB91
:1013000002E506F00042E0FB03E54FF00006E1FBDA
:1013100003569CF0000F18BF4EF0010EA4F1FF041D
:10132000B6F5007F64F5407404D25FEA4E0E6D415D
:1013300046EB060642EAC62141EA55514FEAC5206E
:1013400040EA5E504FEACE2EB4F1FD0C88BFBCF5EA
:10135000E06F1ED8BEF1004F08BF5FEA500E50F19B
:10136000000041EB045170BD06F0004646EA010161
:1013700040EA020081EA0301B4EB5C04C2BFD4EB93
:101380000C0541EA045170BD41F480114FF0000E8C
:10139000013C00F3AB8014F1360FDEBF002001F0FA
:1013A000004170BDC4F10004203C35DA0C341BDC74
:1013B00004F11404C4F1200500FA05F320FA04F046
:1013C00001FA05F240EA020001F0004221F000417A
:1013D00010EBD37021FA04F642EB06015EEA430EED
:1013E00008BF20EAD37070BDC4F10C04C4F120051D
:1013F00000FA04F320FA05F001FA04F240EA0200D0
:1014000001F0004110EBD37041F100015EEA430EA0
:1014100008BF20EAD37070BDC4F1200500FA05F2C0
:101420004EEA020E20FA04F301FA05F243EA02033F
:1014300021FA04F001F0004121FA04F220EA02004E
:1014400000EBD3705EEA430E08BF20EAD37070BD94
:1014500094F0000F0FD101F00046400041EB010174
:1014600011F4801F08BF013CF7D041EA060195F056
:10147000000F18BF704703F00046520043EB030310
:1014800013F4801F08BF013DF7D043EA06037047FD
:1014900094EA0C0F0CEA135518BF95EA0C0F0CD008
:1014A00050EA410618BF52EA4306D1D181EA03014E
:1014B00001F000414FF0000070BD50EA410606BF48
:1014C0001046194652EA430619D094EA0C0F02D18D
:1014D00050EA013613D195EA0C0F05D152EA0336D2
:1014E0001CBF104619460AD181EA030101F00041F0
:1014F00041F0FE4141F470014FF0000070BD41F039
:10150000FE4141F4780170BD70B54FF0FF0C4CF412
:10151000E06C1CEA11541DBF1CEA135594EA0C0F31
:1015200095EA0C0F00F0A7F8A4EB050481EA030E7E
:1015300052EA03354FEA013100F088804FEA033365
:101540004FF0805545EA131343EA12634FEA022233
:1015500045EA111545EA10654FEA00260EF00041F4
:101560009D4208BF964244F1FD0404F5407402D246
:101570005B084FEA3202B61A65EB03055B084FEAD7
:1015800032024FF480104FF4002CB6EB020E75EBD4
:10159000030E22BFB61A754640EA0C005B084FEAFC
:1015A0003202B6EB020E75EB030E22BFB61A754679
:1015B00040EA5C005B084FEA3202B6EB020E75EBC4
:1015C000030E22BFB61A754640EA9C005B084FEA3C
:1015D0003202B6EB020E75EB030E22BFB61A754649
:1015E00040EADC0055EA060E18D04FEA051545EA38
:1015F00016754FEA06164FEAC30343EA52734FEAE1
:10160000C2025FEA1C1CC0D111F4801F0BD141EA59
:1016100000014FF000004FF0004CB6E711F4801FBE
:1016200004BF01430020B4F1FD0C88BFBCF5E06F9E
:101630003FF6AFAEB5EB030C04BFB6EB020C5FEAAE
:10164000500C50F1000041EB045170BD0EF0004E03
:101650004EEA113114EB5C04C2BFD4EB0C0541EA35
:10166000045170BD41F480114FF0000E013C90E632
:1016700045EA060E8DE60CEA135594EA0C0F08BFF6
:1016800095EA0C0F3FF43BAF94EA0C0F0AD150EAF5
:1016900001347FF434AF95EA0C0F7FF425AF104688
:1016A00019462CE795EA0C0F06D152EA03353FF4B0
:1016B000FDAE1046194622E750EA410618BF52EA2D
:1016C00043067FF4C5AE50EA41047FF40DAF52EA01
:1016D00043057FF4EBAE12E74FEA410C7FEA6C5C06
:1016E00002D150EA013C0AD14FEA430C7FEA6C5C1C
:1016F00002D152EA033C02D14FF0000070474FF094
:10170000010070474FEA40024FEA41037FEA226C32
:1017100002D15FEA402C08D17FEA236C02D15FEA54
:10172000412C02D14FF0000070474FF0010070478C
:10173000F8B505460E46284C63881B021BB2B4F967
:1017400000001843FFF782F8244F3968FFF7D2F8FA
:101750003060E3881B021BB2B4F904003F681843F1
:10176000FFF774F83946FFF7C5F8706063891B020C
:101770001BB2B4F908001843FFF768F83946FFF7C1
:10178000B9F8B060164C63881B021BB2B4F90000B4
:101790001843FFF75BF8134E3168FFF7ABF828608A
:1017A000E3881B021BB2B4F904001843FFF74EF89C
:1017B00036683146FFF79EF8686063891B021BB2EA
:1017C000B4F908001843FFF741F801463046FFF727
:1017D00091F8A860F8BD00BFA0B300200000002071
:1017E000B0B30020040000204FF07E5303600023BC
:1017F00043608360C360704700B585B011469A6846
:1018000002925A6801921B6800938B684A680968C3
:1018100000F09AF805B05DF804FB2DE9F0470446A6
:10182000884617461E46D0F80090C1684846FFF724
:1018300061F80546D4F804A0A1685046FFF75AF8AD
:1018400001462846FEF74EFF054649464846FFF743
:1018500051F8814651465046FFF74CF8014648463C
:10186000FEF740FF0146FEF73DFF4FF07E51FEF7C9
:1018700037FF814629462846FEF734FF49460CF0DB
:1018800071FCC8F80000E1686068FFF733F80546AE
:10189000A1682068FFF72EF801462846FEF720FFD2
:1018A0004FF04041FFF726F80CF03CFC386025680B
:1018B00061682846FFF71EF88046E7683946A06849
:1018C000FFF718F801464046FEF70CFF044629468C
:1018D0002846FFF70FF8054639463846FFF70AF85D
:1018E00001462846FEF7FEFE0146FEF7FBFE4FF0DE
:1018F0007E51FEF7F5FE054621462046FEF7F2FE34
:1019000029460CF02FFC3060BDE8F08710B5044686
:101910004FF07C51FEF7EEFF01462346094CA4EB45
:1019200063042046FEF7E6FF01462046FEF7E2FF8D
:1019300001464FF07F50FEF7D3FE01462046FEF7EA
:10194000D9FF10BDDF59375F2DE9F04F85B0044650
:101950000D4600920193DDF83890DDF83C80109F31
:1019600000214846FFF75AF958B100214046FFF7D9
:1019700055F930B100213846FFF750F9002840F002
:10198000F88049464846FEF7B5FF064641464046C0
:10199000FEF7B0FF01463046FEF7A4FE0646394684
:1019A0003846FEF7A7FF01463046FEF79BFEFFF7DD
:1019B000ADFF064601464846FEF79CFF03903146C0
:1019C0004046FEF797FF029031463846FEF792FFF9
:1019D0008346D4F80490E76839464846FEF78AFF04
:1019E0000646D4F80080D4F808A051464046FEF7D9
:1019F00081FF01463046FEF773FE064641464846E3
:101A0000FEF778FF814651463846FEF773FF0146E0
:101A10004846FEF767FE814641464046FEF76AFFAC
:101A20004FF07C51FEF75CFE804639463846FEF7A3
:101A300061FF01464046FEF755FE07460146029803
:101A4000FEF758FF804649465846FEF753FF0146C9
:101A50004046FEF745FE804631465846FEF74AFFAF
:101A600082463946DDF80CB05846FEF743FF014682
:101A70005046FEF735FE074649465846FEF73AFF00
:101A8000814631460298FEF735FF01464846FEF78B
:101A900027FE06469C4B18680021FFF7E7F8002850
:101AA00000F02A81DFF86092D9F800004146FEF785
:101AB00021FF9649FEF71EFF0146DFF854B2DBF81E
:101AC0000000FEF70FFECBF80000D9F80000394601
:101AD000FEF710FF8D49FEF70DFF0146DFF834A237
:101AE000DAF80000FEF7FEFDCAF80000D9F80000A1
:101AF0003146FEF7FFFE8549FEF7FCFE0146DFF8A2
:101B00001892D9F80000FEF7EDFDC9F80000DBF8E7
:101B100000102846FEF7E6FD0546DAF800100098AA
:101B2000FEF7E0FD0090D9F800100198FEF7DAFD0D
:101B30000190DFF8E891D9F800004146FEF7DAFE9F
:101B400001462846FEF7CEFD0546D9F80000394685
:101B5000FEF7D0FE01460098FEF7C4FD0090D9F8CC
:101B600000003146FEF7C6FE01460198FEF7BAFDB9
:101B700001906B492846FEF7BDFE0546684900986E
:101B8000FEF7B8FE064666490198FEF7B3FE074623
:101B9000D4F800B0D4F804A0D4F808900AF10040BA
:101BA00000952946FEF7A6FE054649463046FEF753
:101BB000A1FE01462846FEF793FD0546D4F80C80A9
:101BC00039464046FEF796FE01462846FEF788FD58
:101BD0005946FEF787FD0190206059460098FEF7B0
:101BE00089FE054649463846FEF784FE01462846EA
:101BF000FEF778FD054631464046FEF77BFE01467E
:101C00002846FEF76DFD5146FEF76CFD02906060C0
:101C100059463046FEF76EFE054651463846FEF7F9
:101C200069FE01462846FEF75BFD054600994046E1
:101C3000FEF760FE01462846FEF754FD4946FEF7D2
:101C400051FD0546A06059463846FEF753FE07464B
:101C500051463046FEF74EFE01463846FEF742FD3D
:101C6000064649460098FEF745FE01463046FEF717
:101C700037FD01464046FEF735FD0646E060DDF8DB
:101C8000048041464046FEF735FE0746DDF80890E1
:101C900049464846FEF72EFE01463846FEF722FD2D
:101CA000074629462846FEF725FE01463846FEF738
:101CB00019FD074631463046FEF71CFE0146384600
:101CC000FEF710FDFFF722FE074601464046FEF7ED
:101CD00011FE206039464846FEF70CFE606039462A
:101CE0002846FEF707FEA06039463046FEF702FEA2
:101CF000E06005B0BDE8F08F0023054A1360054A97
:101D00001360054A136014E7240A00206F12833A17
:101D1000180A00201C0A0020200A002008000020C9
:101D20006F12033A08B50C480C4B03600323436061
:101D300000238360C3604FF4302202614361037665
:101D400043768376C3760377437700F07DFD00B951
:101D500008BD00F017F9FBE7280A002000640040E6
:101D600010B588B00023039304930593069307935B
:101D70000268194B9A4201D008B010BD00240194AA
:101D800003F5EA331A6C42F000721A641A6C02F01E
:101D900000720192019A02941A6B42F001021A63D6
:101DA0001B6B03F001030293029B4FF4C053039398
:101DB00002230493032306930923079303A90748E7
:101DC00001F016FB22462146142001F0AFF8142042
:101DD00001F0E4F8D0E700BF0064004000000240DA
:101DE00000B583B000210191094B1A6B42F4001237
:101DF0001A631B6B03F400130193019B0A46102026
:101E000001F094F8102001F0C9F803B05DF804FB6C
:101E1000003802402DE9F0418AB000240594069470
:101E20000794089409940094364B1A6B42F0800290
:101E30001A631A6B02F080020092009A01941A6BE6
:101E400042F001021A631A6B02F001020192019A38
:101E500002941A6B42F004021A631A6B02F0040235
:101E60000292029A03941A6B42F002021A631A6BEE
:101E700002F002020392039A04941A6B42F01002D9
:101E80001A631B6B03F010030493049BDFF8788044
:101E900022462021404601F0A4FB1C4F22464FF46D
:101EA000C071384601F09DFB194D2246D0212846CD
:101EB00001F097FB202305930126069607940894CA
:101EC00005A9404601F094FA072305930694079468
:101ED00005A9284601F08CFA4FF4C07305930696C5
:101EE0000794089405A9384601F082FAD023059397
:101EF00006960794089405A9284601F079FA0AB0D5
:101F0000BDE8F081003802400008024000100240A5
:101F10000004024010B582B0104A138801331380C8
:101F20000F4A1388013313800E4A1388013313803C
:101F30000D4A1388013313800C4C0D4B00930D4B4D
:101F40000D4A0E492046FFF757FC0D4B1A1FA3F10F
:101F500008012046FFF761FC02B010BD520A0020C4
:101F6000640A0020580A00205A0A0020E4B1002028
:101F700020B20020F4B1002014B200206F12833A86
:101F8000E0B1002072B6FEE700B595B03022002126
:101F900008A804F03DFA00230393049305930693E5
:101FA00007930193204A116C41F080511164126C27
:101FB00002F080520192019A02931C4B1A6842F47B
:101FC00080421A601B6803F480430293029B012342
:101FD00008934FF48033099302230E934FF4800249
:101FE0000F9208221092E02211921293042313936D
:101FF00008A801F005FB98B90F230393022304936B
:10200000002305934FF4A05306934FF48053079396
:10201000052103A801F042FD20B915B05DF804FBCD
:10202000FFF7B0FFFFF7AEFF00380240007000403E
:1020300038B500F0C9FBFFF7A7FFFFF7EBFEFFF78E
:10204000CFFEFFF76FFE00F0FBF800F017F900F08D
:1020500033F900F0D1FA00F0E9FA00F085FA012234
:102060008021324801F0BDFA314C204600F078F86A
:10207000304801F0A9FF04F07FF82F4D08222946CF
:102080002E4802F075FB08222946204602F070FB1C
:1020900002F01CFC052000F0C3FB03F07DFB4FF4B5
:1020A00020422749274801F0CDFE052000F0B8FB6B
:1020B0001BE0254B01221A708021244801F097FA79
:1020C00003F00CFB052000F0ABFB4FF420421C4951
:1020D0001C4801F0B7FE0A2000F0A2FB1C4B1B8835
:1020E0000A2BEDD91A4B00221A8004F027F9194B5C
:1020F00018700228DDD0012807D0154B1B880A2B49
:10210000F3D9134B00221A80DAE713490A78013217
:10211000124B83FB02035B1003EB8303D31A0B7098
:102120004FF48071094801F062FAC9E700040240E7
:10213000640C0020D80B00205C0A0020200C00203A
:10214000AC0C00207C0B0020570A0020001002403D
:10215000580A0020550A0020560A00206766666665
:1021600008B5054B1860054B186800230222194674
:10217000806804F0B3F908BD680A00201C00002044
:10218000022801D80020704708B504F017F9092388
:1021900003604FF0FF3008BD022801D801207047CE
:1021A00008B504F00BF909230360002008BD000006
:1021B00010B5013801280AD814464FF0FF3392B207
:1021C0000748006802F0D9F940B9204610BD04F074
:1021D000F5F8092303604FF0FF30F7E70520F5E736
:1021E000680A002008B504F0E9F8092303604FF0FD
:1021F000FF3008BD08B548B94FF0FF330122084849
:10220000006802F026FA40B9012008BD04F0D6F8B3
:10221000092303604FF0FF30F7E70520F5E700BF23
:10222000680A002008B5022804D84FF400534B6018
:10223000002008BD04F0C2F809230360F8E700009D
:1022400008B50C480C4B03604FF4827343600023C5
:102250008360C360036143618361C361036243625E
:1022600083620A23C36201F08DFD00B908BDFFF748
:1022700089FEFBE7CC0A00200030014008B50C487D
:102280000C4B03604FF48273436000238360C36090
:10229000036143618361C3610362436283620A2312
:1022A000C36201F06FFD00B908BDFFF76BFEFBE7ED
:1022B000240B00200038004008B50D480D4B03608A
:1022C0004FF48273436000238360C3600361436102
:1022D0004FF480228261C3610362436283620A23F6
:1022E000C36201F04FFD00B908BDFFF74BFEFBE7ED
:1022F0007C0B0020003C00402DE9F0418CB0002315
:102300000793089309930A930B930368534A9342E4
:1023100009D00446524A934228D0524A934249D0A7
:102320000CB0BDE8F081002100914F4B5A6C42F493
:1023300080525A645A6C02F480520092009A0191C1
:102340001A6B42F001021A631B6B03F00103019345
:10235000019BF02307930223089303230A93052389
:102360000B9307A9414801F043F8D9E700210291F6
:102370003D4B1A6C42F480421A641A6C02F480429B
:102380000292029A03911A6B42F002021A631B6BCB
:1023900003F002030393039B4FF47043079302235C
:1023A000089303230A9305230B9307A9304801F0F0
:1023B0001FF8B5E7002504952B4B1A6C42F4004238
:1023C0001A641A6C02F400420492049A05951A6B7E
:1023D00042F001021A631A6B02F001020592059A9B
:1023E00006951A6B42F002021A631B6B03F002039C
:1023F0000693069B4FF4004307934FF00208CDF875
:10240000208003270A9706260B9607A9174800F095
:10241000EFFF28230793CDF8208009950A970B96A4
:1024200007A9134800F0E4FF1248134B036045600E
:1024300040238360C5604FF480630361456185611B
:10244000C5610562456200F049FE18B9094BA364F5
:102450009C6365E7FFF796FDF8E700BF0030014099
:1024600000380040003C00400038024000000240BC
:10247000000402406C0A00208860024082B0002103
:1024800000910B4B5A6C42F480425A645A6C02F42D
:1024900080420092009A01911A6C42F080521A64B4
:1024A0001B6C03F080530193019B02B0704700BF87
:1024B00000380240FEE7FEE7FEE7FEE7FEE7704772
:1024C0007047704708B500F099F908BD08B5024893
:1024D00000F0A0FE08BD00BF6C0A002008B502484D
:1024E00000F0EDFB08BD00BF280A002008B5024837
:1024F00001F0B2FD08BD00BFD80B002001207047DD
:1025000008B503F05BFF162303604FF0FF3008BDF2
:1025100008B54FF0FF31FFF7F3FFFEE710B50346B4
:102520000C4A0D490D48006840B10C48006803444E
:10253000521A934206D8094A136010BD0748084C46
:102540000460F2E703F03AFF0C2303604FF0FF3022
:10255000F3E700BF0000022000040000D40B0020BD
:1025600020B400207047000000B583B00023009322
:1025700001930F480F4A0260A7224260836040F235
:10258000E732C260836101F089FE50B900230093F5
:1025900001936946064801F0ADFE28B903B05DF825
:1025A00004FBFFF7EFFCF1E7FFF7ECFCF6E700BFF9
:1025B000D80B00200014004002680E4B9A4200D055
:1025C000704700B583B00021019103F509331A6CFF
:1025D00042F020021A641B6C03F020030193019B5C
:1025E0000A46372000F0A2FC372000F0D7FC03B0E9
:1025F0005DF804FB0014004008B50A480A4B03606C
:102600004FF4E133436000238360C36003610C2215
:1026100042618361C36101F081FF00B908BDFFF72A
:10262000B1FCFBE7200C00200044004008B50A483C
:102630000A4B03604FF4E133436000238360C360BF
:1026400003610C2242618361C36101F067FF00B93D
:1026500008BDFFF797FCFBE7640C00200048004032
:1026600000B58BB000230593069307930893099355
:102670000368284A934205D0274A934225D00BB0DD
:102680005DF804FB00210191244B1A6C42F40032E6
:102690001A641A6C02F400320192019A02911A6BC8
:1026A00042F001021A631B6B03F001030293029BC9
:1026B0000C2305930223069303230893072309930E
:1026C00005A9174800F094FED9E700210391134BA8
:1026D0001A6C42F480221A641A6C02F4802203926B
:1026E000039A04911A6B42F002021A631B6B03F007
:1026F00002030493049B4FF4406305930223069363
:10270000032308930723099305A9064800F070FEE8
:10271000B5E700BF004400400048004000380240D8
:102720000000024000040240DFF834D00D480E499A
:102730000E4A002302E0D458C4500433C4188C421B
:10274000F9D30B4A0B4C002301E013600432A24280
:10275000FBD3FFF707FF03F037FEFFF769FC704775
:102760000000022000000020C809002068F20008D4
:10277000C809002020B40020FEE7000010B5044680
:102780000E4B18784FF47A73B3FBF0F30C4A1068D1
:10279000B0FBF3F000F010FC68B90F2C01D9012058
:1027A0000AE0002221464FF0FF3000F0BFFB054B4E
:1027B0001C60002000E0012010BD00BF10000020C0
:1027C0000C0000201400002008B50B4B1A6842F4DE
:1027D00000721A601A6842F480621A601A6842F441
:1027E00080721A60032000F08FFB0F20FFF7C6FFF6
:1027F000FFF744FE002008BD003C0240034A116878
:10280000034B1B780B441360704700BFA80C0020DB
:1028100010000020014B1868704700BFA80C002072
:1028200038B50446FFF7F6FF0546B4F1FF3F02D086
:10283000044B1B781C44FFF7EDFF401BA042FAD36A
:1028400038BD00BF10000020002800F0A18038B57E
:10285000044690F82030D3B12268136843F0010396
:102860001360FFF7D7FF054623685A6812F0010F7F
:1028700010D1FFF7CFFF401B0A28F5D9636A43F454
:1028800000336362052384F82030012038BDFFF750
:1028900067FAE1E71A6822F002021A60FFF7BAFF4E
:1028A000054623685A6812F0020F0DD0FFF7B2FFF9
:1028B000401B0A28F5D9636A43F400336362052399
:1028C00084F820300120E1E7227E012A3DD01A68F9
:1028D00022F080021A60637E012B3BD022681368CD
:1028E00023F040031360A37E012B39D022681368C4
:1028F00023F020031360E37E012B37D02268136896
:1029000043F010031360237F012B35D02268136836
:1029100023F008031360637F012B33D02268136810
:1029200023F004031360A368E2681343226913438E
:10293000626913436268013A21681343CB61002046
:102940006062012384F82030A0E71A6842F0800218
:102950001A60C0E72268136843F040031360C2E7BF
:102960002268136843F020031360C4E722681368E9
:1029700023F010031360C6E72268136843F00803CE
:102980001360C8E72268136843F004031360CAE7C2
:102990000120704790F82030013BDBB2012B05D9B4
:1029A000436A43F4802343620120704710B5474BCC
:1029B000D3F8002242F00102C3F80022D3F800222B
:1029C00022F47C52C3F80022D3F80022486A42EA7B
:1029D0000022C3F800224A6902F01F02012000FA17
:1029E00002F2D3F81C026FEA020C20EA0200C3F8DC
:1029F0001C02CB69CBB9354BD3F80C020CEA0000B2
:102A0000C3F80C028C884869D1F80CE044EA0E4403
:102A1000483043F830408C68088840EA04404C69EC
:102A200004F1480E03EBCE035860CB69012B1ED096
:102A30008B69002B35D12548D0F804320CEA03030A
:102A4000C0F804320B699BBB2048D0F814320CEA62
:102A50000303C0F814320B6A012B30D01B4AD2F8A2
:102A6000003223F00103C2F80032002010BD174BE2
:102A7000D3F80C021043C3F80C028C884869D1F8D3
:102A800000E044EA0E44483043F8304088894C69FD
:102A9000D1F808E040EA0E40483403EBC403586024
:102AA000C6E70A48D0F804321343C0F80432C9E735
:102AB0000648D0F814321343C0F81432CBE7034968
:102AC000D1F81C321A43C1F81C22C7E70064004049
:102AD00070B5044690F82050EDB2012D06D0436A3F
:102AE00043F4002343620125284670BD022380F889
:102AF00020300268136823F001031360FFF78AFE99
:102B0000064623685B6813F0010F0CD0FFF782FEC6
:102B1000831B0A2BF5D9636A43F4003363620523F0
:102B200084F82030E0E700256562DDE790F820C0FA
:102B30000CF1FF3C5FFA8CFCBCF1010F00F29B80B2
:102B400010B451B90468E46814F0030F10D1436A5B
:102B500043F40013436201207BE00468246914F00D
:102B6000030F05D1436A43F400134362012070E070
:102B700001F11B042401D0F800C05CF8044004F00B
:102B800004049460002C66D101F11B042401D0F8E8
:102B900000C05CF80440640D1460046801F11B0C73
:102BA0004FEA0C1C54F80C4004F00204D460046892
:102BB0006444646804F00F04146104686444646845
:102BC000C4F307249461046864446468240C546169
:102BD000026802EB0112D2F8B8211A70026802EB07
:102BE0000112D2F8B821C2F307225A70026802EB30
:102BF0000112D2F8B821C2F307429A70026802EBC0
:102C00000112D2F8B821120EDA70026802EB01123A
:102C1000D2F8BC211A71026802EB0112D2F8BC2171
:102C2000C2F307225A71026802EB0112D2F8BC21EA
:102C3000C2F307429A71026802EB0112D2F8BC217A
:102C4000120EDA7189B90268D36843F02003D360A9
:102C5000002010BC704701F11B042401D0F800C013
:102C60005CF80440E408546097E70268136943F095
:102C700020031361ECE7436A43F48023436201209D
:102C8000704790F82030013BDBB2012B05D9436A35
:102C900043F480234362012070470268536919435B
:102CA0005161002070477047704770477047704708
:102CB00070477047704770477047704770472DE9FD
:102CC000F84F054603685C69D3F804809F68D3F821
:102CD0000CB0D3F810A0D3F8189014F001063BD034
:102CE00017F0010616D001229A6017F0020F08D1E2
:102CF00017F0040F0CD117F0080606D04FF48056D9
:102D000008E0FFF7D0FF002604E0FFF7CFFF01E067
:102D10004FF4006617F4807F0DD02B684FF480725B
:102D20009A6017F4007F40F0868017F4806F00F0FF
:102D3000868046F4005617F4803F0DD02B684FF480
:102D400080329A6017F4003F40F0838017F4802FA0
:102D500000F0838046F4004614F0080F07D01BF003
:102D6000100F04D046F400762B681022DA6014F0BD
:102D7000040F02D01BF0080F79D114F0020F04D019
:102D80002B68DB6813F0030F78D114F0400F07D0E5
:102D90001AF0100F04D046F480662B6810221A61D6
:102DA00014F0200F02D01AF0080F6BD114F0100F9E
:102DB00004D02B681B6913F0030F6AD114F4003F91
:102DC00002D018F0100F68D114F4803F02D018F030
:102DD000080F69D114F4004F7AD018F0040F74D0A2
:102DE00014F4807F04D019F0010F01D046F00106E1
:102DF00014F4007F04D019F0020F01D046F002064F
:102E000014F4806F04D019F0040F01D046F00406CA
:102E100014F4006F59D019F0700956D0B9F1400F71
:102E200065D058D8B9F1200F5ED0B9F1300F42D13A
:102E300046F0200644E02846FFF736FF7BE717F40C
:102E4000006F02D046F4804675E72846FFF72FFF53
:102E500071E72846FFF729FF7EE717F4002F02D01D
:102E600046F4803678E72846FFF722FF74E72B68A0
:102E70000822DA602846FFF71CFF7EE7284603F0A9
:102E8000C7F982E72B6808221A612846FFF713FF6B
:102E90008CE72846FFF70EFF90E72B6810225A6058
:102EA0002846FFF709FF8FE72B6808225A6028465B
:102EB000FFF703FF8EE7B9F1100F01D146F00806C6
:102EC0002A68936923F0700393612B6804225A6087
:102ED0009EB9BDE8F88FB9F1500F0BD0B9F1600F72
:102EE000EED146F48076EBE746F01006E8E746F0D0
:102EF0004006E5E746F08006E2E76B6A1E436E6235
:102F00002846FFF7DBFEE4E7074AD36823F4E063D3
:102F10001B041B0C000200F4E060034343F0BF639A
:102F200043F40033D360704700ED00E000B5194B67
:102F3000DB68C3F30223C3F1070CBCF1040F28BF05
:102F40004FF0040C03F1040EBEF1060F18D9033B39
:102F50004FF0FF3E0EFA0CFC21EA0C0199400EFAEC
:102F600003F322EA0303194300280BDB0901C9B26A
:102F700000F1604000F5614080F800135DF804FB4B
:102F80000023E5E700F00F000901C9B2024B195414
:102F9000F4E700BF00ED00E014ED00E0002807DBDF
:102FA00000F01F02400901239340024A42F82030FA
:102FB000704700BF00E100E00138B0F1807F0BD224
:102FC0004FF0E0235861054AF02182F823100020D9
:102FD000986107221A6170470120704700ED00E0F8
:102FE00030B405682C6824F480242C600468636085
:102FF0008368402B05D0036899600368DA6030BCB1
:10300000704703689A600368D960F8E710B40368F2
:10301000D9B210390B4AA2FB014212090A4CA25C38
:10302000C2655F2908D923F47F7323F003030433B7
:103030008365806D10BC704723F47F7323F0030316
:103040008365F6E7ABAAAAAA30E80008836A82691A
:1030500092B9012B0AD0022B02D00BB1002070478D
:10306000C36A13F0807F28D100207047C36AB3F190
:10307000C07F24D000207047B2F5005F09D0022B3A
:1030800025D9032B25D1C36A13F0807F23D10020DB
:103090007047032B03D8DFE803F01404140A002060
:1030A0007047C36A13F0807F0DD100207047C36A58
:1030B000B3F1C07F09D00020704701207047012084
:1030C00070470120704701207047012070470120A0
:1030D00070470020704701207047000070B504461B
:1030E000FFF798FB002C5BD00546022384F83530AF
:1030F000002384F834302268136823F0010313603E
:1031000023681A6812F0010F0AD0FFF783FB431BF4
:10311000052BF5D920236365032084F8350070BDA5
:103120001A68204810406168A2680A43E1680A43AF
:1031300021690A4361690A43A1690A43E1690A43B3
:10314000216A0A430243616A04291ED01A60266874
:10315000756925F00705636A1D43042B07D1A36A2F
:103160001D43E36A1BB12046FFF770FF90B97561FC
:103170002046FFF74BFFE26D3F2393408360002022
:103180006065012384F83530C9E7E16A206B0143AB
:103190000A43DBE740236365012084F83500BEE77E
:1031A0000120BCE73F8010F038B50446856D90F8EB
:1031B000340001282BD0012084F8340094F8350025
:1031C000C0B2012804D0002384F83430022038BD76
:1031D000022084F83500002060652046FFF700FFDC
:1031E000E26D3F239340AB602268136843F01603FF
:1031F0001360236C23B12268136843F00803136043
:103200002268136843F0010313600020DFE7022007
:10321000DDE70000F0B583B0044600230193724B54
:103220001D68724BA3FB0535AD0A876D3E68C26D04
:1032300008239340334210D003681A6812F0040F39
:103240000BD01A6822F004021A60C26D0823934062
:10325000BB60436D43F001034365E26D012393407E
:10326000334209D02268526912F0800F04D0BB604B
:10327000636D43F002036365E26D042393403342C0
:1032800009D02268126812F0020F04D0BB60636D8F
:1032900043F004036365E26D10239340334224D06E
:1032A0002268126812F0080F1FD0BB6023681A68EA
:1032B00012F4802F0DD01B6813F4002F04D1236C5F
:1032C0009BB12046984710E0A36C73B12046984705
:1032D0000BE01A6812F4807F03D11A6822F008020A
:1032E0001A60236C0BB120469847E26D202393406F
:1032F000334255D02268126812F0100F50D0BB60D4
:1033000094F83530DBB2052B0ED023681A6812F41E
:10331000802F33D01B6813F4002F2AD1636C002B4D
:103320003ED0204698473BE02268136823F01603FE
:1033300013602268536923F080035361236CA3B1A7
:103340002268136823F008031360E26D3F23934063
:10335000BB60012384F83530002384F83430236DBA
:10336000002B3FD0204698473CE0A36C002BE7D1D0
:10337000EBE7E36BA3B12046984711E01A6812F41B
:10338000807F09D11A6822F010021A60012384F8A4
:103390003530002384F83430E36B0BB12046984776
:1033A000636DFBB1636D13F0010F17D0052384F833
:1033B00035302268136823F001031360019B013349
:1033C0000193AB4204D823681B6813F0010FF5D1B9
:1033D000012384F83530002384F83430E36C0BB1DA
:1033E0002046984703B0F0BD0C000020B5814E1B6D
:1033F00000230F2B00F2E48070B582B060E0856896
:103400005E000324B44025EA0405CC68B4402C4394
:103410008460456825EA02054C68C4F300129A40AE
:103420002A4342605AE0DC08083450F8246003F074
:10343000070295000F22AA4026EA020E0A69AA4056
:1034400042EA0E0240F824205CE0072200E000225D
:1034500002FA0EF22A4302345A4D45F824205A4A01
:1034600094686FEA0C0224EA0C054E6816F4801F7B
:1034700001D04CEA0405544CA560E46802EA040556
:103480004E6816F4001F01D04CEA04054E4CE5606E
:10349000646802EA04054E6816F4003F01D04CEA65
:1034A0000405494C6560246822404D6815F4803F4E
:1034B00001D04CEA0402444C226001330F2B7DD82A
:1034C00001229A400C6804EA020C32EA0404F4D1A6
:1034D0004C6804F00304013C012C90D94A6802F0C6
:1034E0000302032A09D0C4685D000322AA4024EA2B
:1034F00002048A68AA402243C2604A6802F00302BA
:10350000022A90D004684FEA430E032202FA0EF218
:1035100024EA02044A6802F0030202FA0EF222438D
:1035200002604A6812F4403FC7D000220192274A45
:10353000546C44F480445464526C02F4804201920E
:10354000019A9C08A51C1F4A52F8255003F003025B
:103550004FEA820E0F2202FA0EF225EA02051C4AF9
:1035600090423FF474AF02F5806290421AD002F5A7
:103570008062904218D002F58062904216D002F527
:103580008062904214D002F58062904212D002F51F
:103590008062904210D002F5806290423FF455AFB5
:1035A000082255E7012253E7022251E703224FE7A1
:1035B00004224DE705224BE7062249E702B070BD21
:1035C000704700BF00380140003C01400038024015
:1035D000000002400369194201D001207047002019
:1035E00070470AB18161704709048161704743697E
:1035F00001EA030221EA030141EA024181617047C5
:10360000002800F0E08170B582B00446036813F032
:10361000010F3BD09F4B9B6803F00C03042B2CD075
:103620009C4B9B6803F00C03082B21D06368B3F517
:10363000803F4FD0B3F5A02F52D0964B1A6822F49A
:1036400080321A601A6822F480221A606368002BA4
:1036500050D0FFF7DFF805468E4B1B6813F4003F90
:1036600014D1FFF7D7F8401B6428F5D90320B1E146
:10367000884B5B6813F4800FD8D0864B1B6813F41B
:10368000003F03D06368002B00F09F81236813F094
:10369000020F54D07F4B9B6813F00C0F3ED07D4B34
:1036A0009B6803F00C03082B33D0E368002B68D031
:1036B000794B01221A60FFF7ADF80546754B1B6880
:1036C00013F0020F54D1FFF7A5F8401B0228F5D9DB
:1036D00003207FE16F4A136843F480331360B5E73A
:1036E0006C4B1A6842F480221A601A6842F48032E5
:1036F0001A60ABE7FFF78EF80546664B1B6813F4BC
:10370000003FC3D0FFF786F8401B6428F5D903209B
:1037100060E1604B5B6813F4800FC6D15D4B1B68A2
:1037200013F0020F03D0E368012B40F05081594A97
:10373000136823F0F803216943EAC1031360236887
:1037400013F0080F42D063696BB3534B0122C3F8E7
:10375000802EFFF75FF805464E4B5B6F13F0020FAC
:1037600034D1FFF757F8401B0228F5D9032031E187
:10377000484A136823F0F803216943EAC103136040
:10378000DDE7454B00221A60FFF744F80546414B40
:103790001B6813F0020FD2D0FFF73CF8401B022841
:1037A000F5D9032016E13C4B0022C3F8802EFFF729
:1037B00031F80546374B5B6F13F0020F06D0FFF769
:1037C00029F8401B0228F5D9032003E1236813F0F0
:1037D000040F77D02F4B1B6C13F0805F33D1002385
:1037E00001932C4B1A6C42F080521A641B6C03F04C
:1037F00080530193019B0125284B1B6813F4807FA4
:1038000023D0A368012B34D0052B38D0214B1A6F5D
:1038100022F001021A671A6F22F004021A67A368E5
:10382000002B3DD0FEF7F6FF06461A4B1B6F13F038
:10383000020F46D1FEF7EEFF801B41F2883398421B
:10384000F3D90320C6E00025D6E7144A136843F4F1
:1038500080731360FEF7DEFF0646104B1B6813F4FF
:10386000807FCED1FEF7D6FF801B0228F5D903203A
:10387000B0E0084A136F43F001031367CFE7054B2D
:103880001A6F42F004021A671A6F42F001021A67B7
:10389000C5E700BF0038024000004742007000400A
:1038A000FEF7B8FF0646524B1B6F13F0020F08D00D
:1038B000FEF7B0FF801B41F288339842F3D9032012
:1038C00088E0EDB9A369002B00F08380484A926834
:1038D00002F00C02082A51D0022B17D0454B0022CF
:1038E0001A66FEF797FF0446414B1B6813F0007FF2
:1038F00042D0FEF78FFF001B0228F5D9032069E0B4
:103900003B4A136C23F080531364DBE7394B0022EE
:103910001A66FEF77FFF0546354B1B6813F0007FE4
:1039200006D0FEF777FF401B0228F5D9032051E0AF
:10393000E369226A1343626A43EA8213A26A520865
:10394000013A43EA0243E26A43EA0263284A5360C7
:10395000284B01221A66FEF75DFF0446244B1B68C4
:1039600013F0007F06D1FEF755FF001B0228F5D9A2
:1039700003202FE000202DE000202BE0012B2BD096
:103980001B4B5B6803F48001E269914226D103F08E
:103990003F02216A8A4223D1616A47F6C0721A4007
:1039A000B2EB811F1ED103F44031A26A5208013AE2
:1039B000B1EB024F18D103F07063E26AB3EB026F10
:1039C00014D1002006E001207047012002E0012010
:1039D00000E0002002B070BD0120FBE70120F9E704
:1039E0000120F7E70120F5E70120F3E70120F1E7E7
:1039F000003802400000474208B5254B9B6803F0A1
:103A00000C03042B3FD0082B3FD1214B5A6802F006
:103A10003F025B6813F4800F12D01D4B5968C1F34D
:103A200088111C480023A1FB0001FDF74FF9184B3A
:103A30005B68C3F3014301335B00B0FBF3F025E0A7
:103A4000134B5968C1F3881C4FEA4C11B1EB0C00C1
:103A50006EEB0E0E4FEA8E1343EA90638101091A52
:103A600063EB0E03DB0043EA5173C90011EB0C0C4E
:103A700043F10003990200234FEA8C2041EA9C5154
:103A8000FDF724F9D3E7034800E0034808BD00BF71
:103A900000380240001BB7000024F400002800F0AA
:103AA0009B8070B50D4604464F4B1B6803F007031F
:103AB0008B4208D2CBB24C4A1370136803F0070351
:103AC0008B4240F08B80236813F0020F17D013F065
:103AD000040F04D0454A936843F4E053936023688D
:103AE00013F0080F04D0414A936843F46043936095
:103AF0003E4A936823F0F003A1680B439360236868
:103B000013F0010F32D06368012B21D09A1E012AD5
:103B100025D9364A126812F0020F61D033498A68FB
:103B200022F0030213438B60FEF774FE06462F4B10
:103B30009B6803F00C036268B3EB820F16D0FEF7AC
:103B400069FE801B41F288339842F0D9032042E09D
:103B5000264A126812F4003FE0D101203BE0234ADC
:103B6000126812F0007FD9D1012034E01E4B1B688F
:103B700003F00703AB4207D9EAB21B4B1A701B686C
:103B800003F00703AB422DD1236813F0040F06D0D6
:103B9000164A936823F4E053E1680B43936023686B
:103BA00013F0080F07D0114A936823F4604321698A
:103BB00043EAC1039360FFF71FFF0C4B9B68C3F3FD
:103BC00003130B4AD35CD8400A4B18600A4B1868A1
:103BD000FEF7D4FD002070BD012070470120FAE7F8
:103BE0000120F8E70120F6E7003C024000380240DF
:103BF00018E800080C00002014000020014B186891
:103C0000704700BF0C00002008B5FFF7F7FF044B1A
:103C10009B68C3F38223034AD35CD84008BD00BF2E
:103C20000038024028E8000808B5FFF7E7FF044B1A
:103C30009B68C3F34233034AD35CD84008BD00BF3E
:103C40000038024028E800082DE9F04782B0054618
:103C5000884617461E46FEF7DDFD0A9B1B1A03EB3E
:103C60000609FEF7D7FD82462B4B1B68C3F3CB3307
:103C700009FB03F301932B689C6838EA04030CBF2B
:103C80004FF0010C4FF0000CBC4540D0B6F1FF3FA7
:103C9000F1D0FEF7BFFDA0EB0A0048450AD2B9F10A
:103CA000000F07D0019A02B14A46019B013B0193E4
:103CB0009146E0E72A68536823F0E00353606B689D
:103CC000B3F5827F0BD0AB6AB3F5005F14D001234C
:103CD00085F85130002385F85030032018E0AB6898
:103CE000B3F5004F02D0B3F5806FECD12A681368AA
:103CF00023F040031360E6E72A68136823F40053B7
:103D000013602A68136843F400531360DFE7002050
:103D100002B0BDE8F08700BF0C00002010B584B0F1
:103D20000446164B1868164BA3FB0030400D4FF4A9
:103D30007A7303FB00F003906368B3F5827F0BD0C6
:103D4000039BBBB1039B013B039323689B6813F068
:103D5000800FF5D100200EE000920B46002280215A
:103D60002046FFF771FF30B1636D43F020036365B8
:103D7000032000E0002004B010BD00BF0C000020B4
:103D8000819F5E1600285AD010B50446436A33B9A5
:103D90004368B3F5827F05D00023C36102E00023AE
:103DA000036143610023A36294F85130002B40D09B
:103DB000022384F851302268136823F04003136013
:103DC000636803F48273A26802F404421343E26856
:103DD00002F400621343226902F002021343626993
:103DE00002F001021343A26902F400721343E26974
:103DF00002F038021343226A02F080021343A26ADF
:103E000002F40052216813430B60638B03F0040338
:103E1000626A02F01002216813434B602268D36982
:103E200023F40063D36100206065012384F85130DE
:103E300010BD84F850302046FEF75EFAB8E7012046
:103E40007047000038B590F85030012B61D004461F
:103E5000012380F8503090F85150EDB29D4252D17C
:103E6000002951D0002A4FD0032380F8513000237D
:103E7000436501638286C2868363436403648387E8
:103E8000C3878368B3F5004F2AD0A36C224A1A6413
:103E9000A36C224ADA63A36C214ADA64A36C002281
:103EA0001A652268E38E9BB20C32216BA06CFFF77F
:103EB0007BF90146F8B923681A6812F0400F03D164
:103EC0001A6842F040021A602268536843F02003E7
:103ED00053602268536843F0020353600D4613E0B9
:103EE0000268136823F0400313600268136843F408
:103EF00080431360C9E7636D43F0100363650123DA
:103F000084F8513000E00225002384F85030284620
:103F100038BD0225FBE700BF293F0008573F0008D6
:103F2000353F00087047704708B5806BFFF7FBFF0F
:103F300008BD704708B5806B0268536823F003031F
:103F40005360436D43F010034365012380F8513003
:103F5000FFF7EFFF08BD30B583B00546846BFEF771
:103F600059FC2B681B6813F4807F23D1024621681B
:103F70004B6823F020034B6021684B6823F0020359
:103F80004B6064212046FFF7C9FE18B1636D43F012
:103F900020036365A36833B901932368DA6801924B
:103FA0009B680193019B0023E386012384F8513031
:103FB000636D23B92046FFF7B5FF03B030BD20463F
:103FC000FFF7B7FFF9E7000090F83D30DBB2012BB7
:103FD00037D1022380F83D300268D36843F00103F3
:103FE000D3600368194A934220D0B3F1804F1DD0AB
:103FF000A2F57C42934219D002F58062934215D01B
:1040000002F58062934211D002F5784293420DD0BE
:1040100002F57052934209D0A2F59432934205D032
:104020001A6842F001021A60002070479A6802F094
:104030000702062A07D01A6842F001021A6000201F
:104040007047012070470020704700BF000001400A
:10405000704770477047704710B5044603681A6987
:1040600012F0020F11D0DA6812F0020F0DD06FF0CB
:1040700002021A610123037703689B6913F0030F9F
:1040800070D0FFF7E6FF0023237723681A6912F048
:10409000040F12D0DA6812F0040F0ED06FF0040291
:1040A0001A610223237723689B6913F4407F5FD052
:1040B0002046FFF7CEFF0023237723681A6912F00A
:1040C000080F12D0DA6812F0080F0ED06FF0080255
:1040D0001A61042323772368DB6913F0030F4ED0A2
:1040E0002046FFF7B6FF0023237723681A6912F0F2
:1040F000100F12D0DA6812F0100F0ED06FF010020D
:104100001A61082323772368DB6913F4407F3DD0CD
:104110002046FFF79EFF0023237723681A6912F0D9
:10412000010F03D0DA6812F0010F36D123681A6943
:1041300012F0800F03D0DA6812F0800F34D12368B8
:104140001A6912F0400F03D0DA6812F0400F32D132
:1041500023681A6912F0200F03D0DA6812F0200FDA
:1041600030D110BDFFF774FF2046FFF773FF8AE7D9
:104170002046FFF76DFF2046FFF76CFF9BE72046C8
:10418000FFF766FF2046FFF765FFACE72046FFF725
:104190005FFF2046FFF75EFFBDE76FF001021A6187
:1041A0002046FDF7B7FEC1E76FF080021A61204696
:1041B00000F0E7F8C3E76FF040021A612046FFF70E
:1041C0004AFFC5E76FF020021A61204600F0D8F8D8
:1041D000C7E700000368304A904212D0B0F1804F28
:1041E0000FD0A2F57C4290420BD002F58062904243
:1041F00007D002F58062904203D002F578429042E7
:1042000003D123F070034A681343234A90422AD013
:10421000B0F1804F27D0A2F57C42904223D002F526
:10422000806290421FD002F5806290421BD002F55E
:104230007842904217D002F57052904213D002F5A6
:10424000806290420FD002F5806290420BD0A2F5BE
:104250009832904207D002F58062904203D002F576
:104260008062904203D123F44073CA68134323F061
:1042700080034A69134303608B68C3620B688362DF
:10428000054B984203D003F58063984201D10B6936
:1042900003630123436170470000014040B310B540
:1042A000044690F83D30F3B1022384F83D302146B6
:1042B00051F8040BFFF78EFF012384F8463084F891
:1042C0003E3084F83F3084F8403084F8413084F840
:1042D000423084F8433084F8443084F8453084F820
:1042E0003D30002010BD80F83C30FEF765F9DBE77B
:1042F0000120704790F83C30012B3CD010B40123D2
:1043000080F83C30022380F83D3003685A689C688E
:1043100022F0700C0A6842EA0C025A600368174ADD
:1043200093421AD0B3F1804F17D0A2F57C4293424A
:1043300013D002F5806293420FD002F5806293425F
:104340000BD002F57842934207D002F570529342A7
:1043500003D0A2F59432934204D124F080044A6839
:1043600014439C60012380F83D30002380F83C30EA
:10437000184610BC70470220704700BF0000014083
:104380007047704738B504460268136923F44053F8
:10439000C1680B4313618368026913434269134385
:1043A000C2691A430168CB6823F4164323F00C0357
:1043B0001343CB600268536923F4407381690B4354
:1043C00053610368314A934206D002F580629342FA
:1043D00002D0FFF719FC01E0FFF726FCE369B3F513
:1043E000004F29D00021031849411B1841F1000159
:1043F000C90041EA5371DB00181863684FEA830271
:104400004FEA937341F10001FCF760FC204DA5FBDE
:1044100000325109642303FB11031B013233A5FB56
:1044200003235B0903F0F00202EB011203F00F0318
:10443000216813448B6038BD0023021843EB03014D
:10444000121841F10001C90041EA5271D20010185E
:1044500041F10001626892185B41FCF737FC0C4D9A
:10446000A5FB00325109642303FB1103DB00323347
:10447000A5FB03235B095A0002F4F87202EB011258
:1044800003F00703216813448B60D4E70010014058
:104490001F85EB512DE9F84305460F461646994610
:1044A000DDF820802C68246837EA04030CBF4FF045
:1044B000010C4FF0000CB4452DD1B8F1FF3FF1D005
:1044C000B8F1000F05D0FEF7A5F9A0EB09004045B3
:1044D000E8D92A6802F10C0353E8003F23F4D073B3
:1044E0000C3242E800310029F3D12A6802F11403AA
:1044F00053E8003F23F00103143242E80031002961
:10450000F3D1202385F83D3085F83E30002385F82F
:104510003C30032000E00020BDE8F88358B310B51C
:10452000044690F83D300BB3242384F83D302268D4
:10453000D36823F40053D3602046FFF723FF22689B
:10454000136923F4904313612268536923F02A030B
:1045500053612268D36843F40053D3600020206481
:10456000202384F83D3084F83E3010BD80F83C3084
:10457000FEF776F8D8E7012070472DE9F04182B0C8
:104580001E4690F83D30DBB2202B54D104460D4638
:104590009046002953D0002A53D090F83C30012B8C
:1045A00051D0012380F83C3000230364212380F89C
:1045B0003D30FEF72FF90746A4F82480A4F82680A2
:1045C000A368B3F5805F05D04FF00008002384F89E
:1045D0003C3012E0236913B14FF00008F6E7A8461B
:1045E0000025F3E738F8023B2268C3F30803536061
:1045F000E28C92B2013A92B2E284E38C9BB273B144
:1046000000963B46002280212046FFF743FFE0B999
:10461000002DE7D015F8012B23685A60E8E70096D3
:104620003B46002240212046FFF734FF78B9202383
:1046300084F83D3000E0022002B0BDE8F0810120A6
:10464000FAE70120F8E70220F6E70320F4E7032069
:10465000F2E72DE9F04182B01E4690F83E30DBB221
:10466000202B5CD104460D46904600295BD0002AE1
:104670005BD090F83C30012B59D0012380F83C30BE
:1046800000230364222280F83E200363FEF7C2F871
:104690000746A4F82C80A4F82E80A368B3F5805FA9
:1046A00005D04FF00008002384F83C3017E0236960
:1046B00013B14FF00008F6E7A8460025F3E723689A
:1046C0005B68C3F3080328F8023B03E023685B68D8
:1046D0002B700135E28D92B2013A92B2E285E38D00
:1046E0009BB2BBB100963B46002220212046FFF73B
:1046F000D1FEF0B9002DE2D0A368B3F5805FE5D01C
:1047000013B92369002BE1D023685B6803F07F03B2
:104710002B70DEE7202384F83E30002000E00220EA
:1047200002B0BDE8F0810120FAE70120F8E702209D
:10473000F6E70320F4E781628285C28500230364E3
:10474000222280F83E2080F83C30036923B10268C1
:10475000D36843F48073D3600268536943F0010364
:1047600053610268D36843F02003D3600020704790
:1047700008B590F83E30DBB2202B0DD171B17AB183
:1047800090F83C30012B0DD0012380F83C30002301
:104790000363FFF7D0FF00E0022008BD0120FCE723
:1047A0000120FAE70220F8E72DE9F0411C46069DBA
:1047B000A2F1200303EB4303204A02EB83034FF0F3
:1047C000000E34E001EB0E0C00EBCC1C94444FEADD
:1047D0004C06C5F307281A4F07F81C8001365FFA0C
:1047E00085FC07F806C00132D2B2052A1AD893F820
:1047F00000C0C2F107064CFA06FC1CF0010FE1D024
:1048000001EB0E0C00EBCC1C94444FEA4C06C4F3B5
:104810000727DFF82C8008F81C700136E7B208F88B
:104820000670E0E701330EF1010E5FFA8EFEBEF175
:104830000B0F01D80022D8E7BDE8F08138E8000866
:10484000AC0C00202DE9F0418CB005468846174697
:104850001E4612AB53F8042B0024049405940694CE
:104860000794089409940A940B940393202104A8B4
:1048700003F014FD09E000963B4641462846FFF749
:1048800093FF0635EDB20134E4B204F130036B441A
:1048900013F8202C002AEED10CB0BDE8F081000006
:1048A000844600230BE05A004FEA1C21064800F81A
:1048B000131001325FFA8CF1815401339BB2B3F5CE
:1048C000A04FF0D3704700BFAC0C002008B500F03B
:1048D00085FA042000F028FA4FF6FF70FFF7E0FF9A
:1048E0009F237F220021084600F0F0F94FF4204278
:1048F00002490348FFF7A6FA08BD00BFAC0C002030
:104900007C0B00204FF0000C944515D270B500EBE5
:10491000C11EE6444FEA4E041D0A084E06F81E501A
:1049200004F1010EDCB206F80E400CF1010C5FFA46
:104930008CFC9445EBD370BD704700BFAC0C0020DD
:104940004FF0000C944516D270B501EB0C0E00EB45
:10495000CE1E4FEA4E041D0A074E06F81E5004F103
:10496000010EDCB206F80E400CF1010C5FFA8CFC73
:104970009445EAD370BD7047AC0C00202DE9F84394
:1049800006460F4615469846BDF820409DF824E09F
:10499000BEF1000F1BD1704615E007EB000C06EBD3
:1049A000CC1C9C444FEA4C02210ADFF8609009F8C5
:1049B0001C100132E1B209F802100133DBB2AB4244
:1049C000EBD30130C0B240451DD27346F7E7234612
:1049D000FFF798FF2346424639463046FFF7B0FFBF
:1049E00007EB0801C9B2013923462A46C9B230464D
:1049F000FFF788FF7019C0B2013823464246394696
:104A0000C0B2FFF79DFFBDE8F88300BFAC0C0020EB
:104A100010B4002404618480C480017042708370EB
:104A20009DF80430C370029B836010BC7047000087
:104A30002DE9F04782B004460D46067887788068F5
:104A4000FCF7DEFA00EB4000A7EB4003C3F347039B
:104A500033445FFA83F86178E378A3F10C0202EB48
:104A6000D272C2F347020A445FFA82F91DB3012DE4
:104A70001ED1002501954FF2197ACDF800A03A46D3
:104A80003046FFF77BFF0123019349F6A0230093F3
:104A9000E378A27861782078FFF770FFA36801932C
:104AA000154B009353462A4649464046FFF7CAFE37
:104AB00002B0BDE8F087002501954EF23C7ACDF8B2
:104AC00000A03A463046FFF759FF012301934CF608
:104AD00059630093E378A27861782078FFF74EFF5E
:104AE000A3680193044B009353462A464946404627
:104AF000FFF7A8FEDCE700BFACEC000810B50446E9
:104B0000017042804370002303620299083001F073
:104B1000BDFD637F0BB10023637723780C2B01D994
:104B20000C23237010BD0EB410B583B0044605AB42
:104B300053F8042B01931821083003F0AFFB012335
:104B4000636003B0BDE8104003B070472DE9F04347
:104B500083B0054600F108063046FCF751FA00EB39
:104B600040046400E4B26B78012B28D0022B5FD0A4
:104B70002978C4F1800201EB41018900103100273E
:104B800001974FF6FF78CDF800800C2302F0FE026B
:104B900001F0FC012046FFF7F1FE297801EB41010D
:104BA000890010310196344B009343466A8801F026
:104BB000FC013846FFF746FE03B0BDE8F0832978D4
:104BC000C4F18007C7F3470701EB410189001031A9
:104BD0004FF00009CDF804904FF6FF78CDF8008033
:104BE0000C233A4601F0FC014846FFF7C7FE29783E
:104BF00001EB4101890010313819CDF80490CDF84E
:104C000000800C233A4601F0FC01C0B2FFF7B6FE6B
:104C1000297801EB4101890010310196164B009370
:104C200043466A8801F0FC013846FFF70BFEC3E7F4
:104C30002978C4F18004E4B201EB4101890010310C
:104C4000002001904FF6FF7700970C23224601F0D9
:104C5000FC01FFF793FE297801EB41018900103137
:104C60000196054B00933B466A8801F0FC01204603
:104C7000FFF7E8FDA0E700BFACEC000800B583B08B
:104C80000190002210210548FEF7ABFC012201A98A
:104C90000348FFF7D7F803B05DF804FB00040240B7
:104CA0007C0B002000B583B0019001221021054843
:104CB000FEF797FC012201A90348FFF7C3F803B0F0
:104CC0005DF804FB000402407C0B0020F8B5871C53
:104CD000961C4D1C5C1C2A20FFF7D0FF380AFFF7FA
:104CE000E1FFF8B2FFF7DEFF300AFFF7DBFFF0B2BB
:104CF000FFF7D8FF2B20FFF7C1FF280AFFF7D2FFED
:104D0000E8B2FFF7CFFF200AFFF7CCFFE0B2FFF7D2
:104D1000C9FF2C20FFF7B2FF012210210148FEF746
:104D200060FCF8BD0004024008B5013807280ED821
:104D3000DFE800F0040E18222C36404A3620FFF738
:104D40009DFF0820FFF7AEFF2C20FFF797FF08BD5F
:104D50003620FFF793FF8020FFF7A4FF2C20FFF7FA
:104D60008DFFF4E73620FFF789FF4020FFF79AFF19
:104D70002C20FFF783FFEAE73620FFF77FFFC820EC
:104D8000FFF790FF2C20FFF779FFE0E73620FFF7D1
:104D900075FF2020FFF786FF2C20FFF76FFFD6E777
:104DA0003620FFF76BFF6020FFF77CFF2C20FFF71A
:104DB00065FFCCE73620FFF761FFA020FFF772FF09
:104DC0002C20FFF75BFFC2E73620FFF757FFE020FC
:104DD000FFF768FF2C20FFF751FFB8E710B57F4CB5
:104DE000012240212046FEF7FCFB4FF47A7001F0CF
:104DF0007DFA002240212046FEF7F3FB4FF47A7043
:104E000001F074FA012240212046FEF7EAFB744CBF
:104E1000204601F06BFA1120FFF730FF204601F029
:104E200065FAB120FFF72AFF0520FFF73BFF3C2082
:104E3000FFF738FF3C20FFF735FFB220FFF71EFFDA
:104E40000520FFF72FFF3C20FFF72CFF3C20FFF74A
:104E500029FFB320FFF712FF0520FFF723FF3C20B7
:104E6000FFF720FF3C20FFF71DFF0520FFF71AFF8B
:104E70003C20FFF717FF3C20FFF714FFB420FFF79B
:104E8000FDFE0320FFF70EFFC020FFF7F7FE2820EE
:104E9000FFF708FF0820FFF705FF0420FFF702FFD8
:104EA000C120FFF7EBFEC020FFF7FCFEC220FFF79A
:104EB000E5FE0D20FFF7F6FE0020FFF7F3FEC3200E
:104EC000FFF7DCFE8D20FFF7EDFE2A20FFF7EAFE5C
:104ED000C420FFF7D3FE8D20FFF7E4FEEE20FFF79E
:104EE000E1FEC520FFF7CAFE1A20FFF7DBFE3620E1
:104EF000FFF7C4FEC820FFF7D5FEE020FFF7BEFE97
:104F00000420FFF7CFFE2220FFF7CCFE0720FFF79B
:104F1000C9FE0A20FFF7C6FE2E20FFF7C3FE302091
:104F2000FFF7C0FE2520FFF7BDFE2A20FFF7BAFEDF
:104F30002820FFF7B7FE2620FFF7B4FE2E20FFF74C
:104F4000B1FE3A20FFF7AEFE0020FFF7ABFE0120D6
:104F5000FFF7A8FE0320FFF7A5FE1320FFF7A2FE30
:104F6000E120FFF78BFE0420FFF79CFE1620FFF7E1
:104F700099FE0620FFF796FE0D20FFF793FE2D20E9
:104F8000FFF790FE2620FFF78DFE2320FFF78AFE15
:104F90002720FFF787FE2720FFF784FE2520FFF755
:104FA00081FE2D20FFF77EFE3B20FFF77BFE0020D9
:104FB000FFF778FE0120FFF775FE0420FFF772FE71
:104FC0001320FFF76FFE3A20FFF758FE0520FFF78A
:104FD00069FE2920FFF752FE10BD00BF0004024009
:104FE000C0D4010008B500F0D7FB0023024A1370BB
:104FF000024A137008BD00BF540A0020560A002060
:1050000008B500F061FA034B05221A70024B00222A
:105010001A7008BD540A0020560A002008B500F096
:10502000D9FC034B06221A70024B00221A7008BDED
:10503000540A0020560A0020F0B583B04FF6FF70E6
:10504000FFF72EFC0A20FDF7EBFB194D194B0193DE
:10505000182700974823212220212846FFF7D8FC53
:10506000154C164B0193009748233F2220212046E0
:10507000FFF7CEFC124E134B0193009748235D229D
:1050800020213046FFF7C4FC0F4BF3600F4BEB6061
:105090000F4BE36000213046FFF7CAFC0021284691
:1050A000FFF7C6FC00212046FFF7C2FC03B0F0BDAD
:1050B00034B10020B0EC000848B10020B4EC000886
:1050C0005CB10020BCEC0008E54F0008015000086E
:1050D0001D50000808B52E4B1B78022B02D92C4B13
:1050E00000221A702A4B1B78012B1AD0022B28D0D1
:1050F0001BB1274B00221A700EE001212548FFF753
:1051000097FC00212448FFF793FC00212348FFF778
:105110008FFC1F4B00221A70214B1B78012B20D0D3
:1051200008BD00211B48FFF783FC01211A48FFF747
:105130007FFC00211948FFF77BFC154B01221A70F8
:10514000EAE700211348FFF773FC00211248FFF73C
:105150006FFC01211148FFF76BFC0D4B02221A7006
:10516000DAE70B4B1B7833B90A48C36898470C4BF6
:1051700000221A70D4E7012B05D0022BF7D1074883
:10518000C3689847F3E70448C3689847EFE700BF50
:10519000560A002034B1002048B100205CB1002044
:1051A000570A002008B500F0F7FA0023034A1380DD
:1051B000034A1370034A137008BD00BFD4B1002026
:1051C000540A0020560A00202DE9F04383B04FF620
:1051D000FF70FFF765FB0A20FDF722FB2D4BB3F9AB
:1051E000003001932C4B00934FF6FF7300222021D7
:1051F0004020FFF727FBDFF8A490294B01931824E8
:105200000094302340220C214846FFF701FCDFF8D0
:105210009480254B0193009430234022482140463E
:10522000FFF7F6FB214F224B0193009430236022BD
:105230000C213846FFF7ECFB1E4E1F4B01930094E8
:105240003023602248213046FFF7E2FB1B4D1C4B08
:10525000019300943023802248212846FFF7D8FB91
:10526000184BEB6001214846FFF7E2FB0021404666
:10527000FFF7DEFB00213846FFF7DAFB002130465E
:10528000FFF7D6FB00212846FFF7D2FB03B0BDE8AD
:10529000F08300BF18000020C8EC0008C0B1002057
:1052A000CCEC000870B10020D0EC000884B10020E4
:1052B000D8EC000898B10020E0EC0008ACB1002068
:1052C000BCEC0008A551000800B583B06D4B1B78FD
:1052D000042B00F2A280DFE803F00340587088003E
:1052E00001216948FFF7A4FB00216848FFF7A0FBF4
:1052F00000216748FFF79CFB00216648FFF798FBF9
:1053000000216548FFF794FB5E4B00221A70634B47
:105310001B78012B00F08580614BB3F90030002B26
:1053200000F0A380002301934FF4FC6300930C234F
:105330001A4619461846FFF721FB5A4BB3F90030BD
:105340000193594B00934FF6FF7300222021402018
:10535000FFF778FA03B05DF804FB00214A48FFF735
:1053600067FB01214948FFF763FB00214848FFF72D
:105370005FFB00214748FFF75BFB00214648FFF732
:1053800057FB404B01221A70C1E700213E48FFF74E
:105390004FFB00213D48FFF74BFB01213C48FFF745
:1053A00047FB00213B48FFF743FB00213A48FFF74A
:1053B0003FFB344B02221A70A9E700213248FFF765
:1053C00037FB00213148FFF733FB00213048FFF75E
:1053D0002FFB01212F48FFF72BFB00212E48FFF761
:1053E00027FB284B03221A7091E700212648FFF77C
:1053F0001FFB00212548FFF71BFB00212448FFF776
:1054000017FB00212348FFF713FB01212248FFF778
:105410000FFB1C4B04221A7079E71A4B00221A70FA
:1054200075E7184B1B783BB91E4A1388013313806C
:105430001A4B00221A706FE7012B09D0022B0CD0F7
:10544000032B0ED0042BF3D11348C3689847EFE722
:10545000144A1388013B1380EAE7114B00221A809B
:10546000E6E70F4B00221A80E2E7012301934FF495
:10547000FC6300930C231A4619461846FFF77EFA80
:105480005BE700BF560A0020C0B1002070B10020C9
:1054900084B1002098B10020ACB10020570A002050
:1054A000D4B1002018000020C8EC000808B500F0B6
:1054B00073F90023024A1370024A137008BD00BF3B
:1054C000540A0020560A002010B582B0214A224911
:1054D0002248FCF789F9002304E01E4A002142F823
:1054E00023100133022BF8DD4FF6FF70FFF7D8F9D8
:1054F0000A20FDF795F91A4C1A4B019312230093D9
:1055000030238A2248212046FFF782FA164BE360B7
:10551000164B00934FF6FF73002214210C20FFF767
:1055200091F9134B00934FF6FF73002224210C20B6
:10553000FFF788F90F4B00934FF6FF7300223421D9
:105540000C20FFF77FF900212046FFF771FA02B027
:1055500010BD00BF20B20020F4B10020E4B1002053
:1055600000B20020BCEC0008AD540008E8EC0008D4
:10557000F0EC0008F8EC000838B505460C460022AF
:10558000002328462146FBF757F810B92846214644
:1055900038BD04F10044F9E72DE9F04784B0424BEF
:1055A0001B88B3F57A7F1FD8404B1B78032B1DD087
:1055B0003F4B1B78FBB101213E48FFF739FA3E4BC8
:1055C0001B78012B64D004B0BDE8F0873B4A02EBA6
:1055D000C30200200021C2E900010133052BF5DDE3
:1055E000314B00221A80DFE70023F7E734493548C2
:1055F000FCF79EF8DCE70025022DDCDC05F1010A52
:105600004FEA0A140434E4B22F4B00934FF6FF73B1
:10561000002221463C20FFF715F92C4B53F825605A
:105620002B493046FBF766F905463046FAF74CFF42
:10563000FFF7A2FF1AA3D3E90023FBF73BFE804646
:1056400089460022234BFBF735FE06460F464046AF
:105650004946FBF719F8642303FB00F0FAF722FF31
:1056600002460B4630463946FAF7CEFDFBF70CF8FA
:1056700002902846FBF704FB0190174B00934FF66E
:10568000FF73002221463C20FFF7DCF85546B3E7C4
:105690000848C3689847084B00221A7093E700BF78
:1056A0000000006066A64C40520A0020500A00200C
:1056B000560A002000B20020570A0020E809002006
:1056C000F4B1002014B2002000ED0008D8B1002091
:1056D00033336542000059400CED000808B5114B0A
:1056E0001B78062B1AD8DFE803F004070A0D101305
:1056F000160000F0CBF808BD00F0EEFAFBE7FFF76C
:10570000E3FDF8E7FFF7E6FCF5E700F059FCF2E708
:10571000FFF742FFEFE700F0C5F9ECE700F0B6F85D
:10572000E9E700BF540A002008B500F051FA034B26
:1057300001221A70024B00221A7008BD540A002080
:10574000560A002008B5FFF73FFD034B02221A70EE
:10575000024B00221A7008BD540A0020560A00208D
:1057600008B5FFF769FC034B03221A70024B0022B5
:105770001A7008BD540A0020560A002008B500F02F
:1057800065FB034B04221A70024B00221A7008BDFD
:10579000540A0020560A00202DE9F04383B04FF64A
:1057A000FF70FFF77DF80A20FDF73AF8DFF8A490C4
:1057B000294B00930123002211464846FFF79EF92A
:1057C000DFF89880264B0193182400944823212267
:1057D00020214046FFF71CF9224BC8F80C30224F1D
:1057E000224B0193009448233F2220213846FFF7A3
:1057F0000FF91F4BFB601F4E1F4B01930094482372
:105800005D2220213046FFF703F91C4BF3601C4D4D
:105810001C4B0193009448237B2220212846FFF74C
:10582000F7F8194BEB604846FFF790F90121404625
:10583000FFF7FEF800213846FFF7FAF8002130465E
:10584000FFF7F6F800212846FFF7F2F803B0BDE8AD
:10585000F08300BF7CB2002018ED000854B2002095
:1058600024ED00082957000840B200202CED000864
:10587000455700082CB2002034ED0008615700089D
:1058800068B200203CED00087D57000810B5434B7E
:105890001B78032B02D9414B00221A703F4C217810
:1058A0003F4800F007FE2378032B57D8DFE803F0CA
:1058B000021A2E4201213B48FFF7BAF800213A486C
:1058C000FFF7B6F800213948FFF7B2F80021384851
:1058D000FFF7AEF8314B00221A70364B1B78012BC4
:1058E00040D010BD00212F48FFF7A2F801212E481B
:1058F000FFF79EF800212D48FFF79AF800212C4869
:10590000FFF796F8254B01221A70E6E7002125489B
:10591000FFF78EF800212448FFF78AF80121234879
:10592000FFF786F800212248FFF782F81B4B02227E
:105930001A70D2E700211B48FFF77AF800211A48B5
:10594000FFF776F800211948FFF772F8012118488F
:10595000FFF76EF8114B03221A70BEE70F4B0022BF
:105960001A70BAE70D4B1B7833B90E48C3689847D5
:10597000104B00221A70B4E7012B07D0022B09D07C
:10598000032BF5D10A48C3689847F1E70648C36876
:105990009847EDE70548C3689847E9E7560A0020AD
:1059A000C8EC000854B2002040B200202CB2002005
:1059B00068B20020570A002008B5FFF7EDFE00236B
:1059C000024A1370024A137008BD00BF540A002037
:1059D000560A002070B582B04FF6FF70FEF760FFE8
:1059E0000A20FCF71DFF274C274B01931225009539
:1059F00030238A2248212046FFF70AF8234B0193DF
:105A0000009530238A220C212148FFF701F8214B11
:105A1000E360214B00934FF6FF73002211463020C4
:105A2000FEF710FF002519E06E1C3401E4B24FF4BC
:105A30007843802221460020FEF764FF174B33F89D
:105A40001530211D0193164B00934FF6FF73002272
:105A500001F0FC013020FEF7F5FE3546052DE3DDB3
:105A60004FF47843802270210020FEF74BFF002185
:105A70000448FEF7DDFF01210548FEF7D9FF02B01B
:105A800070BD00BFA0B20020BCEC000844ED0008CF
:105A9000B4B20020B95900084CED0008C0B3002092
:105AA00050ED000870B582B03A4B1B78012B02D93B
:105AB000384B00221A70374B1B782BB1012B1DD0AD
:105AC000344B00221A700AE001213348FEF7B0FF80
:105AD00000213248FEF7ACFF2E4B00221A70304BEB
:105AE0001B88B3F57A7F1FD82A4B1B78002B43D035
:105AF0002C4B1B78012B41D002B070BD00212648F1
:105B0000FEF796FF01212548FEF792FF214B012267
