:020000040800F2
:100000000000022065230008DD200008DF20000832
:10001000E1200008E3200008E520000800000000BF
:10002000000000000000000000000000D1490008AE
:10003000E720000800000000714A0008D54A0008C7
:10004000B5230008B5230008B5230008B523000830
:10005000B5230008B5230008B5230008B523000820
:10006000B5230008B5230008B5230008B523000810
:10007000B5230008B5230008B5230008B523000800
:10008000E9200008B5230008B5230008B5230008BF
:10009000F9200008B5230008B5230008B52300089F
:1000A000B5230008B5230008B5230008B5230008D0
:1000B000B5230008B5230008B5230008B5230008C0
:1000C000B5230008B5230008B5230008B5230008B0
:1000D000B5230008B5230008B5230008B5230008A0
:1000E000B5230008B5230008B5230008B523000890
:1000F000B5230008B5230008B5230008B523000880
:10010000B5230008B5230008B5230008B52300086F
:10011000B5230008B52300080921000819210008AB
:10012000B5230008B5230008B5230008B52300084F
:10013000B5230008B5230008B5230008B52300083F
:10014000B5230008B5230008B5230008B52300082F
:10015000B5230008B5230008B5230008B52300081F
:10016000B5230008B5230008B5230008B52300080F
:10017000B5230008B5230008B523000800000000DF
:08018000B5230008B5230008B7
:1001C00010B5054C237833B9044B13B10448AFF391
:1001D00000800123237010BD280A002000000000C9
:1001E0006CE1000808B5034B1BB103490348AFF3AA
:1001F000008008BD000000002C0A00206CE100080F
:1002000081F0004102E000BF83F0004330B54FEAC7
:1002100041044FEA430594EA050F08BF90EA020F34
:100220001FBF54EA000C55EA020C7FEA645C7FEAC7
:10023000655C00F0E2804FEA5454D4EB5555B8BFEA
:100240006D420CDD2C4480EA020281EA030382EA5B
:10025000000083EA010180EA020281EA0303362DED
:1002600088BF30BD11F0004F4FEA01314FF4801CC0
:100270004CEA113102D0404261EB410113F0004FD2
:100280004FEA03334CEA133302D0524263EB430389
:1002900094EA050F00F0A780A4F10104D5F1200E27
:1002A0000DDB02FA0EFC22FA05F2801841F1000182
:1002B00003FA0EF2801843FA05F359410EE0A5F156
:1002C00020050EF1200E012A03FA0EFC28BF4CF087
:1002D000020C43FA05F3C01851EBE37101F000453D
:1002E00007D54FF0000EDCF1000C7EEB00006EEB4A
:1002F0000101B1F5801F1BD3B1F5001F0CD34908D4
:100300005FEA30004FEA3C0C04F101044FEA44522A
:1003100012F5800F80F09A80BCF1004F08BF5FEAB1
:10032000500C50F1000041EB045141EA050130BD91
:100330005FEA4C0C404141EB0101013C28BFB1F5A3
:10034000801FE9D291F0000F04BF01460020B1FAEE
:1003500081F308BF2033A3F10B03B3F120020CDAC1
:100360000C3208DD02F1140CC2F10C0201FA0CF09F
:1003700021FA02F10CE002F11402D8BFC2F1200C04
:1003800001FA02F120FA0CFCDCBF41EA0C019040BA
:10039000E41AA2BF01EB0451294330BD6FEA040403
:1003A0001F3C1CDA0C340EDC04F11404C4F12002EE
:1003B00020FA04F001FA02F340EA030021FA04F300
:1003C00045EA030130BDC4F10C04C4F1200220FA57
:1003D00002F001FA04F340EA0300294630BD21FA95
:1003E00004F0294630BD94F0000F83F4801306BF5B
:1003F00081F480110134013D4EE77FEA645C18BF4F
:100400007FEA655C29D094EA050F08BF90EA020FE5
:1004100005D054EA000C04BF1946104630BD91EADD
:10042000030F1EBF0021002030BD5FEA545C05D1E0
:100430004000494128BF41F0004130BD14F580041F
:100440003CBF01F5801130BD01F0004545F0FE4193
:1004500041F470014FF0000030BD7FEA645C1ABFC8
:10046000194610467FEA655C1CBF0B46024650EAFF
:10047000013406BF52EA033591EA030F41F400212B
:1004800030BD00BF90F0000F04BF0021704730B5B1
:100490004FF4806404F132044FF000054FF0000186
:1004A00050E700BF90F0000F04BF0021704730B547
:1004B0004FF4806404F1320410F0004548BF40421C
:1004C0004FF000013EE700BF42004FEAE2014FEA71
:1004D00031014FEA02701FBF12F07F4393F07F4F4C
:1004E00081F06051704732F07F4208BF704793F04F
:1004F0007F4F04BF41F40021704730B54FF4607462
:1005000001F0004521F000411CE700BF50EA010264
:1005100008BF704730B54FF000050AE050EA01020D
:1005200008BF704730B511F0004502D5404261EB7D
:1005300041014FF4806404F132045FEA915C3FF4BE
:10054000D8AE4FF003025FEADC0C18BF03325FEA5B
:10055000DC0C18BF033202EBDC02C2F1200300FA0C
:1005600003FC20FA02F001FA03FE40EA0E0021FA31
:1005700002F11444BDE600BF4FF0FF3C06E000BFAF
:100580004FF0010C02E000BF4FF0010C4DF804CD1C
:100590004FEA410C7FEA6C5C4FEA430C18BF7FEADC
:1005A0006C5C1BD001B050EA410C0CBF52EA430C0A
:1005B00091EA030F02BF90EA020F0020704710F18A
:1005C000000F91EA030F58BF994208BF90422CBF19
:1005D000D8176FEAE37040F0010070474FEA410C12
:1005E0007FEA6C5C02D150EA013C07D14FEA430C30
:1005F0007FEA6C5CD6D152EA033CD3D05DF8040BA1
:10060000704700BF8446104662468C4619466346D2
:1006100000E000BF01B5FFF7B7FF002848BF10F1A9
:10062000000F01BD4DF808EDFFF7F4FF0CBF0120EE
:1006300000205DF808FB00BF4DF808EDFFF7EAFF6A
:1006400034BF012000205DF808FB00BF4DF808ED25
:10065000FFF7E0FF94BF012000205DF808FB00BF1A
:100660004DF808EDFFF7CEFF94BF012000205DF8A4
:1006700008FB00BF4DF808EDFFF7C4FF34BF0120B1
:1006800000205DF808FB00BF4FEA410212F500129E
:1006900015D211D56FF47873B3EB625212D94FEAC9
:1006A000C12343F0004343EA505311F0004F23FAB3
:1006B00002F018BF404270474FF00000704750EA08
:1006C000013005D111F0004008BF6FF000407047C5
:1006D0004FF00000704700BF4FEA4102B2F1E04323
:1006E00024BFB3F5001CDCF1FE5C0DD901F0004C19
:1006F0004FEAC0024CEA5070B2F1004F40EB830069
:1007000008BF20F00100704711F0804F21D113F194
:100710003872BCBF01F00040704741F480114FEACD
:100720005252C2F11802C2F1200C10FA0CF320FA56
:1007300002F018BF40F001004FEAC1234FEAD32373
:1007400003FA0CFC40EA0C0023FA02F34FEA4303DD
:10075000CCE77FEA625307D150EA01331EBF4FF066
:10076000FE4040F44000704701F0004040F0FE4081
:1007700040F40000704700BF53B94AB9002908BFD0
:1007800000281CBF4FF0FF314FF0FF3000F074B96C
:10079000ADF1080C6DE904CE00F006F8DDF804E0D8
:1007A000DDE9022304B070472DE9F047089D0446B7
:1007B0008E46002B4DD18A42944669D9B2FA82F214
:1007C00052B101FA02F3C2F1200120FA01F10CFA50
:1007D00002FC41EA030E94404FEA1C48210CBEFB88
:1007E000F8F61FFA8CF708FB16E341EA034306FB11
:1007F00007F199420AD91CEB030306F1FF3080F0A0
:100800001F81994240F21C81023E63445B1AA4B2EC
:10081000B3FBF8F008FB103344EA034400FB07F78E
:10082000A7420AD91CEB040400F1FF3380F00A81CF
:10083000A74240F207816444023840EA0640E41BC4
:1008400000261DB1D4400023C5E900433146BDE870
:10085000F0878B4209D9002D00F0EF800026C5E912
:10086000000130463146BDE8F087B3FA83F6002E2A
:100870004AD18B4202D3824200F2F980841A61EBA2
:10088000030301209E46002DE0D0C5E9004EDDE7C0
:1008900002B9FFDEB2FA82F2002A40F09280A1EBA8
:1008A0000C014FEA1C471FFA8CFE0126200CB1FBFD
:1008B000F7F307FB131140EA01410EFB03F08842F6
:1008C00008D91CEB010103F1FF3802D2884200F283
:1008D000CB804346091AA4B2B1FBF7F007FB101115
:1008E00044EA01440EFB00FEA64508D91CEB0404B3
:1008F00000F1FF3102D2A64500F2BB800846A4EB0E
:100900000E0440EA03409CE7C6F12007B34022FAF8
:1009100007FC4CEA030C20FA07F401FA06F31C4327
:10092000F9404FEA1C4900FA06F3B1FBF9F8200C34
:100930001FFA8CFE09FB181140EA014108FB0EF07A
:10094000884202FA06F20BD91CEB010108F1FF3ACA
:1009500080F08880884240F28580A8F102086144D6
:10096000091AA4B2B1FBF9F009FB101144EA0141E4
:1009700000FB0EFE8E4508D91CEB010100F1FF348F
:100980006CD28E456AD90238614440EA0840A0FB27
:100990000294A1EB0E01A142C846A64656D353D0FD
:1009A0005DB1B3EB080261EB0E0101FA07F722FA21
:1009B00006F3F1401F43C5E9007100263146BDE84A
:1009C000F087C2F12003D8400CFA02FC21FA03F3AD
:1009D000914001434FEA1C471FFA8CFEB3FBF7F02E
:1009E00007FB10360B0C43EA064300FB0EF69E4253
:1009F00004FA02F408D91CEB030300F1FF382FD2EC
:100A00009E422DD9023863449B1B89B2B3FBF7F693
:100A100007FB163341EA034106FB0EF38B4208D96C
:100A20001CEB010106F1FF3816D28B4214D9023EAD
:100A30006144C91A46EA004638E72E46284605E7CB
:100A40000646E3E61846F8E64B45A9D2B9EB02089C
:100A500064EB0C0E0138A3E74646EAE7204694E72C
:100A60004046D1E7D0467BE7023B614432E730465F
:100A700009E76444023842E7704700BF844641EA10
:100A8000000313F003036DD1403A41D351F8043B06
:100A900040F8043B51F8043B40F8043B51F8043B58
:100AA00040F8043B51F8043B40F8043B51F8043B48
:100AB00040F8043B51F8043B40F8043B51F8043B38
:100AC00040F8043B51F8043B40F8043B51F8043B28
:100AD00040F8043B51F8043B40F8043B51F8043B18
:100AE00040F8043B51F8043B40F8043B51F8043B08
:100AF00040F8043B51F8043B40F8043B51F8043BF8
:100B000040F8043B51F8043B40F8043B403ABDD266
:100B1000303211D351F8043B40F8043B51F8043B08
:100B200040F8043B51F8043B40F8043B51F8043BC7
:100B300040F8043B103AEDD20C3205D351F8043B97
:100B400040F8043B043AF9D2043208D0D2071CBF63
:100B500011F8013B00F8013B01D30B88038060468C
:100B6000704700BF082A13D38B078DD010F0030302
:100B70008AD0C3F10403D21ADB071CBF11F8013B72
:100B800000F8013B80D331F8023B20F8023B7BE7C1
:100B9000043AD9D3013A11F8013B00F8013BF9D2EC
:100BA0000B7803704B7843708B7883706046704786
:100BB0000000000000000000000000000000000035
:100BC00090F800F06DE9024520F007016FF0000C8D
:100BD00010F0070491F820F040F049804FF0000435
:100BE0006FF00700D1E9002391F840F000F1080010
:100BF00082FA4CF2A4FA8CF283FA4CF3A2FA8CF348
:100C00004BBBD1E9022382FA4CF200F10800A4FAAE
:100C10008CF283FA4CF3A2FA8CF3E3B9D1E9042302
:100C200082FA4CF200F10800A4FA8CF283FA4CF339
:100C3000A2FA8CF37BB9D1E9062301F1200182FAF3
:100C40004CF200F10800A4FA8CF283FA4CF3A2FAF9
:100C50008CF3002BC6D0002A04BF04301A4612BA07
:100C6000B2FA82F2FDE8024500EBD2007047D1E90A
:100C7000002304F00305C4F100004FEAC50514F099
:100C8000040F91F840F00CFA05F562EA05021CBF6A
:100C900063EA050362464FF00004A9E70000000084
:100CA00001F0FF01102A2BDB10F0070F08D010F81D
:100CB000013B013A8B422DD010F0070F42B3F6D121
:100CC000F0B441EA012141EA014122F007047FF03A
:100CD00000070023F0E80256083C85EA010586EA91
:100CE000010685FA47F5A3FA87F586FA47F6A5FACD
:100CF00087F68EB9EED1F0BC01F0FF0102F00702D9
:100D000032B110F8013B013A83EA010313B1F8D183
:100D10000020704701387047002D06BF3546033864
:100D2000073815F0010F07D1013015F4807F02BF9D
:100D3000013015F4C03F0130F0BC0138704700BFEE
:100D400070B54FF0FF0C4CF4E06C1CEA11541DBF61
:100D50001CEA135594EA0C0F95EA0C0F00F0DEF82C
:100D60002C4481EA030621EA4C5123EA4C5350EA11
:100D7000013518BF52EA033541F4801143F4801362
:100D800038D0A0FB02CE4FF00005E1FB02E506F0F3
:100D90000042E0FB03E54FF00006E1FB03569CF048
:100DA000000F18BF4EF0010EA4F1FF04B6F5007F4E
:100DB00064F5407404D25FEA4E0E6D4146EB0606C0
:100DC00042EAC62141EA55514FEAC52040EA5E5049
:100DD0004FEACE2EB4F1FD0C88BFBCF5E06F1ED8F3
:100DE000BEF1004F08BF5FEA500E50F1000041EB2A
:100DF000045170BD06F0004646EA010140EA0200D7
:100E000081EA0301B4EB5C04C2BFD4EB0C0541EAF8
:100E1000045170BD41F480114FF0000E013C00F30D
:100E2000AB8014F1360FDEBF002001F0004170BD31
:100E3000C4F10004203C35DA0C341BDC04F114044A
:100E4000C4F1200500FA05F320FA04F001FA05F2D6
:100E500040EA020001F0004221F0004110EBD370A3
:100E600021FA04F642EB06015EEA430E08BF20EACF
:100E7000D37070BDC4F10C04C4F1200500FA04F372
:100E800020FA05F001FA04F240EA020001F0004104
:100E900010EBD37041F100015EEA430E08BF20EA77
:100EA000D37070BDC4F1200500FA05F24EEA020EBF
:100EB00020FA04F301FA05F243EA020321FA04F0EE
:100EC00001F0004121FA04F220EA020000EBD370A5
:100ED0005EEA430E08BF20EAD37070BD94F0000FA5
:100EE0000FD101F00046400041EB010111F4801FD9
:100EF00008BF013CF7D041EA060195F0000F18BF8A
:100F0000704703F00046520043EB030313F4801FC5
:100F100008BF013DF7D043EA0603704794EA0C0F7F
:100F20000CEA135518BF95EA0C0F0CD050EA410695
:100F300018BF52EA4306D1D181EA030101F0004112
:100F40004FF0000070BD50EA410606BF104619463A
:100F500052EA430619D094EA0C0F02D150EA013646
:100F600013D195EA0C0F05D152EA03361CBF104687
:100F700019460AD181EA030101F0004141F0FE4126
:100F800041F470014FF0000070BD41F0FE4141F4AA
:100F9000780170BD70B54FF0FF0C4CF4E06C1CEAAA
:100FA00011541DBF1CEA135594EA0C0F95EA0C0F5F
:100FB00000F0A7F8A4EB050481EA030E52EA03351A
:100FC0004FEA013100F088804FEA03334FF080553B
:100FD00045EA131343EA12634FEA022245EA111568
:100FE00045EA10654FEA00260EF000419D4208BF19
:100FF000964244F1FD0404F5407402D25B084FEAC6
:101000003202B61A65EB03055B084FEA32024FF471
:1010100080104FF4002CB6EB020E75EB030E22BFCE
:10102000B61A754640EA0C005B084FEA3202B6EB8E
:10103000020E75EB030E22BFB61A754640EA5C003D
:101040005B084FEA3202B6EB020E75EB030E22BFCD
:10105000B61A754640EA9C005B084FEA3202B6EBCE
:10106000020E75EB030E22BFB61A754640EADC008D
:1010700055EA060E18D04FEA051545EA16754FEAEF
:1010800006164FEAC30343EA52734FEAC2025FEA0D
:101090001C1CC0D111F4801F0BD141EA00014FF09C
:1010A00000004FF0004CB6E711F4801F04BF01436D
:1010B0000020B4F1FD0C88BFBCF5E06F3FF6AFAE89
:1010C000B5EB030C04BFB6EB020C5FEA500C50F119
:1010D000000041EB045170BD0EF0004E4EEA11319C
:1010E00014EB5C04C2BFD4EB0C0541EA045170BDA3
:1010F00041F480114FF0000E013C90E645EA060EE7
:101100008DE60CEA135594EA0C0F08BF95EA0C0F14
:101110003FF43BAF94EA0C0F0AD150EA01347FF45C
:1011200034AF95EA0C0F7FF425AF104619462CE733
:1011300095EA0C0F06D152EA03353FF4FDAE104696
:10114000194622E750EA410618BF52EA43067FF4E7
:10115000C5AE50EA41047FF40DAF52EA43057FF477
:10116000EBAE12E74FEA410C7FEA6C5C02D150EA29
:10117000013C0AD14FEA430C7FEA6C5C02D152EA8F
:10118000033C02D14FF0000070474FF00100704760
:10119000F8B505460C461646424806F054F800B924
:1011A000F8BD414F0A2239463E4806F00DF83B880B
:1011B000B3F5807F31D040F201129342F0D13A4A28
:1011C000D3781B021BB291780B4307EE903AF8EEEE
:1011D000E77A364991ED007A67EE877AC4ED007AB6
:1011E00053791B021BB21079034307EE103AD1ED7D
:1011F000006AB8EEC77A27EE267A84ED017AD379B1
:101200001B021BB29279134307EE903AF8EEE77A8D
:1012100067EEA67AC4ED027AC2E7FB781B021BB226
:10122000B9780B4307EE903AF8EEE77A204991ED52
:10123000007A67EE877AC5ED007A7B791B021BB2D4
:101240003879034307EE903AF8EEE77A91ED007AA9
:1012500067EE877AC5ED017AFB791B021BB2B9797B
:101260000B4307EE903AF8EEE77A67EE277AC5ED82
:10127000027A397A7B7A5B0943EAC103B3F5806F5E
:1012800001DBA3F5006307EE903AF8EEE77AB4EEDF
:10129000007A67EE877AB3EE077A77EE877AC6ED43
:1012A000007A7DE740340120440A0020000000203D
:1012B00004000020F6EE007A60EE277A10EE103A75
:1012C000074AA2EB630307EE103A67EE277A67EE50
:1012D000277AB7EE080A30EE670A27EE000A704751
:1012E000DF59375F10B52DED068B0446B0EE409AFE
:1012F000F0EE609AB0EE418AF0EE618AB0EE42AA5A
:10130000F0EE62AAF5EE401AF1EE10FA0AD1B5EE4F
:10131000402AF1EE10FA05D1F5EE402AF1EE10FA6E
:1013200000F0938068EEA87A2AEE0A0A77EE807AB7
:101330002AEEAA0A37EE800AFFF7BCFF68EE808A21
:101340002AEE00AA6AEE80AAD4ED011A94ED037A7F
:1013500021EE872AD4ED007AD4ED026A27EEA66A40
:1013600032EE462A61EEA71A67EE266A71EEA61AD9
:1013700067EEA77AF6EE006A77EEE67A27EE077A4E
:1013800077EE877A2AEE275A2AEEA17A35EE475A67
:101390006AEE82AA68EEA77A7AEEE7AA68EEA18AD8
:1013A0002AEE02AA78EECA8A614BD3ED007AF5EEF6
:1013B000C07AF1EE10FA40F3B38093ED006A26EEA6
:1013C000056ADFED5C5A26EE256A5B49D1ED006ABD
:1013D00036EE866A81ED006A93ED006A26EE2A6A8F
:1013E00026EE256A554AD2ED006A36EE866A82ED0F
:1013F000006AD3ED006A66EEA86A66EEA56A504BF5
:1014000093ED006A76EE266AC3ED006AD1ED007AAC
:1014100039EE279AD2ED007A79EEA79AD3ED007AC9
:1014200038EE278A474B93ED007A27EE057A39EE9E
:10143000079A93ED007A67EE2AAA79EEAA9AD3ED7D
:10144000007A67EEA88A38EE288A9FED3F1A29EEC7
:10145000010A69EE810A28EE011AD4ED006A94EDC2
:10146000017AD4ED027A27EE409A20EEA76A39EE8F
:10147000469AD4ED039A29EE816A39EE469A39EEFE
:10148000269A84ED009A60EE268A21EE276A78EE8D
:10149000868A29EEA06A78EEC68A78EE878AC4ED3D
:1014A000018A20EEA68A21EE076A38EE468A29EEE6
:1014B000806A38EE068A38EE278A84ED028A21EEA9
:1014C000261A60EE870A31EE201A20EE270A31EE46
:1014D000401A79EE819AC4ED039A69EE097A28EEF2
:1014E000A80A77EE807A28EE080A77EE807A29EE4D
:1014F000A90A37EE800AFFF7DDFE29EE009A84ED97
:10150000009A68EE808AC4ED018A28EE008A84ED94
:10151000028A29EE801A84ED031ABDEC068B10BDF9
:101520000023054A1360054A1360054A136079E7F2
:101530005C0A00206F12833A500A0020540A0020EF
:10154000580A0020080000206F12033A10B52DED54
:10155000108B86B00446B0EE40AAF0EE60AAB0EE62
:10156000418AF0EE618AB0EE42BAB0EE62CAB0EEE5
:10157000439AF0EE63BAF0EE449AB5EE403AF1EEDB
:1015800010FA0AD1F5EE403AF1EE10FA05D1B5EEB7
:10159000404AF1EE10FA00F0B181F5EE408AF1EE2A
:1015A00010FA0AD1B5EE40BAF1EE10FA05D1B5EE57
:1015B00040CAF1EE10FA00F0358168EEA87A2BEE01
:1015C0000B0A77EE807A2CEE0C0A37EE800AFFF7D2
:1015D00071FE68EE806ACDED026A6BEE005ACDEDC9
:1015E000035A2CEE005A8DED045A69EE097A2BEE5F
:1015F000AB0A77EE807A29EEA90A37EE800AFFF768
:1016000059FE29EE009A6BEE80BA69EE809AD4ED0D
:10161000007A27EEA77A8DED057A94ED01BA27EED0
:101620008BFAD4ED028A67EEA8FA94ED03DA67EE3E
:101630008D7A6BEE0BCA6BEE286A2BEE0DBA68EE54
:10164000A8EA68EE8D8A2DEE0DDAB6EE00EA3EEEDF
:101650006ECA3CEE4DCA2CEE097A76EEE7DA2DEE34
:10166000AB6A37EE067A3FEE8B6A8DED016A26EEA5
:10167000296A37EE067A37EE077A77EEA67A67EEB2
:10168000897A7EEE6CCA7CEECD6A66EEAB6A77EE46
:10169000A67A78EECF6A66EEA96A77EEA67A77EE3A
:1016A000A77A27EE077A67EEA77A77EE277A17EE02
:1016B000900AFEF709FF41EC100B0CF08FF951EC8A
:1016C000100BFFF709F807EE100A3BEE6FBA6BEE4E
:1016D000097A7FEE288A68EEAB6A77EEA67A7CEE0E
:1016E000EECA6CEEA9EA77EEAE7A77EEA77ADDED78
:1016F000054A34EECEEA3EEE0DDA2CEE07CA6BEE6A
:10170000276A3CEE26CA6DEE87DA68EEA76A7DEEA0
:10171000A6DA9DED016A26EE077A6CEEA77A77EEDF
:10172000277ADDED035A65EE8D6A9DED045A28EEA9
:10173000857A76EEC76A2BEEA77A29EEAD6A37EE88
:10174000467A36EE877A6BEE052ADDED026A26EEE2
:101750008DDA32EECDDA69EE8C9A69EE277A79EE7F
:10176000E79A3DEE29DA68EEA68A2BEE25BA78EEE6
:10177000CB8A29EE2D9A6BEE8CBA39EE6B9A78EE05
:10178000898A644BD3ED007AF5EEC07AF1EE10FA57
:1017900040F3B780D3ED006A66EE876A9FED5E6A1C
:1017A00066EE866A5D49D1ED007A77EEA66AC1EDF4
:1017B000006AD3ED006A66EE8D6A66EE866A584A64
:1017C000D2ED007A77EEA66AC2ED006AD3ED007A18
:1017D00067EEA87A67EE867A524BD3ED006A76EE12
:1017E000A77AC3ED007AD1ED007A3AEE27AAD2EDBE
:1017F000007A7AEEA7AAD3ED007A38EE278A4A4B10
:10180000D3ED007A67EE877A3AEE27AAD3ED009AF5
:1018100069EE8D9A7AEEA9AA93ED009A69EE288A6C
:1018200038EE288A9FED411A2AEE01AA6AEE81AAB3
:1018300028EE018A94ED001AD4ED010A94ED020A13
:1018400060EECA9A6AEE807A79EEE79AD4ED037A6E
:1018500027EE887A79EEC79A79EE819AC4ED009ADC
:101860002AEE019A28EE007A39EE079A27EEAA7A34
:1018700039EE479A39EE209A84ED019A6AEE818A10
:1018800028EE207A78EEC78A27EE8A7A78EE878A61
:1018900078EE808AC4ED028A28EE018A6AEEA0AA58
:1018A00038EE2A8A2AEE00AA38EE4A8A37EE888A6B
:1018B00084ED038A69EEA97A29EE090A77EE807A27
:1018C00028EEA80A77EE807A28EE080A37EE800A1A
:1018D000FFF7F0FC69EE809AC4ED009A29EE009AB9
:1018E00084ED019A68EE808AC4ED028A28EE008AAF
:1018F00084ED038A06B0BDEC108B10BDFFF7F2FC3F
:10190000F8E70023054A1360054A1360054A13608F
:1019100075E700BF5C0A00206F12833A500A00206E
:10192000540A0020580A0020080000206F12033AD1
:1019300008B50C480C4B036003234360002383600D
:10194000C3604FF4302202614361037643768376AD
:10195000C3760377437700F06FFD00B908BD00F050
:10196000F7F8FBE7600A00200064004010B588B07B
:101970000023039304930593069307930268194B7E
:101980009A4201D008B010BD0024019403F5EA3357
:101990001A6C42F000721A641A6C02F00072019222
:1019A000019A02941A6B42F001021A631B6B03F056
:1019B00001030293029B4FF4C05303930223049349
:1019C000032306930923079303A9074801F0EEFABE
:1019D00022460521142001F099F8142001F0CEF8D8
:1019E000D0E700BF006400400000024000B583B0B3
:1019F00000220192094B196B41F4001119631B6B12
:101A000003F400130193019B0521102001F07EF8DF
:101A1000102001F0B3F803B05DF804FB0038024079
:101A2000034B0360034B0B6080231360704700BFC0
:101A3000880C0020880A00202DE9F0418AB000249B
:101A4000059406940794089409940094364B1A6BF5
:101A500042F080021A631A6B02F080020092009A30
:101A600001941A6B42F001021A631A6B02F0010230
:101A70000192019A02941A6B42F004021A631A6BE3
:101A800002F004020292029A03941A6B42F00202DC
:101A90001A631A6B02F002020392039A04941A6BFF
:101AA00042F010021A631B6B03F010030493049BB3
:101AB000DFF8808022462021404601F070FB1B4F5A
:101AC00022464FF4C071384601F069FB184D22469A
:101AD000D021284601F063FB2023059301260696BA
:101AE0000794089405A9404601F060FA072305937E
:101AF0000694079405A9284601F058FA4FF4C073DC
:101B0000059306960794089405A9384601F04EFA05
:101B1000D023059306960794089405A9284601F05A
:101B200045FA0AB0BDE8F0810038024000100240DA
:101B3000000402400008024008B50268034B9A42C4
:101B400000D008BD00F052FCFBE700BF00100040D1
:101B500072B6FEE700B595B03022002108A805F066
:101B6000FBFF0023039304930593069307930193CC
:101B7000204A116C41F080511164126C02F08052C5
:101B80000192019A02931C4B1A6842F480421A6037
:101B90001B6803F480430293029B012308934FF4D4
:101BA0008033099302230E934FF480020F92082290
:101BB0001092E022119212930423139308A801F0CB
:101BC000FDFA98B90F23039302230493002305938E
:101BD0004FF4A05306934FF480530793052103A8B5
:101BE00001F03AFD20B915B05DF804FBFFF7B0FF36
:101BF000FFF7AEFF003802400070004070B582B0C1
:101C000000F0DAFBFFF7A6FFFFF716FFFFF7EEFE87
:101C1000FFF78EFE00F0D0F800F0ECF800F008F9C5
:101C200000F008FB00F020FB00F0BCFA012280214C
:101C30001E4801F0B4FA1E4801F0C2FF05F076F923
:101C400005F092F91B4E1C4D08223146284602F041
:101C50008BFB1A4C08223146204602F085FB2846B1
:101C600000F03AF8204600F037F8002401940125EE
:101C7000009523464FF480621149124803F001FB9E
:101C80000194009523464FF480620F490F4803F0FA
:101C9000F8FA0194009523464FF480620C490D48F0
:101CA00003F0EFFA03F022FBFEE700BF000402405E
:101CB000C812002008110020101300205413002027
:101CC00088E10008797500088CE100085D7500085E
:101CD00094E100080174000808B5054B1860054B35
:101CE0001868002302221946806806F011F808BD22
:101CF0001011002078000020022801D80020704731
:101D000008B505F047FC092303604FF0FF3008BD1C
:101D1000022801D80120704708B505F03BFC0923D3
:101D20000360002008BD000010B5013801280AD862
:101D300014464FF0FF3392B20748006802F019FAD8
:101D400040B9204610BD05F025FC092303604FF083
:101D5000FF30F7E70520F5E71011002008B505F082
:101D600019FC092303604FF0FF3008BD08B548B9DE
:101D70004FF0FF3301220848006802F066FA40B9CC
:101D8000012008BD05F006FC092303604FF0FF3079
:101D9000F7E70520F5E700BF1011002008B502287D
:101DA00004D84FF400534B60002008BD05F0F2FB4F
:101DB00009230360F8E7000008B50C480C4B0360EA
:101DC0004FF48273436000238360C3600361436107
:101DD0008361C3610362436283620A23C36201F0C9
:101DE000CDFD00B908BDFFF7B3FEFBE7741100207D
:101DF0000030014008B50C480C4B03604FF482736F
:101E0000436000238360C360036143618361C361F6
:101E10000362436283620A23C36201F0AFFD00B92B
:101E200008BDFFF795FEFBE7CC110020003800400D
:101E300008B50D480D4B03604FF4827343600023D7
:101E40008360C360036143614FF480228261C36198
:101E50000362436283620A23C36201F08FFD00B90B
:101E600008BDFFF775FEFBE724120020003C004090
:101E70002DE9F0418CB000230793089309930A934E
:101E80000B930368534A934209D00446524A934243
:101E900028D0524A934249D00CB0BDE8F0810021CD
:101EA00000914F4B5A6C42F480525A645A6C02F4BF
:101EB00080520092009A01911A6B42F001021A635B
:101EC0001B6B03F001030193019BF0230793022393
:101ED000089303230A9305230B9307A9414801F0B4
:101EE00065F8D9E7002102913D4B1A6C42F480421B
:101EF0001A641A6C02F480420292029A03911A6BDD
:101F000042F002021A631B6B03F002030393039B6C
:101F10004FF4704307930223089303230A93052386
:101F20000B9307A9304801F041F8B5E70025049567
:101F30002B4B1A6C42F400421A641A6C02F40042F1
:101F40000492049A05951A6B42F001021A631A6B07
:101F500002F001020592059A06951A6B42F0020200
:101F60001A631B6B03F002030693069B4FF40043B6
:101F700007934FF00208CDF8208003270A97062622
:101F80000B9607A9174801F011F828230793CDF8FD
:101F9000208009950A970B9607A9134801F006F8C7
:101FA0001248134B0360456040238360C5604FF4C3
:101FB0008063036145618561C5610562456200F02A
:101FC0006BFE18B9094BA3649C6365E7FFF7C0FD7E
:101FD000F8E700BF0030014000380040003C0040FE
:101FE00000380240000002400004024014110020AA
:101FF0008860024000B583B0002200920D4B596CFE
:1020000041F480415964596C01F480410091009978
:102010000192196C41F0805119641B6C03F08053DC
:102020000193019B0F216FF0010000F06FFD03B0E1
:102030005DF804FB0038024030B589B00446002347
:102040000193214B1A6C42F010021A641B6C03F0CE
:1020500010030193019B02A903A801F0D3FB069B87
:10206000CBB901F0AFFB03461848A0FB03239B0C40
:10207000013B1748174A026040F2E732C2604360F2
:10208000002303618360836101F004FF054630B1E2
:10209000284609B030BD01F095FB4300E4E70C4849
:1020A00001F08EFD05460028F2D1362000F066FDD5
:1020B0000F2C01D90125EBE700222146362000F044
:1020C00025FD054B1C60E3E70038024083DE1B431F
:1020D0007C1200200010004014000020FEE7FEE704
:1020E000FEE7FEE7FEE7704708B5024800F070FE25
:1020F00008BD00BF1411002008B5024800F0CFFB56
:1021000008BD00BF600A002008B5024801F0A0FD2C
:1021100008BD00BF7C12002008B5024801F098FD00
:1021200008BD00BFC81200200120704708B505F0A7
:1021300031FA162303604FF0FF3008BD08B54FF0A9
:10214000FF31FFF7F3FFFEE710B503460C4A0D49D8
:102150000D48006840B10C4800680344521A93428D
:1021600006D8094A136010BD0748084C0460F2E71E
:1021700005F010FA0C2303604FF0FF30F3E700BFC7
:102180000000022000040000C4120020D8420120F8
:10219000034AD2F8883043F47003C2F8883070479D
:1021A00000ED00E000B583B00023009301930F48D9
:1021B0000F4A0260A7224260836040F2E732C260A9
:1021C000836101F067FE50B90023009301936946D3
:1021D000064801F08BFE28B903B05DF804FBFFF759
:1021E000B7FCF1E7FFF7B4FCF6E700BFC812002028
:1021F0000014004002680E4B9A4200D0704700B5B0
:1022000083B00022019203F50933196C41F02001DB
:1022100019641B6C03F020030193019B05213720F7
:1022200000F074FC372000F0A9FC03B05DF804FB5B
:102230000014004008B50A480A4B03604FF4E1332C
:10224000436000238360C36003610C2242618361A9
:10225000C36101F05FFF00B908BDFFF779FCFBE740
:10226000101300200044004008B50A480A4B0360E0
:102270004FF4E133436000238360C36003610C22A9
:1022800042618361C36101F045FF00B908BDFFF7FA
:102290005FFCFBE7541300200048004000B58BB002
:1022A0000023059306930793089309930368284A2C
:1022B000934205D0274A934225D00BB05DF804FB2A
:1022C00000210191244B1A6C42F400321A641A6CFA
:1022D00002F400320192019A02911A6B42F001025B
:1022E0001A631B6B03F001030293029B0C230593FB
:1022F00002230693032308930723099305A917488C
:1023000000F054FED9E700210391134B1A6C42F4FC
:1023100080221A641A6C02F480220392039A0491B8
:102320001A6B42F002021A631B6B03F00203049360
:10233000049B4FF440630593022306930323089301
:102340000723099305A9064800F030FEB5E700BF52
:1023500000440040004800400038024000000240B5
:1023600000040240DFF834D00D480E490E4A002325
:1023700002E0D458C4500433C4188C42F9D30B4A39
:102380000B4C002301E013600432A242FBD3FFF7A1
:10239000FFFE05F005F9FFF731FC70470000022051
:1023A00000000020280A002010EC0008280A002065
:1023B000D4420120FEE7000008B50B4B1A6842F436
:1023C00000721A601A6842F480621A601A6842F455
:1023D00080721A60032000F087FB0F20FFF72CFEAD
:1023E000FFF708FE002008BD003C0240034A1168C8
:1023F000034B1B780B441360704700BF98130020F9
:1024000010000020014B1868704700BF981300208F
:1024100038B50446FFF7F6FF0546B4F1FF3F02D09A
:10242000044B1B781C44FFF7EDFF401BA042FAD37E
:1024300038BD00BF10000020002800F0A18038B592
:10244000044690F82030D3B12268136843F00103AA
:102450001360FFF7D7FF054623685A6812F0010F93
:1024600010D1FFF7CFFF401B0A28F5D9636A43F468
:1024700000336362052384F82030012038BDFFF764
:1024800075FAE1E71A6822F002021A60FFF7BAFF54
:10249000054623685A6812F0020F0DD0FFF7B2FF0D
:1024A000401B0A28F5D9636A43F4003363620523AD
:1024B00084F820300120E1E7227E012A3DD01A680D
:1024C00022F080021A60637E012B3BD022681368E1
:1024D00023F040031360A37E012B39D022681368D8
:1024E00023F020031360E37E012B37D022681368AA
:1024F00043F010031360237F012B35D0226813684B
:1025000023F008031360637F012B33D02268136824
:1025100023F004031360A368E268134322691343A2
:10252000626913436268013A21681343CB6100205A
:102530006062012384F82030A0E71A6842F080022C
:102540001A60C0E72268136843F040031360C2E7D3
:102550002268136843F020031360C4E722681368FD
:1025600023F010031360C6E72268136843F00803E2
:102570001360C8E72268136843F004031360CAE7D6
:102580000120704790F82030013BDBB2012B05D9C8
:10259000436A43F4802343620120704730B5464BC1
:1025A000D3F8002242F00102C3F80022D3F800223F
:1025B00022F47C52C3F80022D3F80022486A42EA8F
:1025C0000022C3F800224A6902F01F02012000FA2B
:1025D00002F2D3F81C026FEA020C20EA0200C3F8F0
:1025E0001C02CB69C3B9344BD3F80C020CEA0000CF
:1025F000C3F80C028C884869CD6844EA0544483029
:1026000043F830408C68088840EA04404C6904F183
:10261000480E03EBCE035860CB69012B1ED08B69AB
:10262000002B33D12448D0F804320CEA0303C0F85D
:1026300004320B698BBB2048D0F814320CEA030338
:10264000C0F814320B6A012B2ED01B4AD2F800328C
:1026500023F00103C2F80032002030BD164BD3F83E
:102660000C021043C3F80C028C8848690D6844EAD8
:102670000544483043F8304088894C698D6840EA09
:102680000540483403EBC4035860C8E70A48D0F853
:1026900004321343C0F80432CBE70748D0F81432B1
:1026A0001343C0F81432CDE70349D1F81C321A4362
:1026B000C1F81C22C9E700BF0064004070B50446A1
:1026C00090F82050EDB2012D06D0436A43F4002368
:1026D00043620125284670BD022380F8203002683D
:1026E000136823F001031360FFF78CFE064623688E
:1026F0005B6813F0010F0CD0FFF784FE831B0A2BDD
:10270000F5D9636A43F400336362052384F820300B
:10271000E0E700256562DDE790F820C00CF1FF3CA2
:102720005FFA8CFCBCF1010F00F2958030B451B916
:102730000468E46814F0030F10D1436A43F40013F3
:102740004362012077E00468246914F0030F05D187
:10275000436A43F40013436201206CE001F11B045F
:10276000240105682C5904F004049460002C64D101
:1027700001F11B04240105682C59640D14600468E0
:1027800001F11B0C4FEA0C1C54F80C4004F002043D
:10279000D46004686444646804F00F04146104683D
:1027A00064446468C4F307249461046864446468FE
:1027B000240C5461026802EB0112D2F8B8211A709D
:1027C000026802EB0112D2F8B821C2F307225A7054
:1027D000026802EB0112D2F8B821C2F307429A70E4
:1027E000026802EB0112D2F8B821120EDA70026808
:1027F00002EB0112D2F8BC211A71026802EB01123D
:10280000D2F8BC21C2F307225A71026802EB01120E
:10281000D2F8BC21C2F307429A71026802EB01129E
:10282000D2F8BC21120EDA7179B90268D36843F08C
:102830002003D360002030BC704701F11B04240149
:1028400005682C59E408546099E70268136943F05D
:1028500020031361EEE7436A43F4802343620120BF
:10286000704790F82030013BDBB2012B05D9436A59
:1028700043F480234362012070470268536919437F
:10288000516100207047704770477047704770472C
:1028900070477047704770477047704770472DE921
:1028A000F84F054603685C69D3F804809F68D3F845
:1028B0000CB0D3F810A0D3F8189014F001063BD058
:1028C00017F0010616D001229A6017F0020F08D106
:1028D00017F0040F0CD117F0080606D04FF48056FD
:1028E00008E0FFF7D0FF002604E0FFF7CFFF01E08C
:1028F0004FF4006617F4807F0DD02B684FF4807280
:102900009A6017F4007F40F0868017F4806F00F023
:10291000868046F4005617F4803F0DD02B684FF4A4
:1029200080329A6017F4003F40F0838017F4802FC4
:1029300000F0838046F4004614F0080F07D01BF027
:10294000100F04D046F400762B681022DA6014F0E1
:10295000040F02D01BF0080F79D114F0020F04D03D
:102960002B68DB6813F0030F78D114F0400F07D009
:102970001AF0100F04D046F480662B6810221A61FA
:1029800014F0200F02D01AF0080F6BD114F0100FC2
:1029900004D02B681B6913F0030F6AD114F4003FB5
:1029A00002D018F0100F68D114F4803F02D018F054
:1029B000080F69D114F4004F7AD018F0040F74D0C6
:1029C00014F4807F04D019F0010F01D046F0010605
:1029D00014F4007F04D019F0020F01D046F0020673
:1029E00014F4806F04D019F0040F01D046F00406EF
:1029F00014F4006F59D019F0700956D0B9F1400F96
:102A000065D058D8B9F1200F5ED0B9F1300F42D15E
:102A100046F0200644E02846FFF736FF7BE717F430
:102A2000006F02D046F4804675E72846FFF72FFF77
:102A300071E72846FFF729FF7EE717F4002F02D041
:102A400046F4803678E72846FFF722FF74E72B68C4
:102A50000822DA602846FFF71CFF7EE7284604F0CC
:102A6000A3FA82E72B6808221A612846FFF713FFB2
:102A70008CE72846FFF70EFF90E72B6810225A607C
:102A80002846FFF709FF8FE72B6808225A6028467F
:102A9000FFF703FF8EE7B9F1100F01D146F00806EA
:102AA0002A68936923F0700393612B6804225A60AB
:102AB0009EB9BDE8F88FB9F1500F0BD0B9F1600F96
:102AC000EED146F48076EBE746F01006E8E746F0F4
:102AD0004006E5E746F08006E2E76B6A1E436E6259
:102AE0002846FFF7DBFEE4E7074AD36823F4E063F8
:102AF0001B041B0C000200F4E060034343F0BF63BF
:102B000043F40033D360704700ED00E000B5194B8B
:102B1000DB68C3F30223C3F1070CBCF1040F28BF29
:102B20004FF0040C03F1040EBEF1060F18D9033B5D
:102B30004FF0FF3E0EFA0CFC21EA0C0199400EFA10
:102B400003F322EA0303194300280BDB0901C9B28E
:102B500000F1604000F5614080F800135DF804FB6F
:102B60000023E5E700F00F000901C9B2024B195438
:102B7000F4E700BF00ED00E014ED00E0002807DB03
:102B800000F01F02400901239340024A42F820301E
:102B9000704700BF00E100E030B405682C6824F401
:102BA00080242C60046863608368402B05D0036830
:102BB00099600368DA6030BC704703689A60036804
:102BC000D960F8E710B40368D9B210390C4AA2FBF7
:102BD000014212090B4CA25CC2655F2909D923F49A
:102BE0007F7323F0030304338365806D5DF8044B2A
:102BF000704723F47F7323F003038365F5E700BF79
:102C0000ABAAAAAAB0E10008836A826992B9012B33
:102C10000AD0022B02D00BB100207047C36A13F018
:102C2000807F28D100207047C36AB3F1C07F24D0D1
:102C300000207047B2F5005F09D0022B25D9032B85
:102C400025D1C36A13F0807F23D100207047032B66
:102C500003D8DFE803F01404140A00207047C36AA5
:102C600013F0807F0DD100207047C36AB3F1C07F9D
:102C700009D00020704701207047012070470120D3
:102C800070470120704701207047012070470020E5
:102C9000704701207047000070B50446FFF7B2FB93
:102CA000002C5BD00546022384F83530002384F8DD
:102CB00034302268136823F00103136023681A6814
:102CC00012F0010F0AD0FFF79DFB431B052BF5D92E
:102CD00020236365032084F8350070BD1A682048FE
:102CE00010406168A2680A43E1680A4321690A4307
:102CF00061690A43A1690A43E1690A43216A0A43F7
:102D00000243616A04291ED01A602668756925F09D
:102D10000705636A1D43042B07D1A36A1D43E36AB9
:102D20001BB12046FFF770FF90B975612046FFF791
:102D300049FFE26D3F2393408360002060650123DB
:102D400084F83530C9E7E16A206B01430A43DBE7C9
:102D500040236365012084F83500BEE70120BCE70D
:102D60003F8010F038B50446856D90F83400012896
:102D70002BD0012084F8340094F83500C0B201282B
:102D800004D0002384F83430022038BD022084F8B7
:102D90003500002060652046FFF7FEFEE26D3F2310
:102DA0009340AB602268136843F016031360236CF2
:102DB00023B12268136843F0080313602268136884
:102DC00043F0010313600020DFE70220DDE700008D
:102DD000F0B583B0044600230193724B1D68724B1B
:102DE000A3FB0535AD0A876D3E68C26D082393408D
:102DF000334210D003681A6812F0040F0BD01A681F
:102E000022F004021A60C26D08239340BB60436D38
:102E100043F001034365E26D01239340334209D03F
:102E20002268526912F0800F04D0BB60636D43F0DA
:102E300002036365E26D04239340334209D02268A4
:102E4000126812F0020F04D0BB60636D43F00403FC
:102E50006365E26D10239340334224D022681268E8
:102E600012F0080F1FD0BB6023681A6812F4802F7D
:102E70000DD01B6813F4002F04D1236C9BB12046A6
:102E8000984710E0A36C73B1204698470BE01A688E
:102E900012F4807F03D11A6822F008021A60236CB2
:102EA0000BB120469847E26D20239340334255D022
:102EB0002268126812F0100F50D0BB6094F83530C1
:102EC000DBB2052B0ED023681A6812F4802F33D0A2
:102ED0001B6813F4002F2AD1636C002B3ED02046D0
:102EE00098473BE02268136823F0160313602268BA
:102EF000536923F080035361236CA3B122681368E4
:102F000023F008031360E26D3F239340BB6001236D
:102F100084F83530002384F83430236D002B3FD003
:102F2000204698473CE0A36C002BE7D1EBE7E36B2E
:102F3000A3B12046984711E01A6812F4807F09D1A6
:102F40001A6822F010021A60012384F83530002339
:102F500084F83430E36B0BB120469847636DFBB1C6
:102F6000636D13F0010F17D0052384F83530226804
:102F7000136823F001031360019B01330193AB42FB
:102F800004D823681B6813F0010FF5D1012384F8DE
:102F90003530002384F83430E36C0BB12046984779
:102FA00003B0F0BD0C000020B5814E1B00230F2B99
:102FB00000F2E48070B582B060E085685E000324B2
:102FC000B44025EA0405CC68B4402C4384604568CD
:102FD00025EA02054C68C4F300129A402A43426075
:102FE0005AE0DC08083450F8246003F0070295002A
:102FF0000F22AA4026EA020E0A69AA4042EA0E02FD
:1030000040F824205CE0072200E0002202FA0EF2E1
:103010002A4302345A4D45F824205A4A94686FEAEC
:103020000C0224EA0C054E6816F4801F01D04CEA0D
:103030000405544CA560E46802EA04054E6816F4E1
:10304000001F01D04CEA04054E4CE560646802EABA
:1030500004054E6816F4003F01D04CEA0405494CC3
:103060006560246822404D6815F4803F01D04CEA29
:103070000402444C226001330F2B7DD801229A4078
:103080000C6804EA020C32EA0404F4D14C6804F03F
:103090000304013C012C90D94A6802F00302032A80
:1030A00009D0C4685D000322AA4024EA02048A68A9
:1030B000AA402243C2604A6802F00302022A90D06A
:1030C00004684FEA430E032202FA0EF224EA0204D5
:1030D0004A6802F0030202FA0EF2224302604A68D2
:1030E00012F4403FC7D000220192274A546C44F4A6
:1030F00080445464526C02F480420192019A9C080C
:10310000A51C1F4A52F8255003F003024FEA820E15
:103110000F2202FA0EF225EA02051C4A90423FF401
:1031200074AF02F5806290421AD002F5806290423C
:1031300018D002F58062904216D002F5806290426B
:1031400014D002F58062904212D002F58062904263
:1031500010D002F5806290423FF455AF082255E747
:10316000012253E7022251E703224FE704224DE7F1
:1031700005224BE7062249E702B070BD704700BF49
:1031800000380140003C014000380240000002408D
:103190000369194201D001207047002070470AB12D
:1031A00081617047090481617047436901EA030244
:1031B00021EA030141EA024181617047002800F0E1
:1031C000E08170B582B00446036813F0010F3BD074
:1031D0009F4B9B6803F00C03042B2CD09C4B9B68EB
:1031E00003F00C03082B21D06368B3F5803F4FD068
:1031F000B3F5A02F52D0964B1A6822F480321A6091
:103200001A6822F480221A606368002B50D0FFF7FE
:10321000F9F805468E4B1B6813F4003F14D1FFF7F5
:10322000F1F8401B6428F5D90320B1E1884B5B68B5
:1032300013F4800FD8D0864B1B6813F4003F03D0E3
:103240006368002B00F09F81236813F0020F54D0B5
:103250007F4B9B6813F00C0F3ED07D4B9B6803F0B7
:103260000C03082B33D0E368002B68D0794B012284
:103270001A60FFF7C7F80546754B1B6813F0020F7D
:1032800054D1FFF7BFF8401B0228F5D903207FE196
:103290006F4A136843F480331360B5E76C4B1A68C8
:1032A00042F480221A601A6842F480321A60ABE756
:1032B000FFF7A8F80546664B1B6813F4003FC3D020
:1032C000FFF7A0F8401B6428F5D9032060E1604BAC
:1032D0005B6813F4800FC6D15D4B1B6813F0020FBF
:1032E00003D0E368012B40F05081594A136823F062
:1032F000F803216943EAC1031360236813F0080F40
:1033000042D063696BB3534B0122C3F8802EFFF7A1
:1033100079F805464E4B5B6F13F0020F34D1FFF77F
:1033200071F8401B0228F5D9032031E1484A13689F
:1033300023F0F803216943EAC1031360DDE7454B3D
:1033400000221A60FFF75EF80546414B1B6813F038
:10335000020FD2D0FFF756F8401B0228F5D9032000
:1033600016E13C4B0022C3F8802EFFF74BF80546D0
:10337000374B5B6F13F0020F06D0FFF743F8401B8B
:103380000228F5D9032003E1236813F0040F77D056
:103390002F4B1B6C13F0805F33D1002301932C4B18
:1033A0001A6C42F080521A641B6C03F08053019334
:1033B000019B0125284B1B6813F4807F23D0A36851
:1033C000012B34D0052B38D0214B1A6F22F001028B
:1033D0001A671A6F22F004021A67A368002B3DD007
:1033E000FFF710F806461A4B1B6F13F0020F46D179
:1033F000FFF708F8801B41F288339842F3D9032085
:10340000C6E00025D6E7144A136843F480731360BE
:10341000FEF7F8FF0646104B1B6813F4807FCED1F1
:10342000FEF7F0FF801B0228F5D90320B0E0084A20
:10343000136F43F001031367CFE7054B1A6F42F098
:1034400004021A671A6F42F001021A67C5E700BF4B
:10345000003802400000474200700040FEF7D2FFF3
:103460000646524B1B6F13F0020F08D0FEF7CAFF3F
:10347000801B41F288339842F3D9032088E0EDB9EC
:10348000A369002B00F08380484A926802F00C0286
:10349000082A51D0022B17D0454B00221A66FEF79E
:1034A000B1FF0446414B1B6813F0007F42D0FEF78A
:1034B000A9FF001B0228F5D9032069E03B4A136CE1
:1034C00023F080531364DBE7394B00221A66FEF7C2
:1034D00099FF0546354B1B6813F0007F06D0FEF7B9
:1034E00091FF401B0228F5D9032051E0E369226ACD
:1034F0001343626A43EA8213A26A5208013A43EA1A
:103500000243E26A43EA0263284A5360284B0122DD
:103510001A66FEF777FF0446244B1B6813F0007F02
:1035200006D1FEF76FFF001B0228F5D903202FE01C
:1035300000202DE000202BE0012B2BD01B4B5B68E3
:1035400003F48001E269914226D103F03F02216A2F
:103550008A4223D1616A47F6C0721A40B2EB811FDA
:103560001ED103F44031A26A5208013AB1EB024F76
:1035700018D103F07063E26AB3EB026F14D100203C
:1035800006E001207047012002E0012000E0002059
:1035900002B070BD0120FBE70120F9E70120F7E749
:1035A0000120F5E70120F3E70120F1E700380240B0
:1035B0000000474208B5254B9B6803F00C03042B21
:1035C0003FD0082B3FD1214B5A6802F03F025B6885
:1035D00013F4800F12D01D4B5968C1F388111C4899
:1035E0000023A1FB0001FDF7C7F8184B5B68C3F38C
:1035F000014301335B00B0FBF3F025E0134B596846
:10360000C1F3881C4FEA4C11B1EB0C006EEB0E0EAF
:103610004FEA8E1343EA90638101091A63EB0E03AC
:10362000DB0043EA5173C90011EB0C0C43F10003BA
:10363000990200234FEA8C2041EA9C51FDF79CF847
:10364000D3E7034800E0034808BD00BF003802404C
:10365000001BB7000024F400002800F09B8070B528
:103660000D4604464F4B1B6803F007038B4208D2FC
:10367000CBB24C4A1370136803F007038B4240F03F
:103680008B80236813F0020F17D013F0040F04D0BF
:10369000454A936843F4E0539360236813F0080F9E
:1036A00004D0414A936843F4604393603E4A936870
:1036B00023F0F003A1680B439360236813F0010F1C
:1036C00032D06368012B21D09A1E012A25D9364AAF
:1036D000126812F0020F61D033498A6822F00302A7
:1036E00013438B60FEF78EFE06462F4B9B6803F05C
:1036F0000C036268B3EB820F16D0FEF783FE801BCB
:1037000041F288339842F0D9032042E0264A1268F9
:1037100012F4003FE0D101203BE0234A126812F08E
:10372000007FD9D1012034E01E4B1B6803F0070352
:10373000AB4207D9EAB21B4B1A701B6803F00703B0
:10374000AB422DD1236813F0040F06D0164A9368BC
:1037500023F4E053E1680B439360236813F0080FF0
:1037600007D0114A936823F46043216943EAC103F7
:103770009360FFF71FFF0C4B9B68C3F303130B4AC7
:10378000D35CD8400A4B18600A4B1868FEF754FC0B
:10379000002070BD012070470120FAE70120F8E702
:1037A0000120F6E7003C02400038024098E10008A2
:1037B0000C00002014000020014B1868704700BF67
:1037C0000C00002008B5FFF7F7FF044B9B68C3F31C
:1037D0008223034AD35CD84008BD00BF00380240B2
:1037E000A8E1000808B5FFF7E7FF044B9B68C3F3A7
:1037F0004233034AD35CD84008BD00BF00380240C2
:10380000A8E100080F2303600B4B9A6802F0030243
:1038100042609A6802F0F00282609A6802F4E05214
:10382000C2609B68DB0803F4E0530361034B1B6831
:1038300003F007030B60704700380240003C024071
:103840002DE9F04782B00546884617461E46FEF72A
:10385000D9FD0A9B1B1A03EB0609FEF7D3FD82462E
:103860002B4B1B68C3F3CB3309FB03F301932B688A
:103870009C6838EA04030CBF4FF0010C4FF0000CB9
:10388000BC4540D0B6F1FF3FF1D0FEF7BBFDA0EB49
:103890000A0048450AD2B9F1000F07D0019A02B1D7
:1038A0004A46019B013B01939146E0E72A68536831
:1038B00023F0E00353606B68B3F5827F0BD0AB6AF3
:1038C000B3F5005F14D0012385F85130002385F84B
:1038D0005030032018E0AB68B3F5004F02D0B3F5C9
:1038E000806FECD12A68136823F040031360E6E789
:1038F0002A68136823F4005313602A68136843F49A
:1039000000531360DFE7002002B0BDE8F08700BF7E
:103910000C00002010B584B00446164B1868164BF6
:10392000A3FB0030400D4FF47A7303FB00F00390CB
:103930006368B3F5827F0BD0039BBBB1039B013B54
:10394000039323689B6813F0800FF5D100200EE0ED
:1039500000920B46002280212046FFF771FF30B114
:10396000636D43F020036365032000E0002004B092
:1039700010BD00BF0C000020819F5E1600285AD0A9
:1039800010B50446436A33B94368B3F5827F05D066
:103990000023C36102E00023036143610023A362AB
:1039A00094F85130002B40D0022384F85130226823
:1039B000136823F040031360636803F48273A26802
:1039C00002F404421343E26802F4006213432269E2
:1039D00002F002021343626902F001021343A2697A
:1039E00002F400721343E26902F038021343226AC0
:1039F00002F080021343A26A02F4005221681343CA
:103A00000B60638B03F00403626A02F0100221680A
:103A100013434B602268D36923F40063D361002011
:103A20006065012384F8513010BD84F85030204681
:103A3000FEF71EFAB8E701207047000038B590F88D
:103A40005030012B61D00446012380F8503090F8AB
:103A50005150EDB29D4252D1002951D0002A4FD091
:103A6000032380F851300023436501638286C286B8
:103A70008363436403648387C3878368B3F5004F1C
:103A80002AD0A36C224A1A64A36C224ADA63A36C7C
:103A9000214ADA64A36C00221A652268E38E9BB285
:103AA0000C32216BA06CFFF75DF90146F8B9236871
:103AB0001A6812F0400F03D11A6842F040021A60EF
:103AC0002268536843F0200353602268536843F030
:103AD000020353600D4613E00268136823F04003AD
:103AE00013600268136843F480431360C9E7636D91
:103AF00043F010036365012384F8513000E0022590
:103B0000002384F85030284638BD0225FBE700BF6B
:103B1000213B00084F3B00082D3B000870477047D1
:103B200008B5806BFFF7FBFF08BD704708B5806BD9
:103B30000268536823F003035360436D43F010039E
:103B40004365012380F85130FFF7EFFF08BD30B522
:103B500083B00546846BFEF755FC2B681B6813F495
:103B6000807F23D1024621684B6823F020034B60FD
:103B700021684B6823F002034B6064212046FFF765
:103B8000C9FE18B1636D43F020036365A36833B9C0
:103B900001932368DA6801929B680193019B0023DB
:103BA000E386012384F85130636D23B92046FFF783
:103BB000B5FF03B030BD2046FFF7B7FFF9E70000BF
:103BC00090F83D30DBB2012B37D1022380F83D3035
:103BD0000268D36843F00103D3600368194A934233
:103BE00020D0B3F1804F1DD0A2F57C42934219D072
:103BF00002F58062934215D002F58062934211D0A3
:103C000002F5784293420DD002F57052934209D0EA
:103C1000A2F59432934205D01A6842F001021A606C
:103C2000002070479A6802F00702062A07D01A6837
:103C300042F001021A600020704701207047002006
:103C4000704700BF000001407047704770477047E1
:103C500010B5044603681A6912F0020F11D0DA6831
:103C600012F0020F0DD06FF002021A6101230377E8
:103C700003689B6913F0030F70D0FFF7E6FF002382
:103C8000237723681A6912F0040F12D0DA6812F051
:103C9000040F0ED06FF004021A6102232377236809
:103CA0009B6913F4407F5FD02046FFF7CEFF0023CF
:103CB000237723681A6912F0080F12D0DA6812F01D
:103CC000080F0ED06FF008021A61042323772368CF
:103CD000DB6913F0030F4ED02046FFF7B6FF002339
:103CE000237723681A6912F0100F12D0DA6812F0E5
:103CF000100F0ED06FF010021A610823237723688B
:103D0000DB6913F4407F3DD02046FFF79EFF002380
:103D1000237723681A6912F0010F03D0DA6812F0D2
:103D2000010F36D123681A6912F0800F03D0DA68C8
:103D300012F0800F34D123681A6912F0400F03D0BB
:103D4000DA6812F0400F32D123681A6912F0200F9E
:103D500003D0DA6812F0200F30D110BDFFF774FFE6
:103D60002046FFF773FF8AE72046FFF76DFF2046E6
:103D7000FFF76CFF9BE72046FFF766FF2046FFF743
:103D800065FFACE72046FFF75FFF2046FFF75EFFC9
:103D9000BDE76FF001021A612046FDF7CDFEC1E7D5
:103DA0006FF080021A61204600F0E7F8C3E76FF079
:103DB00040021A612046FFF74AFFC5E76FF0200274
:103DC0001A61204600F0D8F8C7E700000368304ABF
:103DD000904212D0B0F1804F0FD0A2F57C429042B9
:103DE0000BD002F58062904207D002F580629042CB
:103DF00003D002F57842904203D123F070034A6861
:103E00001343234A90422AD0B0F1804F27D0A2F525
:103E10007C42904223D002F5806290421FD002F58E
:103E2000806290421BD002F57842904217D002F592
:103E30007052904213D002F5806290420FD002F58A
:103E4000806290420BD0A2F59832904207D002F5E2
:103E50008062904203D002F58062904203D123F445
:103E60004073CA68134323F080034A691343036015
:103E70008B68C3620B688362054B984203D003F5DD
:103E80008063984201D10B6903630123436170474A
:103E90000000014040B310B5044690F83D30F3B146
:103EA000022384F83D30214651F8040BFFF78EFFC2
:103EB000012384F8463084F83E3084F83F3084F89B
:103EC000403084F8413084F8423084F8433084F83C
:103ED000443084F8453084F83D30002010BD80F82F
:103EE0003C30FEF787F9DBE70120704790F83C3063
:103EF000012B3DD010B4012380F83C30022380F820
:103F00003D3003685A689C6822F0700C0A6842EAE7
:103F10000C025A600368174A93421AD0B3F1804FDB
:103F200017D0A2F57C42934213D002F580629342EF
:103F30000FD002F5806293420BD002F57842934293
:103F400007D002F57052934203D0A2F59432934207
:103F500004D124F080044A6814439C60012380F853
:103F60003D30002380F83C3018465DF8044B704724
:103F700002207047000001407047704738B5044682
:103F80000268136923F44053C1680B4313618368CB
:103F90000269134342691343C2691A430168CB683B
:103FA00023F4164323F00C031343CB6002685369D8
:103FB00023F4407381690B4353610368314A934290
:103FC00006D002F58062934202D0FFF7FBFB01E0CE
:103FD000FFF708FCE369B3F5004F29D0002103186F
:103FE00049411B1841F10001C90041EA5371DB004E
:103FF000181863684FEA83024FEA937341F1000196
:10400000FCF7BAFB204DA5FB00325109642303FBEA
:1040100011031B013233A5FB03235B0903F0F002FC
:1040200002EB011203F00F03216813448B6038BDCB
:104030000023021843EB0301121841F10001C900EB
:1040400041EA5271D200101841F1000162689218E1
:104050005B41FCF791FB0C4DA5FB00325109642339
:1040600003FB1103DB003233A5FB03235B095A007A
:1040700002F4F87202EB011203F007032168134403
:104080008B60D4E7001001401F85EB512DE9F84308
:1040900005460F4616469946DDF820802C682468B0
:1040A00037EA04030CBF4FF0010C4FF0000CB4458D
:1040B0002DD1B8F1FF3FF1D0B8F1000F05D0FEF7D8
:1040C000A1F9A0EB09004045E8D92A6802F10C03E8
:1040D00053E8003F23F4D0730C3242E8003100294A
:1040E000F3D12A6802F1140353E8003F23F00103DF
:1040F000143242E800310029F3D1202385F83D3005
:1041000085F83E30002385F83C30032000E0002095
:10411000BDE8F88358B310B5044690F83D300BB3B2
:10412000242384F83D302268D36823F40053D360FD
:104130002046FFF723FF2268136923F4904313619D
:104140002268536923F02A0353612268D36843F439
:104150000053D36000202064202384F83D3084F88D
:104160003E3010BD80F83C30FEF798F8D8E70120CB
:1041700070472DE9F04182B01E4690F83D30DBB229
:10418000202B54D104460D469046002953D0002AD6
:1041900053D090F83C30012B51D0012380F83C30B3
:1041A00000230364212380F83D30FEF72BF90746F6
:1041B000A4F82480A4F82680A368B3F5805F05D016
:1041C0004FF00008002384F83C3012E0236913B15B
:1041D0004FF00008F6E7A8460025F3E738F8023B61
:1041E0002268C3F308035360E28C92B2013A92B2A0
:1041F000E284E38C9BB273B100963B46002280219F
:104200002046FFF743FFE0B9002DE7D015F8012B5A
:1042100023685A60E8E700963B460022402120468A
:10422000FFF734FF78B9202384F83D3000E0022006
:1042300002B0BDE8F0810120FAE70120F8E7022092
:10424000F6E70320F4E70320F2E72DE9F04182B01E
:104250001E4690F83E30DBB2202B5CD104460D4662
:10426000904600295BD0002A5BD090F83C30012BAF
:1042700059D0012380F83C3000230364222280F8C7
:104280003E200363FEF7BEF80746A4F82C80A4F88E
:104290002E80A368B3F5805F05D04FF0000800239F
:1042A00084F83C3017E0236913B14FF00008F6E7BB
:1042B000A8460025F3E723685B68C3F3080328F8E2
:1042C000023B03E023685B682B700135E28D92B2FC
:1042D000013A92B2E285E38D9BB2BBB100963B46B8
:1042E000002220212046FFF7D1FEF0B9002DE2D0B8
:1042F000A368B3F5805FE5D013B92369002BE1D043
:1043000023685B6803F07F032B70DEE7202384F8CB
:104310003E30002000E0022002B0BDE8F081012024
:10432000FAE70120F8E70220F6E70320F4E78162CC
:104330008285C28500230364222280F83E2080F813
:104340003C30036923B10268D36843F48073D360BF
:104350000268536943F0010353610268D36843F074
:104360002003D3600020704708B590F83E30DBB2E0
:10437000202B0DD171B17AB190F83C30012B0DD0CA
:10438000012380F83C3000230363FFF7D0FF00E0F7
:10439000022008BD0120FCE70120FAE70220F8E72F
:1043A00008B54FF4204202490248FFF747FB08BD19
:1043B0009C130020241200202DE9F0411C46069D8C
:1043C000A2F1200303EB4303204A02EB83034FF0E7
:1043D000000E34E001EB0E0C00EBCC1C94444FEAD1
:1043E0004C06C5F307281A4F07F81C8001365FFA00
:1043F00085FC07F806C00132D2B2052A1AD893F814
:1044000000C0C2F107064CFA06FC1CF0010FE1D017
:1044100001EB0E0C00EBCC1C94444FEA4C06C4F3A9
:104420000727DFF82C8008F81C700136E7B208F87F
:104430000670E0E701330EF1010E5FFA8EFEBEF169
:104440000B0F01D80022D8E7BDE8F081B8E10008E1
:104450009C1300202DE9F0418CB005468846174694
:104460001E4612AB53F8042B0024049405940694C2
:104470000794089409940A940B940393202104A8A8
:1044800003F07CFD09E000963B4641462846FFF7D5
:1044900093FF0635EDB20134E4B204F130036B440E
:1044A00013F8202C002AEED10CB0BDE8F0810000FA
:1044B000844600230BE05A004FEA1C21064800F80E
:1044C000131001325FFA8CF1815401339BB2B3F5C2
:1044D000A04FF0D3704700BF9C13002008B501F037
:1044E00005FA042001F0A8F94FF6FF70FFF7E0FF8E
:1044F0009F237F220021084601F070F94FF42042EB
:1045000002490348FFF79AFA08BD00BF9C13002038
:10451000241200204FF0000C944515D270B500EB2A
:10452000C11EE6444FEA4E041D0A084E06F81E500E
:1045300004F1010EDCB206F80E400CF1010C5FFA3A
:104540008CFC9445EBD370BD704700BF9C130020DA
:104550004FF0000C944516D270B501EB0C0E00EB39
:10456000CE1E4FEA4E041D0A074E06F81E5004F1F7
:10457000010EDCB206F80E400CF1010C5FFA8CFC67
:104580009445EAD370BD70479C1300202DE9F84391
:1045900006460F4615469846BDF820409DF824E093
:1045A000BEF1000F1BD1704615E007EB000C06EBC7
:1045B000CC1C9C444FEA4C02210ADFF8609009F8B9
:1045C0001C100132E1B209F802100133DBB2AB4238
:1045D000EBD30130C0B240451DD27346F7E7234606
:1045E000FFF798FF2346424639463046FFF7B0FFB3
:1045F00007EB0801C9B2013923462A46C9B2304641
:10460000FFF788FF7019C0B2013823464246394689
:10461000C0B2FFF79DFFBDE8F88300BF9C130020E8
:1046200010B4002404618480C480017042708370DF
:104630009DF80430C370029B83605DF8044B7047A3
:104640002DE9F04782B004460D46067887788068E9
:10465000FCF7B6FA00EB4000A7EB4003C3F34703B7
:1046600033445FFA83F86178E378A3F10C0202EB3C
:10467000D272C2F347020A445FFA82F91DB3012DD8
:104680001ED1002501954FF2197ACDF800A03A46C7
:104690003046FFF77BFF0123019349F6A0230093E7
:1046A000E378A27861782078FFF770FFA368019320
:1046B000154B009353462A4649464046FFF7CAFE2B
:1046C00002B0BDE8F087002501954EF23C7ACDF8A6
:1046D00000A03A463046FFF759FF012301934CF6FC
:1046E00059630093E378A27861782078FFF74EFF52
:1046F000A3680193044B009353462A46494640461B
:10470000FFF7A8FEDCE700BF2CE6000810B5044662
:10471000017042804370002303620299083003F065
:10472000CFFB637F0BB10023637723780C2B01D978
:104730000C23237010BD0EB410B583B0044605AB36
:1047400053F8042B01931821083003F017FC0123C0
:10475000636003B0BDE8104003B070472DE9F0433B
:1047600083B0054600F108063046FCF729FA00EB55
:1047700040046400E4B26B78012B28D0022B5FD098
:104780002978C4F1800201EB410189001031002732
:1047900001974FF6FF78CDF800800C2302F0FE025F
:1047A00001F0FC012046FFF7F1FE297801EB410101
:1047B000890010310196344B009343466A8801F01A
:1047C000FC013846FFF746FE03B0BDE8F0832978C8
:1047D000C4F18007C7F3470701EB4101890010319D
:1047E0004FF00009CDF804904FF6FF78CDF8008027
:1047F0000C233A4601F0FC014846FFF7C7FE297832
:1048000001EB4101890010313819CDF80490CDF841
:1048100000800C233A4601F0FC01C0B2FFF7B6FE5F
:10482000297801EB4101890010310196164B009364
:1048300043466A8801F0FC013846FFF70BFEC3E7E8
:104840002978C4F18004E4B201EB41018900103100
:10485000002001904FF6FF7700970C23224601F0CD
:10486000FC01FFF793FE297801EB4101890010312B
:104870000196054B00933B466A8801F0FC012046F7
:10488000FFF7E8FDA0E700BF2CE6000808B500B977
:10489000012000F07DFE002008BD00F10803436008
:1048A0004FF0FF328260C3600361002303607047F2
:1048B00000230361704743684B609A688A605160C7
:1048C00099600861036801330360704730B40D6874
:1048D000B5F1FF3F11D000F108031C465B681A6870
:1048E000AA42FAD963684B6099608C606160086184
:1048F00003680133036030BC70470469F2E7036961
:10490000416882688A60416851605A68824206D074
:10491000002202611A68013A1A60186870478268BA
:104920005A60F5E782B0002301930D4B1B68B3F189
:10493000FF3F08D04FF0500383F31188BFF36F8F10
:10494000BFF34F8FFEE74FF0500383F31188BFF39F
:104950006F8FBFF34F8F019B002BFCD002B07047CD
:104960001800002008480068006880F308884FF0AD
:10497000000080F3148862B661B6BFF34F8FBFF3B7
:104980006F8F00DF00BF000008ED00E0DFF80C00D3
:10499000016841F4700101607047000088ED00E09B
:1049A0004FF0807340F8043C21F0010140F8081CEE
:1049B000054B40F80C3C40F8202C6FF0020340F807
:1049C000243C4438704700BF25490008000000001F
:1049D000074B19680868B0E8F04F80F30988BFF307
:1049E0006F8F4FF0000080F311887047AFF30080A5
:1049F0004C3001204FF0500383F31188BFF36F8FC9
:104A0000BFF34F8F0B4A136801331360012B00D0A3
:104A100070474FF0E023D3F8043D13F0FF0FF7D0B9
:104A20004FF0500383F31188BFF36F8FBFF34F8FA5
:104A3000FEE700BF18000020094B1B6843B94FF088
:104A4000500383F31188BFF36F8FBFF34F8FFEE7DF
:104A5000013B034A13600BB983F31188704700BF11
:104A6000180000200000000000000000000000000E
:104A7000EFF30980BFF36F8F154B1A681EF0100F0C
:104A800008BF20ED108A20E9F04F10602DE90900E1
:104A90004FF0500080F31188BFF34F8FBFF36F8F3B
:104AA00000F09CFD4FF0000080F3118809BC1968EC
:104AB0000868B0E8F04F1EF0100F08BFB0EC108A85
:104AC00080F30988BFF36F8F704700BFAFF300809A
:104AD0004C30012008B54FF0500383F31188BFF329
:104AE0006F8FBFF34F8F00F04BFC28B14FF0E023E6
:104AF0004FF08052C3F8042D002383F3118808BDC2
:104B00004FF0E022002313619361054B1B680549B8
:104B1000A1FB03139B09013B5361072313617047FA
:104B20000C000020D34D62104FF0E023D3F8002D8D
:104B30003D4B9A421CD04FF0E023D3F8002D3B4B65
:104B40009A421ED030B583B0394B1A78D2B2019256
:104B5000FF221A701B78DBB28DF803309DF803300A
:104B600003F05003334A1370334B07221A601BE0E3
:104B70004FF0500383F31188BFF36F8FBFF34F8F54
:104B8000FEE74FF0500383F31188BFF36F8FBFF33D
:104B90004F8FFEE7284A1368013B13609DF80330EE
:104BA0005B00DBB28DF803309DF8033013F0800F0B
:104BB000F0D1214B1B68032B08D04FF0500383F337
:104BC0001188BFF36F8FBFF34F8FFEE71B021A4AA6
:104BD000136003F4E0631360019BDBB2144A1370AB
:104BE0004FF0E024D4F8203D43F47003C4F8203D96
:104BF000D4F8203D43F07043C4F8203DFFF780FF18
:104C000000250E4B1D60FFF7C1FED4F8343F43F082
:104C10004043C4F8343FFFF7A5FE00F0DFFCFFF788
:104C200081FE284603B030BD71C20F4170C20F41F2
:104C300000E400E024B8002028B80020180000207C
:104C4000124A12F0070F1ED0D11D21F00701C1F545
:104C5000F04313440A460E480260002141601344A9
:104C6000083B23F007030B48036059601960991A49
:104C700051601360084B1960084B1960084B4FF0E6
:104C800000421A6070474FF4F043E4E730B8002068
:104C9000443001202CB8002038300120343001206D
:104CA00030300120164B1A461B688342FBD35168F3
:104CB00002EB010C844509D0416800EB010C63450F
:104CC00009D00360904219D01060704740680144D9
:104CD00051601046F0E710B40A4C2468A3420BD090
:104CE0005B681944416013681B680360904200D000
:104CF00010605DF8044B70470460F7E7704700BF31
:104D0000443001202CB8002070B5054600F030FB7F
:104D1000364B1B68A3B1364B1B681D424ED135B1D3
:104D2000083515F0070F02D025F007050835002DCE
:104D300046D0304B1B68AB4251D32F4A146804E075
:104D4000FFF77EFFE7E722461C466368AB4202D2CC
:104D50002368002BF7D1254B1B68A34241D016686E
:104D600008362368136063685B1B102B10D9601929
:104D700010F0070F08D04FF0500383F31188BFF3F2
:104D80006F8FBFF34F8FFEE743606560FFF78AFFC9
:104D9000626818490B689B1A0B60184909688B42B6
:104DA00001D216490B60124B1B681343636000234A
:104DB0002360134A13680133136002E0002600E009
:104DC000002600F069FB16F0070F0CD04FF05003DF
:104DD00083F31188BFF36F8FBFF34F8FFEE7002679
:104DE000EFE70026EDE7304670BD00BF2CB800208D
:104DF000303001203430012044300120383001208F
:104E00003C300120002834D038B50446A0F1080514
:104E100050F8043C174A1268134208D14FF050036F
:104E200083F31188BFF36F8FBFF34F8FFEE750F806
:104E3000081C41B14FF0500383F31188BFF36F8F0B
:104E4000BFF34F8FFEE723EA020340F8043C00F073
:104E50008FFA54F8041C084A13680B441360284660
:104E6000FFF720FF054A13680133136000F014FBBD
:104E700038BD7047303001203430012040300120EF
:104E8000084B1B681B6823B9074B4FF0FF321A60B1
:104E90007047044B1B68DB68DB685A68024B1A607A
:104EA000704700BF50300120243101202DE9F04728
:104EB00007469846089DDDF824900A9C266B02F16F
:104EC0008042013A06EB820626F00706002968D0E8
:104ED0008E464FF0000CBCF10F0F0BD81EF80C20C3
:104EE00004EB0C0383F834201EF80C3013B10CF1E2
:104EF000010CF0E7002384F84330062D00D9062585
:104F0000E56265644FF0000AC4F848A0201DFFF771
:104F1000CFFC04F11800FFF7CBFC2461C5F10705B5
:104F2000A5616462C4F878A484F87CA44FF4856217
:104F3000514604F1500002F00FFE04F54F73636513
:104F400004F56973A36504F20C43E36501220023B1
:104F5000C4E93E2343F20E33A4F800314AF6CD33C0
:104F6000A4F8023141F23423A4F804314EF26D6307
:104F7000A4F806314DF6EC63A4F808310523A4F833
:104F80000A310B23A4F80C31424639463046FFF76C
:104F900007FD2060B9F1000F01D0C9F80040BDE85D
:104FA000F087002384F83430A7E7000038B50024E8
:104FB00007E004EB840293000E481844FFF76DFCF1
:104FC0000134062CF5D90C4D2846FFF766FC0B4C36
:104FD0002046FFF762FC0A48FFF75FFC0948FFF72D
:104FE0005CFC0948FFF759FC084B1D60084B1C602E
:104FF00038BD00BF58300120F83001200C310120AD
:10500000303101205C310120483101205030012035
:105010005430012010B50446FFF7ECFC214A136818
:1050200001331360204B1B685BB1204B1B686BB9CD
:105030001D4B1B68DA6AE36A9A4207D81A4B1C6058
:1050400004E0194B1C601368012B28D0184A136820
:1050500001331360E06A01238340164A11680B4351
:10506000136000EB8000211D134B03EB8000FFF762
:1050700022FCFFF7E1FC0D4B1B687BB10A4B1B6860
:10508000DA6AE36A9A4209D24FF0E0234FF0805285
:10509000C3F8042DBFF34F8FBFF36F8F10BDFFF721
:1050A00085FFD3E7E43001204C300120443101205A
:1050B000F0300120F43001205830012010B50446B2
:1050C000503002F0CBFD94F87D3463B1012B11D048
:1050D000022B0ED04FF0500383F31188BFF36F8F74
:1050E000BFF34F8FFEE7206BFFF78CFE2046FFF7E4
:1050F00089FE10BD2046FFF785FEFAE70F4B1B68BF
:10510000D3B110B5FFF776FC0D4BDB68DC68201DD2
:10511000FFF7F5FB0B4A1368013B1360074A13685E
:10512000013B1360FFF788FC2046FFF7C7FF034BE6
:105130001B68002BE6D110BD704700BFE83001208E
:105140005C310120E430012008B5FFF7D7FF074BA1
:105150001B68012BF9D94FF0E0234FF08052C3F8C0
:10516000042DBFF34F8FBFF36F8FEEE75830012050
:1051700070B504460D461D4B1E681D4B1868043063
:10518000FFF7BDFB50B91A4B1B68DA6A012303FA1B
:1051900002F218490B6823EA02030B60B4F1FF3FE7
:1051A0000DD03444124B1B685C60A64210D9124BE0
:1051B00018680F4B19680431FFF788FB70BD002D8C
:1051C000EFD00B4B196804310C48FFF774FBF5E77F
:1051D0000B4B1868064B19680431FFF777FB094B36
:1051E0001B68A342EAD9074B1C60E7E77031012036
:1051F0004C300120F430012054300120483101208E
:10520000503001202431012030B587B00B9C8CB187
:105210000C9DC5B14FF490650495049DB5F5906F54
:105220001AD04FF0500383F31188BFF36F8FBFF391
:105230004F8FFEE74FF0500383F31188BFF36F8F5A
:10524000BFF34F8FFEE74FF0500383F31188BFF396
:105250006F8FBFF34F8FFEE7049D0C9D2C630224DC
:1052600085F87D4400240394029505AC01940A9CC2
:105270000094FFF71BFE0C98FFF7CCFE059807B0D3
:1052800030BD2DE9F04385B00746884614461E46DA
:105290009000FFF739FD08B381464FF49060FFF7A7
:1052A00033FD0546B0B1C0F83090E5B1002385F874
:1052B0007D34039302950D9B01930C9B0093334621
:1052C000224641463846FFF7F1FD2846FFF7A2FE89
:1052D000012005E04846FFF795FDE6E74FF0FF3077
:1052E00005B0BDE8F0834FF0FF30F9E710B588B0A6
:1052F00000240594069407AA06A905A8FCF790FBCC
:10530000059B0293069B019300942346079A10493C
:105310001048FFF779FF104B1860B8B14FF05003F9
:1053200083F31188BFF36F8FBFF34F8F0B4B1B6855
:1053300050330B4A13600B4B4FF0FF321A600A4B8D
:1053400001221A60094B1C60FFF7EEFB08B010BD8C
:1053500030E6000849510008203101204C3001207E
:1053600078000020243101204431012070310120D7
:10537000024A136801331360704700BFEC3001200C
:10538000F8B53A4B1B68002B69D1394B1D680135C4
:105390001D60C5B9374B1B681B6843B14FF0500304
:1053A00083F31188BFF36F8FBFF34F8FFEE7314A4E
:1053B0001168314B186810601960304A1368013366
:1053C0001360FFF75DFD2E4B1B68AB423DD90027F4
:1053D0002C4B1B68DB6A03EB83039A002A4B9B5818
:1053E000012B00D90127294B1B68002B3CD001273A
:1053F0003AE001271F4B1B681B6843B31D4B1B681A
:10540000DB68DC6863689D4226D3261D3046FFF7C3
:1054100076FAA36A1BB104F11800FFF770FAE36A89
:1054200001229A401A49086802430A6003EB830389
:105430009A00314614481044FFF73DFAE26A114BD6
:105440001B68DB6A9A42D4D2D4E70027D2E70C4B20
:105450004FF0FF321A60BBE7094A1360B8E70D4A04
:1054600013680133136000273846F8BDEC30012083
:1054700070310120503001205430012028310120AA
:10548000243101204C30012058300120743101209A
:10549000F43001202C31012038B5354B1B6843B95D
:1054A0004FF0500383F31188BFF36F8FBFF34F8F1B
:1054B000FEE7FFF79FFA2E4B1A68013A1A601B6845
:1054C000002B4FD12B4B1B680BB900244BE0002461
:1054D000294B1B681BB3284BDB68DC6804F1180000
:1054E000FFF70DFA251D2846FFF709FAE06A0123A8
:1054F0008340224A11680B43136000EB8000294669
:105500001F4B03EB8000FFF7D6F9E26A1D4B1B68C7
:10551000DB6A9A42DCD31C4B01221A60D8E70CB13B
:10552000FFF7AEFC194B1C6884B9174B1C68D4B14B
:105530004FF0E0234FF08052C3F8042DBFF34F8F9C
:10554000BFF36F8F01240EE0013C07D0FFF718FF77
:105550000028F9D00C4B01221A60F5E70B4B002212
:105560001A60E2E70024FFF767FA204638BD00BF63
:10557000EC300120E430012030310120F4300120F2
:10558000583001204C300120743101202C31012091
:1055900010B5A8B10446104B1B6843B14FF050033F
:1055A00083F31188BFF36F8FBFF34F8FFEE7FFF7D1
:1055B000DFFE00212046FFF7DBFDFFF76DFF48B956
:1055C0004FF0E0234FF08052C3F8042DBFF34F8F0C
:1055D000BFF36F8F10BD00BFEC300120224B1B6862
:1055E0001BB1224B01221A607047204B00221A6027
:1055F0001F4B1B68B3FA83F3DBB2C3F11F0303EB4A
:1056000083018A001B498A5842B94FF0500383F343
:105610001188BFF36F8FBFF34F8FFEE7154903EB80
:10562000830082000A4450684068506003EB830C9A
:105630004FEA8C020832114488420DD003EB8303F9
:105640009A000C4B13445B68DA680B4B1A601B68BA
:1056500050330A4A13607047406862469100054A19
:105660000A445060EAE700BFEC30012074310120A9
:10567000F4300120583001204C3001207800002007
:10568000F0B585B08446002531E00132C5F107034D
:1056900093422BDD02EB82035E000CEB43043CF8EB
:1056A0001310531C03EB83035F000CEB430E3CF819
:1056B00013309942E9D901AB5CF80600616803C375
:1056C000218919805CF80710DEF804304CF80610C8
:1056D0006360BEF80830238101AB03CB4CF80700B0
:1056E000CEF804101B88AEF80830CEE70135072D40
:1056F00001DC0022CAE705B0F0BD84B00DF1100C4A
:105700000CE90E000023072B16DC03EB830200EBF1
:10571000420C30F81210BDF80420914201D0013340
:10572000F1E701AB03CBCCF80000CCF804101B88E8
:10573000ACF80830002000E0012004B0704770B5DC
:1057400084B005460C4601F07EFD08B904B070BD7A
:1057500001AE0A223146284601F036FD96E80E00D9
:105760002046FFF7CAFF18B92046FFF789FFEDE78B
:10577000334603CB206061601B882381F4E708B5C2
:105780005022002102F0E8F908BD000000B583B006
:105790000190002210210548FDF701FD012201A919
:1057A0000348FEF74BF903B05DF804FB0004024028
:1057B0002412002000B583B0019001221021054879
:1057C000FDF7EDFC012201A90348FEF737F903B00C
:1057D0005DF804FB0004024024120020F8B5871C89
:1057E000961C4D1C5C1C2A20FFF7D0FF380AFFF7DF
:1057F000E1FFF8B2FFF7DEFF300AFFF7DBFFF0B2A0
:10580000FFF7D8FF2B20FFF7C1FF280AFFF7D2FFD1
:10581000E8B2FFF7CFFF200AFFF7CCFFE0B2FFF7B7
:10582000C9FF2C20FFF7B2FF012210210148FDF72C
:10583000B6FCF8BD0004024008B5013807280ED8B0
:10584000DFE800F0040E18222C36404A3620FFF71D
:105850009DFF0820FFF7AEFF2C20FFF797FF08BD44
:105860003620FFF793FF8020FFF7A4FF2C20FFF7DF
:105870008DFFF4E73620FFF789FF4020FFF79AFFFE
:105880002C20FFF783FFEAE73620FFF77FFFC820D1
:10589000FFF790FF2C20FFF779FFE0E73620FFF7B6
:1058A00075FF2020FFF786FF2C20FFF76FFFD6E75C
:1058B0003620FFF76BFF6020FFF77CFF2C20FFF7FF
:1058C00065FFCCE73620FFF761FFA020FFF772FFEE
:1058D0002C20FFF75BFFC2E73620FFF757FFE020E1
:1058E000FFF768FF2C20FFF751FFB8E710B57D4C9C
:1058F000012240212046FDF752FC0120FCF788FDE3
:10590000002240212046FDF74AFC0120FCF780FDE3
:10591000012240212046FDF742FC7820FCF778FD6B
:105920001120FFF733FF7820FCF772FDB120FFF75D
:105930002DFF0520FFF73EFF3C20FFF73BFF3C20FB
:10594000FFF738FFB220FFF721FF0520FFF732FFF6
:105950003C20FFF72FFF3C20FFF72CFFB320FFF781
:1059600015FF0520FFF726FF3C20FFF723FF3C2013
:10597000FFF720FF0520FFF71DFF3C20FFF71AFF70
:105980003C20FFF717FFB420FFF700FF0320FFF7CD
:1059900011FFC020FFF7FAFE2820FFF70BFF0820B9
:1059A000FFF708FF0420FFF705FFC120FFF7EEFE19
:1059B000C020FFF7FFFEC220FFF7E8FE0D20FFF733
:1059C000F9FE0020FFF7F6FEC320FFF7DFFE8D2073
:1059D000FFF7F0FE2A20FFF7EDFEC420FFF7D6FE0A
:1059E0008D20FFF7E7FEEE20FFF7E4FEC520FFF76E
:1059F000CDFE1A20FFF7DEFE3620FFF7C7FEC820D7
:105A0000FFF7D8FEE020FFF7C1FE0420FFF7D2FE2B
:105A10002220FFF7CFFE0720FFF7CCFE0A20FFF77A
:105A2000C9FE2E20FFF7C6FE3020FFF7C3FE25205B
:105A3000FFF7C0FE2A20FFF7BDFE2820FFF7BAFEC1
:105A40002620FFF7B7FE2E20FFF7B4FE3A20FFF71F
:105A5000B1FE0020FFF7AEFE0120FFF7ABFE0320F2
:105A6000FFF7A8FE1320FFF7A5FEE120FFF78EFE4B
:105A70000420FFF79FFE1620FFF79CFE0620FFF78D
:105A800099FE0D20FFF796FE2D20FFF793FE2620AE
:105A9000FFF790FE2320FFF78DFE2720FFF78AFEF9
:105AA0002720FFF787FE2520FFF784FE2D20FFF734
:105AB00081FE3B20FFF77EFE0020FFF77BFE0120EA
:105AC000FFF778FE0420FFF775FE1320FFF772FE44
:105AD0003A20FFF75BFE0520FFF76CFE2920FFF759
:105AE00055FE10BD0004024008B500F0DFFC0023A5
:105AF000024A1370024A137008BD00BF7C320120B5
:105B00007831012008B50248FFF739FE08BD00BF13
